{
	"Revolt.sol": {
		"RevoltCoin": {
			"abi": [
				{
					"inputs": [],
					"stateMutability": "nonpayable",
					"type": "constructor"
				},
				{
					"anonymous": false,
					"inputs": [
						{
							"indexed": true,
							"internalType": "address",
							"name": "recipient",
							"type": "address"
						},
						{
							"indexed": false,
							"internalType": "uint256",
							"name": "amount",
							"type": "uint256"
						}
					],
					"name": "Airdrop",
					"type": "event"
				},
				{
					"anonymous": false,
					"inputs": [
						{
							"indexed": true,
							"internalType": "address",
							"name": "owner",
							"type": "address"
						},
						{
							"indexed": true,
							"internalType": "address",
							"name": "spender",
							"type": "address"
						},
						{
							"indexed": false,
							"internalType": "uint256",
							"name": "value",
							"type": "uint256"
						}
					],
					"name": "Approval",
					"type": "event"
				},
				{
					"anonymous": false,
					"inputs": [
						{
							"indexed": false,
							"internalType": "address",
							"name": "account",
							"type": "address"
						}
					],
					"name": "ExcludeFromFee",
					"type": "event"
				},
				{
					"anonymous": false,
					"inputs": [
						{
							"indexed": false,
							"internalType": "address",
							"name": "previousRecipient",
							"type": "address"
						},
						{
							"indexed": false,
							"internalType": "address",
							"name": "newRecipient",
							"type": "address"
						}
					],
					"name": "FeeRecipientUpdated",
					"type": "event"
				},
				{
					"anonymous": false,
					"inputs": [
						{
							"indexed": false,
							"internalType": "address",
							"name": "account",
							"type": "address"
						}
					],
					"name": "IncludeInFee",
					"type": "event"
				},
				{
					"anonymous": false,
					"inputs": [
						{
							"indexed": true,
							"internalType": "address",
							"name": "previousOwner",
							"type": "address"
						},
						{
							"indexed": true,
							"internalType": "address",
							"name": "newOwner",
							"type": "address"
						}
					],
					"name": "OwnerUpdated",
					"type": "event"
				},
				{
					"anonymous": false,
					"inputs": [
						{
							"indexed": true,
							"internalType": "address",
							"name": "previousOwner",
							"type": "address"
						},
						{
							"indexed": true,
							"internalType": "address",
							"name": "newOwner",
							"type": "address"
						}
					],
					"name": "OwnershipTransferred",
					"type": "event"
				},
				{
					"anonymous": false,
					"inputs": [
						{
							"indexed": false,
							"internalType": "address",
							"name": "account",
							"type": "address"
						}
					],
					"name": "Paused",
					"type": "event"
				},
				{
					"anonymous": false,
					"inputs": [
						{
							"indexed": true,
							"internalType": "address",
							"name": "from",
							"type": "address"
						},
						{
							"indexed": true,
							"internalType": "address",
							"name": "to",
							"type": "address"
						},
						{
							"indexed": false,
							"internalType": "uint256",
							"name": "value",
							"type": "uint256"
						}
					],
					"name": "Transfer",
					"type": "event"
				},
				{
					"anonymous": false,
					"inputs": [
						{
							"indexed": false,
							"internalType": "uint256",
							"name": "previousFee",
							"type": "uint256"
						},
						{
							"indexed": false,
							"internalType": "uint256",
							"name": "newFee",
							"type": "uint256"
						}
					],
					"name": "TransferFeePercentUpdated",
					"type": "event"
				},
				{
					"anonymous": false,
					"inputs": [
						{
							"indexed": false,
							"internalType": "address",
							"name": "account",
							"type": "address"
						}
					],
					"name": "Unpaused",
					"type": "event"
				},
				{
					"inputs": [],
					"name": "MAX_SUPPLY",
					"outputs": [
						{
							"internalType": "uint256",
							"name": "",
							"type": "uint256"
						}
					],
					"stateMutability": "view",
					"type": "function"
				},
				{
					"inputs": [
						{
							"internalType": "address[]",
							"name": "recipients",
							"type": "address[]"
						},
						{
							"internalType": "uint256[]",
							"name": "amounts",
							"type": "uint256[]"
						}
					],
					"name": "airdrop",
					"outputs": [],
					"stateMutability": "nonpayable",
					"type": "function"
				},
				{
					"inputs": [
						{
							"internalType": "address",
							"name": "owner",
							"type": "address"
						},
						{
							"internalType": "address",
							"name": "spender",
							"type": "address"
						}
					],
					"name": "allowance",
					"outputs": [
						{
							"internalType": "uint256",
							"name": "",
							"type": "uint256"
						}
					],
					"stateMutability": "view",
					"type": "function"
				},
				{
					"inputs": [
						{
							"internalType": "address",
							"name": "spender",
							"type": "address"
						},
						{
							"internalType": "uint256",
							"name": "amount",
							"type": "uint256"
						}
					],
					"name": "approve",
					"outputs": [
						{
							"internalType": "bool",
							"name": "",
							"type": "bool"
						}
					],
					"stateMutability": "nonpayable",
					"type": "function"
				},
				{
					"inputs": [
						{
							"internalType": "address",
							"name": "account",
							"type": "address"
						}
					],
					"name": "balanceOf",
					"outputs": [
						{
							"internalType": "uint256",
							"name": "",
							"type": "uint256"
						}
					],
					"stateMutability": "view",
					"type": "function"
				},
				{
					"inputs": [],
					"name": "decimals",
					"outputs": [
						{
							"internalType": "uint8",
							"name": "",
							"type": "uint8"
						}
					],
					"stateMutability": "view",
					"type": "function"
				},
				{
					"inputs": [
						{
							"internalType": "address",
							"name": "spender",
							"type": "address"
						},
						{
							"internalType": "uint256",
							"name": "subtractedValue",
							"type": "uint256"
						}
					],
					"name": "decreaseAllowance",
					"outputs": [
						{
							"internalType": "bool",
							"name": "",
							"type": "bool"
						}
					],
					"stateMutability": "nonpayable",
					"type": "function"
				},
				{
					"inputs": [],
					"name": "deployer",
					"outputs": [
						{
							"internalType": "address",
							"name": "",
							"type": "address"
						}
					],
					"stateMutability": "view",
					"type": "function"
				},
				{
					"inputs": [
						{
							"internalType": "address",
							"name": "account",
							"type": "address"
						}
					],
					"name": "excludeFromFee",
					"outputs": [],
					"stateMutability": "nonpayable",
					"type": "function"
				},
				{
					"inputs": [],
					"name": "feeRecipient",
					"outputs": [
						{
							"internalType": "address",
							"name": "",
							"type": "address"
						}
					],
					"stateMutability": "view",
					"type": "function"
				},
				{
					"inputs": [
						{
							"internalType": "address",
							"name": "account",
							"type": "address"
						}
					],
					"name": "includeInFee",
					"outputs": [],
					"stateMutability": "nonpayable",
					"type": "function"
				},
				{
					"inputs": [
						{
							"internalType": "address",
							"name": "spender",
							"type": "address"
						},
						{
							"internalType": "uint256",
							"name": "addedValue",
							"type": "uint256"
						}
					],
					"name": "increaseAllowance",
					"outputs": [
						{
							"internalType": "bool",
							"name": "",
							"type": "bool"
						}
					],
					"stateMutability": "nonpayable",
					"type": "function"
				},
				{
					"inputs": [
						{
							"internalType": "address",
							"name": "to",
							"type": "address"
						},
						{
							"internalType": "uint256",
							"name": "amount",
							"type": "uint256"
						}
					],
					"name": "mint",
					"outputs": [],
					"stateMutability": "nonpayable",
					"type": "function"
				},
				{
					"inputs": [],
					"name": "name",
					"outputs": [
						{
							"internalType": "string",
							"name": "",
							"type": "string"
						}
					],
					"stateMutability": "view",
					"type": "function"
				},
				{
					"inputs": [],
					"name": "owner",
					"outputs": [
						{
							"internalType": "address",
							"name": "",
							"type": "address"
						}
					],
					"stateMutability": "view",
					"type": "function"
				},
				{
					"inputs": [
						{
							"internalType": "address",
							"name": "newOwner",
							"type": "address"
						}
					],
					"name": "ownerTransfer",
					"outputs": [],
					"stateMutability": "nonpayable",
					"type": "function"
				},
				{
					"inputs": [],
					"name": "pause",
					"outputs": [],
					"stateMutability": "nonpayable",
					"type": "function"
				},
				{
					"inputs": [],
					"name": "paused",
					"outputs": [
						{
							"internalType": "bool",
							"name": "",
							"type": "bool"
						}
					],
					"stateMutability": "view",
					"type": "function"
				},
				{
					"inputs": [],
					"name": "renounceOwnership",
					"outputs": [],
					"stateMutability": "nonpayable",
					"type": "function"
				},
				{
					"inputs": [
						{
							"internalType": "address",
							"name": "newRecipient",
							"type": "address"
						}
					],
					"name": "setFeeRecipient",
					"outputs": [],
					"stateMutability": "nonpayable",
					"type": "function"
				},
				{
					"inputs": [
						{
							"internalType": "uint256",
							"name": "newFee",
							"type": "uint256"
						}
					],
					"name": "setTransferFeePercent",
					"outputs": [],
					"stateMutability": "nonpayable",
					"type": "function"
				},
				{
					"inputs": [],
					"name": "symbol",
					"outputs": [
						{
							"internalType": "string",
							"name": "",
							"type": "string"
						}
					],
					"stateMutability": "view",
					"type": "function"
				},
				{
					"inputs": [],
					"name": "totalSupply",
					"outputs": [
						{
							"internalType": "uint256",
							"name": "",
							"type": "uint256"
						}
					],
					"stateMutability": "view",
					"type": "function"
				},
				{
					"inputs": [
						{
							"internalType": "address",
							"name": "to",
							"type": "address"
						},
						{
							"internalType": "uint256",
							"name": "amount",
							"type": "uint256"
						}
					],
					"name": "transfer",
					"outputs": [
						{
							"internalType": "bool",
							"name": "",
							"type": "bool"
						}
					],
					"stateMutability": "nonpayable",
					"type": "function"
				},
				{
					"inputs": [],
					"name": "transferFeePercent",
					"outputs": [
						{
							"internalType": "uint256",
							"name": "",
							"type": "uint256"
						}
					],
					"stateMutability": "view",
					"type": "function"
				},
				{
					"inputs": [
						{
							"internalType": "address",
							"name": "from",
							"type": "address"
						},
						{
							"internalType": "address",
							"name": "to",
							"type": "address"
						},
						{
							"internalType": "uint256",
							"name": "amount",
							"type": "uint256"
						}
					],
					"name": "transferFrom",
					"outputs": [
						{
							"internalType": "bool",
							"name": "",
							"type": "bool"
						}
					],
					"stateMutability": "nonpayable",
					"type": "function"
				},
				{
					"inputs": [
						{
							"internalType": "address",
							"name": "newOwner",
							"type": "address"
						}
					],
					"name": "transferOwnership",
					"outputs": [],
					"stateMutability": "nonpayable",
					"type": "function"
				},
				{
					"inputs": [],
					"name": "unpause",
					"outputs": [],
					"stateMutability": "nonpayable",
					"type": "function"
				}
			],
			"devdoc": {
				"events": {
					"Approval(address,address,uint256)": {
						"details": "Emitted when the allowance of a `spender` for an `owner` is set by a call to {approve}. `value` is the new allowance."
					},
					"Paused(address)": {
						"details": "Emitted when the pause is triggered by `account`."
					},
					"Transfer(address,address,uint256)": {
						"details": "Emitted when `value` tokens are moved from one account (`from`) to another (`to`). Note that `value` may be zero."
					},
					"Unpaused(address)": {
						"details": "Emitted when the pause is lifted by `account`."
					}
				},
				"kind": "dev",
				"methods": {
					"airdrop(address[],uint256[])": {
						"params": {
							"amounts": "每个地址对应的空投数量（最小单位）",
							"recipients": "接收地址列表"
						}
					},
					"allowance(address,address)": {
						"details": "See {IERC20-allowance}."
					},
					"approve(address,uint256)": {
						"details": "See {IERC20-approve}. NOTE: If `amount` is the maximum `uint256`, the allowance is not updated on `transferFrom`. This is semantically equivalent to an infinite approval. Requirements: - `spender` cannot be the zero address."
					},
					"balanceOf(address)": {
						"details": "See {IERC20-balanceOf}."
					},
					"decimals()": {
						"details": "Returns the number of decimals used to get its user representation. For example, if `decimals` equals `2`, a balance of `505` tokens should be displayed to a user as `5.05` (`505 / 10 ** 2`). Tokens usually opt for a value of 18, imitating the relationship between Ether and Wei. This is the default value returned by this function, unless it's overridden. NOTE: This information is only used for _display_ purposes: it in no way affects any of the arithmetic of the contract, including {IERC20-balanceOf} and {IERC20-transfer}."
					},
					"decreaseAllowance(address,uint256)": {
						"details": "Atomically decreases the allowance granted to `spender` by the caller. This is an alternative to {approve} that can be used as a mitigation for problems described in {IERC20-approve}. Emits an {Approval} event indicating the updated allowance. Requirements: - `spender` cannot be the zero address. - `spender` must have allowance for the caller of at least `subtractedValue`."
					},
					"increaseAllowance(address,uint256)": {
						"details": "Atomically increases the allowance granted to `spender` by the caller. This is an alternative to {approve} that can be used as a mitigation for problems described in {IERC20-approve}. Emits an {Approval} event indicating the updated allowance. Requirements: - `spender` cannot be the zero address."
					},
					"name()": {
						"details": "Returns the name of the token."
					},
					"owner()": {
						"details": "Returns the address of the current owner."
					},
					"ownerTransfer(address)": {
						"params": {
							"newOwner": "新所有者地址"
						}
					},
					"paused()": {
						"details": "Returns true if the contract is paused, and false otherwise."
					},
					"renounceOwnership()": {
						"details": "Leaves the contract without owner. It will not be possible to call `onlyOwner` functions. Can only be called by the current owner. NOTE: Renouncing ownership will leave the contract without an owner, thereby disabling any functionality that is only available to the owner."
					},
					"symbol()": {
						"details": "Returns the symbol of the token, usually a shorter version of the name."
					},
					"totalSupply()": {
						"details": "See {IERC20-totalSupply}."
					},
					"transferFrom(address,address,uint256)": {
						"details": "See {IERC20-transferFrom}. Emits an {Approval} event indicating the updated allowance. This is not required by the EIP. See the note at the beginning of {ERC20}. NOTE: Does not update the allowance if the current allowance is the maximum `uint256`. Requirements: - `from` and `to` cannot be the zero address. - `from` must have a balance of at least `amount`. - the caller must have allowance for ``from``'s tokens of at least `amount`."
					},
					"transferOwnership(address)": {
						"details": "Transfers ownership of the contract to a new account (`newOwner`). Can only be called by the current owner."
					}
				},
				"version": 1
			},
			"evm": {
				"assembly": "    /* \"Revolt.sol\":539:6748  contract RevoltCoin is ERC20, Ownable, Pausable, ReentrancyGuard {... */\n  mstore(0x40, 0xa0)\n    /* \"Revolt.sol\":820:821  2 */\n  0x02\n    /* \"Revolt.sol\":784:821  uint256 public transferFeePercent = 2 */\n  0x07\n  sstore\n    /* \"Revolt.sol\":1423:1974  constructor() ERC20(\"RevoltCoin\", \"Revolt\") {... */\n  callvalue\n  dup1\n  iszero\n  tag_1\n  jumpi\n  0x00\n  dup1\n  revert\ntag_1:\n  pop\n    /* \"https://raw.githubusercontent.com/OpenZeppelin/openzeppelin-contracts/v4.9.3/contracts/token/ERC20/ERC20.sol\":1980:2093  constructor(string memory name_, string memory symbol_) {... */\n  mload(0x40)\n  dup1\n  0x40\n  add\n  0x40\n  mstore\n  dup1\n  0x0a\n  dup2\n  mstore\n  0x20\n  add\n  shl(0xb1, 0x2932bb37b63a21b7b4b7)\n  dup2\n  mstore\n  pop\n  mload(0x40)\n  dup1\n  0x40\n  add\n  0x40\n  mstore\n  dup1\n  0x06\n  dup2\n  mstore\n  0x20\n  add\n  shl(0xd2, 0x14995d9bdb1d)\n  dup2\n  mstore\n  pop\n    /* \"https://raw.githubusercontent.com/OpenZeppelin/openzeppelin-contracts/v4.9.3/contracts/token/ERC20/ERC20.sol\":2054:2059  name_ */\n  dup2\n    /* \"https://raw.githubusercontent.com/OpenZeppelin/openzeppelin-contracts/v4.9.3/contracts/token/ERC20/ERC20.sol\":2046:2051  _name */\n  0x03\n    /* \"https://raw.githubusercontent.com/OpenZeppelin/openzeppelin-contracts/v4.9.3/contracts/token/ERC20/ERC20.sol\":2046:2059  _name = name_ */\n  swap1\n  dup2\n  tag_8\n  swap2\n  swap1\n  tag_9\n  jump\t// in\ntag_8:\n  pop\n    /* \"https://raw.githubusercontent.com/OpenZeppelin/openzeppelin-contracts/v4.9.3/contracts/token/ERC20/ERC20.sol\":2069:2076  _symbol */\n  0x04\n    /* \"https://raw.githubusercontent.com/OpenZeppelin/openzeppelin-contracts/v4.9.3/contracts/token/ERC20/ERC20.sol\":2069:2086  _symbol = symbol_ */\n  tag_10\n    /* \"https://raw.githubusercontent.com/OpenZeppelin/openzeppelin-contracts/v4.9.3/contracts/token/ERC20/ERC20.sol\":2079:2086  symbol_ */\n  dup3\n    /* \"https://raw.githubusercontent.com/OpenZeppelin/openzeppelin-contracts/v4.9.3/contracts/token/ERC20/ERC20.sol\":2069:2076  _symbol */\n  dup3\n    /* \"https://raw.githubusercontent.com/OpenZeppelin/openzeppelin-contracts/v4.9.3/contracts/token/ERC20/ERC20.sol\":2069:2086  _symbol = symbol_ */\n  tag_9\n  jump\t// in\ntag_10:\n  pop\n    /* \"https://raw.githubusercontent.com/OpenZeppelin/openzeppelin-contracts/v4.9.3/contracts/token/ERC20/ERC20.sol\":1980:2093  constructor(string memory name_, string memory symbol_) {... */\n  pop\n  pop\n    /* \"https://raw.githubusercontent.com/OpenZeppelin/openzeppelin-contracts/v4.9.3/contracts/access/Ownable.sol\":936:968  _transferOwnership(_msgSender()) */\n  tag_12\n    /* \"https://raw.githubusercontent.com/OpenZeppelin/openzeppelin-contracts/v4.9.3/contracts/access/Ownable.sol\":955:967  _msgSender() */\n  tag_13\n    /* \"https://raw.githubusercontent.com/OpenZeppelin/openzeppelin-contracts/v4.9.3/contracts/access/Ownable.sol\":955:965  _msgSender */\n  shl(0x20, tag_14)\n    /* \"https://raw.githubusercontent.com/OpenZeppelin/openzeppelin-contracts/v4.9.3/contracts/access/Ownable.sol\":955:967  _msgSender() */\n  0x20\n  shr\n  jump\t// in\ntag_13:\n    /* \"https://raw.githubusercontent.com/OpenZeppelin/openzeppelin-contracts/v4.9.3/contracts/access/Ownable.sol\":936:954  _transferOwnership */\n  tag_15\n    /* \"https://raw.githubusercontent.com/OpenZeppelin/openzeppelin-contracts/v4.9.3/contracts/access/Ownable.sol\":936:968  _transferOwnership(_msgSender()) */\n  jump\t// in\ntag_12:\n    /* \"https://raw.githubusercontent.com/OpenZeppelin/openzeppelin-contracts/v4.9.3/contracts/security/Pausable.sol\":996:1003  _paused */\n  0x05\n    /* \"https://raw.githubusercontent.com/OpenZeppelin/openzeppelin-contracts/v4.9.3/contracts/security/Pausable.sol\":996:1011  _paused = false */\n  dup1\n  sload\n  not(shl(0xa0, 0xff))\n  and\n  swap1\n  sstore\n  0x01\n    /* \"https://raw.githubusercontent.com/OpenZeppelin/openzeppelin-contracts/v4.9.3/contracts/security/ReentrancyGuard.sol\":1821:1828  _status */\n  0x06\n    /* \"https://raw.githubusercontent.com/OpenZeppelin/openzeppelin-contracts/v4.9.3/contracts/security/ReentrancyGuard.sol\":1821:1843  _status = _NOT_ENTERED */\n  dup2\n  swap1\n  sstore\n    /* \"Revolt.sol\":1521:1531  msg.sender */\n  caller\n    /* \"Revolt.sol\":1510:1531  deployer = msg.sender */\n  0x80\n  dup2\n  swap1\n  mstore\n    /* \"Revolt.sol\":1589:1601  feeRecipient */\n  0x08\n    /* \"Revolt.sol\":1589:1614  feeRecipient = msg.sender */\n  dup1\n  sload\n  not(sub(shl(0xa0, 0x01), 0x01))\n  and\n  swap1\n  swap2\n  or\n  swap1\n  sstore\n    /* \"Revolt.sol\":1678:1696  _isExcludedFromFee */\n  0x09\n    /* \"https://raw.githubusercontent.com/OpenZeppelin/openzeppelin-contracts/v4.9.3/contracts/security/Pausable.sol\":1006:1011  false */\n  0x00\n    /* \"Revolt.sol\":1697:1704  owner() */\n  tag_19\n    /* \"https://raw.githubusercontent.com/OpenZeppelin/openzeppelin-contracts/v4.9.3/contracts/access/Ownable.sol\":1273:1279  _owner */\n  and(sub(shl(0xa0, 0x01), 0x01), sload(0x05))\n  swap1\n    /* \"https://raw.githubusercontent.com/OpenZeppelin/openzeppelin-contracts/v4.9.3/contracts/access/Ownable.sol\":1201:1286  function owner() public view virtual returns (address) {... */\n  jump\n    /* \"Revolt.sol\":1697:1704  owner() */\ntag_19:\n  sub(shl(0xa0, 0x01), 0x01)\n    /* \"Revolt.sol\":1678:1705  _isExcludedFromFee[owner()] */\n  swap1\n  dup2\n  and\n  dup3\n  mstore\n  0x20\n  dup1\n  dup4\n  add\n  swap4\n  swap1\n  swap4\n  mstore\n  0x40\n  swap2\n  dup3\n  add\n  0x00\n  swap1\n  dup2\n  keccak256\n    /* \"Revolt.sol\":1678:1712  _isExcludedFromFee[owner()] = true */\n  dup1\n  sload\n  swap6\n  iszero\n  iszero\n  not(0xff)\n  swap7\n  dup8\n  and\n  or\n  swap1\n  sstore\n    /* \"Revolt.sol\":1741:1753  feeRecipient */\n  sload(0x08)\n  swap1\n  swap2\n  and\n    /* \"Revolt.sol\":1722:1754  _isExcludedFromFee[feeRecipient] */\n  dup2\n  mstore\n    /* \"Revolt.sol\":1722:1740  _isExcludedFromFee */\n  0x09\n    /* \"Revolt.sol\":1722:1754  _isExcludedFromFee[feeRecipient] */\n  swap1\n  swap3\n  mstore\n  dup2\n  keccak256\n    /* \"Revolt.sol\":1722:1761  _isExcludedFromFee[feeRecipient] = true */\n  dup1\n  sload\n  swap1\n  swap3\n  and\n    /* \"Revolt.sol\":1678:1712  _isExcludedFromFee[owner()] = true */\n  0x01\n    /* \"Revolt.sol\":1722:1761  _isExcludedFromFee[feeRecipient] = true */\n  or\n  swap1\n  swap2\n  sstore\n    /* \"Revolt.sol\":1915:1925  decimals() */\n  tag_21\n    /* \"https://raw.githubusercontent.com/OpenZeppelin/openzeppelin-contracts/v4.9.3/contracts/token/ERC20/ERC20.sol\":3186:3188  18 */\n  0x12\n  swap1\n    /* \"https://raw.githubusercontent.com/OpenZeppelin/openzeppelin-contracts/v4.9.3/contracts/token/ERC20/ERC20.sol\":3104:3195  function decimals() public view virtual override returns (uint8) {... */\n  jump\n    /* \"Revolt.sol\":1915:1925  decimals() */\ntag_21:\n    /* \"Revolt.sol\":1909:1925  10 ** decimals() */\n  tag_23\n  swap1\n    /* \"Revolt.sol\":1909:1911  10 */\n  0x0a\n    /* \"Revolt.sol\":1909:1925  10 ** decimals() */\n  tag_24\n  jump\t// in\ntag_23:\n    /* \"Revolt.sol\":1897:1925  1_000_000 * 10 ** decimals() */\n  tag_25\n  swap1\n    /* \"Revolt.sol\":1897:1906  1_000_000 */\n  0x0f4240\n    /* \"Revolt.sol\":1897:1925  1_000_000 * 10 ** decimals() */\n  tag_26\n  jump\t// in\ntag_25:\n    /* \"Revolt.sol\":1873:1925  uint256 initialSupply = 1_000_000 * 10 ** decimals() */\n  swap1\n  pop\n    /* \"Revolt.sol\":1935:1967  _mint(msg.sender, initialSupply) */\n  tag_27\n    /* \"Revolt.sol\":1941:1951  msg.sender */\n  caller\n    /* \"Revolt.sol\":1873:1925  uint256 initialSupply = 1_000_000 * 10 ** decimals() */\n  dup3\n    /* \"Revolt.sol\":1935:1940  _mint */\n  tag_28\n    /* \"Revolt.sol\":1935:1967  _mint(msg.sender, initialSupply) */\n  jump\t// in\ntag_27:\n    /* \"Revolt.sol\":1467:1974  {... */\n  pop\n    /* \"Revolt.sol\":539:6748  contract RevoltCoin is ERC20, Ownable, Pausable, ReentrancyGuard {... */\n  jump(tag_65)\n    /* \"https://raw.githubusercontent.com/OpenZeppelin/openzeppelin-contracts/v4.9.3/contracts/utils/Context.sol\":640:736  function _msgSender() internal view virtual returns (address) {... */\ntag_14:\n    /* \"https://raw.githubusercontent.com/OpenZeppelin/openzeppelin-contracts/v4.9.3/contracts/utils/Context.sol\":719:729  msg.sender */\n  caller\n  swap1\n    /* \"https://raw.githubusercontent.com/OpenZeppelin/openzeppelin-contracts/v4.9.3/contracts/utils/Context.sol\":640:736  function _msgSender() internal view virtual returns (address) {... */\n  jump\t// out\n    /* \"https://raw.githubusercontent.com/OpenZeppelin/openzeppelin-contracts/v4.9.3/contracts/access/Ownable.sol\":2426:2613  function _transferOwnership(address newOwner) internal virtual {... */\ntag_15:\n    /* \"https://raw.githubusercontent.com/OpenZeppelin/openzeppelin-contracts/v4.9.3/contracts/access/Ownable.sol\":2518:2524  _owner */\n  0x05\n  dup1\n  sload\n  sub(shl(0xa0, 0x01), 0x01)\n    /* \"https://raw.githubusercontent.com/OpenZeppelin/openzeppelin-contracts/v4.9.3/contracts/access/Ownable.sol\":2534:2551  _owner = newOwner */\n  dup4\n  dup2\n  and\n  not(sub(shl(0xa0, 0x01), 0x01))\n  dup4\n  and\n  dup2\n  or\n  swap1\n  swap4\n  sstore\n    /* \"https://raw.githubusercontent.com/OpenZeppelin/openzeppelin-contracts/v4.9.3/contracts/access/Ownable.sol\":2566:2606  OwnershipTransferred(oldOwner, newOwner) */\n  mload(0x40)\n    /* \"https://raw.githubusercontent.com/OpenZeppelin/openzeppelin-contracts/v4.9.3/contracts/access/Ownable.sol\":2518:2524  _owner */\n  swap2\n  and\n  swap2\n    /* \"https://raw.githubusercontent.com/OpenZeppelin/openzeppelin-contracts/v4.9.3/contracts/access/Ownable.sol\":2534:2551  _owner = newOwner */\n  swap1\n    /* \"https://raw.githubusercontent.com/OpenZeppelin/openzeppelin-contracts/v4.9.3/contracts/access/Ownable.sol\":2518:2524  _owner */\n  dup3\n  swap1\n    /* \"https://raw.githubusercontent.com/OpenZeppelin/openzeppelin-contracts/v4.9.3/contracts/access/Ownable.sol\":2566:2606  OwnershipTransferred(oldOwner, newOwner) */\n  0x8be0079c531659141344cd1fd0a4f28419497f9722a3daafe3b4186f6b6457e0\n  swap1\n    /* \"https://raw.githubusercontent.com/OpenZeppelin/openzeppelin-contracts/v4.9.3/contracts/access/Ownable.sol\":2499:2515  address oldOwner */\n  0x00\n  swap1\n    /* \"https://raw.githubusercontent.com/OpenZeppelin/openzeppelin-contracts/v4.9.3/contracts/access/Ownable.sol\":2566:2606  OwnershipTransferred(oldOwner, newOwner) */\n  log3\n    /* \"https://raw.githubusercontent.com/OpenZeppelin/openzeppelin-contracts/v4.9.3/contracts/access/Ownable.sol\":2489:2613  {... */\n  pop\n    /* \"https://raw.githubusercontent.com/OpenZeppelin/openzeppelin-contracts/v4.9.3/contracts/access/Ownable.sol\":2426:2613  function _transferOwnership(address newOwner) internal virtual {... */\n  pop\n  jump\t// out\n    /* \"https://raw.githubusercontent.com/OpenZeppelin/openzeppelin-contracts/v4.9.3/contracts/token/ERC20/ERC20.sol\":8520:9055  function _mint(address account, uint256 amount) internal virtual {... */\ntag_28:\n  sub(shl(0xa0, 0x01), 0x01)\n    /* \"https://raw.githubusercontent.com/OpenZeppelin/openzeppelin-contracts/v4.9.3/contracts/token/ERC20/ERC20.sol\":8603:8624  account != address(0) */\n  dup3\n  and\n    /* \"https://raw.githubusercontent.com/OpenZeppelin/openzeppelin-contracts/v4.9.3/contracts/token/ERC20/ERC20.sol\":8595:8660  require(account != address(0), \"ERC20: mint to the zero address\") */\n  tag_35\n  jumpi\n  mload(0x40)\n  shl(0xe5, 0x461bcd)\n  dup2\n  mstore\n    /* \"#utility.yul\":4594:4596   */\n  0x20\n    /* \"https://raw.githubusercontent.com/OpenZeppelin/openzeppelin-contracts/v4.9.3/contracts/token/ERC20/ERC20.sol\":8595:8660  require(account != address(0), \"ERC20: mint to the zero address\") */\n  0x04\n  dup3\n  add\n    /* \"#utility.yul\":4576:4597   */\n  mstore\n    /* \"#utility.yul\":4633:4635   */\n  0x1f\n    /* \"#utility.yul\":4613:4631   */\n  0x24\n  dup3\n  add\n    /* \"#utility.yul\":4606:4636   */\n  mstore\n    /* \"#utility.yul\":4672:4705   */\n  0x45524332303a206d696e7420746f20746865207a65726f206164647265737300\n    /* \"#utility.yul\":4652:4670   */\n  0x44\n  dup3\n  add\n    /* \"#utility.yul\":4645:4706   */\n  mstore\n    /* \"#utility.yul\":4723:4741   */\n  0x64\n  add\n    /* \"https://raw.githubusercontent.com/OpenZeppelin/openzeppelin-contracts/v4.9.3/contracts/token/ERC20/ERC20.sol\":8595:8660  require(account != address(0), \"ERC20: mint to the zero address\") */\ntag_36:\n  mload(0x40)\n  dup1\n  swap2\n  sub\n  swap1\n  revert\ntag_35:\n    /* \"https://raw.githubusercontent.com/OpenZeppelin/openzeppelin-contracts/v4.9.3/contracts/token/ERC20/ERC20.sol\":8671:8720  _beforeTokenTransfer(address(0), account, amount) */\n  tag_38\n    /* \"https://raw.githubusercontent.com/OpenZeppelin/openzeppelin-contracts/v4.9.3/contracts/token/ERC20/ERC20.sol\":8700:8701  0 */\n  0x00\n    /* \"https://raw.githubusercontent.com/OpenZeppelin/openzeppelin-contracts/v4.9.3/contracts/token/ERC20/ERC20.sol\":8704:8711  account */\n  dup4\n    /* \"https://raw.githubusercontent.com/OpenZeppelin/openzeppelin-contracts/v4.9.3/contracts/token/ERC20/ERC20.sol\":8713:8719  amount */\n  dup4\n    /* \"https://raw.githubusercontent.com/OpenZeppelin/openzeppelin-contracts/v4.9.3/contracts/token/ERC20/ERC20.sol\":8671:8691  _beforeTokenTransfer */\n  tag_39\n    /* \"https://raw.githubusercontent.com/OpenZeppelin/openzeppelin-contracts/v4.9.3/contracts/token/ERC20/ERC20.sol\":8671:8720  _beforeTokenTransfer(address(0), account, amount) */\n  jump\t// in\ntag_38:\n    /* \"https://raw.githubusercontent.com/OpenZeppelin/openzeppelin-contracts/v4.9.3/contracts/token/ERC20/ERC20.sol\":8747:8753  amount */\n  dup1\n    /* \"https://raw.githubusercontent.com/OpenZeppelin/openzeppelin-contracts/v4.9.3/contracts/token/ERC20/ERC20.sol\":8731:8743  _totalSupply */\n  0x02\n  0x00\n    /* \"https://raw.githubusercontent.com/OpenZeppelin/openzeppelin-contracts/v4.9.3/contracts/token/ERC20/ERC20.sol\":8731:8753  _totalSupply += amount */\n  dup3\n  dup3\n  sload\n  tag_40\n  swap2\n  swap1\n  tag_41\n  jump\t// in\ntag_40:\n  swap1\n  swap2\n  sstore\n  pop\n  pop\n  sub(shl(0xa0, 0x01), 0x01)\n    /* \"https://raw.githubusercontent.com/OpenZeppelin/openzeppelin-contracts/v4.9.3/contracts/token/ERC20/ERC20.sol\":8899:8917  _balances[account] */\n  dup3\n  and\n    /* \"https://raw.githubusercontent.com/OpenZeppelin/openzeppelin-contracts/v4.9.3/contracts/token/ERC20/ERC20.sol\":8899:8908  _balances */\n  0x00\n    /* \"https://raw.githubusercontent.com/OpenZeppelin/openzeppelin-contracts/v4.9.3/contracts/token/ERC20/ERC20.sol\":8899:8917  _balances[account] */\n  dup2\n  dup2\n  mstore\n  0x20\n  dup2\n  dup2\n  mstore\n  0x40\n  dup1\n  dup4\n  keccak256\n    /* \"https://raw.githubusercontent.com/OpenZeppelin/openzeppelin-contracts/v4.9.3/contracts/token/ERC20/ERC20.sol\":8899:8927  _balances[account] += amount */\n  dup1\n  sload\n  dup7\n  add\n  swap1\n  sstore\n    /* \"https://raw.githubusercontent.com/OpenZeppelin/openzeppelin-contracts/v4.9.3/contracts/token/ERC20/ERC20.sol\":8952:8989  Transfer(address(0), account, amount) */\n  mload\n    /* \"#utility.yul\":5028:5053   */\n  dup5\n  dup2\n  mstore\n    /* \"https://raw.githubusercontent.com/OpenZeppelin/openzeppelin-contracts/v4.9.3/contracts/token/ERC20/ERC20.sol\":8952:8989  Transfer(address(0), account, amount) */\n  0xddf252ad1be2c89b69c2b068fc378daa952ba7f163c4a11628f55a4df523b3ef\n  swap2\n    /* \"#utility.yul\":5001:5019   */\n  add\n    /* \"https://raw.githubusercontent.com/OpenZeppelin/openzeppelin-contracts/v4.9.3/contracts/token/ERC20/ERC20.sol\":8952:8989  Transfer(address(0), account, amount) */\n  mload(0x40)\n  dup1\n  swap2\n  sub\n  swap1\n  log3\n    /* \"https://raw.githubusercontent.com/OpenZeppelin/openzeppelin-contracts/v4.9.3/contracts/token/ERC20/ERC20.sol\":8520:9055  function _mint(address account, uint256 amount) internal virtual {... */\n  pop\n  pop\n  jump\t// out\n    /* \"Revolt.sol\":4916:5168  function _beforeTokenTransfer(... */\ntag_39:\n    /* \"Revolt.sol\":5109:5117  paused() */\n  tag_49\n    /* \"https://raw.githubusercontent.com/OpenZeppelin/openzeppelin-contracts/v4.9.3/contracts/security/Pausable.sol\":1685:1692  _paused */\n  sload(0x05)\n  shl(0xa0, 0x01)\n  swap1\n  div\n  0xff\n  and\n  swap1\n    /* \"https://raw.githubusercontent.com/OpenZeppelin/openzeppelin-contracts/v4.9.3/contracts/security/Pausable.sol\":1615:1699  function paused() public view virtual returns (bool) {... */\n  jump\n    /* \"Revolt.sol\":5109:5117  paused() */\ntag_49:\n    /* \"Revolt.sol\":5108:5117  !paused() */\n  iszero\n    /* \"Revolt.sol\":5100:5161  require(!paused(), \"RevoltCoin: token transfer while paused\") */\n  tag_51\n  jumpi\n  mload(0x40)\n  shl(0xe5, 0x461bcd)\n  dup2\n  mstore\n    /* \"#utility.yul\":5266:5268   */\n  0x20\n    /* \"Revolt.sol\":5100:5161  require(!paused(), \"RevoltCoin: token transfer while paused\") */\n  0x04\n  dup3\n  add\n    /* \"#utility.yul\":5248:5269   */\n  mstore\n    /* \"#utility.yul\":5305:5307   */\n  0x27\n    /* \"#utility.yul\":5285:5303   */\n  0x24\n  dup3\n  add\n    /* \"#utility.yul\":5278:5308   */\n  mstore\n    /* \"#utility.yul\":5344:5378   */\n  0x5265766f6c74436f696e3a20746f6b656e207472616e73666572207768696c65\n    /* \"#utility.yul\":5324:5342   */\n  0x44\n  dup3\n  add\n    /* \"#utility.yul\":5317:5379   */\n  mstore\n  shl(0xca, 0x081c185d5cd959)\n    /* \"#utility.yul\":5395:5413   */\n  0x64\n  dup3\n  add\n    /* \"#utility.yul\":5388:5425   */\n  mstore\n    /* \"#utility.yul\":5442:5461   */\n  0x84\n  add\n    /* \"Revolt.sol\":5100:5161  require(!paused(), \"RevoltCoin: token transfer while paused\") */\n  tag_36\n    /* \"#utility.yul\":5064:5467   */\n  jump\n    /* \"Revolt.sol\":5100:5161  require(!paused(), \"RevoltCoin: token transfer while paused\") */\ntag_51:\n    /* \"Revolt.sol\":4916:5168  function _beforeTokenTransfer(... */\n  pop\n  pop\n  pop\n  jump\t// out\n    /* \"#utility.yul\":14:141   */\ntag_57:\n    /* \"#utility.yul\":75:85   */\n  0x4e487b71\n    /* \"#utility.yul\":70:73   */\n  0xe0\n    /* \"#utility.yul\":66:86   */\n  shl\n    /* \"#utility.yul\":63:64   */\n  0x00\n    /* \"#utility.yul\":56:87   */\n  mstore\n    /* \"#utility.yul\":106:110   */\n  0x41\n    /* \"#utility.yul\":103:104   */\n  0x04\n    /* \"#utility.yul\":96:111   */\n  mstore\n    /* \"#utility.yul\":130:134   */\n  0x24\n    /* \"#utility.yul\":127:128   */\n  0x00\n    /* \"#utility.yul\":120:135   */\n  revert\n    /* \"#utility.yul\":146:526   */\ntag_58:\n    /* \"#utility.yul\":225:226   */\n  0x01\n    /* \"#utility.yul\":221:233   */\n  dup2\n  dup2\n  shr\n  swap1\n    /* \"#utility.yul\":268:280   */\n  dup3\n  and\n  dup1\n    /* \"#utility.yul\":289:350   */\n  tag_68\n  jumpi\n    /* \"#utility.yul\":343:347   */\n  0x7f\n    /* \"#utility.yul\":335:341   */\n  dup3\n    /* \"#utility.yul\":331:348   */\n  and\n    /* \"#utility.yul\":321:348   */\n  swap2\n  pop\n    /* \"#utility.yul\":289:350   */\ntag_68:\n    /* \"#utility.yul\":396:398   */\n  0x20\n    /* \"#utility.yul\":388:394   */\n  dup3\n    /* \"#utility.yul\":385:399   */\n  lt\n    /* \"#utility.yul\":365:383   */\n  dup2\n    /* \"#utility.yul\":362:400   */\n  sub\n    /* \"#utility.yul\":359:520   */\n  tag_69\n  jumpi\n    /* \"#utility.yul\":442:452   */\n  0x4e487b71\n    /* \"#utility.yul\":437:440   */\n  0xe0\n    /* \"#utility.yul\":433:453   */\n  shl\n    /* \"#utility.yul\":430:431   */\n  0x00\n    /* \"#utility.yul\":423:454   */\n  mstore\n    /* \"#utility.yul\":477:481   */\n  0x22\n    /* \"#utility.yul\":474:475   */\n  0x04\n    /* \"#utility.yul\":467:482   */\n  mstore\n    /* \"#utility.yul\":505:509   */\n  0x24\n    /* \"#utility.yul\":502:503   */\n  0x00\n    /* \"#utility.yul\":495:510   */\n  revert\n    /* \"#utility.yul\":359:520   */\ntag_69:\n  pop\n    /* \"#utility.yul\":146:526   */\n  swap2\n  swap1\n  pop\n  jump\t// out\n    /* \"#utility.yul\":657:1175   */\ntag_60:\n    /* \"#utility.yul\":759:761   */\n  0x1f\n    /* \"#utility.yul\":754:757   */\n  dup3\n    /* \"#utility.yul\":751:762   */\n  gt\n    /* \"#utility.yul\":748:1169   */\n  iszero\n  tag_51\n  jumpi\n    /* \"#utility.yul\":795:800   */\n  dup1\n    /* \"#utility.yul\":792:793   */\n  0x00\n    /* \"#utility.yul\":785:801   */\n  mstore\n    /* \"#utility.yul\":839:843   */\n  0x20\n    /* \"#utility.yul\":836:837   */\n  0x00\n    /* \"#utility.yul\":826:844   */\n  keccak256\n    /* \"#utility.yul\":909:911   */\n  0x1f\n    /* \"#utility.yul\":897:907   */\n  dup5\n    /* \"#utility.yul\":893:912   */\n  add\n    /* \"#utility.yul\":890:891   */\n  0x05\n    /* \"#utility.yul\":886:913   */\n  shr\n    /* \"#utility.yul\":880:884   */\n  dup2\n    /* \"#utility.yul\":876:914   */\n  add\n    /* \"#utility.yul\":945:949   */\n  0x20\n    /* \"#utility.yul\":933:943   */\n  dup6\n    /* \"#utility.yul\":930:950   */\n  lt\n    /* \"#utility.yul\":927:974   */\n  iszero\n  tag_73\n  jumpi\n  pop\n    /* \"#utility.yul\":968:972   */\n  dup1\n    /* \"#utility.yul\":927:974   */\ntag_73:\n    /* \"#utility.yul\":1023:1025   */\n  0x1f\n    /* \"#utility.yul\":1018:1021   */\n  dup5\n    /* \"#utility.yul\":1014:1026   */\n  add\n    /* \"#utility.yul\":1011:1012   */\n  0x05\n    /* \"#utility.yul\":1007:1027   */\n  shr\n    /* \"#utility.yul\":1001:1005   */\n  dup3\n    /* \"#utility.yul\":997:1028   */\n  add\n    /* \"#utility.yul\":987:1028   */\n  swap2\n  pop\n    /* \"#utility.yul\":1078:1159   */\ntag_74:\n    /* \"#utility.yul\":1096:1098   */\n  dup2\n    /* \"#utility.yul\":1089:1094   */\n  dup2\n    /* \"#utility.yul\":1086:1099   */\n  lt\n    /* \"#utility.yul\":1078:1159   */\n  iszero\n  tag_76\n  jumpi\n    /* \"#utility.yul\":1155:1156   */\n  0x00\n    /* \"#utility.yul\":1141:1157   */\n  dup2\n  sstore\n    /* \"#utility.yul\":1122:1123   */\n  0x01\n    /* \"#utility.yul\":1111:1124   */\n  add\n    /* \"#utility.yul\":1078:1159   */\n  jump(tag_74)\ntag_76:\n    /* \"#utility.yul\":1082:1085   */\n  pop\n  pop\n    /* \"#utility.yul\":657:1175   */\n  pop\n  pop\n  pop\n  jump\t// out\n    /* \"#utility.yul\":1351:2650   */\ntag_9:\n    /* \"#utility.yul\":1471:1481   */\n  dup2\n  mload\n  sub(shl(0x40, 0x01), 0x01)\n    /* \"#utility.yul\":1493:1523   */\n  dup2\n  gt\n    /* \"#utility.yul\":1490:1546   */\n  iszero\n  tag_80\n  jumpi\n    /* \"#utility.yul\":1526:1544   */\n  tag_80\n  tag_57\n  jump\t// in\ntag_80:\n    /* \"#utility.yul\":1555:1652   */\n  tag_81\n    /* \"#utility.yul\":1645:1651   */\n  dup2\n    /* \"#utility.yul\":1605:1643   */\n  tag_82\n    /* \"#utility.yul\":1637:1641   */\n  dup5\n    /* \"#utility.yul\":1631:1642   */\n  sload\n    /* \"#utility.yul\":1605:1643   */\n  tag_58\n  jump\t// in\ntag_82:\n    /* \"#utility.yul\":1599:1603   */\n  dup5\n    /* \"#utility.yul\":1555:1652   */\n  tag_60\n  jump\t// in\ntag_81:\n    /* \"#utility.yul\":1701:1705   */\n  0x20\n    /* \"#utility.yul\":1732:1734   */\n  0x1f\n    /* \"#utility.yul\":1721:1735   */\n  dup3\n  gt\n    /* \"#utility.yul\":1749:1750   */\n  0x01\n    /* \"#utility.yul\":1744:2393   */\n  dup2\n  eq\n  tag_84\n  jumpi\n    /* \"#utility.yul\":2437:2438   */\n  0x00\n    /* \"#utility.yul\":2454:2460   */\n  dup4\n    /* \"#utility.yul\":2451:2540   */\n  iszero\n  tag_85\n  jumpi\n  pop\n    /* \"#utility.yul\":2506:2525   */\n  dup5\n  dup3\n  add\n    /* \"#utility.yul\":2500:2526   */\n  mload\n    /* \"#utility.yul\":2451:2540   */\ntag_85:\n  not(0x00)\n    /* \"#utility.yul\":1308:1309   */\n  0x03\n    /* \"#utility.yul\":1304:1315   */\n  dup6\n  swap1\n  shl\n    /* \"#utility.yul\":1300:1324   */\n  shr\n    /* \"#utility.yul\":1296:1325   */\n  not\n    /* \"#utility.yul\":1286:1326   */\n  and\n    /* \"#utility.yul\":1332:1333   */\n  0x01\n    /* \"#utility.yul\":1328:1339   */\n  dup5\n  swap1\n  shl\n    /* \"#utility.yul\":1283:1340   */\n  or\n    /* \"#utility.yul\":2553:2634   */\n  dup5\n  sstore\n    /* \"#utility.yul\":1714:2644   */\n  jump(tag_76)\n    /* \"#utility.yul\":1744:2393   */\ntag_84:\n    /* \"#utility.yul\":604:605   */\n  0x00\n    /* \"#utility.yul\":597:611   */\n  dup5\n  dup2\n  mstore\n    /* \"#utility.yul\":641:645   */\n  0x20\n    /* \"#utility.yul\":628:646   */\n  dup2\n  keccak256\n  not(0x1f)\n    /* \"#utility.yul\":1780:1800   */\n  dup6\n  and\n  swap2\n    /* \"#utility.yul\":1898:2120   */\ntag_88:\n    /* \"#utility.yul\":1912:1919   */\n  dup3\n    /* \"#utility.yul\":1909:1910   */\n  dup2\n    /* \"#utility.yul\":1906:1920   */\n  lt\n    /* \"#utility.yul\":1898:2120   */\n  iszero\n  tag_90\n  jumpi\n    /* \"#utility.yul\":1994:2013   */\n  dup8\n  dup6\n  add\n    /* \"#utility.yul\":1988:2014   */\n  mload\n    /* \"#utility.yul\":1973:2015   */\n  dup3\n  sstore\n    /* \"#utility.yul\":2101:2105   */\n  0x20\n    /* \"#utility.yul\":2086:2106   */\n  swap5\n  dup6\n  add\n  swap5\n    /* \"#utility.yul\":2054:2055   */\n  0x01\n    /* \"#utility.yul\":2042:2056   */\n  swap1\n  swap3\n  add\n  swap2\n    /* \"#utility.yul\":1928:1940   */\n  add\n    /* \"#utility.yul\":1898:2120   */\n  jump(tag_88)\ntag_90:\n    /* \"#utility.yul\":1902:1905   */\n  pop\n    /* \"#utility.yul\":2148:2154   */\n  dup5\n    /* \"#utility.yul\":2139:2146   */\n  dup3\n    /* \"#utility.yul\":2136:2155   */\n  lt\n    /* \"#utility.yul\":2133:2334   */\n  iszero\n  tag_91\n  jumpi\n    /* \"#utility.yul\":2209:2228   */\n  dup7\n  dup5\n  add\n    /* \"#utility.yul\":2203:2229   */\n  mload\n  not(0x00)\n    /* \"#utility.yul\":2292:2293   */\n  0x03\n    /* \"#utility.yul\":2288:2302   */\n  dup8\n  swap1\n  shl\n    /* \"#utility.yul\":2304:2307   */\n  0xf8\n    /* \"#utility.yul\":2284:2308   */\n  and\n    /* \"#utility.yul\":2280:2317   */\n  shr\n    /* \"#utility.yul\":2276:2318   */\n  not\n    /* \"#utility.yul\":2261:2319   */\n  and\n    /* \"#utility.yul\":2246:2320   */\n  dup2\n  sstore\n    /* \"#utility.yul\":2133:2334   */\ntag_91:\n  pop\n  pop\n  pop\n  pop\n    /* \"#utility.yul\":2380:2381   */\n  0x01\n    /* \"#utility.yul\":2364:2378   */\n  swap1\n  dup2\n  shl\n    /* \"#utility.yul\":2360:2382   */\n  add\n    /* \"#utility.yul\":2347:2383   */\n  swap1\n  sstore\n  pop\n    /* \"#utility.yul\":1351:2650   */\n  jump\t// out\n    /* \"#utility.yul\":2655:2782   */\ntag_62:\n    /* \"#utility.yul\":2716:2726   */\n  0x4e487b71\n    /* \"#utility.yul\":2711:2714   */\n  0xe0\n    /* \"#utility.yul\":2707:2727   */\n  shl\n    /* \"#utility.yul\":2704:2705   */\n  0x00\n    /* \"#utility.yul\":2697:2728   */\n  mstore\n    /* \"#utility.yul\":2747:2751   */\n  0x11\n    /* \"#utility.yul\":2744:2745   */\n  0x04\n    /* \"#utility.yul\":2737:2752   */\n  mstore\n    /* \"#utility.yul\":2771:2775   */\n  0x24\n    /* \"#utility.yul\":2768:2769   */\n  0x00\n    /* \"#utility.yul\":2761:2776   */\n  revert\n    /* \"#utility.yul\":2787:3162   */\ntag_63:\n    /* \"#utility.yul\":2875:2876   */\n  0x01\n    /* \"#utility.yul\":2893:2898   */\n  dup2\n    /* \"#utility.yul\":2907:3156   */\ntag_94:\n    /* \"#utility.yul\":2928:2929   */\n  0x01\n    /* \"#utility.yul\":2918:2926   */\n  dup5\n    /* \"#utility.yul\":2915:2930   */\n  gt\n    /* \"#utility.yul\":2907:3156   */\n  iszero\n  tag_96\n  jumpi\n    /* \"#utility.yul\":2978:2982   */\n  dup1\n    /* \"#utility.yul\":2973:2976   */\n  dup6\n    /* \"#utility.yul\":2969:2983   */\n  div\n    /* \"#utility.yul\":2963:2967   */\n  dup2\n    /* \"#utility.yul\":2960:2984   */\n  gt\n    /* \"#utility.yul\":2957:3007   */\n  iszero\n  tag_98\n  jumpi\n    /* \"#utility.yul\":2987:3005   */\n  tag_98\n  tag_62\n  jump\t// in\ntag_98:\n    /* \"#utility.yul\":3037:3038   */\n  0x01\n    /* \"#utility.yul\":3027:3035   */\n  dup5\n    /* \"#utility.yul\":3023:3039   */\n  and\n    /* \"#utility.yul\":3020:3069   */\n  iszero\n  tag_99\n  jumpi\n    /* \"#utility.yul\":3051:3067   */\n  swap1\n  dup2\n  mul\n  swap1\n    /* \"#utility.yul\":3020:3069   */\ntag_99:\n    /* \"#utility.yul\":3134:3135   */\n  0x01\n    /* \"#utility.yul\":3130:3146   */\n  swap4\n  swap1\n  swap4\n  shr\n  swap3\n    /* \"#utility.yul\":3090:3105   */\n  dup1\n  mul\n    /* \"#utility.yul\":2907:3156   */\n  jump(tag_94)\ntag_96:\n    /* \"#utility.yul\":2787:3162   */\n  swap4\n  pop\n  swap4\n  swap2\n  pop\n  pop\n  jump\t// out\n    /* \"#utility.yul\":3167:4069   */\ntag_64:\n    /* \"#utility.yul\":3216:3221   */\n  0x00\n    /* \"#utility.yul\":3246:3254   */\n  dup3\n    /* \"#utility.yul\":3236:3316   */\n  tag_101\n  jumpi\n  pop\n    /* \"#utility.yul\":3287:3288   */\n  0x01\n    /* \"#utility.yul\":3301:3306   */\n  jump(tag_100)\n    /* \"#utility.yul\":3236:3316   */\ntag_101:\n    /* \"#utility.yul\":3335:3339   */\n  dup2\n    /* \"#utility.yul\":3325:3401   */\n  tag_102\n  jumpi\n  pop\n    /* \"#utility.yul\":3372:3373   */\n  0x00\n    /* \"#utility.yul\":3386:3391   */\n  jump(tag_100)\n    /* \"#utility.yul\":3325:3401   */\ntag_102:\n    /* \"#utility.yul\":3417:3421   */\n  dup2\n    /* \"#utility.yul\":3435:3436   */\n  0x01\n    /* \"#utility.yul\":3430:3489   */\n  dup2\n  eq\n  tag_104\n  jumpi\n    /* \"#utility.yul\":3503:3504   */\n  0x02\n    /* \"#utility.yul\":3498:3672   */\n  dup2\n  eq\n  tag_105\n  jumpi\n    /* \"#utility.yul\":3410:3672   */\n  jump(tag_103)\n    /* \"#utility.yul\":3430:3489   */\ntag_104:\n    /* \"#utility.yul\":3460:3461   */\n  0x01\n    /* \"#utility.yul\":3451:3461   */\n  swap2\n  pop\n    /* \"#utility.yul\":3474:3479   */\n  pop\n  jump(tag_100)\n    /* \"#utility.yul\":3498:3672   */\ntag_105:\n    /* \"#utility.yul\":3535:3538   */\n  0xff\n    /* \"#utility.yul\":3525:3533   */\n  dup5\n    /* \"#utility.yul\":3522:3539   */\n  gt\n    /* \"#utility.yul\":3519:3562   */\n  iszero\n  tag_107\n  jumpi\n    /* \"#utility.yul\":3542:3560   */\n  tag_107\n  tag_62\n  jump\t// in\ntag_107:\n  pop\n  pop\n    /* \"#utility.yul\":3598:3599   */\n  0x01\n    /* \"#utility.yul\":3584:3600   */\n  dup3\n  shl\n    /* \"#utility.yul\":3657:3662   */\n  jump(tag_100)\n    /* \"#utility.yul\":3410:3672   */\ntag_103:\n  pop\n    /* \"#utility.yul\":3756:3758   */\n  0x20\n    /* \"#utility.yul\":3746:3754   */\n  dup4\n    /* \"#utility.yul\":3743:3759   */\n  lt\n    /* \"#utility.yul\":3737:3740   */\n  0x0133\n    /* \"#utility.yul\":3731:3735   */\n  dup4\n    /* \"#utility.yul\":3728:3741   */\n  lt\n    /* \"#utility.yul\":3724:3760   */\n  and\n    /* \"#utility.yul\":3718:3720   */\n  0x4e\n    /* \"#utility.yul\":3708:3716   */\n  dup5\n    /* \"#utility.yul\":3705:3721   */\n  lt\n    /* \"#utility.yul\":3700:3702   */\n  0x0b\n    /* \"#utility.yul\":3694:3698   */\n  dup5\n    /* \"#utility.yul\":3691:3703   */\n  lt\n    /* \"#utility.yul\":3687:3722   */\n  and\n    /* \"#utility.yul\":3684:3761   */\n  or\n    /* \"#utility.yul\":3681:3884   */\n  iszero\n  tag_108\n  jumpi\n  pop\n    /* \"#utility.yul\":3793:3812   */\n  dup2\n  dup2\n  exp\n    /* \"#utility.yul\":3869:3874   */\n  jump(tag_100)\n    /* \"#utility.yul\":3681:3884   */\ntag_108:\n    /* \"#utility.yul\":3916:3958   */\n  tag_109\n  not(0x00)\n    /* \"#utility.yul\":3941:3949   */\n  dup5\n    /* \"#utility.yul\":3935:3939   */\n  dup5\n    /* \"#utility.yul\":3916:3958   */\n  tag_63\n  jump\t// in\ntag_109:\n    /* \"#utility.yul\":3994:4000   */\n  dup1\n    /* \"#utility.yul\":3990:3991   */\n  0x00\n    /* \"#utility.yul\":3986:3992   */\n  not\n    /* \"#utility.yul\":3982:4001   */\n  div\n    /* \"#utility.yul\":3973:3980   */\n  dup3\n    /* \"#utility.yul\":3970:4002   */\n  gt\n    /* \"#utility.yul\":3967:4025   */\n  iszero\n  tag_111\n  jumpi\n    /* \"#utility.yul\":4005:4023   */\n  tag_111\n  tag_62\n  jump\t// in\ntag_111:\n    /* \"#utility.yul\":4043:4063   */\n  mul\n  swap1\n  pop\n    /* \"#utility.yul\":3167:4069   */\ntag_100:\n  swap3\n  swap2\n  pop\n  pop\n  jump\t// out\n    /* \"#utility.yul\":4074:4214   */\ntag_24:\n    /* \"#utility.yul\":4132:4137   */\n  0x00\n    /* \"#utility.yul\":4161:4208   */\n  tag_113\n    /* \"#utility.yul\":4202:4206   */\n  0xff\n    /* \"#utility.yul\":4192:4200   */\n  dup5\n    /* \"#utility.yul\":4188:4207   */\n  and\n    /* \"#utility.yul\":4182:4186   */\n  dup4\n    /* \"#utility.yul\":4161:4208   */\n  tag_64\n  jump\t// in\ntag_113:\n    /* \"#utility.yul\":4152:4208   */\n  swap4\n    /* \"#utility.yul\":4074:4214   */\n  swap3\n  pop\n  pop\n  pop\n  jump\t// out\n    /* \"#utility.yul\":4219:4387   */\ntag_26:\n    /* \"#utility.yul\":4292:4301   */\n  dup1\n  dup3\n  mul\n    /* \"#utility.yul\":4323:4332   */\n  dup2\n  iszero\n    /* \"#utility.yul\":4340:4355   */\n  dup3\n  dup3\n  div\n    /* \"#utility.yul\":4334:4356   */\n  dup5\n  eq\n    /* \"#utility.yul\":4320:4357   */\n  or\n    /* \"#utility.yul\":4310:4381   */\n  tag_100\n  jumpi\n    /* \"#utility.yul\":4361:4379   */\n  tag_100\n  tag_62\n  jump\t// in\n    /* \"#utility.yul\":4752:4877   */\ntag_41:\n    /* \"#utility.yul\":4817:4826   */\n  dup1\n  dup3\n  add\n    /* \"#utility.yul\":4838:4848   */\n  dup1\n  dup3\n  gt\n    /* \"#utility.yul\":4835:4871   */\n  iszero\n  tag_100\n  jumpi\n    /* \"#utility.yul\":4851:4869   */\n  tag_100\n  tag_62\n  jump\t// in\n    /* \"#utility.yul\":5064:5467   */\ntag_65:\n    /* \"Revolt.sol\":539:6748  contract RevoltCoin is ERC20, Ownable, Pausable, ReentrancyGuard {... */\n  mload(0x80)\n  codecopy(0x00, dataOffset(sub_0), dataSize(sub_0))\n  0x00\n  assignImmutable(\"0x933c48a61c3bad621ebc5d57117f9e773fefae4468bceaf9d3198a3bf7c1d678\")\n  return(0x00, dataSize(sub_0))\nstop\n\nsub_0: assembly {\n        /* \"Revolt.sol\":539:6748  contract RevoltCoin is ERC20, Ownable, Pausable, ReentrancyGuard {... */\n      mstore(0x40, 0x80)\n      callvalue\n      dup1\n      iszero\n      tag_1\n      jumpi\n      0x00\n      dup1\n      revert\n    tag_1:\n      pop\n      jumpi(tag_2, lt(calldatasize, 0x04))\n      shr(0xe0, calldataload(0x00))\n      dup1\n      0x67243482\n      gt\n      tag_31\n      jumpi\n      dup1\n      0xa457c2d7\n      gt\n      tag_32\n      jumpi\n      dup1\n      0xdd62ed3e\n      gt\n      tag_33\n      jumpi\n      dup1\n      0xdd62ed3e\n      eq\n      tag_27\n      jumpi\n      dup1\n      0xe74b981b\n      eq\n      tag_28\n      jumpi\n      dup1\n      0xea2f0b37\n      eq\n      tag_29\n      jumpi\n      dup1\n      0xf2fde38b\n      eq\n      tag_30\n      jumpi\n      0x00\n      dup1\n      revert\n    tag_33:\n      dup1\n      0xa457c2d7\n      eq\n      tag_24\n      jumpi\n      dup1\n      0xa9059cbb\n      eq\n      tag_25\n      jumpi\n      dup1\n      0xd5f39488\n      eq\n      tag_26\n      jumpi\n      0x00\n      dup1\n      revert\n    tag_32:\n      dup1\n      0x8456cb59\n      gt\n      tag_34\n      jumpi\n      dup1\n      0x8456cb59\n      eq\n      tag_20\n      jumpi\n      dup1\n      0x8da5cb5b\n      eq\n      tag_21\n      jumpi\n      dup1\n      0x94544e64\n      eq\n      tag_22\n      jumpi\n      dup1\n      0x95d89b41\n      eq\n      tag_23\n      jumpi\n      0x00\n      dup1\n      revert\n    tag_34:\n      dup1\n      0x67243482\n      eq\n      tag_17\n      jumpi\n      dup1\n      0x70a08231\n      eq\n      tag_18\n      jumpi\n      dup1\n      0x715018a6\n      eq\n      tag_19\n      jumpi\n      0x00\n      dup1\n      revert\n    tag_31:\n      dup1\n      0x32cb6b0c\n      gt\n      tag_35\n      jumpi\n      dup1\n      0x40c10f19\n      gt\n      tag_36\n      jumpi\n      dup1\n      0x40c10f19\n      eq\n      tag_13\n      jumpi\n      dup1\n      0x437823ec\n      eq\n      tag_14\n      jumpi\n      dup1\n      0x46904840\n      eq\n      tag_15\n      jumpi\n      dup1\n      0x5c975abb\n      eq\n      tag_16\n      jumpi\n      0x00\n      dup1\n      revert\n    tag_36:\n      dup1\n      0x32cb6b0c\n      eq\n      tag_10\n      jumpi\n      dup1\n      0x39509351\n      eq\n      tag_11\n      jumpi\n      dup1\n      0x3f4ba83a\n      eq\n      tag_12\n      jumpi\n      0x00\n      dup1\n      revert\n    tag_35:\n      dup1\n      0x18160ddd\n      gt\n      tag_37\n      jumpi\n      dup1\n      0x18160ddd\n      eq\n      tag_6\n      jumpi\n      dup1\n      0x1f36d925\n      eq\n      tag_7\n      jumpi\n      dup1\n      0x23b872dd\n      eq\n      tag_8\n      jumpi\n      dup1\n      0x313ce567\n      eq\n      tag_9\n      jumpi\n      0x00\n      dup1\n      revert\n    tag_37:\n      dup1\n      0x06fdde03\n      eq\n      tag_3\n      jumpi\n      dup1\n      0x095ea7b3\n      eq\n      tag_4\n      jumpi\n      dup1\n      0x1815c208\n      eq\n      tag_5\n      jumpi\n    tag_2:\n      0x00\n      dup1\n      revert\n        /* \"https://raw.githubusercontent.com/OpenZeppelin/openzeppelin-contracts/v4.9.3/contracts/token/ERC20/ERC20.sol\":2158:2256  function name() public view virtual override returns (string memory) {... */\n    tag_3:\n      tag_38\n      tag_39\n      jump\t// in\n    tag_38:\n      mload(0x40)\n      tag_40\n      swap2\n      swap1\n      tag_41\n      jump\t// in\n    tag_40:\n      mload(0x40)\n      dup1\n      swap2\n      sub\n      swap1\n      return\n        /* \"https://raw.githubusercontent.com/OpenZeppelin/openzeppelin-contracts/v4.9.3/contracts/token/ERC20/ERC20.sol\":4444:4641  function approve(address spender, uint256 amount) public virtual override returns (bool) {... */\n    tag_4:\n      tag_42\n      tag_43\n      calldatasize\n      0x04\n      tag_44\n      jump\t// in\n    tag_43:\n      tag_45\n      jump\t// in\n    tag_42:\n      mload(0x40)\n        /* \"#utility.yul\":1085:1099   */\n      swap1\n      iszero\n        /* \"#utility.yul\":1078:1100   */\n      iszero\n        /* \"#utility.yul\":1060:1101   */\n      dup2\n      mstore\n        /* \"#utility.yul\":1048:1050   */\n      0x20\n        /* \"#utility.yul\":1033:1051   */\n      add\n        /* \"https://raw.githubusercontent.com/OpenZeppelin/openzeppelin-contracts/v4.9.3/contracts/token/ERC20/ERC20.sol\":4444:4641  function approve(address spender, uint256 amount) public virtual override returns (bool) {... */\n      tag_40\n        /* \"#utility.yul\":920:1107   */\n      jump\n        /* \"Revolt.sol\":3481:3706  function ownerTransfer(address newOwner) external onlyOwner {... */\n    tag_5:\n      tag_48\n      tag_49\n      calldatasize\n      0x04\n      tag_50\n      jump\t// in\n    tag_49:\n      tag_51\n      jump\t// in\n    tag_48:\n      stop\n        /* \"https://raw.githubusercontent.com/OpenZeppelin/openzeppelin-contracts/v4.9.3/contracts/token/ERC20/ERC20.sol\":3255:3361  function totalSupply() public view virtual override returns (uint256) {... */\n    tag_6:\n        /* \"https://raw.githubusercontent.com/OpenZeppelin/openzeppelin-contracts/v4.9.3/contracts/token/ERC20/ERC20.sol\":3342:3354  _totalSupply */\n      sload(0x02)\n        /* \"https://raw.githubusercontent.com/OpenZeppelin/openzeppelin-contracts/v4.9.3/contracts/token/ERC20/ERC20.sol\":3255:3361  function totalSupply() public view virtual override returns (uint256) {... */\n    tag_52:\n      mload(0x40)\n        /* \"#utility.yul\":1449:1474   */\n      swap1\n      dup2\n      mstore\n        /* \"#utility.yul\":1437:1439   */\n      0x20\n        /* \"#utility.yul\":1422:1440   */\n      add\n        /* \"https://raw.githubusercontent.com/OpenZeppelin/openzeppelin-contracts/v4.9.3/contracts/token/ERC20/ERC20.sol\":3255:3361  function totalSupply() public view virtual override returns (uint256) {... */\n      tag_40\n        /* \"#utility.yul\":1303:1480   */\n      jump\n        /* \"Revolt.sol\":2281:2543  function setTransferFeePercent(uint256 newFee) external onlyOwner {... */\n    tag_7:\n      tag_48\n      tag_57\n      calldatasize\n      0x04\n      tag_58\n      jump\t// in\n    tag_57:\n      tag_59\n      jump\t// in\n        /* \"Revolt.sol\":5426:5763  function transferFrom(... */\n    tag_8:\n      tag_42\n      tag_61\n      calldatasize\n      0x04\n      tag_62\n      jump\t// in\n    tag_61:\n      tag_63\n      jump\t// in\n        /* \"https://raw.githubusercontent.com/OpenZeppelin/openzeppelin-contracts/v4.9.3/contracts/token/ERC20/ERC20.sol\":3104:3195  function decimals() public view virtual override returns (uint8) {... */\n    tag_9:\n      mload(0x40)\n        /* \"https://raw.githubusercontent.com/OpenZeppelin/openzeppelin-contracts/v4.9.3/contracts/token/ERC20/ERC20.sol\":3186:3188  18 */\n      0x12\n        /* \"#utility.yul\":2237:2273   */\n      dup2\n      mstore\n        /* \"#utility.yul\":2225:2227   */\n      0x20\n        /* \"#utility.yul\":2210:2228   */\n      add\n        /* \"https://raw.githubusercontent.com/OpenZeppelin/openzeppelin-contracts/v4.9.3/contracts/token/ERC20/ERC20.sol\":3104:3195  function decimals() public view virtual override returns (uint8) {... */\n      tag_40\n        /* \"#utility.yul\":2095:2279   */\n      jump\n        /* \"Revolt.sol\":669:727  uint256 public constant MAX_SUPPLY = 10_000_000 * 10 ** 18 */\n    tag_10:\n      tag_52\n        /* \"Revolt.sol\":706:727  10_000_000 * 10 ** 18 */\n      0x084595161401484a000000\n        /* \"Revolt.sol\":669:727  uint256 public constant MAX_SUPPLY = 10_000_000 * 10 ** 18 */\n      dup2\n      jump\n        /* \"https://raw.githubusercontent.com/OpenZeppelin/openzeppelin-contracts/v4.9.3/contracts/token/ERC20/ERC20.sol\":5854:6088  function increaseAllowance(address spender, uint256 addedValue) public virtual returns (bool) {... */\n    tag_11:\n      tag_42\n      tag_73\n      calldatasize\n      0x04\n      tag_44\n      jump\t// in\n    tag_73:\n      tag_74\n      jump\t// in\n        /* \"Revolt.sol\":4789:4854  function unpause() external onlyOwner {... */\n    tag_12:\n      tag_48\n      tag_77\n      jump\t// in\n        /* \"Revolt.sol\":2046:2218  function mint(address to, uint256 amount) external onlyOwner {... */\n    tag_13:\n      tag_48\n      tag_79\n      calldatasize\n      0x04\n      tag_44\n      jump\t// in\n    tag_79:\n      tag_80\n      jump\t// in\n        /* \"Revolt.sol\":3087:3236  function excludeFromFee(address account) external onlyOwner {... */\n    tag_14:\n      tag_48\n      tag_82\n      calldatasize\n      0x04\n      tag_50\n      jump\t// in\n    tag_82:\n      tag_83\n      jump\t// in\n        /* \"Revolt.sol\":827:854  address public feeRecipient */\n    tag_15:\n      sload(0x08)\n      tag_84\n      swap1\n      sub(shl(0xa0, 0x01), 0x01)\n      and\n      dup2\n      jump\n    tag_84:\n      mload(0x40)\n      sub(shl(0xa0, 0x01), 0x01)\n        /* \"#utility.yul\":2448:2480   */\n      swap1\n      swap2\n      and\n        /* \"#utility.yul\":2430:2481   */\n      dup2\n      mstore\n        /* \"#utility.yul\":2418:2420   */\n      0x20\n        /* \"#utility.yul\":2403:2421   */\n      add\n        /* \"Revolt.sol\":827:854  address public feeRecipient */\n      tag_40\n        /* \"#utility.yul\":2284:2487   */\n      jump\n        /* \"https://raw.githubusercontent.com/OpenZeppelin/openzeppelin-contracts/v4.9.3/contracts/security/Pausable.sol\":1615:1699  function paused() public view virtual returns (bool) {... */\n    tag_16:\n        /* \"https://raw.githubusercontent.com/OpenZeppelin/openzeppelin-contracts/v4.9.3/contracts/security/Pausable.sol\":1685:1692  _paused */\n      sload(0x05)\n      shl(0xa0, 0x01)\n      swap1\n      div\n      0xff\n      and\n        /* \"https://raw.githubusercontent.com/OpenZeppelin/openzeppelin-contracts/v4.9.3/contracts/security/Pausable.sol\":1615:1699  function paused() public view virtual returns (bool) {... */\n      jump(tag_42)\n        /* \"Revolt.sol\":5952:6746  function airdrop(address[] calldata recipients, uint256[] calldata amounts)... */\n    tag_17:\n      tag_48\n      tag_92\n      calldatasize\n      0x04\n      tag_93\n      jump\t// in\n    tag_92:\n      tag_94\n      jump\t// in\n        /* \"https://raw.githubusercontent.com/OpenZeppelin/openzeppelin-contracts/v4.9.3/contracts/token/ERC20/ERC20.sol\":3419:3544  function balanceOf(address account) public view virtual override returns (uint256) {... */\n    tag_18:\n      tag_52\n      tag_96\n      calldatasize\n      0x04\n      tag_50\n      jump\t// in\n    tag_96:\n      sub(shl(0xa0, 0x01), 0x01)\n        /* \"https://raw.githubusercontent.com/OpenZeppelin/openzeppelin-contracts/v4.9.3/contracts/token/ERC20/ERC20.sol\":3519:3537  _balances[account] */\n      and\n        /* \"https://raw.githubusercontent.com/OpenZeppelin/openzeppelin-contracts/v4.9.3/contracts/token/ERC20/ERC20.sol\":3493:3500  uint256 */\n      0x00\n        /* \"https://raw.githubusercontent.com/OpenZeppelin/openzeppelin-contracts/v4.9.3/contracts/token/ERC20/ERC20.sol\":3519:3537  _balances[account] */\n      swap1\n      dup2\n      mstore\n      0x20\n      dup2\n      swap1\n      mstore\n      0x40\n      swap1\n      keccak256\n      sload\n      swap1\n        /* \"https://raw.githubusercontent.com/OpenZeppelin/openzeppelin-contracts/v4.9.3/contracts/token/ERC20/ERC20.sol\":3419:3544  function balanceOf(address account) public view virtual override returns (uint256) {... */\n      jump\n        /* \"https://raw.githubusercontent.com/OpenZeppelin/openzeppelin-contracts/v4.9.3/contracts/access/Ownable.sol\":1824:1925  function renounceOwnership() public virtual onlyOwner {... */\n    tag_19:\n      tag_48\n      tag_100\n      jump\t// in\n        /* \"Revolt.sol\":4693:4754  function pause() external onlyOwner {... */\n    tag_20:\n      tag_48\n      tag_102\n      jump\t// in\n        /* \"https://raw.githubusercontent.com/OpenZeppelin/openzeppelin-contracts/v4.9.3/contracts/access/Ownable.sol\":1201:1286  function owner() public view virtual returns (address) {... */\n    tag_21:\n        /* \"https://raw.githubusercontent.com/OpenZeppelin/openzeppelin-contracts/v4.9.3/contracts/access/Ownable.sol\":1273:1279  _owner */\n      and(sub(shl(0xa0, 0x01), 0x01), sload(0x05))\n        /* \"https://raw.githubusercontent.com/OpenZeppelin/openzeppelin-contracts/v4.9.3/contracts/access/Ownable.sol\":1201:1286  function owner() public view virtual returns (address) {... */\n      jump(tag_84)\n        /* \"Revolt.sol\":784:821  uint256 public transferFeePercent = 2 */\n    tag_22:\n      tag_52\n      sload(0x07)\n      dup2\n      jump\n        /* \"https://raw.githubusercontent.com/OpenZeppelin/openzeppelin-contracts/v4.9.3/contracts/token/ERC20/ERC20.sol\":2369:2471  function symbol() public view virtual override returns (string memory) {... */\n    tag_23:\n      tag_38\n      tag_110\n      jump\t// in\n        /* \"https://raw.githubusercontent.com/OpenZeppelin/openzeppelin-contracts/v4.9.3/contracts/token/ERC20/ERC20.sol\":6575:7002  function decreaseAllowance(address spender, uint256 subtractedValue) public virtual returns (bool) {... */\n    tag_24:\n      tag_42\n      tag_113\n      calldatasize\n      0x04\n      tag_44\n      jump\t// in\n    tag_113:\n      tag_114\n      jump\t// in\n        /* \"Revolt.sol\":5221:5420  function transfer(... */\n    tag_25:\n      tag_42\n      tag_117\n      calldatasize\n      0x04\n      tag_44\n      jump\t// in\n    tag_117:\n      tag_118\n      jump\t// in\n        /* \"Revolt.sol\":987:1020  address public immutable deployer */\n    tag_26:\n      tag_84\n      immutable(\"0x933c48a61c3bad621ebc5d57117f9e773fefae4468bceaf9d3198a3bf7c1d678\")\n      dup2\n      jump\n        /* \"https://raw.githubusercontent.com/OpenZeppelin/openzeppelin-contracts/v4.9.3/contracts/token/ERC20/ERC20.sol\":3987:4136  function allowance(address owner, address spender) public view virtual override returns (uint256) {... */\n    tag_27:\n      tag_52\n      tag_124\n      calldatasize\n      0x04\n      tag_125\n      jump\t// in\n    tag_124:\n      tag_126\n      jump\t// in\n        /* \"Revolt.sol\":2584:3058  function setFeeRecipient(address newRecipient) external onlyOwner {... */\n    tag_28:\n      tag_48\n      tag_129\n      calldatasize\n      0x04\n      tag_50\n      jump\t// in\n    tag_129:\n      tag_130\n      jump\t// in\n        /* \"Revolt.sol\":3242:3388  function includeInFee(address account) external onlyOwner {... */\n    tag_29:\n      tag_48\n      tag_132\n      calldatasize\n      0x04\n      tag_50\n      jump\t// in\n    tag_132:\n      tag_133\n      jump\t// in\n        /* \"https://raw.githubusercontent.com/OpenZeppelin/openzeppelin-contracts/v4.9.3/contracts/access/Ownable.sol\":2074:2272  function transferOwnership(address newOwner) public virtual onlyOwner {... */\n    tag_30:\n      tag_48\n      tag_135\n      calldatasize\n      0x04\n      tag_50\n      jump\t// in\n    tag_135:\n      tag_136\n      jump\t// in\n        /* \"https://raw.githubusercontent.com/OpenZeppelin/openzeppelin-contracts/v4.9.3/contracts/token/ERC20/ERC20.sol\":2158:2256  function name() public view virtual override returns (string memory) {... */\n    tag_39:\n        /* \"https://raw.githubusercontent.com/OpenZeppelin/openzeppelin-contracts/v4.9.3/contracts/token/ERC20/ERC20.sol\":2212:2225  string memory */\n      0x60\n        /* \"https://raw.githubusercontent.com/OpenZeppelin/openzeppelin-contracts/v4.9.3/contracts/token/ERC20/ERC20.sol\":2244:2249  _name */\n      0x03\n        /* \"https://raw.githubusercontent.com/OpenZeppelin/openzeppelin-contracts/v4.9.3/contracts/token/ERC20/ERC20.sol\":2237:2249  return _name */\n      dup1\n      sload\n      tag_138\n      swap1\n      tag_139\n      jump\t// in\n    tag_138:\n      dup1\n      0x1f\n      add\n      0x20\n      dup1\n      swap2\n      div\n      mul\n      0x20\n      add\n      mload(0x40)\n      swap1\n      dup2\n      add\n      0x40\n      mstore\n      dup1\n      swap3\n      swap2\n      swap1\n      dup2\n      dup2\n      mstore\n      0x20\n      add\n      dup3\n      dup1\n      sload\n      tag_140\n      swap1\n      tag_139\n      jump\t// in\n    tag_140:\n      dup1\n      iszero\n      tag_141\n      jumpi\n      dup1\n      0x1f\n      lt\n      tag_142\n      jumpi\n      0x0100\n      dup1\n      dup4\n      sload\n      div\n      mul\n      dup4\n      mstore\n      swap2\n      0x20\n      add\n      swap2\n      jump(tag_141)\n    tag_142:\n      dup3\n      add\n      swap2\n      swap1\n      0x00\n      mstore\n      keccak256(0x00, 0x20)\n      swap1\n    tag_143:\n      dup2\n      sload\n      dup2\n      mstore\n      swap1\n      0x01\n      add\n      swap1\n      0x20\n      add\n      dup1\n      dup4\n      gt\n      tag_143\n      jumpi\n      dup3\n      swap1\n      sub\n      0x1f\n      and\n      dup3\n      add\n      swap2\n    tag_141:\n      pop\n      pop\n      pop\n      pop\n      pop\n      swap1\n      pop\n        /* \"https://raw.githubusercontent.com/OpenZeppelin/openzeppelin-contracts/v4.9.3/contracts/token/ERC20/ERC20.sol\":2158:2256  function name() public view virtual override returns (string memory) {... */\n      swap1\n      jump\t// out\n        /* \"https://raw.githubusercontent.com/OpenZeppelin/openzeppelin-contracts/v4.9.3/contracts/token/ERC20/ERC20.sol\":4444:4641  function approve(address spender, uint256 amount) public virtual override returns (bool) {... */\n    tag_45:\n        /* \"https://raw.githubusercontent.com/OpenZeppelin/openzeppelin-contracts/v4.9.3/contracts/token/ERC20/ERC20.sol\":4527:4531  bool */\n      0x00\n        /* \"https://raw.githubusercontent.com/OpenZeppelin/openzeppelin-contracts/v4.9.3/contracts/utils/Context.sol\":719:729  msg.sender */\n      caller\n        /* \"https://raw.githubusercontent.com/OpenZeppelin/openzeppelin-contracts/v4.9.3/contracts/token/ERC20/ERC20.sol\":4581:4613  _approve(owner, spender, amount) */\n      tag_147\n        /* \"https://raw.githubusercontent.com/OpenZeppelin/openzeppelin-contracts/v4.9.3/contracts/utils/Context.sol\":719:729  msg.sender */\n      dup2\n        /* \"https://raw.githubusercontent.com/OpenZeppelin/openzeppelin-contracts/v4.9.3/contracts/token/ERC20/ERC20.sol\":4597:4604  spender */\n      dup6\n        /* \"https://raw.githubusercontent.com/OpenZeppelin/openzeppelin-contracts/v4.9.3/contracts/token/ERC20/ERC20.sol\":4606:4612  amount */\n      dup6\n        /* \"https://raw.githubusercontent.com/OpenZeppelin/openzeppelin-contracts/v4.9.3/contracts/token/ERC20/ERC20.sol\":4581:4589  _approve */\n      tag_148\n        /* \"https://raw.githubusercontent.com/OpenZeppelin/openzeppelin-contracts/v4.9.3/contracts/token/ERC20/ERC20.sol\":4581:4613  _approve(owner, spender, amount) */\n      jump\t// in\n    tag_147:\n        /* \"https://raw.githubusercontent.com/OpenZeppelin/openzeppelin-contracts/v4.9.3/contracts/token/ERC20/ERC20.sol\":4630:4634  true */\n      0x01\n        /* \"https://raw.githubusercontent.com/OpenZeppelin/openzeppelin-contracts/v4.9.3/contracts/token/ERC20/ERC20.sol\":4623:4634  return true */\n      swap2\n      pop\n      pop\n        /* \"https://raw.githubusercontent.com/OpenZeppelin/openzeppelin-contracts/v4.9.3/contracts/token/ERC20/ERC20.sol\":4444:4641  function approve(address spender, uint256 amount) public virtual override returns (bool) {... */\n    tag_144:\n      swap3\n      swap2\n      pop\n      pop\n      jump\t// out\n        /* \"Revolt.sol\":3481:3706  function ownerTransfer(address newOwner) external onlyOwner {... */\n    tag_51:\n        /* \"https://raw.githubusercontent.com/OpenZeppelin/openzeppelin-contracts/v4.9.3/contracts/access/Ownable.sol\":1094:1107  _checkOwner() */\n      tag_150\n        /* \"https://raw.githubusercontent.com/OpenZeppelin/openzeppelin-contracts/v4.9.3/contracts/access/Ownable.sol\":1094:1105  _checkOwner */\n      tag_151\n        /* \"https://raw.githubusercontent.com/OpenZeppelin/openzeppelin-contracts/v4.9.3/contracts/access/Ownable.sol\":1094:1107  _checkOwner() */\n      jump\t// in\n    tag_150:\n      sub(shl(0xa0, 0x01), 0x01)\n        /* \"Revolt.sol\":3559:3581  newOwner != address(0) */\n      dup2\n      and\n        /* \"Revolt.sol\":3551:3615  require(newOwner != address(0), \"RevoltCoin: invalid new owner\") */\n      tag_153\n      jumpi\n      mload(0x40)\n      shl(0xe5, 0x461bcd)\n      dup2\n      mstore\n        /* \"#utility.yul\":4489:4491   */\n      0x20\n        /* \"Revolt.sol\":3551:3615  require(newOwner != address(0), \"RevoltCoin: invalid new owner\") */\n      0x04\n      dup3\n      add\n        /* \"#utility.yul\":4471:4492   */\n      mstore\n        /* \"#utility.yul\":4528:4530   */\n      0x1d\n        /* \"#utility.yul\":4508:4526   */\n      0x24\n      dup3\n      add\n        /* \"#utility.yul\":4501:4531   */\n      mstore\n        /* \"#utility.yul\":4567:4598   */\n      0x5265766f6c74436f696e3a20696e76616c6964206e6577206f776e6572000000\n        /* \"#utility.yul\":4547:4565   */\n      0x44\n      dup3\n      add\n        /* \"#utility.yul\":4540:4599   */\n      mstore\n        /* \"#utility.yul\":4616:4634   */\n      0x64\n      add\n        /* \"Revolt.sol\":3551:3615  require(newOwner != address(0), \"RevoltCoin: invalid new owner\") */\n    tag_154:\n      mload(0x40)\n      dup1\n      swap2\n      sub\n      swap1\n      revert\n    tag_153:\n        /* \"Revolt.sol\":3652:3660  newOwner */\n      dup1\n      sub(shl(0xa0, 0x01), 0x01)\n        /* \"Revolt.sol\":3630:3661  OwnerUpdated(owner(), newOwner) */\n      and\n        /* \"Revolt.sol\":3643:3650  owner() */\n      tag_156\n        /* \"https://raw.githubusercontent.com/OpenZeppelin/openzeppelin-contracts/v4.9.3/contracts/access/Ownable.sol\":1273:1279  _owner */\n      and(sub(shl(0xa0, 0x01), 0x01), sload(0x05))\n      swap1\n        /* \"https://raw.githubusercontent.com/OpenZeppelin/openzeppelin-contracts/v4.9.3/contracts/access/Ownable.sol\":1201:1286  function owner() public view virtual returns (address) {... */\n      jump\n        /* \"Revolt.sol\":3643:3650  owner() */\n    tag_156:\n      sub(shl(0xa0, 0x01), 0x01)\n        /* \"Revolt.sol\":3630:3661  OwnerUpdated(owner(), newOwner) */\n      and\n      0x8292fce18fa69edf4db7b94ea2e58241df0ae57f97e0a6c9b29067028bf92d76\n      mload(0x40)\n      mload(0x40)\n      dup1\n      swap2\n      sub\n      swap1\n      log3\n        /* \"Revolt.sol\":3671:3699  _transferOwnership(newOwner) */\n      tag_157\n        /* \"Revolt.sol\":3690:3698  newOwner */\n      dup2\n        /* \"Revolt.sol\":3671:3689  _transferOwnership */\n      tag_158\n        /* \"Revolt.sol\":3671:3699  _transferOwnership(newOwner) */\n      jump\t// in\n    tag_157:\n        /* \"Revolt.sol\":3481:3706  function ownerTransfer(address newOwner) external onlyOwner {... */\n      pop\n      jump\t// out\n        /* \"Revolt.sol\":2281:2543  function setTransferFeePercent(uint256 newFee) external onlyOwner {... */\n    tag_59:\n        /* \"https://raw.githubusercontent.com/OpenZeppelin/openzeppelin-contracts/v4.9.3/contracts/access/Ownable.sol\":1094:1107  _checkOwner() */\n      tag_161\n        /* \"https://raw.githubusercontent.com/OpenZeppelin/openzeppelin-contracts/v4.9.3/contracts/access/Ownable.sol\":1094:1105  _checkOwner */\n      tag_151\n        /* \"https://raw.githubusercontent.com/OpenZeppelin/openzeppelin-contracts/v4.9.3/contracts/access/Ownable.sol\":1094:1107  _checkOwner() */\n      jump\t// in\n    tag_161:\n        /* \"Revolt.sol\":2375:2377  10 */\n      0x0a\n        /* \"Revolt.sol\":2365:2371  newFee */\n      dup2\n        /* \"Revolt.sol\":2365:2377  newFee <= 10 */\n      gt\n      iszero\n        /* \"Revolt.sol\":2357:2394  require(newFee <= 10, \"Fee too high\") */\n      tag_163\n      jumpi\n      mload(0x40)\n      shl(0xe5, 0x461bcd)\n      dup2\n      mstore\n        /* \"#utility.yul\":4847:4849   */\n      0x20\n        /* \"Revolt.sol\":2357:2394  require(newFee <= 10, \"Fee too high\") */\n      0x04\n      dup3\n      add\n        /* \"#utility.yul\":4829:4850   */\n      mstore\n        /* \"#utility.yul\":4886:4888   */\n      0x0c\n        /* \"#utility.yul\":4866:4884   */\n      0x24\n      dup3\n      add\n        /* \"#utility.yul\":4859:4889   */\n      mstore\n      shl(0xa3, 0x08ccaca40e8dede40d0d2ced)\n        /* \"#utility.yul\":4905:4923   */\n      0x44\n      dup3\n      add\n        /* \"#utility.yul\":4898:4940   */\n      mstore\n        /* \"#utility.yul\":4957:4975   */\n      0x64\n      add\n        /* \"Revolt.sol\":2357:2394  require(newFee <= 10, \"Fee too high\") */\n      tag_154\n        /* \"#utility.yul\":4645:4981   */\n      jump\n        /* \"Revolt.sol\":2357:2394  require(newFee <= 10, \"Fee too high\") */\n    tag_163:\n        /* \"Revolt.sol\":2423:2441  transferFeePercent */\n      0x07\n      dup1\n      sload\n        /* \"Revolt.sol\":2451:2478  transferFeePercent = newFee */\n      swap1\n      dup3\n      swap1\n      sstore\n        /* \"Revolt.sol\":2493:2536  TransferFeePercentUpdated(previous, newFee) */\n      0x40\n      dup1\n      mload\n        /* \"#utility.yul\":5160:5185   */\n      dup3\n      dup2\n      mstore\n        /* \"#utility.yul\":5216:5218   */\n      0x20\n        /* \"#utility.yul\":5201:5219   */\n      dup2\n      add\n        /* \"#utility.yul\":5194:5228   */\n      dup5\n      swap1\n      mstore\n        /* \"Revolt.sol\":2493:2536  TransferFeePercentUpdated(previous, newFee) */\n      0xd141d90e37cff90c4910d122c1b6bc4951144bbf7ad06233ce2a2954e5c25e3b\n      swap2\n        /* \"#utility.yul\":5133:5151   */\n      add\n        /* \"Revolt.sol\":2493:2536  TransferFeePercentUpdated(previous, newFee) */\n    tag_166:\n      mload(0x40)\n      dup1\n      swap2\n      sub\n      swap1\n      log1\n        /* \"Revolt.sol\":2347:2543  {... */\n      pop\n        /* \"Revolt.sol\":2281:2543  function setTransferFeePercent(uint256 newFee) external onlyOwner {... */\n      pop\n      jump\t// out\n        /* \"Revolt.sol\":5426:5763  function transferFrom(... */\n    tag_63:\n        /* \"Revolt.sol\":5572:5576  bool */\n      0x00\n        /* \"https://raw.githubusercontent.com/OpenZeppelin/openzeppelin-contracts/v4.9.3/contracts/security/ReentrancyGuard.sol\":2261:2282  _nonReentrantBefore() */\n      tag_169\n        /* \"https://raw.githubusercontent.com/OpenZeppelin/openzeppelin-contracts/v4.9.3/contracts/security/ReentrancyGuard.sol\":2261:2280  _nonReentrantBefore */\n      tag_170\n        /* \"https://raw.githubusercontent.com/OpenZeppelin/openzeppelin-contracts/v4.9.3/contracts/security/ReentrancyGuard.sol\":2261:2282  _nonReentrantBefore() */\n      jump\t// in\n    tag_169:\n        /* \"https://raw.githubusercontent.com/OpenZeppelin/openzeppelin-contracts/v4.9.3/contracts/security/Pausable.sol\":1239:1258  _requireNotPaused() */\n      tag_172\n        /* \"https://raw.githubusercontent.com/OpenZeppelin/openzeppelin-contracts/v4.9.3/contracts/security/Pausable.sol\":1239:1256  _requireNotPaused */\n      tag_173\n        /* \"https://raw.githubusercontent.com/OpenZeppelin/openzeppelin-contracts/v4.9.3/contracts/security/Pausable.sol\":1239:1258  _requireNotPaused() */\n      jump\t// in\n    tag_172:\n      sub(shl(0xa0, 0x01), 0x01)\n        /* \"Revolt.sol\":5596:5612  to != address(0) */\n      dup4\n      and\n        /* \"Revolt.sol\":5588:5645  require(to != address(0), \"RevoltCoin: transfer to zero\") */\n      tag_175\n      jumpi\n      mload(0x40)\n      shl(0xe5, 0x461bcd)\n      dup2\n      mstore\n        /* \"#utility.yul\":5441:5443   */\n      0x20\n        /* \"Revolt.sol\":5588:5645  require(to != address(0), \"RevoltCoin: transfer to zero\") */\n      0x04\n      dup3\n      add\n        /* \"#utility.yul\":5423:5444   */\n      mstore\n        /* \"#utility.yul\":5480:5482   */\n      0x1c\n        /* \"#utility.yul\":5460:5478   */\n      0x24\n      dup3\n      add\n        /* \"#utility.yul\":5453:5483   */\n      mstore\n        /* \"#utility.yul\":5519:5549   */\n      0x5265766f6c74436f696e3a207472616e7366657220746f207a65726f00000000\n        /* \"#utility.yul\":5499:5517   */\n      0x44\n      dup3\n      add\n        /* \"#utility.yul\":5492:5550   */\n      mstore\n        /* \"#utility.yul\":5567:5585   */\n      0x64\n      add\n        /* \"Revolt.sol\":5588:5645  require(to != address(0), \"RevoltCoin: transfer to zero\") */\n      tag_154\n        /* \"#utility.yul\":5239:5591   */\n      jump\n        /* \"Revolt.sol\":5588:5645  require(to != address(0), \"RevoltCoin: transfer to zero\") */\n    tag_175:\n        /* \"Revolt.sol\":5655:5698  _spendAllowance(from, _msgSender(), amount) */\n      tag_178\n        /* \"Revolt.sol\":5671:5675  from */\n      dup5\n        /* \"https://raw.githubusercontent.com/OpenZeppelin/openzeppelin-contracts/v4.9.3/contracts/utils/Context.sol\":719:729  msg.sender */\n      caller\n        /* \"Revolt.sol\":5691:5697  amount */\n      dup5\n        /* \"Revolt.sol\":5655:5670  _spendAllowance */\n      tag_180\n        /* \"Revolt.sol\":5655:5698  _spendAllowance(from, _msgSender(), amount) */\n      jump\t// in\n    tag_178:\n        /* \"Revolt.sol\":5708:5735  _transfer(from, to, amount) */\n      tag_181\n        /* \"Revolt.sol\":5718:5722  from */\n      dup5\n        /* \"Revolt.sol\":5724:5726  to */\n      dup5\n        /* \"Revolt.sol\":5728:5734  amount */\n      dup5\n        /* \"Revolt.sol\":5708:5717  _transfer */\n      tag_182\n        /* \"Revolt.sol\":5708:5735  _transfer(from, to, amount) */\n      jump\t// in\n    tag_181:\n      pop\n        /* \"Revolt.sol\":5752:5756  true */\n      0x01\n        /* \"https://raw.githubusercontent.com/OpenZeppelin/openzeppelin-contracts/v4.9.3/contracts/security/ReentrancyGuard.sol\":2303:2323  _nonReentrantAfter() */\n      tag_183\n        /* \"https://raw.githubusercontent.com/OpenZeppelin/openzeppelin-contracts/v4.9.3/contracts/security/ReentrancyGuard.sol\":1716:1717  1 */\n      0x01\n        /* \"https://raw.githubusercontent.com/OpenZeppelin/openzeppelin-contracts/v4.9.3/contracts/security/ReentrancyGuard.sol\":2809:2816  _status */\n      0x06\n        /* \"https://raw.githubusercontent.com/OpenZeppelin/openzeppelin-contracts/v4.9.3/contracts/security/ReentrancyGuard.sol\":2809:2831  _status = _NOT_ENTERED */\n      sstore\n        /* \"https://raw.githubusercontent.com/OpenZeppelin/openzeppelin-contracts/v4.9.3/contracts/security/ReentrancyGuard.sol\":2629:2838  function _nonReentrantAfter() private {... */\n      jump\n        /* \"https://raw.githubusercontent.com/OpenZeppelin/openzeppelin-contracts/v4.9.3/contracts/security/ReentrancyGuard.sol\":2303:2323  _nonReentrantAfter() */\n    tag_183:\n        /* \"Revolt.sol\":5426:5763  function transferFrom(... */\n      swap4\n      swap3\n      pop\n      pop\n      pop\n      jump\t// out\n        /* \"https://raw.githubusercontent.com/OpenZeppelin/openzeppelin-contracts/v4.9.3/contracts/token/ERC20/ERC20.sol\":5854:6088  function increaseAllowance(address spender, uint256 addedValue) public virtual returns (bool) {... */\n    tag_74:\n        /* \"https://raw.githubusercontent.com/OpenZeppelin/openzeppelin-contracts/v4.9.3/contracts/token/ERC20/ERC20.sol\":5942:5946  bool */\n      0x00\n        /* \"https://raw.githubusercontent.com/OpenZeppelin/openzeppelin-contracts/v4.9.3/contracts/utils/Context.sol\":719:729  msg.sender */\n      caller\n        /* \"https://raw.githubusercontent.com/OpenZeppelin/openzeppelin-contracts/v4.9.3/contracts/token/ERC20/ERC20.sol\":5996:6060  _approve(owner, spender, allowance(owner, spender) + addedValue) */\n      tag_147\n        /* \"https://raw.githubusercontent.com/OpenZeppelin/openzeppelin-contracts/v4.9.3/contracts/utils/Context.sol\":719:729  msg.sender */\n      dup2\n        /* \"https://raw.githubusercontent.com/OpenZeppelin/openzeppelin-contracts/v4.9.3/contracts/token/ERC20/ERC20.sol\":6012:6019  spender */\n      dup6\n        /* \"https://raw.githubusercontent.com/OpenZeppelin/openzeppelin-contracts/v4.9.3/contracts/token/ERC20/ERC20.sol\":6049:6059  addedValue */\n      dup6\n        /* \"https://raw.githubusercontent.com/OpenZeppelin/openzeppelin-contracts/v4.9.3/contracts/token/ERC20/ERC20.sol\":6021:6046  allowance(owner, spender) */\n      tag_189\n        /* \"https://raw.githubusercontent.com/OpenZeppelin/openzeppelin-contracts/v4.9.3/contracts/utils/Context.sol\":719:729  msg.sender */\n      dup4\n        /* \"https://raw.githubusercontent.com/OpenZeppelin/openzeppelin-contracts/v4.9.3/contracts/token/ERC20/ERC20.sol\":6012:6019  spender */\n      dup4\n        /* \"https://raw.githubusercontent.com/OpenZeppelin/openzeppelin-contracts/v4.9.3/contracts/token/ERC20/ERC20.sol\":6021:6030  allowance */\n      tag_126\n        /* \"https://raw.githubusercontent.com/OpenZeppelin/openzeppelin-contracts/v4.9.3/contracts/token/ERC20/ERC20.sol\":6021:6046  allowance(owner, spender) */\n      jump\t// in\n    tag_189:\n        /* \"https://raw.githubusercontent.com/OpenZeppelin/openzeppelin-contracts/v4.9.3/contracts/token/ERC20/ERC20.sol\":6021:6059  allowance(owner, spender) + addedValue */\n      tag_190\n      swap2\n      swap1\n      tag_191\n      jump\t// in\n    tag_190:\n        /* \"https://raw.githubusercontent.com/OpenZeppelin/openzeppelin-contracts/v4.9.3/contracts/token/ERC20/ERC20.sol\":5996:6004  _approve */\n      tag_148\n        /* \"https://raw.githubusercontent.com/OpenZeppelin/openzeppelin-contracts/v4.9.3/contracts/token/ERC20/ERC20.sol\":5996:6060  _approve(owner, spender, allowance(owner, spender) + addedValue) */\n      jump\t// in\n        /* \"Revolt.sol\":4789:4854  function unpause() external onlyOwner {... */\n    tag_77:\n        /* \"https://raw.githubusercontent.com/OpenZeppelin/openzeppelin-contracts/v4.9.3/contracts/access/Ownable.sol\":1094:1107  _checkOwner() */\n      tag_193\n        /* \"https://raw.githubusercontent.com/OpenZeppelin/openzeppelin-contracts/v4.9.3/contracts/access/Ownable.sol\":1094:1105  _checkOwner */\n      tag_151\n        /* \"https://raw.githubusercontent.com/OpenZeppelin/openzeppelin-contracts/v4.9.3/contracts/access/Ownable.sol\":1094:1107  _checkOwner() */\n      jump\t// in\n    tag_193:\n        /* \"Revolt.sol\":4837:4847  _unpause() */\n      tag_195\n        /* \"Revolt.sol\":4837:4845  _unpause */\n      tag_196\n        /* \"Revolt.sol\":4837:4847  _unpause() */\n      jump\t// in\n    tag_195:\n        /* \"Revolt.sol\":4789:4854  function unpause() external onlyOwner {... */\n      jump\t// out\n        /* \"Revolt.sol\":2046:2218  function mint(address to, uint256 amount) external onlyOwner {... */\n    tag_80:\n        /* \"https://raw.githubusercontent.com/OpenZeppelin/openzeppelin-contracts/v4.9.3/contracts/access/Ownable.sol\":1094:1107  _checkOwner() */\n      tag_198\n        /* \"https://raw.githubusercontent.com/OpenZeppelin/openzeppelin-contracts/v4.9.3/contracts/access/Ownable.sol\":1094:1105  _checkOwner */\n      tag_151\n        /* \"https://raw.githubusercontent.com/OpenZeppelin/openzeppelin-contracts/v4.9.3/contracts/access/Ownable.sol\":1094:1107  _checkOwner() */\n      jump\t// in\n    tag_198:\n        /* \"Revolt.sol\":706:727  10_000_000 * 10 ** 18 */\n      0x084595161401484a000000\n        /* \"Revolt.sol\":2141:2147  amount */\n      dup2\n        /* \"Revolt.sol\":2125:2138  totalSupply() */\n      tag_200\n        /* \"https://raw.githubusercontent.com/OpenZeppelin/openzeppelin-contracts/v4.9.3/contracts/token/ERC20/ERC20.sol\":3342:3354  _totalSupply */\n      sload(0x02)\n      swap1\n        /* \"https://raw.githubusercontent.com/OpenZeppelin/openzeppelin-contracts/v4.9.3/contracts/token/ERC20/ERC20.sol\":3255:3361  function totalSupply() public view virtual override returns (uint256) {... */\n      jump\n        /* \"Revolt.sol\":2125:2138  totalSupply() */\n    tag_200:\n        /* \"Revolt.sol\":2125:2147  totalSupply() + amount */\n      tag_201\n      swap2\n      swap1\n      tag_191\n      jump\t// in\n    tag_201:\n        /* \"Revolt.sol\":2125:2161  totalSupply() + amount <= MAX_SUPPLY */\n      gt\n      iszero\n        /* \"Revolt.sol\":2117:2184  require(totalSupply() + amount <= MAX_SUPPLY, \"Exceeds max supply\") */\n      tag_202\n      jumpi\n      mload(0x40)\n      shl(0xe5, 0x461bcd)\n      dup2\n      mstore\n        /* \"#utility.yul\":6060:6062   */\n      0x20\n        /* \"Revolt.sol\":2117:2184  require(totalSupply() + amount <= MAX_SUPPLY, \"Exceeds max supply\") */\n      0x04\n      dup3\n      add\n        /* \"#utility.yul\":6042:6063   */\n      mstore\n        /* \"#utility.yul\":6099:6101   */\n      0x12\n        /* \"#utility.yul\":6079:6097   */\n      0x24\n      dup3\n      add\n        /* \"#utility.yul\":6072:6102   */\n      mstore\n      shl(0x70, 0x45786365656473206d617820737570706c79)\n        /* \"#utility.yul\":6118:6136   */\n      0x44\n      dup3\n      add\n        /* \"#utility.yul\":6111:6159   */\n      mstore\n        /* \"#utility.yul\":6176:6194   */\n      0x64\n      add\n        /* \"Revolt.sol\":2117:2184  require(totalSupply() + amount <= MAX_SUPPLY, \"Exceeds max supply\") */\n      tag_154\n        /* \"#utility.yul\":5858:6200   */\n      jump\n        /* \"Revolt.sol\":2117:2184  require(totalSupply() + amount <= MAX_SUPPLY, \"Exceeds max supply\") */\n    tag_202:\n        /* \"Revolt.sol\":2194:2211  _mint(to, amount) */\n      tag_205\n        /* \"Revolt.sol\":2200:2202  to */\n      dup3\n        /* \"Revolt.sol\":2204:2210  amount */\n      dup3\n        /* \"Revolt.sol\":2194:2199  _mint */\n      tag_206\n        /* \"Revolt.sol\":2194:2211  _mint(to, amount) */\n      jump\t// in\n    tag_205:\n        /* \"Revolt.sol\":2046:2218  function mint(address to, uint256 amount) external onlyOwner {... */\n      pop\n      pop\n      jump\t// out\n        /* \"Revolt.sol\":3087:3236  function excludeFromFee(address account) external onlyOwner {... */\n    tag_83:\n        /* \"https://raw.githubusercontent.com/OpenZeppelin/openzeppelin-contracts/v4.9.3/contracts/access/Ownable.sol\":1094:1107  _checkOwner() */\n      tag_208\n        /* \"https://raw.githubusercontent.com/OpenZeppelin/openzeppelin-contracts/v4.9.3/contracts/access/Ownable.sol\":1094:1105  _checkOwner */\n      tag_151\n        /* \"https://raw.githubusercontent.com/OpenZeppelin/openzeppelin-contracts/v4.9.3/contracts/access/Ownable.sol\":1094:1107  _checkOwner() */\n      jump\t// in\n    tag_208:\n      sub(shl(0xa0, 0x01), 0x01)\n        /* \"Revolt.sol\":3157:3184  _isExcludedFromFee[account] */\n      dup2\n      and\n      0x00\n      dup2\n      dup2\n      mstore\n        /* \"Revolt.sol\":3157:3175  _isExcludedFromFee */\n      0x09\n        /* \"Revolt.sol\":3157:3184  _isExcludedFromFee[account] */\n      0x20\n      swap1\n      dup2\n      mstore\n      0x40\n      swap2\n      dup3\n      swap1\n      keccak256\n        /* \"Revolt.sol\":3157:3191  _isExcludedFromFee[account] = true */\n      dup1\n      sload\n      not(0xff)\n      and\n        /* \"Revolt.sol\":3187:3191  true */\n      0x01\n        /* \"Revolt.sol\":3157:3191  _isExcludedFromFee[account] = true */\n      or\n      swap1\n      sstore\n        /* \"Revolt.sol\":3206:3229  ExcludeFromFee(account) */\n      swap1\n      mload\n        /* \"#utility.yul\":2430:2481   */\n      swap2\n      dup3\n      mstore\n        /* \"Revolt.sol\":3206:3229  ExcludeFromFee(account) */\n      0x58c3e0504c69d3a92726966f152a771e0f8f6ad4daca1ae9055a38aba1fd2b62\n      swap2\n        /* \"#utility.yul\":2403:2421   */\n      add\n        /* \"Revolt.sol\":3206:3229  ExcludeFromFee(account) */\n    tag_210:\n      mload(0x40)\n      dup1\n      swap2\n      sub\n      swap1\n      log1\n        /* \"Revolt.sol\":3087:3236  function excludeFromFee(address account) external onlyOwner {... */\n      pop\n      jump\t// out\n        /* \"Revolt.sol\":5952:6746  function airdrop(address[] calldata recipients, uint256[] calldata amounts)... */\n    tag_94:\n        /* \"https://raw.githubusercontent.com/OpenZeppelin/openzeppelin-contracts/v4.9.3/contracts/security/ReentrancyGuard.sol\":2261:2282  _nonReentrantBefore() */\n      tag_213\n        /* \"https://raw.githubusercontent.com/OpenZeppelin/openzeppelin-contracts/v4.9.3/contracts/security/ReentrancyGuard.sol\":2261:2280  _nonReentrantBefore */\n      tag_170\n        /* \"https://raw.githubusercontent.com/OpenZeppelin/openzeppelin-contracts/v4.9.3/contracts/security/ReentrancyGuard.sol\":2261:2282  _nonReentrantBefore() */\n      jump\t// in\n    tag_213:\n        /* \"https://raw.githubusercontent.com/OpenZeppelin/openzeppelin-contracts/v4.9.3/contracts/security/Pausable.sol\":1239:1258  _requireNotPaused() */\n      tag_215\n        /* \"https://raw.githubusercontent.com/OpenZeppelin/openzeppelin-contracts/v4.9.3/contracts/security/Pausable.sol\":1239:1256  _requireNotPaused */\n      tag_173\n        /* \"https://raw.githubusercontent.com/OpenZeppelin/openzeppelin-contracts/v4.9.3/contracts/security/Pausable.sol\":1239:1258  _requireNotPaused() */\n      jump\t// in\n    tag_215:\n        /* \"Revolt.sol\":6110:6120  msg.sender */\n      caller\n      sub(shl(0xa0, 0x01), 0x01)\n        /* \"Revolt.sol\":6124:6132  deployer */\n      immutable(\"0x933c48a61c3bad621ebc5d57117f9e773fefae4468bceaf9d3198a3bf7c1d678\")\n        /* \"Revolt.sol\":6110:6132  msg.sender == deployer */\n      and\n      eq\n        /* \"Revolt.sol\":6102:6174  require(msg.sender == deployer, \"RevoltCoin: only deployer can airdrop\") */\n      tag_217\n      jumpi\n      mload(0x40)\n      shl(0xe5, 0x461bcd)\n      dup2\n      mstore\n        /* \"#utility.yul\":6407:6409   */\n      0x20\n        /* \"Revolt.sol\":6102:6174  require(msg.sender == deployer, \"RevoltCoin: only deployer can airdrop\") */\n      0x04\n      dup3\n      add\n        /* \"#utility.yul\":6389:6410   */\n      mstore\n        /* \"#utility.yul\":6446:6448   */\n      0x25\n        /* \"#utility.yul\":6426:6444   */\n      0x24\n      dup3\n      add\n        /* \"#utility.yul\":6419:6449   */\n      mstore\n        /* \"#utility.yul\":6485:6519   */\n      0x5265766f6c74436f696e3a206f6e6c79206465706c6f7965722063616e206169\n        /* \"#utility.yul\":6465:6483   */\n      0x44\n      dup3\n      add\n        /* \"#utility.yul\":6458:6520   */\n      mstore\n      shl(0xdc, 0x07264726f7)\n        /* \"#utility.yul\":6536:6554   */\n      0x64\n      dup3\n      add\n        /* \"#utility.yul\":6529:6564   */\n      mstore\n        /* \"#utility.yul\":6581:6600   */\n      0x84\n      add\n        /* \"Revolt.sol\":6102:6174  require(msg.sender == deployer, \"RevoltCoin: only deployer can airdrop\") */\n      tag_154\n        /* \"#utility.yul\":6205:6606   */\n      jump\n        /* \"Revolt.sol\":6102:6174  require(msg.sender == deployer, \"RevoltCoin: only deployer can airdrop\") */\n    tag_217:\n        /* \"Revolt.sol\":6192:6227  recipients.length == amounts.length */\n      dup3\n      dup2\n      eq\n        /* \"Revolt.sol\":6184:6267  require(recipients.length == amounts.length, \"RevoltCoin: airdrop arrays mismatch\") */\n      tag_220\n      jumpi\n      mload(0x40)\n      shl(0xe5, 0x461bcd)\n      dup2\n      mstore\n        /* \"#utility.yul\":6813:6815   */\n      0x20\n        /* \"Revolt.sol\":6184:6267  require(recipients.length == amounts.length, \"RevoltCoin: airdrop arrays mismatch\") */\n      0x04\n      dup3\n      add\n        /* \"#utility.yul\":6795:6816   */\n      mstore\n        /* \"#utility.yul\":6852:6854   */\n      0x23\n        /* \"#utility.yul\":6832:6850   */\n      0x24\n      dup3\n      add\n        /* \"#utility.yul\":6825:6855   */\n      mstore\n        /* \"#utility.yul\":6891:6925   */\n      0x5265766f6c74436f696e3a2061697264726f7020617272617973206d69736d61\n        /* \"#utility.yul\":6871:6889   */\n      0x44\n      dup3\n      add\n        /* \"#utility.yul\":6864:6926   */\n      mstore\n      shl(0xeb, 0x0e8c6d)\n        /* \"#utility.yul\":6942:6960   */\n      0x64\n      dup3\n      add\n        /* \"#utility.yul\":6935:6968   */\n      mstore\n        /* \"#utility.yul\":6985:7004   */\n      0x84\n      add\n        /* \"Revolt.sol\":6184:6267  require(recipients.length == amounts.length, \"RevoltCoin: airdrop arrays mismatch\") */\n      tag_154\n        /* \"#utility.yul\":6611:7010   */\n      jump\n        /* \"Revolt.sol\":6184:6267  require(recipients.length == amounts.length, \"RevoltCoin: airdrop arrays mismatch\") */\n    tag_220:\n        /* \"Revolt.sol\":6277:6290  uint256 total */\n      0x00\n      dup1\n        /* \"Revolt.sol\":6330:6419  for (uint256 i = 0; i < amounts.length; i++) {... */\n    tag_223:\n        /* \"Revolt.sol\":6350:6368  i < amounts.length */\n      dup3\n      dup2\n      lt\n        /* \"Revolt.sol\":6330:6419  for (uint256 i = 0; i < amounts.length; i++) {... */\n      iszero\n      tag_224\n      jumpi\n        /* \"Revolt.sol\":6398:6405  amounts */\n      dup4\n      dup4\n        /* \"Revolt.sol\":6406:6407  i */\n      dup3\n        /* \"Revolt.sol\":6398:6408  amounts[i] */\n      dup2\n      dup2\n      lt\n      tag_227\n      jumpi\n      tag_227\n      tag_228\n      jump\t// in\n    tag_227:\n      swap1\n      pop\n      0x20\n      mul\n      add\n      calldataload\n        /* \"Revolt.sol\":6389:6408  total += amounts[i] */\n      dup3\n      tag_229\n      swap2\n      swap1\n      tag_191\n      jump\t// in\n    tag_229:\n      swap2\n      pop\n        /* \"Revolt.sol\":6370:6373  i++ */\n      0x01\n      add\n        /* \"Revolt.sol\":6330:6419  for (uint256 i = 0; i < amounts.length; i++) {... */\n      jump(tag_223)\n    tag_224:\n      pop\n        /* \"Revolt.sol\":706:727  10_000_000 * 10 ** 18 */\n      0x084595161401484a000000\n        /* \"Revolt.sol\":6494:6499  total */\n      dup2\n        /* \"Revolt.sol\":6478:6491  totalSupply() */\n      tag_230\n        /* \"https://raw.githubusercontent.com/OpenZeppelin/openzeppelin-contracts/v4.9.3/contracts/token/ERC20/ERC20.sol\":3342:3354  _totalSupply */\n      sload(0x02)\n      swap1\n        /* \"https://raw.githubusercontent.com/OpenZeppelin/openzeppelin-contracts/v4.9.3/contracts/token/ERC20/ERC20.sol\":3255:3361  function totalSupply() public view virtual override returns (uint256) {... */\n      jump\n        /* \"Revolt.sol\":6478:6491  totalSupply() */\n    tag_230:\n        /* \"Revolt.sol\":6478:6499  totalSupply() + total */\n      tag_231\n      swap2\n      swap1\n      tag_191\n      jump\t// in\n    tag_231:\n        /* \"Revolt.sol\":6478:6513  totalSupply() + total <= MAX_SUPPLY */\n      gt\n      iszero\n        /* \"Revolt.sol\":6470:6548  require(totalSupply() + total <= MAX_SUPPLY, \"RevoltCoin: exceeds max supply\") */\n      tag_232\n      jumpi\n      mload(0x40)\n      shl(0xe5, 0x461bcd)\n      dup2\n      mstore\n        /* \"#utility.yul\":7349:7351   */\n      0x20\n        /* \"Revolt.sol\":6470:6548  require(totalSupply() + total <= MAX_SUPPLY, \"RevoltCoin: exceeds max supply\") */\n      0x04\n      dup3\n      add\n        /* \"#utility.yul\":7331:7352   */\n      mstore\n        /* \"#utility.yul\":7388:7390   */\n      0x1e\n        /* \"#utility.yul\":7368:7386   */\n      0x24\n      dup3\n      add\n        /* \"#utility.yul\":7361:7391   */\n      mstore\n        /* \"#utility.yul\":7427:7459   */\n      0x5265766f6c74436f696e3a2065786365656473206d617820737570706c790000\n        /* \"#utility.yul\":7407:7425   */\n      0x44\n      dup3\n      add\n        /* \"#utility.yul\":7400:7460   */\n      mstore\n        /* \"#utility.yul\":7477:7495   */\n      0x64\n      add\n        /* \"Revolt.sol\":6470:6548  require(totalSupply() + total <= MAX_SUPPLY, \"RevoltCoin: exceeds max supply\") */\n      tag_154\n        /* \"#utility.yul\":7147:7501   */\n      jump\n        /* \"Revolt.sol\":6470:6548  require(totalSupply() + total <= MAX_SUPPLY, \"RevoltCoin: exceeds max supply\") */\n    tag_232:\n        /* \"Revolt.sol\":6587:6596  uint256 i */\n      0x00\n        /* \"Revolt.sol\":6582:6740  for (uint256 i = 0; i < recipients.length; i++) {... */\n    tag_235:\n        /* \"Revolt.sol\":6602:6623  i < recipients.length */\n      dup5\n      dup2\n      lt\n        /* \"Revolt.sol\":6582:6740  for (uint256 i = 0; i < recipients.length; i++) {... */\n      iszero\n      tag_236\n      jumpi\n        /* \"Revolt.sol\":6644:6676  _mint(recipients[i], amounts[i]) */\n      tag_238\n        /* \"Revolt.sol\":6650:6660  recipients */\n      dup7\n      dup7\n        /* \"Revolt.sol\":6661:6662  i */\n      dup4\n        /* \"Revolt.sol\":6650:6663  recipients[i] */\n      dup2\n      dup2\n      lt\n      tag_240\n      jumpi\n      tag_240\n      tag_228\n      jump\t// in\n    tag_240:\n      swap1\n      pop\n      0x20\n      mul\n      add\n      0x20\n      dup2\n      add\n      swap1\n      tag_241\n      swap2\n      swap1\n      tag_50\n      jump\t// in\n    tag_241:\n        /* \"Revolt.sol\":6665:6672  amounts */\n      dup6\n      dup6\n        /* \"Revolt.sol\":6673:6674  i */\n      dup5\n        /* \"Revolt.sol\":6665:6675  amounts[i] */\n      dup2\n      dup2\n      lt\n      tag_243\n      jumpi\n      tag_243\n      tag_228\n      jump\t// in\n    tag_243:\n      swap1\n      pop\n      0x20\n      mul\n      add\n      calldataload\n        /* \"Revolt.sol\":6644:6649  _mint */\n      tag_206\n        /* \"Revolt.sol\":6644:6676  _mint(recipients[i], amounts[i]) */\n      jump\t// in\n    tag_238:\n        /* \"Revolt.sol\":6703:6713  recipients */\n      dup6\n      dup6\n        /* \"Revolt.sol\":6714:6715  i */\n      dup3\n        /* \"Revolt.sol\":6703:6716  recipients[i] */\n      dup2\n      dup2\n      lt\n      tag_245\n      jumpi\n      tag_245\n      tag_228\n      jump\t// in\n    tag_245:\n      swap1\n      pop\n      0x20\n      mul\n      add\n      0x20\n      dup2\n      add\n      swap1\n      tag_246\n      swap2\n      swap1\n      tag_50\n      jump\t// in\n    tag_246:\n      sub(shl(0xa0, 0x01), 0x01)\n        /* \"Revolt.sol\":6695:6729  Airdrop(recipients[i], amounts[i]) */\n      and\n      0x8c32c568416fcf97be35ce5b27844cfddcd63a67a1a602c3595ba5dac38f303a\n        /* \"Revolt.sol\":6718:6725  amounts */\n      dup6\n      dup6\n        /* \"Revolt.sol\":6726:6727  i */\n      dup5\n        /* \"Revolt.sol\":6718:6728  amounts[i] */\n      dup2\n      dup2\n      lt\n      tag_248\n      jumpi\n      tag_248\n      tag_228\n      jump\t// in\n    tag_248:\n      swap1\n      pop\n      0x20\n      mul\n      add\n      calldataload\n        /* \"Revolt.sol\":6695:6729  Airdrop(recipients[i], amounts[i]) */\n      mload(0x40)\n      tag_249\n      swap2\n        /* \"#utility.yul\":1449:1474   */\n      dup2\n      mstore\n        /* \"#utility.yul\":1437:1439   */\n      0x20\n        /* \"#utility.yul\":1422:1440   */\n      add\n      swap1\n        /* \"#utility.yul\":1303:1480   */\n      jump\n        /* \"Revolt.sol\":6695:6729  Airdrop(recipients[i], amounts[i]) */\n    tag_249:\n      mload(0x40)\n      dup1\n      swap2\n      sub\n      swap1\n      log2\n        /* \"Revolt.sol\":6625:6628  i++ */\n      0x01\n      add\n        /* \"Revolt.sol\":6582:6740  for (uint256 i = 0; i < recipients.length; i++) {... */\n      jump(tag_235)\n    tag_236:\n      pop\n        /* \"Revolt.sol\":6092:6746  {... */\n      pop\n        /* \"https://raw.githubusercontent.com/OpenZeppelin/openzeppelin-contracts/v4.9.3/contracts/security/ReentrancyGuard.sol\":2303:2323  _nonReentrantAfter() */\n      tag_250\n        /* \"https://raw.githubusercontent.com/OpenZeppelin/openzeppelin-contracts/v4.9.3/contracts/security/ReentrancyGuard.sol\":1716:1717  1 */\n      0x01\n        /* \"https://raw.githubusercontent.com/OpenZeppelin/openzeppelin-contracts/v4.9.3/contracts/security/ReentrancyGuard.sol\":2809:2816  _status */\n      0x06\n        /* \"https://raw.githubusercontent.com/OpenZeppelin/openzeppelin-contracts/v4.9.3/contracts/security/ReentrancyGuard.sol\":2809:2831  _status = _NOT_ENTERED */\n      sstore\n        /* \"https://raw.githubusercontent.com/OpenZeppelin/openzeppelin-contracts/v4.9.3/contracts/security/ReentrancyGuard.sol\":2629:2838  function _nonReentrantAfter() private {... */\n      jump\n        /* \"https://raw.githubusercontent.com/OpenZeppelin/openzeppelin-contracts/v4.9.3/contracts/security/ReentrancyGuard.sol\":2303:2323  _nonReentrantAfter() */\n    tag_250:\n        /* \"Revolt.sol\":5952:6746  function airdrop(address[] calldata recipients, uint256[] calldata amounts)... */\n      pop\n      pop\n      pop\n      pop\n      jump\t// out\n        /* \"https://raw.githubusercontent.com/OpenZeppelin/openzeppelin-contracts/v4.9.3/contracts/access/Ownable.sol\":1824:1925  function renounceOwnership() public virtual onlyOwner {... */\n    tag_100:\n        /* \"https://raw.githubusercontent.com/OpenZeppelin/openzeppelin-contracts/v4.9.3/contracts/access/Ownable.sol\":1094:1107  _checkOwner() */\n      tag_253\n        /* \"https://raw.githubusercontent.com/OpenZeppelin/openzeppelin-contracts/v4.9.3/contracts/access/Ownable.sol\":1094:1105  _checkOwner */\n      tag_151\n        /* \"https://raw.githubusercontent.com/OpenZeppelin/openzeppelin-contracts/v4.9.3/contracts/access/Ownable.sol\":1094:1107  _checkOwner() */\n      jump\t// in\n    tag_253:\n        /* \"https://raw.githubusercontent.com/OpenZeppelin/openzeppelin-contracts/v4.9.3/contracts/access/Ownable.sol\":1888:1918  _transferOwnership(address(0)) */\n      tag_195\n        /* \"https://raw.githubusercontent.com/OpenZeppelin/openzeppelin-contracts/v4.9.3/contracts/access/Ownable.sol\":1915:1916  0 */\n      0x00\n        /* \"https://raw.githubusercontent.com/OpenZeppelin/openzeppelin-contracts/v4.9.3/contracts/access/Ownable.sol\":1888:1906  _transferOwnership */\n      tag_158\n        /* \"https://raw.githubusercontent.com/OpenZeppelin/openzeppelin-contracts/v4.9.3/contracts/access/Ownable.sol\":1888:1918  _transferOwnership(address(0)) */\n      jump\t// in\n        /* \"Revolt.sol\":4693:4754  function pause() external onlyOwner {... */\n    tag_102:\n        /* \"https://raw.githubusercontent.com/OpenZeppelin/openzeppelin-contracts/v4.9.3/contracts/access/Ownable.sol\":1094:1107  _checkOwner() */\n      tag_257\n        /* \"https://raw.githubusercontent.com/OpenZeppelin/openzeppelin-contracts/v4.9.3/contracts/access/Ownable.sol\":1094:1105  _checkOwner */\n      tag_151\n        /* \"https://raw.githubusercontent.com/OpenZeppelin/openzeppelin-contracts/v4.9.3/contracts/access/Ownable.sol\":1094:1107  _checkOwner() */\n      jump\t// in\n    tag_257:\n        /* \"Revolt.sol\":4739:4747  _pause() */\n      tag_195\n        /* \"Revolt.sol\":4739:4745  _pause */\n      tag_260\n        /* \"Revolt.sol\":4739:4747  _pause() */\n      jump\t// in\n        /* \"https://raw.githubusercontent.com/OpenZeppelin/openzeppelin-contracts/v4.9.3/contracts/token/ERC20/ERC20.sol\":2369:2471  function symbol() public view virtual override returns (string memory) {... */\n    tag_110:\n        /* \"https://raw.githubusercontent.com/OpenZeppelin/openzeppelin-contracts/v4.9.3/contracts/token/ERC20/ERC20.sol\":2425:2438  string memory */\n      0x60\n        /* \"https://raw.githubusercontent.com/OpenZeppelin/openzeppelin-contracts/v4.9.3/contracts/token/ERC20/ERC20.sol\":2457:2464  _symbol */\n      0x04\n        /* \"https://raw.githubusercontent.com/OpenZeppelin/openzeppelin-contracts/v4.9.3/contracts/token/ERC20/ERC20.sol\":2450:2464  return _symbol */\n      dup1\n      sload\n      tag_138\n      swap1\n      tag_139\n      jump\t// in\n        /* \"https://raw.githubusercontent.com/OpenZeppelin/openzeppelin-contracts/v4.9.3/contracts/token/ERC20/ERC20.sol\":6575:7002  function decreaseAllowance(address spender, uint256 subtractedValue) public virtual returns (bool) {... */\n    tag_114:\n        /* \"https://raw.githubusercontent.com/OpenZeppelin/openzeppelin-contracts/v4.9.3/contracts/token/ERC20/ERC20.sol\":6668:6672  bool */\n      0x00\n        /* \"https://raw.githubusercontent.com/OpenZeppelin/openzeppelin-contracts/v4.9.3/contracts/utils/Context.sol\":719:729  msg.sender */\n      caller\n        /* \"https://raw.githubusercontent.com/OpenZeppelin/openzeppelin-contracts/v4.9.3/contracts/token/ERC20/ERC20.sol\":6668:6672  bool */\n      dup2\n        /* \"https://raw.githubusercontent.com/OpenZeppelin/openzeppelin-contracts/v4.9.3/contracts/token/ERC20/ERC20.sol\":6749:6774  allowance(owner, spender) */\n      tag_270\n        /* \"https://raw.githubusercontent.com/OpenZeppelin/openzeppelin-contracts/v4.9.3/contracts/utils/Context.sol\":719:729  msg.sender */\n      dup3\n        /* \"https://raw.githubusercontent.com/OpenZeppelin/openzeppelin-contracts/v4.9.3/contracts/token/ERC20/ERC20.sol\":6766:6773  spender */\n      dup7\n        /* \"https://raw.githubusercontent.com/OpenZeppelin/openzeppelin-contracts/v4.9.3/contracts/token/ERC20/ERC20.sol\":6749:6758  allowance */\n      tag_126\n        /* \"https://raw.githubusercontent.com/OpenZeppelin/openzeppelin-contracts/v4.9.3/contracts/token/ERC20/ERC20.sol\":6749:6774  allowance(owner, spender) */\n      jump\t// in\n    tag_270:\n        /* \"https://raw.githubusercontent.com/OpenZeppelin/openzeppelin-contracts/v4.9.3/contracts/token/ERC20/ERC20.sol\":6722:6774  uint256 currentAllowance = allowance(owner, spender) */\n      swap1\n      pop\n        /* \"https://raw.githubusercontent.com/OpenZeppelin/openzeppelin-contracts/v4.9.3/contracts/token/ERC20/ERC20.sol\":6812:6827  subtractedValue */\n      dup4\n        /* \"https://raw.githubusercontent.com/OpenZeppelin/openzeppelin-contracts/v4.9.3/contracts/token/ERC20/ERC20.sol\":6792:6808  currentAllowance */\n      dup2\n        /* \"https://raw.githubusercontent.com/OpenZeppelin/openzeppelin-contracts/v4.9.3/contracts/token/ERC20/ERC20.sol\":6792:6827  currentAllowance >= subtractedValue */\n      lt\n      iszero\n        /* \"https://raw.githubusercontent.com/OpenZeppelin/openzeppelin-contracts/v4.9.3/contracts/token/ERC20/ERC20.sol\":6784:6869  require(currentAllowance >= subtractedValue, \"ERC20: decreased allowance below zero\") */\n      tag_271\n      jumpi\n      mload(0x40)\n      shl(0xe5, 0x461bcd)\n      dup2\n      mstore\n        /* \"#utility.yul\":7708:7710   */\n      0x20\n        /* \"https://raw.githubusercontent.com/OpenZeppelin/openzeppelin-contracts/v4.9.3/contracts/token/ERC20/ERC20.sol\":6784:6869  require(currentAllowance >= subtractedValue, \"ERC20: decreased allowance below zero\") */\n      0x04\n      dup3\n      add\n        /* \"#utility.yul\":7690:7711   */\n      mstore\n        /* \"#utility.yul\":7747:7749   */\n      0x25\n        /* \"#utility.yul\":7727:7745   */\n      0x24\n      dup3\n      add\n        /* \"#utility.yul\":7720:7750   */\n      mstore\n        /* \"#utility.yul\":7786:7820   */\n      0x45524332303a2064656372656173656420616c6c6f77616e63652062656c6f77\n        /* \"#utility.yul\":7766:7784   */\n      0x44\n      dup3\n      add\n        /* \"#utility.yul\":7759:7821   */\n      mstore\n      shl(0xd8, 0x207a65726f)\n        /* \"#utility.yul\":7837:7855   */\n      0x64\n      dup3\n      add\n        /* \"#utility.yul\":7830:7865   */\n      mstore\n        /* \"#utility.yul\":7882:7901   */\n      0x84\n      add\n        /* \"https://raw.githubusercontent.com/OpenZeppelin/openzeppelin-contracts/v4.9.3/contracts/token/ERC20/ERC20.sol\":6784:6869  require(currentAllowance >= subtractedValue, \"ERC20: decreased allowance below zero\") */\n      tag_154\n        /* \"#utility.yul\":7506:7907   */\n      jump\n        /* \"https://raw.githubusercontent.com/OpenZeppelin/openzeppelin-contracts/v4.9.3/contracts/token/ERC20/ERC20.sol\":6784:6869  require(currentAllowance >= subtractedValue, \"ERC20: decreased allowance below zero\") */\n    tag_271:\n        /* \"https://raw.githubusercontent.com/OpenZeppelin/openzeppelin-contracts/v4.9.3/contracts/token/ERC20/ERC20.sol\":6903:6963  _approve(owner, spender, currentAllowance - subtractedValue) */\n      tag_274\n        /* \"https://raw.githubusercontent.com/OpenZeppelin/openzeppelin-contracts/v4.9.3/contracts/token/ERC20/ERC20.sol\":6912:6917  owner */\n      dup3\n        /* \"https://raw.githubusercontent.com/OpenZeppelin/openzeppelin-contracts/v4.9.3/contracts/token/ERC20/ERC20.sol\":6919:6926  spender */\n      dup7\n        /* \"https://raw.githubusercontent.com/OpenZeppelin/openzeppelin-contracts/v4.9.3/contracts/token/ERC20/ERC20.sol\":6947:6962  subtractedValue */\n      dup7\n        /* \"https://raw.githubusercontent.com/OpenZeppelin/openzeppelin-contracts/v4.9.3/contracts/token/ERC20/ERC20.sol\":6928:6944  currentAllowance */\n      dup5\n        /* \"https://raw.githubusercontent.com/OpenZeppelin/openzeppelin-contracts/v4.9.3/contracts/token/ERC20/ERC20.sol\":6928:6962  currentAllowance - subtractedValue */\n      sub\n        /* \"https://raw.githubusercontent.com/OpenZeppelin/openzeppelin-contracts/v4.9.3/contracts/token/ERC20/ERC20.sol\":6903:6911  _approve */\n      tag_148\n        /* \"https://raw.githubusercontent.com/OpenZeppelin/openzeppelin-contracts/v4.9.3/contracts/token/ERC20/ERC20.sol\":6903:6963  _approve(owner, spender, currentAllowance - subtractedValue) */\n      jump\t// in\n    tag_274:\n      pop\n        /* \"https://raw.githubusercontent.com/OpenZeppelin/openzeppelin-contracts/v4.9.3/contracts/token/ERC20/ERC20.sol\":6991:6995  true */\n      0x01\n      swap5\n        /* \"https://raw.githubusercontent.com/OpenZeppelin/openzeppelin-contracts/v4.9.3/contracts/token/ERC20/ERC20.sol\":6575:7002  function decreaseAllowance(address spender, uint256 subtractedValue) public virtual returns (bool) {... */\n      swap4\n      pop\n      pop\n      pop\n      pop\n      jump\t// out\n        /* \"Revolt.sol\":5221:5420  function transfer(... */\n    tag_118:\n        /* \"Revolt.sol\":5341:5345  bool */\n      0x00\n        /* \"https://raw.githubusercontent.com/OpenZeppelin/openzeppelin-contracts/v4.9.3/contracts/security/ReentrancyGuard.sol\":2261:2282  _nonReentrantBefore() */\n      tag_276\n        /* \"https://raw.githubusercontent.com/OpenZeppelin/openzeppelin-contracts/v4.9.3/contracts/security/ReentrancyGuard.sol\":2261:2280  _nonReentrantBefore */\n      tag_170\n        /* \"https://raw.githubusercontent.com/OpenZeppelin/openzeppelin-contracts/v4.9.3/contracts/security/ReentrancyGuard.sol\":2261:2282  _nonReentrantBefore() */\n      jump\t// in\n    tag_276:\n        /* \"https://raw.githubusercontent.com/OpenZeppelin/openzeppelin-contracts/v4.9.3/contracts/security/Pausable.sol\":1239:1258  _requireNotPaused() */\n      tag_278\n        /* \"https://raw.githubusercontent.com/OpenZeppelin/openzeppelin-contracts/v4.9.3/contracts/security/Pausable.sol\":1239:1256  _requireNotPaused */\n      tag_173\n        /* \"https://raw.githubusercontent.com/OpenZeppelin/openzeppelin-contracts/v4.9.3/contracts/security/Pausable.sol\":1239:1258  _requireNotPaused() */\n      jump\t// in\n    tag_278:\n        /* \"Revolt.sol\":5357:5392  _transfer(_msgSender(), to, amount) */\n      tag_280\n        /* \"https://raw.githubusercontent.com/OpenZeppelin/openzeppelin-contracts/v4.9.3/contracts/utils/Context.sol\":719:729  msg.sender */\n      caller\n        /* \"Revolt.sol\":5381:5383  to */\n      dup5\n        /* \"Revolt.sol\":5385:5391  amount */\n      dup5\n        /* \"Revolt.sol\":5357:5366  _transfer */\n      tag_182\n        /* \"Revolt.sol\":5357:5392  _transfer(_msgSender(), to, amount) */\n      jump\t// in\n    tag_280:\n      pop\n        /* \"Revolt.sol\":5409:5413  true */\n      0x01\n        /* \"https://raw.githubusercontent.com/OpenZeppelin/openzeppelin-contracts/v4.9.3/contracts/security/ReentrancyGuard.sol\":2303:2323  _nonReentrantAfter() */\n      tag_144\n        /* \"https://raw.githubusercontent.com/OpenZeppelin/openzeppelin-contracts/v4.9.3/contracts/security/ReentrancyGuard.sol\":1716:1717  1 */\n      0x01\n        /* \"https://raw.githubusercontent.com/OpenZeppelin/openzeppelin-contracts/v4.9.3/contracts/security/ReentrancyGuard.sol\":2809:2816  _status */\n      0x06\n        /* \"https://raw.githubusercontent.com/OpenZeppelin/openzeppelin-contracts/v4.9.3/contracts/security/ReentrancyGuard.sol\":2809:2831  _status = _NOT_ENTERED */\n      sstore\n        /* \"https://raw.githubusercontent.com/OpenZeppelin/openzeppelin-contracts/v4.9.3/contracts/security/ReentrancyGuard.sol\":2629:2838  function _nonReentrantAfter() private {... */\n      jump\n        /* \"https://raw.githubusercontent.com/OpenZeppelin/openzeppelin-contracts/v4.9.3/contracts/token/ERC20/ERC20.sol\":3987:4136  function allowance(address owner, address spender) public view virtual override returns (uint256) {... */\n    tag_126:\n      sub(shl(0xa0, 0x01), 0x01)\n        /* \"https://raw.githubusercontent.com/OpenZeppelin/openzeppelin-contracts/v4.9.3/contracts/token/ERC20/ERC20.sol\":4102:4120  _allowances[owner] */\n      swap2\n      dup3\n      and\n        /* \"https://raw.githubusercontent.com/OpenZeppelin/openzeppelin-contracts/v4.9.3/contracts/token/ERC20/ERC20.sol\":4076:4083  uint256 */\n      0x00\n        /* \"https://raw.githubusercontent.com/OpenZeppelin/openzeppelin-contracts/v4.9.3/contracts/token/ERC20/ERC20.sol\":4102:4120  _allowances[owner] */\n      swap1\n      dup2\n      mstore\n        /* \"https://raw.githubusercontent.com/OpenZeppelin/openzeppelin-contracts/v4.9.3/contracts/token/ERC20/ERC20.sol\":4102:4113  _allowances */\n      0x01\n        /* \"https://raw.githubusercontent.com/OpenZeppelin/openzeppelin-contracts/v4.9.3/contracts/token/ERC20/ERC20.sol\":4102:4120  _allowances[owner] */\n      0x20\n      swap1\n      dup2\n      mstore\n      0x40\n      dup1\n      dup4\n      keccak256\n        /* \"https://raw.githubusercontent.com/OpenZeppelin/openzeppelin-contracts/v4.9.3/contracts/token/ERC20/ERC20.sol\":4102:4129  _allowances[owner][spender] */\n      swap4\n      swap1\n      swap5\n      and\n      dup3\n      mstore\n      swap2\n      swap1\n      swap2\n      mstore\n      keccak256\n      sload\n      swap1\n        /* \"https://raw.githubusercontent.com/OpenZeppelin/openzeppelin-contracts/v4.9.3/contracts/token/ERC20/ERC20.sol\":3987:4136  function allowance(address owner, address spender) public view virtual override returns (uint256) {... */\n      jump\t// out\n        /* \"Revolt.sol\":2584:3058  function setFeeRecipient(address newRecipient) external onlyOwner {... */\n    tag_130:\n        /* \"https://raw.githubusercontent.com/OpenZeppelin/openzeppelin-contracts/v4.9.3/contracts/access/Ownable.sol\":1094:1107  _checkOwner() */\n      tag_285\n        /* \"https://raw.githubusercontent.com/OpenZeppelin/openzeppelin-contracts/v4.9.3/contracts/access/Ownable.sol\":1094:1105  _checkOwner */\n      tag_151\n        /* \"https://raw.githubusercontent.com/OpenZeppelin/openzeppelin-contracts/v4.9.3/contracts/access/Ownable.sol\":1094:1107  _checkOwner() */\n      jump\t// in\n    tag_285:\n      sub(shl(0xa0, 0x01), 0x01)\n        /* \"Revolt.sol\":2668:2694  newRecipient != address(0) */\n      dup2\n      and\n        /* \"Revolt.sol\":2660:2726  require(newRecipient != address(0), \"RevoltCoin: invalid address\") */\n      tag_287\n      jumpi\n      mload(0x40)\n      shl(0xe5, 0x461bcd)\n      dup2\n      mstore\n        /* \"#utility.yul\":8114:8116   */\n      0x20\n        /* \"Revolt.sol\":2660:2726  require(newRecipient != address(0), \"RevoltCoin: invalid address\") */\n      0x04\n      dup3\n      add\n        /* \"#utility.yul\":8096:8117   */\n      mstore\n        /* \"#utility.yul\":8153:8155   */\n      0x1b\n        /* \"#utility.yul\":8133:8151   */\n      0x24\n      dup3\n      add\n        /* \"#utility.yul\":8126:8156   */\n      mstore\n        /* \"#utility.yul\":8192:8221   */\n      0x5265766f6c74436f696e3a20696e76616c696420616464726573730000000000\n        /* \"#utility.yul\":8172:8190   */\n      0x44\n      dup3\n      add\n        /* \"#utility.yul\":8165:8222   */\n      mstore\n        /* \"#utility.yul\":8239:8257   */\n      0x64\n      add\n        /* \"Revolt.sol\":2660:2726  require(newRecipient != address(0), \"RevoltCoin: invalid address\") */\n      tag_154\n        /* \"#utility.yul\":7912:8263   */\n      jump\n        /* \"Revolt.sol\":2660:2726  require(newRecipient != address(0), \"RevoltCoin: invalid address\") */\n    tag_287:\n      sub(shl(0xa0, 0x01), 0x01)\n        /* \"Revolt.sol\":2823:2847  newRecipient.code.length */\n      dup2\n      and\n      extcodesize\n        /* \"Revolt.sol\":2823:2852  newRecipient.code.length == 0 */\n      iszero\n        /* \"Revolt.sol\":2802:2915  require(... */\n      tag_290\n      jumpi\n      mload(0x40)\n      shl(0xe5, 0x461bcd)\n      dup2\n      mstore\n        /* \"#utility.yul\":8470:8472   */\n      0x20\n        /* \"Revolt.sol\":2802:2915  require(... */\n      0x04\n      dup3\n      add\n        /* \"#utility.yul\":8452:8473   */\n      mstore\n        /* \"#utility.yul\":8509:8511   */\n      0x25\n        /* \"#utility.yul\":8489:8507   */\n      0x24\n      dup3\n      add\n        /* \"#utility.yul\":8482:8512   */\n      mstore\n        /* \"#utility.yul\":8548:8582   */\n      0x5265766f6c74436f696e3a2066656520726563697069656e74206d7573742062\n        /* \"#utility.yul\":8528:8546   */\n      0x44\n      dup3\n      add\n        /* \"#utility.yul\":8521:8583   */\n      mstore\n      shl(0xd8, 0x6520454f41)\n        /* \"#utility.yul\":8599:8617   */\n      0x64\n      dup3\n      add\n        /* \"#utility.yul\":8592:8627   */\n      mstore\n        /* \"#utility.yul\":8644:8663   */\n      0x84\n      add\n        /* \"Revolt.sol\":2802:2915  require(... */\n      tag_154\n        /* \"#utility.yul\":8268:8669   */\n      jump\n        /* \"Revolt.sol\":2802:2915  require(... */\n    tag_290:\n        /* \"Revolt.sol\":2944:2956  feeRecipient */\n      0x08\n      dup1\n      sload\n      sub(shl(0xa0, 0x01), 0x01)\n        /* \"Revolt.sol\":2966:2993  feeRecipient = newRecipient */\n      dup4\n      dup2\n      and\n      not(sub(shl(0xa0, 0x01), 0x01))\n      dup4\n      and\n      dup2\n      or\n      swap1\n      swap4\n      sstore\n        /* \"Revolt.sol\":3008:3051  FeeRecipientUpdated(previous, newRecipient) */\n      0x40\n      dup1\n      mload\n        /* \"Revolt.sol\":2944:2956  feeRecipient */\n      swap2\n      swap1\n      swap3\n      and\n        /* \"#utility.yul\":8848:8899   */\n      dup1\n      dup3\n      mstore\n        /* \"#utility.yul\":8930:8932   */\n      0x20\n        /* \"#utility.yul\":8915:8933   */\n      dup3\n      add\n        /* \"#utility.yul\":8908:8968   */\n      swap4\n      swap1\n      swap4\n      mstore\n        /* \"Revolt.sol\":3008:3051  FeeRecipientUpdated(previous, newRecipient) */\n      0xaaebcf1bfa00580e41d966056b48521fa9f202645c86d4ddf28113e617c1b1d3\n      swap2\n        /* \"#utility.yul\":8821:8839   */\n      add\n        /* \"Revolt.sol\":3008:3051  FeeRecipientUpdated(previous, newRecipient) */\n      tag_166\n        /* \"#utility.yul\":8674:8974   */\n      jump\n        /* \"Revolt.sol\":3242:3388  function includeInFee(address account) external onlyOwner {... */\n    tag_133:\n        /* \"https://raw.githubusercontent.com/OpenZeppelin/openzeppelin-contracts/v4.9.3/contracts/access/Ownable.sol\":1094:1107  _checkOwner() */\n      tag_296\n        /* \"https://raw.githubusercontent.com/OpenZeppelin/openzeppelin-contracts/v4.9.3/contracts/access/Ownable.sol\":1094:1105  _checkOwner */\n      tag_151\n        /* \"https://raw.githubusercontent.com/OpenZeppelin/openzeppelin-contracts/v4.9.3/contracts/access/Ownable.sol\":1094:1107  _checkOwner() */\n      jump\t// in\n    tag_296:\n      sub(shl(0xa0, 0x01), 0x01)\n        /* \"Revolt.sol\":3310:3337  _isExcludedFromFee[account] */\n      dup2\n      and\n        /* \"Revolt.sol\":3340:3345  false */\n      0x00\n        /* \"Revolt.sol\":3310:3337  _isExcludedFromFee[account] */\n      dup2\n      dup2\n      mstore\n        /* \"Revolt.sol\":3310:3328  _isExcludedFromFee */\n      0x09\n        /* \"Revolt.sol\":3310:3337  _isExcludedFromFee[account] */\n      0x20\n      swap1\n      dup2\n      mstore\n      0x40\n      swap2\n      dup3\n      swap1\n      keccak256\n        /* \"Revolt.sol\":3310:3345  _isExcludedFromFee[account] = false */\n      dup1\n      sload\n      not(0xff)\n      and\n      swap1\n      sstore\n        /* \"Revolt.sol\":3360:3381  IncludeInFee(account) */\n      swap1\n      mload\n        /* \"#utility.yul\":2430:2481   */\n      swap2\n      dup3\n      mstore\n        /* \"Revolt.sol\":3360:3381  IncludeInFee(account) */\n      0x4f6a6b6efe34ec6478021aa9fb7f6980e78ea3a10c74074a8ce49d5d3ebf1f7e\n      swap2\n        /* \"#utility.yul\":2403:2421   */\n      add\n        /* \"Revolt.sol\":3360:3381  IncludeInFee(account) */\n      tag_210\n        /* \"#utility.yul\":2284:2487   */\n      jump\n        /* \"https://raw.githubusercontent.com/OpenZeppelin/openzeppelin-contracts/v4.9.3/contracts/access/Ownable.sol\":2074:2272  function transferOwnership(address newOwner) public virtual onlyOwner {... */\n    tag_136:\n        /* \"https://raw.githubusercontent.com/OpenZeppelin/openzeppelin-contracts/v4.9.3/contracts/access/Ownable.sol\":1094:1107  _checkOwner() */\n      tag_300\n        /* \"https://raw.githubusercontent.com/OpenZeppelin/openzeppelin-contracts/v4.9.3/contracts/access/Ownable.sol\":1094:1105  _checkOwner */\n      tag_151\n        /* \"https://raw.githubusercontent.com/OpenZeppelin/openzeppelin-contracts/v4.9.3/contracts/access/Ownable.sol\":1094:1107  _checkOwner() */\n      jump\t// in\n    tag_300:\n      sub(shl(0xa0, 0x01), 0x01)\n        /* \"https://raw.githubusercontent.com/OpenZeppelin/openzeppelin-contracts/v4.9.3/contracts/access/Ownable.sol\":2162:2184  newOwner != address(0) */\n      dup2\n      and\n        /* \"https://raw.githubusercontent.com/OpenZeppelin/openzeppelin-contracts/v4.9.3/contracts/access/Ownable.sol\":2154:2227  require(newOwner != address(0), \"Ownable: new owner is the zero address\") */\n      tag_302\n      jumpi\n      mload(0x40)\n      shl(0xe5, 0x461bcd)\n      dup2\n      mstore\n        /* \"#utility.yul\":9181:9183   */\n      0x20\n        /* \"https://raw.githubusercontent.com/OpenZeppelin/openzeppelin-contracts/v4.9.3/contracts/access/Ownable.sol\":2154:2227  require(newOwner != address(0), \"Ownable: new owner is the zero address\") */\n      0x04\n      dup3\n      add\n        /* \"#utility.yul\":9163:9184   */\n      mstore\n        /* \"#utility.yul\":9220:9222   */\n      0x26\n        /* \"#utility.yul\":9200:9218   */\n      0x24\n      dup3\n      add\n        /* \"#utility.yul\":9193:9223   */\n      mstore\n        /* \"#utility.yul\":9259:9293   */\n      0x4f776e61626c653a206e6577206f776e657220697320746865207a65726f2061\n        /* \"#utility.yul\":9239:9257   */\n      0x44\n      dup3\n      add\n        /* \"#utility.yul\":9232:9294   */\n      mstore\n      shl(0xd0, 0x646472657373)\n        /* \"#utility.yul\":9310:9328   */\n      0x64\n      dup3\n      add\n        /* \"#utility.yul\":9303:9339   */\n      mstore\n        /* \"#utility.yul\":9356:9375   */\n      0x84\n      add\n        /* \"https://raw.githubusercontent.com/OpenZeppelin/openzeppelin-contracts/v4.9.3/contracts/access/Ownable.sol\":2154:2227  require(newOwner != address(0), \"Ownable: new owner is the zero address\") */\n      tag_154\n        /* \"#utility.yul\":8979:9381   */\n      jump\n        /* \"https://raw.githubusercontent.com/OpenZeppelin/openzeppelin-contracts/v4.9.3/contracts/access/Ownable.sol\":2154:2227  require(newOwner != address(0), \"Ownable: new owner is the zero address\") */\n    tag_302:\n        /* \"https://raw.githubusercontent.com/OpenZeppelin/openzeppelin-contracts/v4.9.3/contracts/access/Ownable.sol\":2237:2265  _transferOwnership(newOwner) */\n      tag_157\n        /* \"https://raw.githubusercontent.com/OpenZeppelin/openzeppelin-contracts/v4.9.3/contracts/access/Ownable.sol\":2256:2264  newOwner */\n      dup2\n        /* \"https://raw.githubusercontent.com/OpenZeppelin/openzeppelin-contracts/v4.9.3/contracts/access/Ownable.sol\":2237:2255  _transferOwnership */\n      tag_158\n        /* \"https://raw.githubusercontent.com/OpenZeppelin/openzeppelin-contracts/v4.9.3/contracts/access/Ownable.sol\":2237:2265  _transferOwnership(newOwner) */\n      jump\t// in\n        /* \"https://raw.githubusercontent.com/OpenZeppelin/openzeppelin-contracts/v4.9.3/contracts/token/ERC20/ERC20.sol\":10457:10797  function _approve(address owner, address spender, uint256 amount) internal virtual {... */\n    tag_148:\n      sub(shl(0xa0, 0x01), 0x01)\n        /* \"https://raw.githubusercontent.com/OpenZeppelin/openzeppelin-contracts/v4.9.3/contracts/token/ERC20/ERC20.sol\":10558:10577  owner != address(0) */\n      dup4\n      and\n        /* \"https://raw.githubusercontent.com/OpenZeppelin/openzeppelin-contracts/v4.9.3/contracts/token/ERC20/ERC20.sol\":10550:10618  require(owner != address(0), \"ERC20: approve from the zero address\") */\n      tag_308\n      jumpi\n      mload(0x40)\n      shl(0xe5, 0x461bcd)\n      dup2\n      mstore\n        /* \"#utility.yul\":9588:9590   */\n      0x20\n        /* \"https://raw.githubusercontent.com/OpenZeppelin/openzeppelin-contracts/v4.9.3/contracts/token/ERC20/ERC20.sol\":10550:10618  require(owner != address(0), \"ERC20: approve from the zero address\") */\n      0x04\n      dup3\n      add\n        /* \"#utility.yul\":9570:9591   */\n      mstore\n        /* \"#utility.yul\":9627:9629   */\n      0x24\n        /* \"#utility.yul\":9607:9625   */\n      dup1\n      dup3\n      add\n        /* \"#utility.yul\":9600:9630   */\n      mstore\n        /* \"#utility.yul\":9666:9700   */\n      0x45524332303a20617070726f76652066726f6d20746865207a65726f20616464\n        /* \"#utility.yul\":9646:9664   */\n      0x44\n      dup3\n      add\n        /* \"#utility.yul\":9639:9701   */\n      mstore\n      shl(0xe0, 0x72657373)\n        /* \"#utility.yul\":9717:9735   */\n      0x64\n      dup3\n      add\n        /* \"#utility.yul\":9710:9744   */\n      mstore\n        /* \"#utility.yul\":9761:9780   */\n      0x84\n      add\n        /* \"https://raw.githubusercontent.com/OpenZeppelin/openzeppelin-contracts/v4.9.3/contracts/token/ERC20/ERC20.sol\":10550:10618  require(owner != address(0), \"ERC20: approve from the zero address\") */\n      tag_154\n        /* \"#utility.yul\":9386:9786   */\n      jump\n        /* \"https://raw.githubusercontent.com/OpenZeppelin/openzeppelin-contracts/v4.9.3/contracts/token/ERC20/ERC20.sol\":10550:10618  require(owner != address(0), \"ERC20: approve from the zero address\") */\n    tag_308:\n      sub(shl(0xa0, 0x01), 0x01)\n        /* \"https://raw.githubusercontent.com/OpenZeppelin/openzeppelin-contracts/v4.9.3/contracts/token/ERC20/ERC20.sol\":10636:10657  spender != address(0) */\n      dup3\n      and\n        /* \"https://raw.githubusercontent.com/OpenZeppelin/openzeppelin-contracts/v4.9.3/contracts/token/ERC20/ERC20.sol\":10628:10696  require(spender != address(0), \"ERC20: approve to the zero address\") */\n      tag_311\n      jumpi\n      mload(0x40)\n      shl(0xe5, 0x461bcd)\n      dup2\n      mstore\n        /* \"#utility.yul\":9993:9995   */\n      0x20\n        /* \"https://raw.githubusercontent.com/OpenZeppelin/openzeppelin-contracts/v4.9.3/contracts/token/ERC20/ERC20.sol\":10628:10696  require(spender != address(0), \"ERC20: approve to the zero address\") */\n      0x04\n      dup3\n      add\n        /* \"#utility.yul\":9975:9996   */\n      mstore\n        /* \"#utility.yul\":10032:10034   */\n      0x22\n        /* \"#utility.yul\":10012:10030   */\n      0x24\n      dup3\n      add\n        /* \"#utility.yul\":10005:10035   */\n      mstore\n        /* \"#utility.yul\":10071:10105   */\n      0x45524332303a20617070726f766520746f20746865207a65726f206164647265\n        /* \"#utility.yul\":10051:10069   */\n      0x44\n      dup3\n      add\n        /* \"#utility.yul\":10044:10106   */\n      mstore\n      shl(0xf0, 0x7373)\n        /* \"#utility.yul\":10122:10140   */\n      0x64\n      dup3\n      add\n        /* \"#utility.yul\":10115:10147   */\n      mstore\n        /* \"#utility.yul\":10164:10183   */\n      0x84\n      add\n        /* \"https://raw.githubusercontent.com/OpenZeppelin/openzeppelin-contracts/v4.9.3/contracts/token/ERC20/ERC20.sol\":10628:10696  require(spender != address(0), \"ERC20: approve to the zero address\") */\n      tag_154\n        /* \"#utility.yul\":9791:10189   */\n      jump\n        /* \"https://raw.githubusercontent.com/OpenZeppelin/openzeppelin-contracts/v4.9.3/contracts/token/ERC20/ERC20.sol\":10628:10696  require(spender != address(0), \"ERC20: approve to the zero address\") */\n    tag_311:\n      sub(shl(0xa0, 0x01), 0x01)\n        /* \"https://raw.githubusercontent.com/OpenZeppelin/openzeppelin-contracts/v4.9.3/contracts/token/ERC20/ERC20.sol\":10707:10725  _allowances[owner] */\n      dup4\n      dup2\n      and\n      0x00\n      dup2\n      dup2\n      mstore\n        /* \"https://raw.githubusercontent.com/OpenZeppelin/openzeppelin-contracts/v4.9.3/contracts/token/ERC20/ERC20.sol\":10707:10718  _allowances */\n      0x01\n        /* \"https://raw.githubusercontent.com/OpenZeppelin/openzeppelin-contracts/v4.9.3/contracts/token/ERC20/ERC20.sol\":10707:10725  _allowances[owner] */\n      0x20\n      swap1\n      dup2\n      mstore\n      0x40\n      dup1\n      dup4\n      keccak256\n        /* \"https://raw.githubusercontent.com/OpenZeppelin/openzeppelin-contracts/v4.9.3/contracts/token/ERC20/ERC20.sol\":10707:10734  _allowances[owner][spender] */\n      swap5\n      dup8\n      and\n      dup1\n      dup5\n      mstore\n      swap5\n      dup3\n      mstore\n      swap2\n      dup3\n      swap1\n      keccak256\n        /* \"https://raw.githubusercontent.com/OpenZeppelin/openzeppelin-contracts/v4.9.3/contracts/token/ERC20/ERC20.sol\":10707:10743  _allowances[owner][spender] = amount */\n      dup6\n      swap1\n      sstore\n        /* \"https://raw.githubusercontent.com/OpenZeppelin/openzeppelin-contracts/v4.9.3/contracts/token/ERC20/ERC20.sol\":10758:10790  Approval(owner, spender, amount) */\n      swap1\n      mload\n        /* \"#utility.yul\":1449:1474   */\n      dup5\n      dup2\n      mstore\n        /* \"https://raw.githubusercontent.com/OpenZeppelin/openzeppelin-contracts/v4.9.3/contracts/token/ERC20/ERC20.sol\":10758:10790  Approval(owner, spender, amount) */\n      0x8c5be1e5ebec7d5bd14f71427d1e84f3dd0314c0f7b2291e5b200ac8c7c3b925\n      swap2\n        /* \"#utility.yul\":1422:1440   */\n      add\n        /* \"https://raw.githubusercontent.com/OpenZeppelin/openzeppelin-contracts/v4.9.3/contracts/token/ERC20/ERC20.sol\":10758:10790  Approval(owner, spender, amount) */\n      mload(0x40)\n      dup1\n      swap2\n      sub\n      swap1\n      log3\n        /* \"https://raw.githubusercontent.com/OpenZeppelin/openzeppelin-contracts/v4.9.3/contracts/token/ERC20/ERC20.sol\":10457:10797  function _approve(address owner, address spender, uint256 amount) internal virtual {... */\n      pop\n      pop\n      pop\n      jump\t// out\n        /* \"https://raw.githubusercontent.com/OpenZeppelin/openzeppelin-contracts/v4.9.3/contracts/access/Ownable.sol\":1359:1489  function _checkOwner() internal view virtual {... */\n    tag_151:\n        /* \"https://raw.githubusercontent.com/OpenZeppelin/openzeppelin-contracts/v4.9.3/contracts/access/Ownable.sol\":1273:1279  _owner */\n      and(sub(shl(0xa0, 0x01), 0x01), sload(0x05))\n        /* \"https://raw.githubusercontent.com/OpenZeppelin/openzeppelin-contracts/v4.9.3/contracts/utils/Context.sol\":719:729  msg.sender */\n      caller\n        /* \"https://raw.githubusercontent.com/OpenZeppelin/openzeppelin-contracts/v4.9.3/contracts/access/Ownable.sol\":1422:1445  owner() == _msgSender() */\n      eq\n        /* \"https://raw.githubusercontent.com/OpenZeppelin/openzeppelin-contracts/v4.9.3/contracts/access/Ownable.sol\":1414:1482  require(owner() == _msgSender(), \"Ownable: caller is not the owner\") */\n      tag_195\n      jumpi\n      mload(0x40)\n      shl(0xe5, 0x461bcd)\n      dup2\n      mstore\n        /* \"#utility.yul\":10396:10398   */\n      0x20\n        /* \"https://raw.githubusercontent.com/OpenZeppelin/openzeppelin-contracts/v4.9.3/contracts/access/Ownable.sol\":1414:1482  require(owner() == _msgSender(), \"Ownable: caller is not the owner\") */\n      0x04\n      dup3\n      add\n        /* \"#utility.yul\":10378:10399   */\n      dup2\n      swap1\n      mstore\n        /* \"#utility.yul\":10415:10433   */\n      0x24\n      dup3\n      add\n        /* \"#utility.yul\":10408:10438   */\n      mstore\n        /* \"#utility.yul\":10474:10508   */\n      0x4f776e61626c653a2063616c6c6572206973206e6f7420746865206f776e6572\n        /* \"#utility.yul\":10454:10472   */\n      0x44\n      dup3\n      add\n        /* \"#utility.yul\":10447:10509   */\n      mstore\n        /* \"#utility.yul\":10526:10544   */\n      0x64\n      add\n        /* \"https://raw.githubusercontent.com/OpenZeppelin/openzeppelin-contracts/v4.9.3/contracts/access/Ownable.sol\":1414:1482  require(owner() == _msgSender(), \"Ownable: caller is not the owner\") */\n      tag_154\n        /* \"#utility.yul\":10194:10550   */\n      jump\n        /* \"https://raw.githubusercontent.com/OpenZeppelin/openzeppelin-contracts/v4.9.3/contracts/access/Ownable.sol\":2426:2613  function _transferOwnership(address newOwner) internal virtual {... */\n    tag_158:\n        /* \"https://raw.githubusercontent.com/OpenZeppelin/openzeppelin-contracts/v4.9.3/contracts/access/Ownable.sol\":2518:2524  _owner */\n      0x05\n      dup1\n      sload\n      sub(shl(0xa0, 0x01), 0x01)\n        /* \"https://raw.githubusercontent.com/OpenZeppelin/openzeppelin-contracts/v4.9.3/contracts/access/Ownable.sol\":2534:2551  _owner = newOwner */\n      dup4\n      dup2\n      and\n      not(sub(shl(0xa0, 0x01), 0x01))\n      dup4\n      and\n      dup2\n      or\n      swap1\n      swap4\n      sstore\n        /* \"https://raw.githubusercontent.com/OpenZeppelin/openzeppelin-contracts/v4.9.3/contracts/access/Ownable.sol\":2566:2606  OwnershipTransferred(oldOwner, newOwner) */\n      mload(0x40)\n        /* \"https://raw.githubusercontent.com/OpenZeppelin/openzeppelin-contracts/v4.9.3/contracts/access/Ownable.sol\":2518:2524  _owner */\n      swap2\n      and\n      swap2\n        /* \"https://raw.githubusercontent.com/OpenZeppelin/openzeppelin-contracts/v4.9.3/contracts/access/Ownable.sol\":2534:2551  _owner = newOwner */\n      swap1\n        /* \"https://raw.githubusercontent.com/OpenZeppelin/openzeppelin-contracts/v4.9.3/contracts/access/Ownable.sol\":2518:2524  _owner */\n      dup3\n      swap1\n        /* \"https://raw.githubusercontent.com/OpenZeppelin/openzeppelin-contracts/v4.9.3/contracts/access/Ownable.sol\":2566:2606  OwnershipTransferred(oldOwner, newOwner) */\n      0x8be0079c531659141344cd1fd0a4f28419497f9722a3daafe3b4186f6b6457e0\n      swap1\n        /* \"https://raw.githubusercontent.com/OpenZeppelin/openzeppelin-contracts/v4.9.3/contracts/access/Ownable.sol\":2499:2515  address oldOwner */\n      0x00\n      swap1\n        /* \"https://raw.githubusercontent.com/OpenZeppelin/openzeppelin-contracts/v4.9.3/contracts/access/Ownable.sol\":2566:2606  OwnershipTransferred(oldOwner, newOwner) */\n      log3\n        /* \"https://raw.githubusercontent.com/OpenZeppelin/openzeppelin-contracts/v4.9.3/contracts/access/Ownable.sol\":2489:2613  {... */\n      pop\n        /* \"https://raw.githubusercontent.com/OpenZeppelin/openzeppelin-contracts/v4.9.3/contracts/access/Ownable.sol\":2426:2613  function _transferOwnership(address newOwner) internal virtual {... */\n      pop\n      jump\t// out\n        /* \"https://raw.githubusercontent.com/OpenZeppelin/openzeppelin-contracts/v4.9.3/contracts/security/ReentrancyGuard.sol\":2336:2623  function _nonReentrantBefore() private {... */\n    tag_170:\n        /* \"https://raw.githubusercontent.com/OpenZeppelin/openzeppelin-contracts/v4.9.3/contracts/security/ReentrancyGuard.sol\":1759:1760  2 */\n      0x02\n        /* \"https://raw.githubusercontent.com/OpenZeppelin/openzeppelin-contracts/v4.9.3/contracts/security/ReentrancyGuard.sol\":2468:2475  _status */\n      sload(0x06)\n        /* \"https://raw.githubusercontent.com/OpenZeppelin/openzeppelin-contracts/v4.9.3/contracts/security/ReentrancyGuard.sol\":2468:2487  _status != _ENTERED */\n      sub\n        /* \"https://raw.githubusercontent.com/OpenZeppelin/openzeppelin-contracts/v4.9.3/contracts/security/ReentrancyGuard.sol\":2460:2523  require(_status != _ENTERED, \"ReentrancyGuard: reentrant call\") */\n      tag_323\n      jumpi\n      mload(0x40)\n      shl(0xe5, 0x461bcd)\n      dup2\n      mstore\n        /* \"#utility.yul\":10757:10759   */\n      0x20\n        /* \"https://raw.githubusercontent.com/OpenZeppelin/openzeppelin-contracts/v4.9.3/contracts/security/ReentrancyGuard.sol\":2460:2523  require(_status != _ENTERED, \"ReentrancyGuard: reentrant call\") */\n      0x04\n      dup3\n      add\n        /* \"#utility.yul\":10739:10760   */\n      mstore\n        /* \"#utility.yul\":10796:10798   */\n      0x1f\n        /* \"#utility.yul\":10776:10794   */\n      0x24\n      dup3\n      add\n        /* \"#utility.yul\":10769:10799   */\n      mstore\n        /* \"#utility.yul\":10835:10868   */\n      0x5265656e7472616e637947756172643a207265656e7472616e742063616c6c00\n        /* \"#utility.yul\":10815:10833   */\n      0x44\n      dup3\n      add\n        /* \"#utility.yul\":10808:10869   */\n      mstore\n        /* \"#utility.yul\":10886:10904   */\n      0x64\n      add\n        /* \"https://raw.githubusercontent.com/OpenZeppelin/openzeppelin-contracts/v4.9.3/contracts/security/ReentrancyGuard.sol\":2460:2523  require(_status != _ENTERED, \"ReentrancyGuard: reentrant call\") */\n      tag_154\n        /* \"#utility.yul\":10555:10910   */\n      jump\n        /* \"https://raw.githubusercontent.com/OpenZeppelin/openzeppelin-contracts/v4.9.3/contracts/security/ReentrancyGuard.sol\":2460:2523  require(_status != _ENTERED, \"ReentrancyGuard: reentrant call\") */\n    tag_323:\n        /* \"https://raw.githubusercontent.com/OpenZeppelin/openzeppelin-contracts/v4.9.3/contracts/security/ReentrancyGuard.sol\":1759:1760  2 */\n      0x02\n        /* \"https://raw.githubusercontent.com/OpenZeppelin/openzeppelin-contracts/v4.9.3/contracts/security/ReentrancyGuard.sol\":2598:2605  _status */\n      0x06\n        /* \"https://raw.githubusercontent.com/OpenZeppelin/openzeppelin-contracts/v4.9.3/contracts/security/ReentrancyGuard.sol\":2598:2616  _status = _ENTERED */\n      sstore\n        /* \"https://raw.githubusercontent.com/OpenZeppelin/openzeppelin-contracts/v4.9.3/contracts/security/ReentrancyGuard.sol\":2336:2623  function _nonReentrantBefore() private {... */\n      jump\t// out\n        /* \"https://raw.githubusercontent.com/OpenZeppelin/openzeppelin-contracts/v4.9.3/contracts/security/Pausable.sol\":1767:1873  function _requireNotPaused() internal view virtual {... */\n    tag_173:\n        /* \"https://raw.githubusercontent.com/OpenZeppelin/openzeppelin-contracts/v4.9.3/contracts/security/Pausable.sol\":1685:1692  _paused */\n      sload(0x05)\n      shl(0xa0, 0x01)\n      swap1\n      div\n      0xff\n      and\n        /* \"https://raw.githubusercontent.com/OpenZeppelin/openzeppelin-contracts/v4.9.3/contracts/security/Pausable.sol\":1836:1845  !paused() */\n      iszero\n        /* \"https://raw.githubusercontent.com/OpenZeppelin/openzeppelin-contracts/v4.9.3/contracts/security/Pausable.sol\":1828:1866  require(!paused(), \"Pausable: paused\") */\n      tag_195\n      jumpi\n      mload(0x40)\n      shl(0xe5, 0x461bcd)\n      dup2\n      mstore\n        /* \"#utility.yul\":11117:11119   */\n      0x20\n        /* \"https://raw.githubusercontent.com/OpenZeppelin/openzeppelin-contracts/v4.9.3/contracts/security/Pausable.sol\":1828:1866  require(!paused(), \"Pausable: paused\") */\n      0x04\n      dup3\n      add\n        /* \"#utility.yul\":11099:11120   */\n      mstore\n        /* \"#utility.yul\":11156:11158   */\n      0x10\n        /* \"#utility.yul\":11136:11154   */\n      0x24\n      dup3\n      add\n        /* \"#utility.yul\":11129:11159   */\n      mstore\n      shl(0x82, 0x14185d5cd8589b194e881c185d5cd959)\n        /* \"#utility.yul\":11175:11193   */\n      0x44\n      dup3\n      add\n        /* \"#utility.yul\":11168:11214   */\n      mstore\n        /* \"#utility.yul\":11231:11249   */\n      0x64\n      add\n        /* \"https://raw.githubusercontent.com/OpenZeppelin/openzeppelin-contracts/v4.9.3/contracts/security/Pausable.sol\":1828:1866  require(!paused(), \"Pausable: paused\") */\n      tag_154\n        /* \"#utility.yul\":10915:11255   */\n      jump\n        /* \"https://raw.githubusercontent.com/OpenZeppelin/openzeppelin-contracts/v4.9.3/contracts/token/ERC20/ERC20.sol\":11078:11489  function _spendAllowance(address owner, address spender, uint256 amount) internal virtual {... */\n    tag_180:\n        /* \"https://raw.githubusercontent.com/OpenZeppelin/openzeppelin-contracts/v4.9.3/contracts/token/ERC20/ERC20.sol\":11178:11202  uint256 currentAllowance */\n      0x00\n        /* \"https://raw.githubusercontent.com/OpenZeppelin/openzeppelin-contracts/v4.9.3/contracts/token/ERC20/ERC20.sol\":11205:11230  allowance(owner, spender) */\n      tag_332\n        /* \"https://raw.githubusercontent.com/OpenZeppelin/openzeppelin-contracts/v4.9.3/contracts/token/ERC20/ERC20.sol\":11215:11220  owner */\n      dup5\n        /* \"https://raw.githubusercontent.com/OpenZeppelin/openzeppelin-contracts/v4.9.3/contracts/token/ERC20/ERC20.sol\":11222:11229  spender */\n      dup5\n        /* \"https://raw.githubusercontent.com/OpenZeppelin/openzeppelin-contracts/v4.9.3/contracts/token/ERC20/ERC20.sol\":11205:11214  allowance */\n      tag_126\n        /* \"https://raw.githubusercontent.com/OpenZeppelin/openzeppelin-contracts/v4.9.3/contracts/token/ERC20/ERC20.sol\":11205:11230  allowance(owner, spender) */\n      jump\t// in\n    tag_332:\n        /* \"https://raw.githubusercontent.com/OpenZeppelin/openzeppelin-contracts/v4.9.3/contracts/token/ERC20/ERC20.sol\":11178:11230  uint256 currentAllowance = allowance(owner, spender) */\n      swap1\n      pop\n      not(0x00)\n        /* \"https://raw.githubusercontent.com/OpenZeppelin/openzeppelin-contracts/v4.9.3/contracts/token/ERC20/ERC20.sol\":11244:11260  currentAllowance */\n      dup2\n        /* \"https://raw.githubusercontent.com/OpenZeppelin/openzeppelin-contracts/v4.9.3/contracts/token/ERC20/ERC20.sol\":11244:11281  currentAllowance != type(uint256).max */\n      eq\n        /* \"https://raw.githubusercontent.com/OpenZeppelin/openzeppelin-contracts/v4.9.3/contracts/token/ERC20/ERC20.sol\":11240:11483  if (currentAllowance != type(uint256).max) {... */\n      tag_250\n      jumpi\n        /* \"https://raw.githubusercontent.com/OpenZeppelin/openzeppelin-contracts/v4.9.3/contracts/token/ERC20/ERC20.sol\":11325:11331  amount */\n      dup2\n        /* \"https://raw.githubusercontent.com/OpenZeppelin/openzeppelin-contracts/v4.9.3/contracts/token/ERC20/ERC20.sol\":11305:11321  currentAllowance */\n      dup2\n        /* \"https://raw.githubusercontent.com/OpenZeppelin/openzeppelin-contracts/v4.9.3/contracts/token/ERC20/ERC20.sol\":11305:11331  currentAllowance >= amount */\n      lt\n      iszero\n        /* \"https://raw.githubusercontent.com/OpenZeppelin/openzeppelin-contracts/v4.9.3/contracts/token/ERC20/ERC20.sol\":11297:11365  require(currentAllowance >= amount, \"ERC20: insufficient allowance\") */\n      tag_334\n      jumpi\n      mload(0x40)\n      shl(0xe5, 0x461bcd)\n      dup2\n      mstore\n        /* \"#utility.yul\":11462:11464   */\n      0x20\n        /* \"https://raw.githubusercontent.com/OpenZeppelin/openzeppelin-contracts/v4.9.3/contracts/token/ERC20/ERC20.sol\":11297:11365  require(currentAllowance >= amount, \"ERC20: insufficient allowance\") */\n      0x04\n      dup3\n      add\n        /* \"#utility.yul\":11444:11465   */\n      mstore\n        /* \"#utility.yul\":11501:11503   */\n      0x1d\n        /* \"#utility.yul\":11481:11499   */\n      0x24\n      dup3\n      add\n        /* \"#utility.yul\":11474:11504   */\n      mstore\n        /* \"#utility.yul\":11540:11571   */\n      0x45524332303a20696e73756666696369656e7420616c6c6f77616e6365000000\n        /* \"#utility.yul\":11520:11538   */\n      0x44\n      dup3\n      add\n        /* \"#utility.yul\":11513:11572   */\n      mstore\n        /* \"#utility.yul\":11589:11607   */\n      0x64\n      add\n        /* \"https://raw.githubusercontent.com/OpenZeppelin/openzeppelin-contracts/v4.9.3/contracts/token/ERC20/ERC20.sol\":11297:11365  require(currentAllowance >= amount, \"ERC20: insufficient allowance\") */\n      tag_154\n        /* \"#utility.yul\":11260:11613   */\n      jump\n        /* \"https://raw.githubusercontent.com/OpenZeppelin/openzeppelin-contracts/v4.9.3/contracts/token/ERC20/ERC20.sol\":11297:11365  require(currentAllowance >= amount, \"ERC20: insufficient allowance\") */\n    tag_334:\n        /* \"https://raw.githubusercontent.com/OpenZeppelin/openzeppelin-contracts/v4.9.3/contracts/token/ERC20/ERC20.sol\":11407:11458  _approve(owner, spender, currentAllowance - amount) */\n      tag_250\n        /* \"https://raw.githubusercontent.com/OpenZeppelin/openzeppelin-contracts/v4.9.3/contracts/token/ERC20/ERC20.sol\":11416:11421  owner */\n      dup5\n        /* \"https://raw.githubusercontent.com/OpenZeppelin/openzeppelin-contracts/v4.9.3/contracts/token/ERC20/ERC20.sol\":11423:11430  spender */\n      dup5\n        /* \"https://raw.githubusercontent.com/OpenZeppelin/openzeppelin-contracts/v4.9.3/contracts/token/ERC20/ERC20.sol\":11451:11457  amount */\n      dup5\n        /* \"https://raw.githubusercontent.com/OpenZeppelin/openzeppelin-contracts/v4.9.3/contracts/token/ERC20/ERC20.sol\":11432:11448  currentAllowance */\n      dup5\n        /* \"https://raw.githubusercontent.com/OpenZeppelin/openzeppelin-contracts/v4.9.3/contracts/token/ERC20/ERC20.sol\":11432:11457  currentAllowance - amount */\n      sub\n        /* \"https://raw.githubusercontent.com/OpenZeppelin/openzeppelin-contracts/v4.9.3/contracts/token/ERC20/ERC20.sol\":11407:11415  _approve */\n      tag_148\n        /* \"https://raw.githubusercontent.com/OpenZeppelin/openzeppelin-contracts/v4.9.3/contracts/token/ERC20/ERC20.sol\":11407:11458  _approve(owner, spender, currentAllowance - amount) */\n      jump\t// in\n        /* \"Revolt.sol\":3809:4652  function _transfer(... */\n    tag_182:\n        /* \"https://raw.githubusercontent.com/OpenZeppelin/openzeppelin-contracts/v4.9.3/contracts/security/Pausable.sol\":1239:1258  _requireNotPaused() */\n      tag_339\n        /* \"https://raw.githubusercontent.com/OpenZeppelin/openzeppelin-contracts/v4.9.3/contracts/security/Pausable.sol\":1239:1256  _requireNotPaused */\n      tag_173\n        /* \"https://raw.githubusercontent.com/OpenZeppelin/openzeppelin-contracts/v4.9.3/contracts/security/Pausable.sol\":1239:1258  _requireNotPaused() */\n      jump\t// in\n    tag_339:\n      sub(shl(0xa0, 0x01), 0x01)\n        /* \"Revolt.sol\":3959:3979  sender != address(0) */\n      dup4\n      and\n        /* \"Revolt.sol\":3951:4014  require(sender != address(0), \"RevoltCoin: transfer from zero\") */\n      tag_341\n      jumpi\n      mload(0x40)\n      shl(0xe5, 0x461bcd)\n      dup2\n      mstore\n        /* \"#utility.yul\":11820:11822   */\n      0x20\n        /* \"Revolt.sol\":3951:4014  require(sender != address(0), \"RevoltCoin: transfer from zero\") */\n      0x04\n      dup3\n      add\n        /* \"#utility.yul\":11802:11823   */\n      mstore\n        /* \"#utility.yul\":11859:11861   */\n      0x1e\n        /* \"#utility.yul\":11839:11857   */\n      0x24\n      dup3\n      add\n        /* \"#utility.yul\":11832:11862   */\n      mstore\n        /* \"#utility.yul\":11898:11930   */\n      0x5265766f6c74436f696e3a207472616e736665722066726f6d207a65726f0000\n        /* \"#utility.yul\":11878:11896   */\n      0x44\n      dup3\n      add\n        /* \"#utility.yul\":11871:11931   */\n      mstore\n        /* \"#utility.yul\":11948:11966   */\n      0x64\n      add\n        /* \"Revolt.sol\":3951:4014  require(sender != address(0), \"RevoltCoin: transfer from zero\") */\n      tag_154\n        /* \"#utility.yul\":11618:11972   */\n      jump\n        /* \"Revolt.sol\":3951:4014  require(sender != address(0), \"RevoltCoin: transfer from zero\") */\n    tag_341:\n      sub(shl(0xa0, 0x01), 0x01)\n        /* \"Revolt.sol\":4032:4055  recipient != address(0) */\n      dup3\n      and\n        /* \"Revolt.sol\":4024:4088  require(recipient != address(0), \"RevoltCoin: transfer to zero\") */\n      tag_344\n      jumpi\n      mload(0x40)\n      shl(0xe5, 0x461bcd)\n      dup2\n      mstore\n        /* \"#utility.yul\":5441:5443   */\n      0x20\n        /* \"Revolt.sol\":4024:4088  require(recipient != address(0), \"RevoltCoin: transfer to zero\") */\n      0x04\n      dup3\n      add\n        /* \"#utility.yul\":5423:5444   */\n      mstore\n        /* \"#utility.yul\":5480:5482   */\n      0x1c\n        /* \"#utility.yul\":5460:5478   */\n      0x24\n      dup3\n      add\n        /* \"#utility.yul\":5453:5483   */\n      mstore\n        /* \"#utility.yul\":5519:5549   */\n      0x5265766f6c74436f696e3a207472616e7366657220746f207a65726f00000000\n        /* \"#utility.yul\":5499:5517   */\n      0x44\n      dup3\n      add\n        /* \"#utility.yul\":5492:5550   */\n      mstore\n        /* \"#utility.yul\":5567:5585   */\n      0x64\n      add\n        /* \"Revolt.sol\":4024:4088  require(recipient != address(0), \"RevoltCoin: transfer to zero\") */\n      tag_154\n        /* \"#utility.yul\":5239:5591   */\n      jump\n        /* \"Revolt.sol\":4024:4088  require(recipient != address(0), \"RevoltCoin: transfer to zero\") */\n    tag_344:\n        /* \"Revolt.sol\":4136:4137  0 */\n      0x00\n        /* \"Revolt.sol\":4115:4133  transferFeePercent */\n      sload(0x07)\n        /* \"Revolt.sol\":4115:4137  transferFeePercent > 0 */\n      gt\n        /* \"Revolt.sol\":4115:4179  transferFeePercent > 0 &&... */\n      dup1\n      iszero\n      tag_346\n      jumpi\n      pop\n        /* \"Revolt.sol\":4153:4165  feeRecipient */\n      and(sub(shl(0xa0, 0x01), 0x01), sload(0x08))\n        /* \"Revolt.sol\":4153:4179  feeRecipient != address(0) */\n      iszero\n      iszero\n        /* \"Revolt.sol\":4115:4179  transferFeePercent > 0 &&... */\n    tag_346:\n        /* \"Revolt.sol\":4115:4222  transferFeePercent > 0 &&... */\n      dup1\n      iszero\n      tag_347\n      jumpi\n      pop\n      sub(shl(0xa0, 0x01), 0x01)\n        /* \"Revolt.sol\":4196:4222  _isExcludedFromFee[sender] */\n      dup4\n      and\n      0x00\n      swap1\n      dup2\n      mstore\n        /* \"Revolt.sol\":4196:4214  _isExcludedFromFee */\n      0x09\n        /* \"Revolt.sol\":4196:4222  _isExcludedFromFee[sender] */\n      0x20\n      mstore\n      0x40\n      swap1\n      keccak256\n      sload\n      0xff\n      and\n        /* \"Revolt.sol\":4195:4222  !_isExcludedFromFee[sender] */\n      iszero\n        /* \"Revolt.sol\":4115:4222  transferFeePercent > 0 &&... */\n    tag_347:\n        /* \"Revolt.sol\":4115:4268  transferFeePercent > 0 &&... */\n      dup1\n      iszero\n      tag_348\n      jumpi\n      pop\n      sub(shl(0xa0, 0x01), 0x01)\n        /* \"Revolt.sol\":4239:4268  _isExcludedFromFee[recipient] */\n      dup3\n      and\n      0x00\n      swap1\n      dup2\n      mstore\n        /* \"Revolt.sol\":4239:4257  _isExcludedFromFee */\n      0x09\n        /* \"Revolt.sol\":4239:4268  _isExcludedFromFee[recipient] */\n      0x20\n      mstore\n      0x40\n      swap1\n      keccak256\n      sload\n      0xff\n      and\n        /* \"Revolt.sol\":4238:4268  !_isExcludedFromFee[recipient] */\n      iszero\n        /* \"Revolt.sol\":4115:4268  transferFeePercent > 0 &&... */\n    tag_348:\n        /* \"Revolt.sol\":4098:4646  if (... */\n      iszero\n      tag_349\n      jumpi\n        /* \"Revolt.sol\":4293:4304  uint256 fee */\n      0x00\n        /* \"Revolt.sol\":4339:4342  100 */\n      0x64\n        /* \"Revolt.sol\":4317:4335  transferFeePercent */\n      sload(0x07)\n        /* \"Revolt.sol\":4308:4314  amount */\n      dup4\n        /* \"Revolt.sol\":4308:4335  amount * transferFeePercent */\n      tag_350\n      swap2\n      swap1\n      tag_351\n      jump\t// in\n    tag_350:\n        /* \"Revolt.sol\":4307:4342  (amount * transferFeePercent) / 100 */\n      tag_352\n      swap2\n      swap1\n      tag_353\n      jump\t// in\n    tag_352:\n        /* \"Revolt.sol\":4293:4342  uint256 fee = (amount * transferFeePercent) / 100 */\n      swap1\n      pop\n        /* \"Revolt.sol\":4356:4373  uint256 remaining */\n      0x00\n        /* \"Revolt.sol\":4376:4388  amount - fee */\n      tag_354\n        /* \"Revolt.sol\":4293:4342  uint256 fee = (amount * transferFeePercent) / 100 */\n      dup3\n        /* \"Revolt.sol\":4376:4382  amount */\n      dup5\n        /* \"Revolt.sol\":4376:4388  amount - fee */\n      tag_355\n      jump\t// in\n    tag_354:\n        /* \"Revolt.sol\":4457:4469  feeRecipient */\n      sload(0x08)\n        /* \"Revolt.sol\":4356:4388  uint256 remaining = amount - fee */\n      swap1\n      swap2\n      pop\n        /* \"Revolt.sol\":4433:4475  super._transfer(sender, feeRecipient, fee) */\n      tag_356\n      swap1\n        /* \"Revolt.sol\":4449:4455  sender */\n      dup7\n      swap1\n      sub(shl(0xa0, 0x01), 0x01)\n        /* \"Revolt.sol\":4457:4469  feeRecipient */\n      and\n        /* \"Revolt.sol\":4471:4474  fee */\n      dup5\n        /* \"Revolt.sol\":4433:4448  super._transfer */\n      tag_357\n        /* \"Revolt.sol\":4433:4475  super._transfer(sender, feeRecipient, fee) */\n      jump\t// in\n    tag_356:\n        /* \"Revolt.sol\":4517:4562  super._transfer(sender, recipient, remaining) */\n      tag_358\n        /* \"Revolt.sol\":4533:4539  sender */\n      dup6\n        /* \"Revolt.sol\":4541:4550  recipient */\n      dup6\n        /* \"Revolt.sol\":4552:4561  remaining */\n      dup4\n        /* \"Revolt.sol\":4517:4532  super._transfer */\n      tag_357\n        /* \"Revolt.sol\":4517:4562  super._transfer(sender, recipient, remaining) */\n      jump\t// in\n    tag_358:\n        /* \"Revolt.sol\":4279:4573  {... */\n      pop\n      pop\n        /* \"Revolt.sol\":3809:4652  function _transfer(... */\n      pop\n      pop\n      pop\n      jump\t// out\n        /* \"Revolt.sol\":4098:4646  if (... */\n    tag_349:\n        /* \"Revolt.sol\":4593:4635  super._transfer(sender, recipient, amount) */\n      tag_360\n        /* \"Revolt.sol\":4609:4615  sender */\n      dup4\n        /* \"Revolt.sol\":4617:4626  recipient */\n      dup4\n        /* \"Revolt.sol\":4628:4634  amount */\n      dup4\n        /* \"Revolt.sol\":4593:4608  super._transfer */\n      tag_357\n        /* \"Revolt.sol\":4593:4635  super._transfer(sender, recipient, amount) */\n      jump\t// in\n    tag_360:\n        /* \"Revolt.sol\":3809:4652  function _transfer(... */\n      pop\n      pop\n      pop\n      jump\t// out\n        /* \"https://raw.githubusercontent.com/OpenZeppelin/openzeppelin-contracts/v4.9.3/contracts/security/Pausable.sol\":2433:2550  function _unpause() internal virtual whenPaused {... */\n    tag_196:\n        /* \"https://raw.githubusercontent.com/OpenZeppelin/openzeppelin-contracts/v4.9.3/contracts/security/Pausable.sol\":1486:1502  _requirePaused() */\n      tag_363\n        /* \"https://raw.githubusercontent.com/OpenZeppelin/openzeppelin-contracts/v4.9.3/contracts/security/Pausable.sol\":1486:1500  _requirePaused */\n      tag_364\n        /* \"https://raw.githubusercontent.com/OpenZeppelin/openzeppelin-contracts/v4.9.3/contracts/security/Pausable.sol\":1486:1502  _requirePaused() */\n      jump\t// in\n    tag_363:\n        /* \"https://raw.githubusercontent.com/OpenZeppelin/openzeppelin-contracts/v4.9.3/contracts/security/Pausable.sol\":2491:2498  _paused */\n      0x05\n        /* \"https://raw.githubusercontent.com/OpenZeppelin/openzeppelin-contracts/v4.9.3/contracts/security/Pausable.sol\":2491:2506  _paused = false */\n      dup1\n      sload\n      not(shl(0xa0, 0xff))\n      and\n      swap1\n      sstore\n        /* \"https://raw.githubusercontent.com/OpenZeppelin/openzeppelin-contracts/v4.9.3/contracts/security/Pausable.sol\":2521:2543  Unpaused(_msgSender()) */\n      0x5db9ee0a495bf2e6ff9c91a7834c1ba4fdd244a5e8aa4e537bd38aeae4b073aa\n        /* \"https://raw.githubusercontent.com/OpenZeppelin/openzeppelin-contracts/v4.9.3/contracts/utils/Context.sol\":719:729  msg.sender */\n      caller\n        /* \"https://raw.githubusercontent.com/OpenZeppelin/openzeppelin-contracts/v4.9.3/contracts/security/Pausable.sol\":2530:2542  _msgSender() */\n    tag_366:\n        /* \"https://raw.githubusercontent.com/OpenZeppelin/openzeppelin-contracts/v4.9.3/contracts/security/Pausable.sol\":2521:2543  Unpaused(_msgSender()) */\n      mload(0x40)\n      sub(shl(0xa0, 0x01), 0x01)\n        /* \"#utility.yul\":2448:2480   */\n      swap1\n      swap2\n      and\n        /* \"#utility.yul\":2430:2481   */\n      dup2\n      mstore\n        /* \"#utility.yul\":2418:2420   */\n      0x20\n        /* \"#utility.yul\":2403:2421   */\n      add\n        /* \"https://raw.githubusercontent.com/OpenZeppelin/openzeppelin-contracts/v4.9.3/contracts/security/Pausable.sol\":2521:2543  Unpaused(_msgSender()) */\n      mload(0x40)\n      dup1\n      swap2\n      sub\n      swap1\n      log1\n        /* \"https://raw.githubusercontent.com/OpenZeppelin/openzeppelin-contracts/v4.9.3/contracts/security/Pausable.sol\":2433:2550  function _unpause() internal virtual whenPaused {... */\n      jump\t// out\n        /* \"https://raw.githubusercontent.com/OpenZeppelin/openzeppelin-contracts/v4.9.3/contracts/token/ERC20/ERC20.sol\":8520:9055  function _mint(address account, uint256 amount) internal virtual {... */\n    tag_206:\n      sub(shl(0xa0, 0x01), 0x01)\n        /* \"https://raw.githubusercontent.com/OpenZeppelin/openzeppelin-contracts/v4.9.3/contracts/token/ERC20/ERC20.sol\":8603:8624  account != address(0) */\n      dup3\n      and\n        /* \"https://raw.githubusercontent.com/OpenZeppelin/openzeppelin-contracts/v4.9.3/contracts/token/ERC20/ERC20.sol\":8595:8660  require(account != address(0), \"ERC20: mint to the zero address\") */\n      tag_369\n      jumpi\n      mload(0x40)\n      shl(0xe5, 0x461bcd)\n      dup2\n      mstore\n        /* \"#utility.yul\":12707:12709   */\n      0x20\n        /* \"https://raw.githubusercontent.com/OpenZeppelin/openzeppelin-contracts/v4.9.3/contracts/token/ERC20/ERC20.sol\":8595:8660  require(account != address(0), \"ERC20: mint to the zero address\") */\n      0x04\n      dup3\n      add\n        /* \"#utility.yul\":12689:12710   */\n      mstore\n        /* \"#utility.yul\":12746:12748   */\n      0x1f\n        /* \"#utility.yul\":12726:12744   */\n      0x24\n      dup3\n      add\n        /* \"#utility.yul\":12719:12749   */\n      mstore\n        /* \"#utility.yul\":12785:12818   */\n      0x45524332303a206d696e7420746f20746865207a65726f206164647265737300\n        /* \"#utility.yul\":12765:12783   */\n      0x44\n      dup3\n      add\n        /* \"#utility.yul\":12758:12819   */\n      mstore\n        /* \"#utility.yul\":12836:12854   */\n      0x64\n      add\n        /* \"https://raw.githubusercontent.com/OpenZeppelin/openzeppelin-contracts/v4.9.3/contracts/token/ERC20/ERC20.sol\":8595:8660  require(account != address(0), \"ERC20: mint to the zero address\") */\n      tag_154\n        /* \"#utility.yul\":12505:12860   */\n      jump\n        /* \"https://raw.githubusercontent.com/OpenZeppelin/openzeppelin-contracts/v4.9.3/contracts/token/ERC20/ERC20.sol\":8595:8660  require(account != address(0), \"ERC20: mint to the zero address\") */\n    tag_369:\n        /* \"https://raw.githubusercontent.com/OpenZeppelin/openzeppelin-contracts/v4.9.3/contracts/token/ERC20/ERC20.sol\":8671:8720  _beforeTokenTransfer(address(0), account, amount) */\n      tag_372\n        /* \"https://raw.githubusercontent.com/OpenZeppelin/openzeppelin-contracts/v4.9.3/contracts/token/ERC20/ERC20.sol\":8700:8701  0 */\n      0x00\n        /* \"https://raw.githubusercontent.com/OpenZeppelin/openzeppelin-contracts/v4.9.3/contracts/token/ERC20/ERC20.sol\":8704:8711  account */\n      dup4\n        /* \"https://raw.githubusercontent.com/OpenZeppelin/openzeppelin-contracts/v4.9.3/contracts/token/ERC20/ERC20.sol\":8713:8719  amount */\n      dup4\n        /* \"https://raw.githubusercontent.com/OpenZeppelin/openzeppelin-contracts/v4.9.3/contracts/token/ERC20/ERC20.sol\":8671:8691  _beforeTokenTransfer */\n      tag_373\n        /* \"https://raw.githubusercontent.com/OpenZeppelin/openzeppelin-contracts/v4.9.3/contracts/token/ERC20/ERC20.sol\":8671:8720  _beforeTokenTransfer(address(0), account, amount) */\n      jump\t// in\n    tag_372:\n        /* \"https://raw.githubusercontent.com/OpenZeppelin/openzeppelin-contracts/v4.9.3/contracts/token/ERC20/ERC20.sol\":8747:8753  amount */\n      dup1\n        /* \"https://raw.githubusercontent.com/OpenZeppelin/openzeppelin-contracts/v4.9.3/contracts/token/ERC20/ERC20.sol\":8731:8743  _totalSupply */\n      0x02\n      0x00\n        /* \"https://raw.githubusercontent.com/OpenZeppelin/openzeppelin-contracts/v4.9.3/contracts/token/ERC20/ERC20.sol\":8731:8753  _totalSupply += amount */\n      dup3\n      dup3\n      sload\n      tag_374\n      swap2\n      swap1\n      tag_191\n      jump\t// in\n    tag_374:\n      swap1\n      swap2\n      sstore\n      pop\n      pop\n      sub(shl(0xa0, 0x01), 0x01)\n        /* \"https://raw.githubusercontent.com/OpenZeppelin/openzeppelin-contracts/v4.9.3/contracts/token/ERC20/ERC20.sol\":8899:8917  _balances[account] */\n      dup3\n      and\n        /* \"https://raw.githubusercontent.com/OpenZeppelin/openzeppelin-contracts/v4.9.3/contracts/token/ERC20/ERC20.sol\":8899:8908  _balances */\n      0x00\n        /* \"https://raw.githubusercontent.com/OpenZeppelin/openzeppelin-contracts/v4.9.3/contracts/token/ERC20/ERC20.sol\":8899:8917  _balances[account] */\n      dup2\n      dup2\n      mstore\n      0x20\n      dup2\n      dup2\n      mstore\n      0x40\n      dup1\n      dup4\n      keccak256\n        /* \"https://raw.githubusercontent.com/OpenZeppelin/openzeppelin-contracts/v4.9.3/contracts/token/ERC20/ERC20.sol\":8899:8927  _balances[account] += amount */\n      dup1\n      sload\n      dup7\n      add\n      swap1\n      sstore\n        /* \"https://raw.githubusercontent.com/OpenZeppelin/openzeppelin-contracts/v4.9.3/contracts/token/ERC20/ERC20.sol\":8952:8989  Transfer(address(0), account, amount) */\n      mload\n        /* \"#utility.yul\":1449:1474   */\n      dup5\n      dup2\n      mstore\n        /* \"https://raw.githubusercontent.com/OpenZeppelin/openzeppelin-contracts/v4.9.3/contracts/token/ERC20/ERC20.sol\":8952:8989  Transfer(address(0), account, amount) */\n      0xddf252ad1be2c89b69c2b068fc378daa952ba7f163c4a11628f55a4df523b3ef\n      swap2\n        /* \"#utility.yul\":1422:1440   */\n      add\n        /* \"https://raw.githubusercontent.com/OpenZeppelin/openzeppelin-contracts/v4.9.3/contracts/token/ERC20/ERC20.sol\":8952:8989  Transfer(address(0), account, amount) */\n      mload(0x40)\n      dup1\n      swap2\n      sub\n      swap1\n      log3\n        /* \"Revolt.sol\":2046:2218  function mint(address to, uint256 amount) external onlyOwner {... */\n      pop\n      pop\n      jump\t// out\n        /* \"https://raw.githubusercontent.com/OpenZeppelin/openzeppelin-contracts/v4.9.3/contracts/security/Pausable.sol\":2186:2301  function _pause() internal virtual whenNotPaused {... */\n    tag_260:\n        /* \"https://raw.githubusercontent.com/OpenZeppelin/openzeppelin-contracts/v4.9.3/contracts/security/Pausable.sol\":1239:1258  _requireNotPaused() */\n      tag_379\n        /* \"https://raw.githubusercontent.com/OpenZeppelin/openzeppelin-contracts/v4.9.3/contracts/security/Pausable.sol\":1239:1256  _requireNotPaused */\n      tag_173\n        /* \"https://raw.githubusercontent.com/OpenZeppelin/openzeppelin-contracts/v4.9.3/contracts/security/Pausable.sol\":1239:1258  _requireNotPaused() */\n      jump\t// in\n    tag_379:\n        /* \"https://raw.githubusercontent.com/OpenZeppelin/openzeppelin-contracts/v4.9.3/contracts/security/Pausable.sol\":2245:2252  _paused */\n      0x05\n        /* \"https://raw.githubusercontent.com/OpenZeppelin/openzeppelin-contracts/v4.9.3/contracts/security/Pausable.sol\":2245:2259  _paused = true */\n      dup1\n      sload\n      not(shl(0xa0, 0xff))\n      and\n      shl(0xa0, 0x01)\n      or\n      swap1\n      sstore\n        /* \"https://raw.githubusercontent.com/OpenZeppelin/openzeppelin-contracts/v4.9.3/contracts/security/Pausable.sol\":2274:2294  Paused(_msgSender()) */\n      0x62e78cea01bee320cd4e420270b5ea74000d11b0c9f74754ebdbfc544b05a258\n        /* \"https://raw.githubusercontent.com/OpenZeppelin/openzeppelin-contracts/v4.9.3/contracts/security/Pausable.sol\":2281:2293  _msgSender() */\n      tag_366\n        /* \"https://raw.githubusercontent.com/OpenZeppelin/openzeppelin-contracts/v4.9.3/contracts/utils/Context.sol\":719:729  msg.sender */\n      caller\n      swap1\n        /* \"https://raw.githubusercontent.com/OpenZeppelin/openzeppelin-contracts/v4.9.3/contracts/utils/Context.sol\":640:736  function _msgSender() internal view virtual returns (address) {... */\n      jump\n        /* \"https://raw.githubusercontent.com/OpenZeppelin/openzeppelin-contracts/v4.9.3/contracts/token/ERC20/ERC20.sol\":7456:8244  function _transfer(address from, address to, uint256 amount) internal virtual {... */\n    tag_357:\n      sub(shl(0xa0, 0x01), 0x01)\n        /* \"https://raw.githubusercontent.com/OpenZeppelin/openzeppelin-contracts/v4.9.3/contracts/token/ERC20/ERC20.sol\":7552:7570  from != address(0) */\n      dup4\n      and\n        /* \"https://raw.githubusercontent.com/OpenZeppelin/openzeppelin-contracts/v4.9.3/contracts/token/ERC20/ERC20.sol\":7544:7612  require(from != address(0), \"ERC20: transfer from the zero address\") */\n      tag_384\n      jumpi\n      mload(0x40)\n      shl(0xe5, 0x461bcd)\n      dup2\n      mstore\n        /* \"#utility.yul\":13067:13069   */\n      0x20\n        /* \"https://raw.githubusercontent.com/OpenZeppelin/openzeppelin-contracts/v4.9.3/contracts/token/ERC20/ERC20.sol\":7544:7612  require(from != address(0), \"ERC20: transfer from the zero address\") */\n      0x04\n      dup3\n      add\n        /* \"#utility.yul\":13049:13070   */\n      mstore\n        /* \"#utility.yul\":13106:13108   */\n      0x25\n        /* \"#utility.yul\":13086:13104   */\n      0x24\n      dup3\n      add\n        /* \"#utility.yul\":13079:13109   */\n      mstore\n        /* \"#utility.yul\":13145:13179   */\n      0x45524332303a207472616e736665722066726f6d20746865207a65726f206164\n        /* \"#utility.yul\":13125:13143   */\n      0x44\n      dup3\n      add\n        /* \"#utility.yul\":13118:13180   */\n      mstore\n      shl(0xd8, 0x6472657373)\n        /* \"#utility.yul\":13196:13214   */\n      0x64\n      dup3\n      add\n        /* \"#utility.yul\":13189:13224   */\n      mstore\n        /* \"#utility.yul\":13241:13260   */\n      0x84\n      add\n        /* \"https://raw.githubusercontent.com/OpenZeppelin/openzeppelin-contracts/v4.9.3/contracts/token/ERC20/ERC20.sol\":7544:7612  require(from != address(0), \"ERC20: transfer from the zero address\") */\n      tag_154\n        /* \"#utility.yul\":12865:13266   */\n      jump\n        /* \"https://raw.githubusercontent.com/OpenZeppelin/openzeppelin-contracts/v4.9.3/contracts/token/ERC20/ERC20.sol\":7544:7612  require(from != address(0), \"ERC20: transfer from the zero address\") */\n    tag_384:\n      sub(shl(0xa0, 0x01), 0x01)\n        /* \"https://raw.githubusercontent.com/OpenZeppelin/openzeppelin-contracts/v4.9.3/contracts/token/ERC20/ERC20.sol\":7630:7646  to != address(0) */\n      dup3\n      and\n        /* \"https://raw.githubusercontent.com/OpenZeppelin/openzeppelin-contracts/v4.9.3/contracts/token/ERC20/ERC20.sol\":7622:7686  require(to != address(0), \"ERC20: transfer to the zero address\") */\n      tag_387\n      jumpi\n      mload(0x40)\n      shl(0xe5, 0x461bcd)\n      dup2\n      mstore\n        /* \"#utility.yul\":13473:13475   */\n      0x20\n        /* \"https://raw.githubusercontent.com/OpenZeppelin/openzeppelin-contracts/v4.9.3/contracts/token/ERC20/ERC20.sol\":7622:7686  require(to != address(0), \"ERC20: transfer to the zero address\") */\n      0x04\n      dup3\n      add\n        /* \"#utility.yul\":13455:13476   */\n      mstore\n        /* \"#utility.yul\":13512:13514   */\n      0x23\n        /* \"#utility.yul\":13492:13510   */\n      0x24\n      dup3\n      add\n        /* \"#utility.yul\":13485:13515   */\n      mstore\n        /* \"#utility.yul\":13551:13585   */\n      0x45524332303a207472616e7366657220746f20746865207a65726f2061646472\n        /* \"#utility.yul\":13531:13549   */\n      0x44\n      dup3\n      add\n        /* \"#utility.yul\":13524:13586   */\n      mstore\n      shl(0xe8, 0x657373)\n        /* \"#utility.yul\":13602:13620   */\n      0x64\n      dup3\n      add\n        /* \"#utility.yul\":13595:13628   */\n      mstore\n        /* \"#utility.yul\":13645:13664   */\n      0x84\n      add\n        /* \"https://raw.githubusercontent.com/OpenZeppelin/openzeppelin-contracts/v4.9.3/contracts/token/ERC20/ERC20.sol\":7622:7686  require(to != address(0), \"ERC20: transfer to the zero address\") */\n      tag_154\n        /* \"#utility.yul\":13271:13670   */\n      jump\n        /* \"https://raw.githubusercontent.com/OpenZeppelin/openzeppelin-contracts/v4.9.3/contracts/token/ERC20/ERC20.sol\":7622:7686  require(to != address(0), \"ERC20: transfer to the zero address\") */\n    tag_387:\n        /* \"https://raw.githubusercontent.com/OpenZeppelin/openzeppelin-contracts/v4.9.3/contracts/token/ERC20/ERC20.sol\":7697:7735  _beforeTokenTransfer(from, to, amount) */\n      tag_390\n        /* \"https://raw.githubusercontent.com/OpenZeppelin/openzeppelin-contracts/v4.9.3/contracts/token/ERC20/ERC20.sol\":7718:7722  from */\n      dup4\n        /* \"https://raw.githubusercontent.com/OpenZeppelin/openzeppelin-contracts/v4.9.3/contracts/token/ERC20/ERC20.sol\":7724:7726  to */\n      dup4\n        /* \"https://raw.githubusercontent.com/OpenZeppelin/openzeppelin-contracts/v4.9.3/contracts/token/ERC20/ERC20.sol\":7728:7734  amount */\n      dup4\n        /* \"https://raw.githubusercontent.com/OpenZeppelin/openzeppelin-contracts/v4.9.3/contracts/token/ERC20/ERC20.sol\":7697:7717  _beforeTokenTransfer */\n      tag_373\n        /* \"https://raw.githubusercontent.com/OpenZeppelin/openzeppelin-contracts/v4.9.3/contracts/token/ERC20/ERC20.sol\":7697:7735  _beforeTokenTransfer(from, to, amount) */\n      jump\t// in\n    tag_390:\n      sub(shl(0xa0, 0x01), 0x01)\n        /* \"https://raw.githubusercontent.com/OpenZeppelin/openzeppelin-contracts/v4.9.3/contracts/token/ERC20/ERC20.sol\":7768:7783  _balances[from] */\n      dup4\n      and\n        /* \"https://raw.githubusercontent.com/OpenZeppelin/openzeppelin-contracts/v4.9.3/contracts/token/ERC20/ERC20.sol\":7746:7765  uint256 fromBalance */\n      0x00\n        /* \"https://raw.githubusercontent.com/OpenZeppelin/openzeppelin-contracts/v4.9.3/contracts/token/ERC20/ERC20.sol\":7768:7783  _balances[from] */\n      swap1\n      dup2\n      mstore\n      0x20\n      dup2\n      swap1\n      mstore\n      0x40\n      swap1\n      keccak256\n      sload\n        /* \"https://raw.githubusercontent.com/OpenZeppelin/openzeppelin-contracts/v4.9.3/contracts/token/ERC20/ERC20.sol\":7801:7822  fromBalance >= amount */\n      dup2\n      dup2\n      lt\n      iszero\n        /* \"https://raw.githubusercontent.com/OpenZeppelin/openzeppelin-contracts/v4.9.3/contracts/token/ERC20/ERC20.sol\":7793:7865  require(fromBalance >= amount, \"ERC20: transfer amount exceeds balance\") */\n      tag_391\n      jumpi\n      mload(0x40)\n      shl(0xe5, 0x461bcd)\n      dup2\n      mstore\n        /* \"#utility.yul\":13877:13879   */\n      0x20\n        /* \"https://raw.githubusercontent.com/OpenZeppelin/openzeppelin-contracts/v4.9.3/contracts/token/ERC20/ERC20.sol\":7793:7865  require(fromBalance >= amount, \"ERC20: transfer amount exceeds balance\") */\n      0x04\n      dup3\n      add\n        /* \"#utility.yul\":13859:13880   */\n      mstore\n        /* \"#utility.yul\":13916:13918   */\n      0x26\n        /* \"#utility.yul\":13896:13914   */\n      0x24\n      dup3\n      add\n        /* \"#utility.yul\":13889:13919   */\n      mstore\n        /* \"#utility.yul\":13955:13989   */\n      0x45524332303a207472616e7366657220616d6f756e7420657863656564732062\n        /* \"#utility.yul\":13935:13953   */\n      0x44\n      dup3\n      add\n        /* \"#utility.yul\":13928:13990   */\n      mstore\n      shl(0xd0, 0x616c616e6365)\n        /* \"#utility.yul\":14006:14024   */\n      0x64\n      dup3\n      add\n        /* \"#utility.yul\":13999:14035   */\n      mstore\n        /* \"#utility.yul\":14052:14071   */\n      0x84\n      add\n        /* \"https://raw.githubusercontent.com/OpenZeppelin/openzeppelin-contracts/v4.9.3/contracts/token/ERC20/ERC20.sol\":7793:7865  require(fromBalance >= amount, \"ERC20: transfer amount exceeds balance\") */\n      tag_154\n        /* \"#utility.yul\":13675:14077   */\n      jump\n        /* \"https://raw.githubusercontent.com/OpenZeppelin/openzeppelin-contracts/v4.9.3/contracts/token/ERC20/ERC20.sol\":7793:7865  require(fromBalance >= amount, \"ERC20: transfer amount exceeds balance\") */\n    tag_391:\n      sub(shl(0xa0, 0x01), 0x01)\n        /* \"https://raw.githubusercontent.com/OpenZeppelin/openzeppelin-contracts/v4.9.3/contracts/token/ERC20/ERC20.sol\":7899:7914  _balances[from] */\n      dup5\n      dup2\n      and\n        /* \"https://raw.githubusercontent.com/OpenZeppelin/openzeppelin-contracts/v4.9.3/contracts/token/ERC20/ERC20.sol\":7899:7908  _balances */\n      0x00\n        /* \"https://raw.githubusercontent.com/OpenZeppelin/openzeppelin-contracts/v4.9.3/contracts/token/ERC20/ERC20.sol\":7899:7914  _balances[from] */\n      dup2\n      dup2\n      mstore\n      0x20\n      dup2\n      dup2\n      mstore\n      0x40\n      dup1\n      dup4\n      keccak256\n        /* \"https://raw.githubusercontent.com/OpenZeppelin/openzeppelin-contracts/v4.9.3/contracts/token/ERC20/ERC20.sol\":7917:7937  fromBalance - amount */\n      dup8\n      dup8\n      sub\n        /* \"https://raw.githubusercontent.com/OpenZeppelin/openzeppelin-contracts/v4.9.3/contracts/token/ERC20/ERC20.sol\":7899:7937  _balances[from] = fromBalance - amount */\n      swap1\n      sstore\n        /* \"https://raw.githubusercontent.com/OpenZeppelin/openzeppelin-contracts/v4.9.3/contracts/token/ERC20/ERC20.sol\":8114:8127  _balances[to] */\n      swap4\n      dup8\n      and\n      dup1\n      dup4\n      mstore\n      swap2\n      dup5\n      swap1\n      keccak256\n        /* \"https://raw.githubusercontent.com/OpenZeppelin/openzeppelin-contracts/v4.9.3/contracts/token/ERC20/ERC20.sol\":8114:8137  _balances[to] += amount */\n      dup1\n      sload\n      dup8\n      add\n      swap1\n      sstore\n        /* \"https://raw.githubusercontent.com/OpenZeppelin/openzeppelin-contracts/v4.9.3/contracts/token/ERC20/ERC20.sol\":8163:8189  Transfer(from, to, amount) */\n      swap3\n      mload\n        /* \"#utility.yul\":1449:1474   */\n      dup6\n      dup2\n      mstore\n        /* \"https://raw.githubusercontent.com/OpenZeppelin/openzeppelin-contracts/v4.9.3/contracts/token/ERC20/ERC20.sol\":8114:8127  _balances[to] */\n      swap1\n      swap3\n        /* \"https://raw.githubusercontent.com/OpenZeppelin/openzeppelin-contracts/v4.9.3/contracts/token/ERC20/ERC20.sol\":8163:8189  Transfer(from, to, amount) */\n      0xddf252ad1be2c89b69c2b068fc378daa952ba7f163c4a11628f55a4df523b3ef\n      swap2\n        /* \"#utility.yul\":1422:1440   */\n      add\n        /* \"https://raw.githubusercontent.com/OpenZeppelin/openzeppelin-contracts/v4.9.3/contracts/token/ERC20/ERC20.sol\":8163:8189  Transfer(from, to, amount) */\n      mload(0x40)\n      dup1\n      swap2\n      sub\n      swap1\n      log3\n        /* \"https://raw.githubusercontent.com/OpenZeppelin/openzeppelin-contracts/v4.9.3/contracts/token/ERC20/ERC20.sol\":8200:8237  _afterTokenTransfer(from, to, amount) */\n      tag_250\n        /* \"Revolt.sol\":3809:4652  function _transfer(... */\n      jump\n        /* \"https://raw.githubusercontent.com/OpenZeppelin/openzeppelin-contracts/v4.9.3/contracts/security/Pausable.sol\":1945:2051  function _requirePaused() internal view virtual {... */\n    tag_364:\n        /* \"https://raw.githubusercontent.com/OpenZeppelin/openzeppelin-contracts/v4.9.3/contracts/security/Pausable.sol\":1685:1692  _paused */\n      sload(0x05)\n      shl(0xa0, 0x01)\n      swap1\n      div\n      0xff\n      and\n        /* \"https://raw.githubusercontent.com/OpenZeppelin/openzeppelin-contracts/v4.9.3/contracts/security/Pausable.sol\":2003:2044  require(paused(), \"Pausable: not paused\") */\n      tag_195\n      jumpi\n      mload(0x40)\n      shl(0xe5, 0x461bcd)\n      dup2\n      mstore\n        /* \"#utility.yul\":14284:14286   */\n      0x20\n        /* \"https://raw.githubusercontent.com/OpenZeppelin/openzeppelin-contracts/v4.9.3/contracts/security/Pausable.sol\":2003:2044  require(paused(), \"Pausable: not paused\") */\n      0x04\n      dup3\n      add\n        /* \"#utility.yul\":14266:14287   */\n      mstore\n        /* \"#utility.yul\":14323:14325   */\n      0x14\n        /* \"#utility.yul\":14303:14321   */\n      0x24\n      dup3\n      add\n        /* \"#utility.yul\":14296:14326   */\n      mstore\n      shl(0x62, 0x14185d5cd8589b194e881b9bdd081c185d5cd959)\n        /* \"#utility.yul\":14342:14360   */\n      0x44\n      dup3\n      add\n        /* \"#utility.yul\":14335:14385   */\n      mstore\n        /* \"#utility.yul\":14402:14420   */\n      0x64\n      add\n        /* \"https://raw.githubusercontent.com/OpenZeppelin/openzeppelin-contracts/v4.9.3/contracts/security/Pausable.sol\":2003:2044  require(paused(), \"Pausable: not paused\") */\n      tag_154\n        /* \"#utility.yul\":14082:14426   */\n      jump\n        /* \"Revolt.sol\":4916:5168  function _beforeTokenTransfer(... */\n    tag_373:\n        /* \"https://raw.githubusercontent.com/OpenZeppelin/openzeppelin-contracts/v4.9.3/contracts/security/Pausable.sol\":1685:1692  _paused */\n      sload(0x05)\n      shl(0xa0, 0x01)\n      swap1\n      div\n      0xff\n      and\n        /* \"Revolt.sol\":5108:5117  !paused() */\n      iszero\n        /* \"Revolt.sol\":5100:5161  require(!paused(), \"RevoltCoin: token transfer while paused\") */\n      tag_360\n      jumpi\n      mload(0x40)\n      shl(0xe5, 0x461bcd)\n      dup2\n      mstore\n        /* \"#utility.yul\":14633:14635   */\n      0x20\n        /* \"Revolt.sol\":5100:5161  require(!paused(), \"RevoltCoin: token transfer while paused\") */\n      0x04\n      dup3\n      add\n        /* \"#utility.yul\":14615:14636   */\n      mstore\n        /* \"#utility.yul\":14672:14674   */\n      0x27\n        /* \"#utility.yul\":14652:14670   */\n      0x24\n      dup3\n      add\n        /* \"#utility.yul\":14645:14675   */\n      mstore\n        /* \"#utility.yul\":14711:14745   */\n      0x5265766f6c74436f696e3a20746f6b656e207472616e73666572207768696c65\n        /* \"#utility.yul\":14691:14709   */\n      0x44\n      dup3\n      add\n        /* \"#utility.yul\":14684:14746   */\n      mstore\n      shl(0xca, 0x081c185d5cd959)\n        /* \"#utility.yul\":14762:14780   */\n      0x64\n      dup3\n      add\n        /* \"#utility.yul\":14755:14792   */\n      mstore\n        /* \"#utility.yul\":14809:14828   */\n      0x84\n      add\n        /* \"Revolt.sol\":5100:5161  require(!paused(), \"RevoltCoin: token transfer while paused\") */\n      tag_154\n        /* \"#utility.yul\":14431:14834   */\n      jump\n        /* \"#utility.yul\":14:432   */\n    tag_41:\n        /* \"#utility.yul\":163:165   */\n      0x20\n        /* \"#utility.yul\":152:161   */\n      dup2\n        /* \"#utility.yul\":145:166   */\n      mstore\n        /* \"#utility.yul\":126:130   */\n      0x00\n        /* \"#utility.yul\":195:201   */\n      dup3\n        /* \"#utility.yul\":189:202   */\n      mload\n        /* \"#utility.yul\":238:244   */\n      dup1\n        /* \"#utility.yul\":233:235   */\n      0x20\n        /* \"#utility.yul\":222:231   */\n      dup5\n        /* \"#utility.yul\":218:236   */\n      add\n        /* \"#utility.yul\":211:245   */\n      mstore\n        /* \"#utility.yul\":297:303   */\n      dup1\n        /* \"#utility.yul\":292:294   */\n      0x20\n        /* \"#utility.yul\":284:290   */\n      dup6\n        /* \"#utility.yul\":280:295   */\n      add\n        /* \"#utility.yul\":275:277   */\n      0x40\n        /* \"#utility.yul\":264:273   */\n      dup6\n        /* \"#utility.yul\":260:278   */\n      add\n        /* \"#utility.yul\":254:304   */\n      mcopy\n        /* \"#utility.yul\":353:354   */\n      0x00\n        /* \"#utility.yul\":348:350   */\n      0x40\n        /* \"#utility.yul\":339:345   */\n      dup3\n        /* \"#utility.yul\":328:337   */\n      dup6\n        /* \"#utility.yul\":324:346   */\n      add\n        /* \"#utility.yul\":320:351   */\n      add\n        /* \"#utility.yul\":313:355   */\n      mstore\n        /* \"#utility.yul\":423:425   */\n      0x40\n        /* \"#utility.yul\":416:418   */\n      0x1f\n        /* \"#utility.yul\":412:419   */\n      not\n        /* \"#utility.yul\":407:409   */\n      0x1f\n        /* \"#utility.yul\":399:405   */\n      dup4\n        /* \"#utility.yul\":395:410   */\n      add\n        /* \"#utility.yul\":391:420   */\n      and\n        /* \"#utility.yul\":380:389   */\n      dup5\n        /* \"#utility.yul\":376:421   */\n      add\n        /* \"#utility.yul\":372:426   */\n      add\n        /* \"#utility.yul\":364:426   */\n      swap2\n      pop\n      pop\n        /* \"#utility.yul\":14:432   */\n      swap3\n      swap2\n      pop\n      pop\n      jump\t// out\n        /* \"#utility.yul\":437:610   */\n    tag_410:\n        /* \"#utility.yul\":505:525   */\n      dup1\n      calldataload\n      sub(shl(0xa0, 0x01), 0x01)\n        /* \"#utility.yul\":554:585   */\n      dup2\n      and\n        /* \"#utility.yul\":544:586   */\n      dup2\n      eq\n        /* \"#utility.yul\":534:604   */\n      tag_416\n      jumpi\n        /* \"#utility.yul\":600:601   */\n      0x00\n        /* \"#utility.yul\":597:598   */\n      dup1\n        /* \"#utility.yul\":590:602   */\n      revert\n        /* \"#utility.yul\":534:604   */\n    tag_416:\n        /* \"#utility.yul\":437:610   */\n      swap2\n      swap1\n      pop\n      jump\t// out\n        /* \"#utility.yul\":615:915   */\n    tag_44:\n        /* \"#utility.yul\":683:689   */\n      0x00\n        /* \"#utility.yul\":691:697   */\n      dup1\n        /* \"#utility.yul\":744:746   */\n      0x40\n        /* \"#utility.yul\":732:741   */\n      dup4\n        /* \"#utility.yul\":723:730   */\n      dup6\n        /* \"#utility.yul\":719:742   */\n      sub\n        /* \"#utility.yul\":715:747   */\n      slt\n        /* \"#utility.yul\":712:764   */\n      iszero\n      tag_418\n      jumpi\n        /* \"#utility.yul\":760:761   */\n      0x00\n        /* \"#utility.yul\":757:758   */\n      dup1\n        /* \"#utility.yul\":750:762   */\n      revert\n        /* \"#utility.yul\":712:764   */\n    tag_418:\n        /* \"#utility.yul\":783:812   */\n      tag_419\n        /* \"#utility.yul\":802:811   */\n      dup4\n        /* \"#utility.yul\":783:812   */\n      tag_410\n      jump\t// in\n    tag_419:\n        /* \"#utility.yul\":773:812   */\n      swap5\n        /* \"#utility.yul\":881:883   */\n      0x20\n        /* \"#utility.yul\":866:884   */\n      swap4\n      swap1\n      swap4\n      add\n        /* \"#utility.yul\":853:885   */\n      calldataload\n      swap4\n      pop\n      pop\n      pop\n        /* \"#utility.yul\":615:915   */\n      jump\t// out\n        /* \"#utility.yul\":1112:1298   */\n    tag_50:\n        /* \"#utility.yul\":1171:1177   */\n      0x00\n        /* \"#utility.yul\":1224:1226   */\n      0x20\n        /* \"#utility.yul\":1212:1221   */\n      dup3\n        /* \"#utility.yul\":1203:1210   */\n      dup5\n        /* \"#utility.yul\":1199:1222   */\n      sub\n        /* \"#utility.yul\":1195:1227   */\n      slt\n        /* \"#utility.yul\":1192:1244   */\n      iszero\n      tag_422\n      jumpi\n        /* \"#utility.yul\":1240:1241   */\n      0x00\n        /* \"#utility.yul\":1237:1238   */\n      dup1\n        /* \"#utility.yul\":1230:1242   */\n      revert\n        /* \"#utility.yul\":1192:1244   */\n    tag_422:\n        /* \"#utility.yul\":1263:1292   */\n      tag_183\n        /* \"#utility.yul\":1282:1291   */\n      dup3\n        /* \"#utility.yul\":1263:1292   */\n      tag_410\n      jump\t// in\n        /* \"#utility.yul\":1485:1711   */\n    tag_58:\n        /* \"#utility.yul\":1544:1550   */\n      0x00\n        /* \"#utility.yul\":1597:1599   */\n      0x20\n        /* \"#utility.yul\":1585:1594   */\n      dup3\n        /* \"#utility.yul\":1576:1583   */\n      dup5\n        /* \"#utility.yul\":1572:1595   */\n      sub\n        /* \"#utility.yul\":1568:1600   */\n      slt\n        /* \"#utility.yul\":1565:1617   */\n      iszero\n      tag_426\n      jumpi\n        /* \"#utility.yul\":1613:1614   */\n      0x00\n        /* \"#utility.yul\":1610:1611   */\n      dup1\n        /* \"#utility.yul\":1603:1615   */\n      revert\n        /* \"#utility.yul\":1565:1617   */\n    tag_426:\n      pop\n        /* \"#utility.yul\":1658:1681   */\n      calldataload\n      swap2\n        /* \"#utility.yul\":1485:1711   */\n      swap1\n      pop\n      jump\t// out\n        /* \"#utility.yul\":1716:2090   */\n    tag_62:\n        /* \"#utility.yul\":1793:1799   */\n      0x00\n        /* \"#utility.yul\":1801:1807   */\n      dup1\n        /* \"#utility.yul\":1809:1815   */\n      0x00\n        /* \"#utility.yul\":1862:1864   */\n      0x60\n        /* \"#utility.yul\":1850:1859   */\n      dup5\n        /* \"#utility.yul\":1841:1848   */\n      dup7\n        /* \"#utility.yul\":1837:1860   */\n      sub\n        /* \"#utility.yul\":1833:1865   */\n      slt\n        /* \"#utility.yul\":1830:1882   */\n      iszero\n      tag_428\n      jumpi\n        /* \"#utility.yul\":1878:1879   */\n      0x00\n        /* \"#utility.yul\":1875:1876   */\n      dup1\n        /* \"#utility.yul\":1868:1880   */\n      revert\n        /* \"#utility.yul\":1830:1882   */\n    tag_428:\n        /* \"#utility.yul\":1901:1930   */\n      tag_429\n        /* \"#utility.yul\":1920:1929   */\n      dup5\n        /* \"#utility.yul\":1901:1930   */\n      tag_410\n      jump\t// in\n    tag_429:\n        /* \"#utility.yul\":1891:1930   */\n      swap3\n      pop\n        /* \"#utility.yul\":1949:1987   */\n      tag_430\n        /* \"#utility.yul\":1983:1985   */\n      0x20\n        /* \"#utility.yul\":1972:1981   */\n      dup6\n        /* \"#utility.yul\":1968:1986   */\n      add\n        /* \"#utility.yul\":1949:1987   */\n      tag_410\n      jump\t// in\n    tag_430:\n        /* \"#utility.yul\":1716:2090   */\n      swap3\n      swap6\n        /* \"#utility.yul\":1939:1987   */\n      swap3\n      swap5\n      pop\n      pop\n      pop\n        /* \"#utility.yul\":2056:2058   */\n      0x40\n        /* \"#utility.yul\":2041:2059   */\n      swap2\n      swap1\n      swap2\n      add\n        /* \"#utility.yul\":2028:2060   */\n      calldataload\n      swap1\n        /* \"#utility.yul\":1716:2090   */\n      jump\t// out\n        /* \"#utility.yul\":2492:2859   */\n    tag_411:\n        /* \"#utility.yul\":2555:2563   */\n      0x00\n        /* \"#utility.yul\":2565:2571   */\n      dup1\n        /* \"#utility.yul\":2619:2622   */\n      dup4\n        /* \"#utility.yul\":2612:2616   */\n      0x1f\n        /* \"#utility.yul\":2604:2610   */\n      dup5\n        /* \"#utility.yul\":2600:2617   */\n      add\n        /* \"#utility.yul\":2596:2623   */\n      slt\n        /* \"#utility.yul\":2586:2641   */\n      tag_434\n      jumpi\n        /* \"#utility.yul\":2637:2638   */\n      0x00\n        /* \"#utility.yul\":2634:2635   */\n      dup1\n        /* \"#utility.yul\":2627:2639   */\n      revert\n        /* \"#utility.yul\":2586:2641   */\n    tag_434:\n      pop\n        /* \"#utility.yul\":2660:2680   */\n      dup2\n      calldataload\n        /* \"#utility.yul\":2703:2721   */\n      0xffffffffffffffff\n        /* \"#utility.yul\":2692:2722   */\n      dup2\n      gt\n        /* \"#utility.yul\":2689:2739   */\n      iszero\n      tag_435\n      jumpi\n        /* \"#utility.yul\":2735:2736   */\n      0x00\n        /* \"#utility.yul\":2732:2733   */\n      dup1\n        /* \"#utility.yul\":2725:2737   */\n      revert\n        /* \"#utility.yul\":2689:2739   */\n    tag_435:\n        /* \"#utility.yul\":2772:2776   */\n      0x20\n        /* \"#utility.yul\":2764:2770   */\n      dup4\n        /* \"#utility.yul\":2760:2777   */\n      add\n        /* \"#utility.yul\":2748:2777   */\n      swap2\n      pop\n        /* \"#utility.yul\":2832:2835   */\n      dup4\n        /* \"#utility.yul\":2825:2829   */\n      0x20\n        /* \"#utility.yul\":2815:2821   */\n      dup3\n        /* \"#utility.yul\":2812:2813   */\n      0x05\n        /* \"#utility.yul\":2808:2822   */\n      shl\n        /* \"#utility.yul\":2800:2806   */\n      dup6\n        /* \"#utility.yul\":2796:2823   */\n      add\n        /* \"#utility.yul\":2792:2830   */\n      add\n        /* \"#utility.yul\":2789:2836   */\n      gt\n        /* \"#utility.yul\":2786:2853   */\n      iszero\n      tag_436\n      jumpi\n        /* \"#utility.yul\":2849:2850   */\n      0x00\n        /* \"#utility.yul\":2846:2847   */\n      dup1\n        /* \"#utility.yul\":2839:2851   */\n      revert\n        /* \"#utility.yul\":2786:2853   */\n    tag_436:\n        /* \"#utility.yul\":2492:2859   */\n      swap3\n      pop\n      swap3\n      swap1\n      pop\n      jump\t// out\n        /* \"#utility.yul\":2864:3632   */\n    tag_93:\n        /* \"#utility.yul\":2986:2992   */\n      0x00\n        /* \"#utility.yul\":2994:3000   */\n      dup1\n        /* \"#utility.yul\":3002:3008   */\n      0x00\n        /* \"#utility.yul\":3010:3016   */\n      dup1\n        /* \"#utility.yul\":3063:3065   */\n      0x40\n        /* \"#utility.yul\":3051:3060   */\n      dup6\n        /* \"#utility.yul\":3042:3049   */\n      dup8\n        /* \"#utility.yul\":3038:3061   */\n      sub\n        /* \"#utility.yul\":3034:3066   */\n      slt\n        /* \"#utility.yul\":3031:3083   */\n      iszero\n      tag_438\n      jumpi\n        /* \"#utility.yul\":3079:3080   */\n      0x00\n        /* \"#utility.yul\":3076:3077   */\n      dup1\n        /* \"#utility.yul\":3069:3081   */\n      revert\n        /* \"#utility.yul\":3031:3083   */\n    tag_438:\n        /* \"#utility.yul\":3119:3128   */\n      dup5\n        /* \"#utility.yul\":3106:3129   */\n      calldataload\n        /* \"#utility.yul\":3152:3170   */\n      0xffffffffffffffff\n        /* \"#utility.yul\":3144:3150   */\n      dup2\n        /* \"#utility.yul\":3141:3171   */\n      gt\n        /* \"#utility.yul\":3138:3188   */\n      iszero\n      tag_439\n      jumpi\n        /* \"#utility.yul\":3184:3185   */\n      0x00\n        /* \"#utility.yul\":3181:3182   */\n      dup1\n        /* \"#utility.yul\":3174:3186   */\n      revert\n        /* \"#utility.yul\":3138:3188   */\n    tag_439:\n        /* \"#utility.yul\":3223:3293   */\n      tag_440\n        /* \"#utility.yul\":3285:3292   */\n      dup8\n        /* \"#utility.yul\":3276:3282   */\n      dup3\n        /* \"#utility.yul\":3265:3274   */\n      dup9\n        /* \"#utility.yul\":3261:3283   */\n      add\n        /* \"#utility.yul\":3223:3293   */\n      tag_411\n      jump\t// in\n    tag_440:\n        /* \"#utility.yul\":3312:3320   */\n      swap1\n      swap6\n      pop\n        /* \"#utility.yul\":3197:3293   */\n      swap4\n      pop\n      pop\n        /* \"#utility.yul\":3400:3402   */\n      0x20\n        /* \"#utility.yul\":3385:3403   */\n      dup6\n      add\n        /* \"#utility.yul\":3372:3404   */\n      calldataload\n        /* \"#utility.yul\":3429:3447   */\n      0xffffffffffffffff\n        /* \"#utility.yul\":3416:3448   */\n      dup2\n      gt\n        /* \"#utility.yul\":3413:3465   */\n      iszero\n      tag_441\n      jumpi\n        /* \"#utility.yul\":3461:3462   */\n      0x00\n        /* \"#utility.yul\":3458:3459   */\n      dup1\n        /* \"#utility.yul\":3451:3463   */\n      revert\n        /* \"#utility.yul\":3413:3465   */\n    tag_441:\n        /* \"#utility.yul\":3500:3572   */\n      tag_442\n        /* \"#utility.yul\":3564:3571   */\n      dup8\n        /* \"#utility.yul\":3553:3561   */\n      dup3\n        /* \"#utility.yul\":3542:3551   */\n      dup9\n        /* \"#utility.yul\":3538:3562   */\n      add\n        /* \"#utility.yul\":3500:3572   */\n      tag_411\n      jump\t// in\n    tag_442:\n        /* \"#utility.yul\":2864:3632   */\n      swap6\n      swap9\n      swap5\n      swap8\n      pop\n        /* \"#utility.yul\":3591:3599   */\n      swap6\n      pop\n      pop\n      pop\n      pop\n        /* \"#utility.yul\":2864:3632   */\n      jump\t// out\n        /* \"#utility.yul\":3637:3897   */\n    tag_125:\n        /* \"#utility.yul\":3705:3711   */\n      0x00\n        /* \"#utility.yul\":3713:3719   */\n      dup1\n        /* \"#utility.yul\":3766:3768   */\n      0x40\n        /* \"#utility.yul\":3754:3763   */\n      dup4\n        /* \"#utility.yul\":3745:3752   */\n      dup6\n        /* \"#utility.yul\":3741:3764   */\n      sub\n        /* \"#utility.yul\":3737:3769   */\n      slt\n        /* \"#utility.yul\":3734:3786   */\n      iszero\n      tag_444\n      jumpi\n        /* \"#utility.yul\":3782:3783   */\n      0x00\n        /* \"#utility.yul\":3779:3780   */\n      dup1\n        /* \"#utility.yul\":3772:3784   */\n      revert\n        /* \"#utility.yul\":3734:3786   */\n    tag_444:\n        /* \"#utility.yul\":3805:3834   */\n      tag_445\n        /* \"#utility.yul\":3824:3833   */\n      dup4\n        /* \"#utility.yul\":3805:3834   */\n      tag_410\n      jump\t// in\n    tag_445:\n        /* \"#utility.yul\":3795:3834   */\n      swap2\n      pop\n        /* \"#utility.yul\":3853:3891   */\n      tag_446\n        /* \"#utility.yul\":3887:3889   */\n      0x20\n        /* \"#utility.yul\":3876:3885   */\n      dup5\n        /* \"#utility.yul\":3872:3890   */\n      add\n        /* \"#utility.yul\":3853:3891   */\n      tag_410\n      jump\t// in\n    tag_446:\n        /* \"#utility.yul\":3843:3891   */\n      swap1\n      pop\n        /* \"#utility.yul\":3637:3897   */\n      swap3\n      pop\n      swap3\n      swap1\n      pop\n      jump\t// out\n        /* \"#utility.yul\":3902:4282   */\n    tag_139:\n        /* \"#utility.yul\":3981:3982   */\n      0x01\n        /* \"#utility.yul\":3977:3989   */\n      dup2\n      dup2\n      shr\n      swap1\n        /* \"#utility.yul\":4024:4036   */\n      dup3\n      and\n      dup1\n        /* \"#utility.yul\":4045:4106   */\n      tag_448\n      jumpi\n        /* \"#utility.yul\":4099:4103   */\n      0x7f\n        /* \"#utility.yul\":4091:4097   */\n      dup3\n        /* \"#utility.yul\":4087:4104   */\n      and\n        /* \"#utility.yul\":4077:4104   */\n      swap2\n      pop\n        /* \"#utility.yul\":4045:4106   */\n    tag_448:\n        /* \"#utility.yul\":4152:4154   */\n      0x20\n        /* \"#utility.yul\":4144:4150   */\n      dup3\n        /* \"#utility.yul\":4141:4155   */\n      lt\n        /* \"#utility.yul\":4121:4139   */\n      dup2\n        /* \"#utility.yul\":4118:4156   */\n      sub\n        /* \"#utility.yul\":4115:4276   */\n      tag_449\n      jumpi\n        /* \"#utility.yul\":4198:4208   */\n      0x4e487b71\n        /* \"#utility.yul\":4193:4196   */\n      0xe0\n        /* \"#utility.yul\":4189:4209   */\n      shl\n        /* \"#utility.yul\":4186:4187   */\n      0x00\n        /* \"#utility.yul\":4179:4210   */\n      mstore\n        /* \"#utility.yul\":4233:4237   */\n      0x22\n        /* \"#utility.yul\":4230:4231   */\n      0x04\n        /* \"#utility.yul\":4223:4238   */\n      mstore\n        /* \"#utility.yul\":4261:4265   */\n      0x24\n        /* \"#utility.yul\":4258:4259   */\n      0x00\n        /* \"#utility.yul\":4251:4266   */\n      revert\n        /* \"#utility.yul\":4115:4276   */\n    tag_449:\n      pop\n        /* \"#utility.yul\":3902:4282   */\n      swap2\n      swap1\n      pop\n      jump\t// out\n        /* \"#utility.yul\":5596:5723   */\n    tag_412:\n        /* \"#utility.yul\":5657:5667   */\n      0x4e487b71\n        /* \"#utility.yul\":5652:5655   */\n      0xe0\n        /* \"#utility.yul\":5648:5668   */\n      shl\n        /* \"#utility.yul\":5645:5646   */\n      0x00\n        /* \"#utility.yul\":5638:5669   */\n      mstore\n        /* \"#utility.yul\":5688:5692   */\n      0x11\n        /* \"#utility.yul\":5685:5686   */\n      0x04\n        /* \"#utility.yul\":5678:5693   */\n      mstore\n        /* \"#utility.yul\":5712:5716   */\n      0x24\n        /* \"#utility.yul\":5709:5710   */\n      0x00\n        /* \"#utility.yul\":5702:5717   */\n      revert\n        /* \"#utility.yul\":5728:5853   */\n    tag_191:\n        /* \"#utility.yul\":5793:5802   */\n      dup1\n      dup3\n      add\n        /* \"#utility.yul\":5814:5824   */\n      dup1\n      dup3\n      gt\n        /* \"#utility.yul\":5811:5847   */\n      iszero\n      tag_144\n      jumpi\n        /* \"#utility.yul\":5827:5845   */\n      tag_144\n      tag_412\n      jump\t// in\n        /* \"#utility.yul\":7015:7142   */\n    tag_228:\n        /* \"#utility.yul\":7076:7086   */\n      0x4e487b71\n        /* \"#utility.yul\":7071:7074   */\n      0xe0\n        /* \"#utility.yul\":7067:7087   */\n      shl\n        /* \"#utility.yul\":7064:7065   */\n      0x00\n        /* \"#utility.yul\":7057:7088   */\n      mstore\n        /* \"#utility.yul\":7107:7111   */\n      0x32\n        /* \"#utility.yul\":7104:7105   */\n      0x04\n        /* \"#utility.yul\":7097:7112   */\n      mstore\n        /* \"#utility.yul\":7131:7135   */\n      0x24\n        /* \"#utility.yul\":7128:7129   */\n      0x00\n        /* \"#utility.yul\":7121:7136   */\n      revert\n        /* \"#utility.yul\":11977:12145   */\n    tag_351:\n        /* \"#utility.yul\":12050:12059   */\n      dup1\n      dup3\n      mul\n        /* \"#utility.yul\":12081:12090   */\n      dup2\n      iszero\n        /* \"#utility.yul\":12098:12113   */\n      dup3\n      dup3\n      div\n        /* \"#utility.yul\":12092:12114   */\n      dup5\n      eq\n        /* \"#utility.yul\":12078:12115   */\n      or\n        /* \"#utility.yul\":12068:12139   */\n      tag_144\n      jumpi\n        /* \"#utility.yul\":12119:12137   */\n      tag_144\n      tag_412\n      jump\t// in\n        /* \"#utility.yul\":12150:12367   */\n    tag_353:\n        /* \"#utility.yul\":12190:12191   */\n      0x00\n        /* \"#utility.yul\":12216:12217   */\n      dup3\n        /* \"#utility.yul\":12206:12338   */\n      tag_479\n      jumpi\n        /* \"#utility.yul\":12260:12270   */\n      0x4e487b71\n        /* \"#utility.yul\":12255:12258   */\n      0xe0\n        /* \"#utility.yul\":12251:12271   */\n      shl\n        /* \"#utility.yul\":12248:12249   */\n      0x00\n        /* \"#utility.yul\":12241:12272   */\n      mstore\n        /* \"#utility.yul\":12295:12299   */\n      0x12\n        /* \"#utility.yul\":12292:12293   */\n      0x04\n        /* \"#utility.yul\":12285:12300   */\n      mstore\n        /* \"#utility.yul\":12323:12327   */\n      0x24\n        /* \"#utility.yul\":12320:12321   */\n      0x00\n        /* \"#utility.yul\":12313:12328   */\n      revert\n        /* \"#utility.yul\":12206:12338   */\n    tag_479:\n      pop\n        /* \"#utility.yul\":12352:12361   */\n      div\n      swap1\n        /* \"#utility.yul\":12150:12367   */\n      jump\t// out\n        /* \"#utility.yul\":12372:12500   */\n    tag_355:\n        /* \"#utility.yul\":12439:12448   */\n      dup2\n      dup2\n      sub\n        /* \"#utility.yul\":12460:12471   */\n      dup2\n      dup2\n      gt\n        /* \"#utility.yul\":12457:12494   */\n      iszero\n      tag_144\n      jumpi\n        /* \"#utility.yul\":12474:12492   */\n      tag_144\n      tag_412\n      jump\t// in\n\n    auxdata: 0xa26469706673582212206177a80f47e19f1f67f937535d0fa502028a4161efa47f80aeac788d78c4264764736f6c634300081a0033\n}\n",
				"bytecode": {
					"linkReferences": {},
					"object": "60a06040526002600755348015610014575f80fd5b506040518060400160405280600a8152602001692932bb37b63a21b7b4b760b11b8152506040518060400160405280600681526020016514995d9bdb1d60d21b81525081600390816100669190610375565b5060046100738282610375565b50505061008c61008761014760201b60201c565b61014b565b6005805460ff60a01b1916905560016006819055336080819052600880546001600160a01b031916909117905560095f6100ce6005546001600160a01b031690565b6001600160a01b03908116825260208083019390935260409182015f908120805495151560ff19968716179055600854909116815260099092528120805490921660011790915561011d601290565b61012890600a610528565b61013590620f424061053d565b9050610141338261019c565b50610567565b3390565b600580546001600160a01b038381166001600160a01b0319831681179093556040519116919082907f8be0079c531659141344cd1fd0a4f28419497f9722a3daafe3b4186f6b6457e0905f90a35050565b6001600160a01b0382166101f75760405162461bcd60e51b815260206004820152601f60248201527f45524332303a206d696e7420746f20746865207a65726f20616464726573730060448201526064015b60405180910390fd5b6102025f8383610269565b8060025f8282546102139190610554565b90915550506001600160a01b0382165f81815260208181526040808320805486019055518481527fddf252ad1be2c89b69c2b068fc378daa952ba7f163c4a11628f55a4df523b3ef910160405180910390a35050565b61027c600554600160a01b900460ff1690565b156102d95760405162461bcd60e51b815260206004820152602760248201527f5265766f6c74436f696e3a20746f6b656e207472616e73666572207768696c65604482015266081c185d5cd95960ca1b60648201526084016101ee565b505050565b634e487b7160e01b5f52604160045260245ffd5b600181811c9082168061030657607f821691505b60208210810361032457634e487b7160e01b5f52602260045260245ffd5b50919050565b601f8211156102d957805f5260205f20601f840160051c8101602085101561034f5750805b601f840160051c820191505b8181101561036e575f815560010161035b565b5050505050565b81516001600160401b0381111561038e5761038e6102de565b6103a28161039c84546102f2565b8461032a565b6020601f8211600181146103d4575f83156103bd5750848201515b5f19600385901b1c1916600184901b17845561036e565b5f84815260208120601f198516915b8281101561040357878501518255602094850194600190920191016103e3565b508482101561042057868401515f19600387901b60f8161c191681555b50505050600190811b01905550565b634e487b7160e01b5f52601160045260245ffd5b6001815b600184111561047e578085048111156104625761046261042f565b600184161561047057908102905b60019390931c928002610447565b935093915050565b5f8261049457506001610522565b816104a057505f610522565b81600181146104b657600281146104c0576104dc565b6001915050610522565b60ff8411156104d1576104d161042f565b50506001821b610522565b5060208310610133831016604e8410600b84101617156104ff575081810a610522565b61050b5f198484610443565b805f190482111561051e5761051e61042f565b0290505b92915050565b5f61053660ff841683610486565b9392505050565b80820281158282048414176105225761052261042f565b808201808211156105225761052261042f565b6080516117e96105865f395f818161038401526107a301526117e95ff3fe608060405234801561000f575f80fd5b50600436106101bb575f3560e01c806367243482116100f3578063a457c2d711610093578063dd62ed3e1161006e578063dd62ed3e146103a6578063e74b981b146103b9578063ea2f0b37146103cc578063f2fde38b146103df575f80fd5b8063a457c2d714610359578063a9059cbb1461036c578063d5f394881461037f575f80fd5b80638456cb59116100ce5780638456cb591461032f5780638da5cb5b1461033757806394544e641461034857806395d89b4114610351575f80fd5b806367243482146102ec57806370a08231146102ff578063715018a614610327575f80fd5b806332cb6b0c1161015e57806340c10f191161013957806340c10f1914610289578063437823ec1461029c57806346904840146102af5780635c975abb146102da575f80fd5b806332cb6b0c1461025c578063395093511461026e5780633f4ba83a14610281575f80fd5b806318160ddd1161019957806318160ddd146102155780631f36d9251461022757806323b872dd1461023a578063313ce5671461024d575f80fd5b806306fdde03146101bf578063095ea7b3146101dd5780631815c20814610200575b5f80fd5b6101c76103f2565b6040516101d49190611530565b60405180910390f35b6101f06101eb366004611580565b610482565b60405190151581526020016101d4565b61021361020e3660046115a8565b61049b565b005b6002545b6040519081526020016101d4565b6102136102353660046115c1565b61055b565b6101f06102483660046115d8565b6105e9565b604051601281526020016101d4565b6102196a084595161401484a00000081565b6101f061027c366004611580565b61067a565b61021361069b565b610213610297366004611580565b6106ad565b6102136102aa3660046115a8565b610726565b6008546102c2906001600160a01b031681565b6040516001600160a01b0390911681526020016101d4565b600554600160a01b900460ff166101f0565b6102136102fa36600461165a565b610788565b61021961030d3660046115a8565b6001600160a01b03165f9081526020819052604090205490565b610213610a0e565b610213610a1f565b6005546001600160a01b03166102c2565b61021960075481565b6101c7610a2f565b6101f0610367366004611580565b610a3e565b6101f061037a366004611580565b610ac3565b6102c27f000000000000000000000000000000000000000000000000000000000000000081565b6102196103b43660046116c6565b610aec565b6102136103c73660046115a8565b610b16565b6102136103da3660046115a8565b610c34565b6102136103ed3660046115a8565b610c8c565b606060038054610401906116f7565b80601f016020809104026020016040519081016040528092919081815260200182805461042d906116f7565b80156104785780601f1061044f57610100808354040283529160200191610478565b820191905f5260205f20905b81548152906001019060200180831161045b57829003601f168201915b5050505050905090565b5f3361048f818585610d02565b60019150505b92915050565b6104a3610e25565b6001600160a01b0381166104fe5760405162461bcd60e51b815260206004820152601d60248201527f5265766f6c74436f696e3a20696e76616c6964206e6577206f776e657200000060448201526064015b60405180910390fd5b806001600160a01b031661051a6005546001600160a01b031690565b6001600160a01b03167f8292fce18fa69edf4db7b94ea2e58241df0ae57f97e0a6c9b29067028bf92d7660405160405180910390a361055881610e7f565b50565b610563610e25565b600a8111156105a35760405162461bcd60e51b815260206004820152600c60248201526b08ccaca40e8dede40d0d2ced60a31b60448201526064016104f5565b600780549082905560408051828152602081018490527fd141d90e37cff90c4910d122c1b6bc4951144bbf7ad06233ce2a2954e5c25e3b91015b60405180910390a15050565b5f6105f2610ed0565b6105fa610f29565b6001600160a01b0383166106505760405162461bcd60e51b815260206004820152601c60248201527f5265766f6c74436f696e3a207472616e7366657220746f207a65726f0000000060448201526064016104f5565b61065b843384610f76565b610666848484610fe8565b5060016106736001600655565b9392505050565b5f3361048f81858561068c8383610aec565b6106969190611743565b610d02565b6106a3610e25565b6106ab611169565b565b6106b5610e25565b6a084595161401484a000000816106cb60025490565b6106d59190611743565b11156107185760405162461bcd60e51b815260206004820152601260248201527145786365656473206d617820737570706c7960701b60448201526064016104f5565b61072282826111be565b5050565b61072e610e25565b6001600160a01b0381165f81815260096020908152604091829020805460ff1916600117905590519182527f58c3e0504c69d3a92726966f152a771e0f8f6ad4daca1ae9055a38aba1fd2b6291015b60405180910390a150565b610790610ed0565b610798610f29565b336001600160a01b037f0000000000000000000000000000000000000000000000000000000000000000161461081e5760405162461bcd60e51b815260206004820152602560248201527f5265766f6c74436f696e3a206f6e6c79206465706c6f7965722063616e20616960448201526407264726f760dc1b60648201526084016104f5565b8281146108795760405162461bcd60e51b815260206004820152602360248201527f5265766f6c74436f696e3a2061697264726f7020617272617973206d69736d616044820152620e8c6d60eb1b60648201526084016104f5565b5f805b828110156108b25783838281811061089657610896611756565b90506020020135826108a89190611743565b915060010161087c565b506a084595161401484a000000816108c960025490565b6108d39190611743565b11156109215760405162461bcd60e51b815260206004820152601e60248201527f5265766f6c74436f696e3a2065786365656473206d617820737570706c79000060448201526064016104f5565b5f5b848110156109fc5761097386868381811061094057610940611756565b905060200201602081019061095591906115a8565b85858481811061096757610967611756565b905060200201356111be565b85858281811061098557610985611756565b905060200201602081019061099a91906115a8565b6001600160a01b03167f8c32c568416fcf97be35ce5b27844cfddcd63a67a1a602c3595ba5dac38f303a8585848181106109d6576109d6611756565b905060200201356040516109ec91815260200190565b60405180910390a2600101610923565b5050610a086001600655565b50505050565b610a16610e25565b6106ab5f610e7f565b610a27610e25565b6106ab611286565b606060048054610401906116f7565b5f3381610a4b8286610aec565b905083811015610aab5760405162461bcd60e51b815260206004820152602560248201527f45524332303a2064656372656173656420616c6c6f77616e63652062656c6f77604482015264207a65726f60d81b60648201526084016104f5565b610ab88286868403610d02565b506001949350505050565b5f610acc610ed0565b610ad4610f29565b610adf338484610fe8565b5060016104956001600655565b6001600160a01b039182165f90815260016020908152604080832093909416825291909152205490565b610b1e610e25565b6001600160a01b038116610b745760405162461bcd60e51b815260206004820152601b60248201527f5265766f6c74436f696e3a20696e76616c69642061646472657373000000000060448201526064016104f5565b6001600160a01b0381163b15610bda5760405162461bcd60e51b815260206004820152602560248201527f5265766f6c74436f696e3a2066656520726563697069656e74206d75737420626044820152646520454f4160d81b60648201526084016104f5565b600880546001600160a01b038381166001600160a01b031983168117909355604080519190921680825260208201939093527faaebcf1bfa00580e41d966056b48521fa9f202645c86d4ddf28113e617c1b1d391016105dd565b610c3c610e25565b6001600160a01b0381165f81815260096020908152604091829020805460ff1916905590519182527f4f6a6b6efe34ec6478021aa9fb7f6980e78ea3a10c74074a8ce49d5d3ebf1f7e910161077d565b610c94610e25565b6001600160a01b038116610cf95760405162461bcd60e51b815260206004820152602660248201527f4f776e61626c653a206e6577206f776e657220697320746865207a65726f206160448201526564647265737360d01b60648201526084016104f5565b61055881610e7f565b6001600160a01b038316610d645760405162461bcd60e51b8152602060048201526024808201527f45524332303a20617070726f76652066726f6d20746865207a65726f206164646044820152637265737360e01b60648201526084016104f5565b6001600160a01b038216610dc55760405162461bcd60e51b815260206004820152602260248201527f45524332303a20617070726f766520746f20746865207a65726f206164647265604482015261737360f01b60648201526084016104f5565b6001600160a01b038381165f8181526001602090815260408083209487168084529482529182902085905590518481527f8c5be1e5ebec7d5bd14f71427d1e84f3dd0314c0f7b2291e5b200ac8c7c3b925910160405180910390a3505050565b6005546001600160a01b031633146106ab5760405162461bcd60e51b815260206004820181905260248201527f4f776e61626c653a2063616c6c6572206973206e6f7420746865206f776e657260448201526064016104f5565b600580546001600160a01b038381166001600160a01b0319831681179093556040519116919082907f8be0079c531659141344cd1fd0a4f28419497f9722a3daafe3b4186f6b6457e0905f90a35050565b600260065403610f225760405162461bcd60e51b815260206004820152601f60248201527f5265656e7472616e637947756172643a207265656e7472616e742063616c6c0060448201526064016104f5565b6002600655565b600554600160a01b900460ff16156106ab5760405162461bcd60e51b815260206004820152601060248201526f14185d5cd8589b194e881c185d5cd95960821b60448201526064016104f5565b5f610f818484610aec565b90505f198114610a085781811015610fdb5760405162461bcd60e51b815260206004820152601d60248201527f45524332303a20696e73756666696369656e7420616c6c6f77616e636500000060448201526064016104f5565b610a088484848403610d02565b610ff0610f29565b6001600160a01b0383166110465760405162461bcd60e51b815260206004820152601e60248201527f5265766f6c74436f696e3a207472616e736665722066726f6d207a65726f000060448201526064016104f5565b6001600160a01b03821661109c5760405162461bcd60e51b815260206004820152601c60248201527f5265766f6c74436f696e3a207472616e7366657220746f207a65726f0000000060448201526064016104f5565b5f6007541180156110b757506008546001600160a01b031615155b80156110db57506001600160a01b0383165f9081526009602052604090205460ff16155b80156110ff57506001600160a01b0382165f9081526009602052604090205460ff16155b15611159575f606460075483611115919061176a565b61111f9190611781565b90505f61112c82846117a0565b6008549091506111479086906001600160a01b0316846112c9565b6111528585836112c9565b5050505050565b6111648383836112c9565b505050565b611171611476565b6005805460ff60a01b191690557f5db9ee0a495bf2e6ff9c91a7834c1ba4fdd244a5e8aa4e537bd38aeae4b073aa335b6040516001600160a01b03909116815260200160405180910390a1565b6001600160a01b0382166112145760405162461bcd60e51b815260206004820152601f60248201527f45524332303a206d696e7420746f20746865207a65726f20616464726573730060448201526064016104f5565b61121f5f83836114c6565b8060025f8282546112309190611743565b90915550506001600160a01b0382165f81815260208181526040808320805486019055518481527fddf252ad1be2c89b69c2b068fc378daa952ba7f163c4a11628f55a4df523b3ef910160405180910390a35050565b61128e610f29565b6005805460ff60a01b1916600160a01b1790557f62e78cea01bee320cd4e420270b5ea74000d11b0c9f74754ebdbfc544b05a2586111a13390565b6001600160a01b03831661132d5760405162461bcd60e51b815260206004820152602560248201527f45524332303a207472616e736665722066726f6d20746865207a65726f206164604482015264647265737360d81b60648201526084016104f5565b6001600160a01b03821661138f5760405162461bcd60e51b815260206004820152602360248201527f45524332303a207472616e7366657220746f20746865207a65726f206164647260448201526265737360e81b60648201526084016104f5565b61139a8383836114c6565b6001600160a01b0383165f90815260208190526040902054818110156114115760405162461bcd60e51b815260206004820152602660248201527f45524332303a207472616e7366657220616d6f756e7420657863656564732062604482015265616c616e636560d01b60648201526084016104f5565b6001600160a01b038481165f81815260208181526040808320878703905593871680835291849020805487019055925185815290927fddf252ad1be2c89b69c2b068fc378daa952ba7f163c4a11628f55a4df523b3ef910160405180910390a3610a08565b600554600160a01b900460ff166106ab5760405162461bcd60e51b815260206004820152601460248201527314185d5cd8589b194e881b9bdd081c185d5cd95960621b60448201526064016104f5565b600554600160a01b900460ff16156111645760405162461bcd60e51b815260206004820152602760248201527f5265766f6c74436f696e3a20746f6b656e207472616e73666572207768696c65604482015266081c185d5cd95960ca1b60648201526084016104f5565b602081525f82518060208401528060208501604085015e5f604082850101526040601f19601f83011684010191505092915050565b80356001600160a01b038116811461157b575f80fd5b919050565b5f8060408385031215611591575f80fd5b61159a83611565565b946020939093013593505050565b5f602082840312156115b8575f80fd5b61067382611565565b5f602082840312156115d1575f80fd5b5035919050565b5f805f606084860312156115ea575f80fd5b6115f384611565565b925061160160208501611565565b929592945050506040919091013590565b5f8083601f840112611622575f80fd5b50813567ffffffffffffffff811115611639575f80fd5b6020830191508360208260051b8501011115611653575f80fd5b9250929050565b5f805f806040858703121561166d575f80fd5b843567ffffffffffffffff811115611683575f80fd5b61168f87828801611612565b909550935050602085013567ffffffffffffffff8111156116ae575f80fd5b6116ba87828801611612565b95989497509550505050565b5f80604083850312156116d7575f80fd5b6116e083611565565b91506116ee60208401611565565b90509250929050565b600181811c9082168061170b57607f821691505b60208210810361172957634e487b7160e01b5f52602260045260245ffd5b50919050565b634e487b7160e01b5f52601160045260245ffd5b808201808211156104955761049561172f565b634e487b7160e01b5f52603260045260245ffd5b80820281158282048414176104955761049561172f565b5f8261179b57634e487b7160e01b5f52601260045260245ffd5b500490565b818103818111156104955761049561172f56fea26469706673582212206177a80f47e19f1f67f937535d0fa502028a4161efa47f80aeac788d78c4264764736f6c634300081a0033",
					"opcodes": "PUSH1 0xA0 PUSH1 0x40 MSTORE PUSH1 0x2 PUSH1 0x7 SSTORE CALLVALUE DUP1 ISZERO PUSH2 0x14 JUMPI PUSH0 DUP1 REVERT JUMPDEST POP PUSH1 0x40 MLOAD DUP1 PUSH1 0x40 ADD PUSH1 0x40 MSTORE DUP1 PUSH1 0xA DUP2 MSTORE PUSH1 0x20 ADD PUSH10 0x2932BB37B63A21B7B4B7 PUSH1 0xB1 SHL DUP2 MSTORE POP PUSH1 0x40 MLOAD DUP1 PUSH1 0x40 ADD PUSH1 0x40 MSTORE DUP1 PUSH1 0x6 DUP2 MSTORE PUSH1 0x20 ADD PUSH6 0x14995D9BDB1D PUSH1 0xD2 SHL DUP2 MSTORE POP DUP2 PUSH1 0x3 SWAP1 DUP2 PUSH2 0x66 SWAP2 SWAP1 PUSH2 0x375 JUMP JUMPDEST POP PUSH1 0x4 PUSH2 0x73 DUP3 DUP3 PUSH2 0x375 JUMP JUMPDEST POP POP POP PUSH2 0x8C PUSH2 0x87 PUSH2 0x147 PUSH1 0x20 SHL PUSH1 0x20 SHR JUMP JUMPDEST PUSH2 0x14B JUMP JUMPDEST PUSH1 0x5 DUP1 SLOAD PUSH1 0xFF PUSH1 0xA0 SHL NOT AND SWAP1 SSTORE PUSH1 0x1 PUSH1 0x6 DUP2 SWAP1 SSTORE CALLER PUSH1 0x80 DUP2 SWAP1 MSTORE PUSH1 0x8 DUP1 SLOAD PUSH1 0x1 PUSH1 0x1 PUSH1 0xA0 SHL SUB NOT AND SWAP1 SWAP2 OR SWAP1 SSTORE PUSH1 0x9 PUSH0 PUSH2 0xCE PUSH1 0x5 SLOAD PUSH1 0x1 PUSH1 0x1 PUSH1 0xA0 SHL SUB AND SWAP1 JUMP JUMPDEST PUSH1 0x1 PUSH1 0x1 PUSH1 0xA0 SHL SUB SWAP1 DUP2 AND DUP3 MSTORE PUSH1 0x20 DUP1 DUP4 ADD SWAP4 SWAP1 SWAP4 MSTORE PUSH1 0x40 SWAP2 DUP3 ADD PUSH0 SWAP1 DUP2 KECCAK256 DUP1 SLOAD SWAP6 ISZERO ISZERO PUSH1 0xFF NOT SWAP7 DUP8 AND OR SWAP1 SSTORE PUSH1 0x8 SLOAD SWAP1 SWAP2 AND DUP2 MSTORE PUSH1 0x9 SWAP1 SWAP3 MSTORE DUP2 KECCAK256 DUP1 SLOAD SWAP1 SWAP3 AND PUSH1 0x1 OR SWAP1 SWAP2 SSTORE PUSH2 0x11D PUSH1 0x12 SWAP1 JUMP JUMPDEST PUSH2 0x128 SWAP1 PUSH1 0xA PUSH2 0x528 JUMP JUMPDEST PUSH2 0x135 SWAP1 PUSH3 0xF4240 PUSH2 0x53D JUMP JUMPDEST SWAP1 POP PUSH2 0x141 CALLER DUP3 PUSH2 0x19C JUMP JUMPDEST POP PUSH2 0x567 JUMP JUMPDEST CALLER SWAP1 JUMP JUMPDEST PUSH1 0x5 DUP1 SLOAD PUSH1 0x1 PUSH1 0x1 PUSH1 0xA0 SHL SUB DUP4 DUP2 AND PUSH1 0x1 PUSH1 0x1 PUSH1 0xA0 SHL SUB NOT DUP4 AND DUP2 OR SWAP1 SWAP4 SSTORE PUSH1 0x40 MLOAD SWAP2 AND SWAP2 SWAP1 DUP3 SWAP1 PUSH32 0x8BE0079C531659141344CD1FD0A4F28419497F9722A3DAAFE3B4186F6B6457E0 SWAP1 PUSH0 SWAP1 LOG3 POP POP JUMP JUMPDEST PUSH1 0x1 PUSH1 0x1 PUSH1 0xA0 SHL SUB DUP3 AND PUSH2 0x1F7 JUMPI PUSH1 0x40 MLOAD PUSH3 0x461BCD PUSH1 0xE5 SHL DUP2 MSTORE PUSH1 0x20 PUSH1 0x4 DUP3 ADD MSTORE PUSH1 0x1F PUSH1 0x24 DUP3 ADD MSTORE PUSH32 0x45524332303A206D696E7420746F20746865207A65726F206164647265737300 PUSH1 0x44 DUP3 ADD MSTORE PUSH1 0x64 ADD JUMPDEST PUSH1 0x40 MLOAD DUP1 SWAP2 SUB SWAP1 REVERT JUMPDEST PUSH2 0x202 PUSH0 DUP4 DUP4 PUSH2 0x269 JUMP JUMPDEST DUP1 PUSH1 0x2 PUSH0 DUP3 DUP3 SLOAD PUSH2 0x213 SWAP2 SWAP1 PUSH2 0x554 JUMP JUMPDEST SWAP1 SWAP2 SSTORE POP POP PUSH1 0x1 PUSH1 0x1 PUSH1 0xA0 SHL SUB DUP3 AND PUSH0 DUP2 DUP2 MSTORE PUSH1 0x20 DUP2 DUP2 MSTORE PUSH1 0x40 DUP1 DUP4 KECCAK256 DUP1 SLOAD DUP7 ADD SWAP1 SSTORE MLOAD DUP5 DUP2 MSTORE PUSH32 0xDDF252AD1BE2C89B69C2B068FC378DAA952BA7F163C4A11628F55A4DF523B3EF SWAP2 ADD PUSH1 0x40 MLOAD DUP1 SWAP2 SUB SWAP1 LOG3 POP POP JUMP JUMPDEST PUSH2 0x27C PUSH1 0x5 SLOAD PUSH1 0x1 PUSH1 0xA0 SHL SWAP1 DIV PUSH1 0xFF AND SWAP1 JUMP JUMPDEST ISZERO PUSH2 0x2D9 JUMPI PUSH1 0x40 MLOAD PUSH3 0x461BCD PUSH1 0xE5 SHL DUP2 MSTORE PUSH1 0x20 PUSH1 0x4 DUP3 ADD MSTORE PUSH1 0x27 PUSH1 0x24 DUP3 ADD MSTORE PUSH32 0x5265766F6C74436F696E3A20746F6B656E207472616E73666572207768696C65 PUSH1 0x44 DUP3 ADD MSTORE PUSH7 0x81C185D5CD959 PUSH1 0xCA SHL PUSH1 0x64 DUP3 ADD MSTORE PUSH1 0x84 ADD PUSH2 0x1EE JUMP JUMPDEST POP POP POP JUMP JUMPDEST PUSH4 0x4E487B71 PUSH1 0xE0 SHL PUSH0 MSTORE PUSH1 0x41 PUSH1 0x4 MSTORE PUSH1 0x24 PUSH0 REVERT JUMPDEST PUSH1 0x1 DUP2 DUP2 SHR SWAP1 DUP3 AND DUP1 PUSH2 0x306 JUMPI PUSH1 0x7F DUP3 AND SWAP2 POP JUMPDEST PUSH1 0x20 DUP3 LT DUP2 SUB PUSH2 0x324 JUMPI PUSH4 0x4E487B71 PUSH1 0xE0 SHL PUSH0 MSTORE PUSH1 0x22 PUSH1 0x4 MSTORE PUSH1 0x24 PUSH0 REVERT JUMPDEST POP SWAP2 SWAP1 POP JUMP JUMPDEST PUSH1 0x1F DUP3 GT ISZERO PUSH2 0x2D9 JUMPI DUP1 PUSH0 MSTORE PUSH1 0x20 PUSH0 KECCAK256 PUSH1 0x1F DUP5 ADD PUSH1 0x5 SHR DUP2 ADD PUSH1 0x20 DUP6 LT ISZERO PUSH2 0x34F JUMPI POP DUP1 JUMPDEST PUSH1 0x1F DUP5 ADD PUSH1 0x5 SHR DUP3 ADD SWAP2 POP JUMPDEST DUP2 DUP2 LT ISZERO PUSH2 0x36E JUMPI PUSH0 DUP2 SSTORE PUSH1 0x1 ADD PUSH2 0x35B JUMP JUMPDEST POP POP POP POP POP JUMP JUMPDEST DUP2 MLOAD PUSH1 0x1 PUSH1 0x1 PUSH1 0x40 SHL SUB DUP2 GT ISZERO PUSH2 0x38E JUMPI PUSH2 0x38E PUSH2 0x2DE JUMP JUMPDEST PUSH2 0x3A2 DUP2 PUSH2 0x39C DUP5 SLOAD PUSH2 0x2F2 JUMP JUMPDEST DUP5 PUSH2 0x32A JUMP JUMPDEST PUSH1 0x20 PUSH1 0x1F DUP3 GT PUSH1 0x1 DUP2 EQ PUSH2 0x3D4 JUMPI PUSH0 DUP4 ISZERO PUSH2 0x3BD JUMPI POP DUP5 DUP3 ADD MLOAD JUMPDEST PUSH0 NOT PUSH1 0x3 DUP6 SWAP1 SHL SHR NOT AND PUSH1 0x1 DUP5 SWAP1 SHL OR DUP5 SSTORE PUSH2 0x36E JUMP JUMPDEST PUSH0 DUP5 DUP2 MSTORE PUSH1 0x20 DUP2 KECCAK256 PUSH1 0x1F NOT DUP6 AND SWAP2 JUMPDEST DUP3 DUP2 LT ISZERO PUSH2 0x403 JUMPI DUP8 DUP6 ADD MLOAD DUP3 SSTORE PUSH1 0x20 SWAP5 DUP6 ADD SWAP5 PUSH1 0x1 SWAP1 SWAP3 ADD SWAP2 ADD PUSH2 0x3E3 JUMP JUMPDEST POP DUP5 DUP3 LT ISZERO PUSH2 0x420 JUMPI DUP7 DUP5 ADD MLOAD PUSH0 NOT PUSH1 0x3 DUP8 SWAP1 SHL PUSH1 0xF8 AND SHR NOT AND DUP2 SSTORE JUMPDEST POP POP POP POP PUSH1 0x1 SWAP1 DUP2 SHL ADD SWAP1 SSTORE POP JUMP JUMPDEST PUSH4 0x4E487B71 PUSH1 0xE0 SHL PUSH0 MSTORE PUSH1 0x11 PUSH1 0x4 MSTORE PUSH1 0x24 PUSH0 REVERT JUMPDEST PUSH1 0x1 DUP2 JUMPDEST PUSH1 0x1 DUP5 GT ISZERO PUSH2 0x47E JUMPI DUP1 DUP6 DIV DUP2 GT ISZERO PUSH2 0x462 JUMPI PUSH2 0x462 PUSH2 0x42F JUMP JUMPDEST PUSH1 0x1 DUP5 AND ISZERO PUSH2 0x470 JUMPI SWAP1 DUP2 MUL SWAP1 JUMPDEST PUSH1 0x1 SWAP4 SWAP1 SWAP4 SHR SWAP3 DUP1 MUL PUSH2 0x447 JUMP JUMPDEST SWAP4 POP SWAP4 SWAP2 POP POP JUMP JUMPDEST PUSH0 DUP3 PUSH2 0x494 JUMPI POP PUSH1 0x1 PUSH2 0x522 JUMP JUMPDEST DUP2 PUSH2 0x4A0 JUMPI POP PUSH0 PUSH2 0x522 JUMP JUMPDEST DUP2 PUSH1 0x1 DUP2 EQ PUSH2 0x4B6 JUMPI PUSH1 0x2 DUP2 EQ PUSH2 0x4C0 JUMPI PUSH2 0x4DC JUMP JUMPDEST PUSH1 0x1 SWAP2 POP POP PUSH2 0x522 JUMP JUMPDEST PUSH1 0xFF DUP5 GT ISZERO PUSH2 0x4D1 JUMPI PUSH2 0x4D1 PUSH2 0x42F JUMP JUMPDEST POP POP PUSH1 0x1 DUP3 SHL PUSH2 0x522 JUMP JUMPDEST POP PUSH1 0x20 DUP4 LT PUSH2 0x133 DUP4 LT AND PUSH1 0x4E DUP5 LT PUSH1 0xB DUP5 LT AND OR ISZERO PUSH2 0x4FF JUMPI POP DUP2 DUP2 EXP PUSH2 0x522 JUMP JUMPDEST PUSH2 0x50B PUSH0 NOT DUP5 DUP5 PUSH2 0x443 JUMP JUMPDEST DUP1 PUSH0 NOT DIV DUP3 GT ISZERO PUSH2 0x51E JUMPI PUSH2 0x51E PUSH2 0x42F JUMP JUMPDEST MUL SWAP1 POP JUMPDEST SWAP3 SWAP2 POP POP JUMP JUMPDEST PUSH0 PUSH2 0x536 PUSH1 0xFF DUP5 AND DUP4 PUSH2 0x486 JUMP JUMPDEST SWAP4 SWAP3 POP POP POP JUMP JUMPDEST DUP1 DUP3 MUL DUP2 ISZERO DUP3 DUP3 DIV DUP5 EQ OR PUSH2 0x522 JUMPI PUSH2 0x522 PUSH2 0x42F JUMP JUMPDEST DUP1 DUP3 ADD DUP1 DUP3 GT ISZERO PUSH2 0x522 JUMPI PUSH2 0x522 PUSH2 0x42F JUMP JUMPDEST PUSH1 0x80 MLOAD PUSH2 0x17E9 PUSH2 0x586 PUSH0 CODECOPY PUSH0 DUP2 DUP2 PUSH2 0x384 ADD MSTORE PUSH2 0x7A3 ADD MSTORE PUSH2 0x17E9 PUSH0 RETURN INVALID PUSH1 0x80 PUSH1 0x40 MSTORE CALLVALUE DUP1 ISZERO PUSH2 0xF JUMPI PUSH0 DUP1 REVERT JUMPDEST POP PUSH1 0x4 CALLDATASIZE LT PUSH2 0x1BB JUMPI PUSH0 CALLDATALOAD PUSH1 0xE0 SHR DUP1 PUSH4 0x67243482 GT PUSH2 0xF3 JUMPI DUP1 PUSH4 0xA457C2D7 GT PUSH2 0x93 JUMPI DUP1 PUSH4 0xDD62ED3E GT PUSH2 0x6E JUMPI DUP1 PUSH4 0xDD62ED3E EQ PUSH2 0x3A6 JUMPI DUP1 PUSH4 0xE74B981B EQ PUSH2 0x3B9 JUMPI DUP1 PUSH4 0xEA2F0B37 EQ PUSH2 0x3CC JUMPI DUP1 PUSH4 0xF2FDE38B EQ PUSH2 0x3DF JUMPI PUSH0 DUP1 REVERT JUMPDEST DUP1 PUSH4 0xA457C2D7 EQ PUSH2 0x359 JUMPI DUP1 PUSH4 0xA9059CBB EQ PUSH2 0x36C JUMPI DUP1 PUSH4 0xD5F39488 EQ PUSH2 0x37F JUMPI PUSH0 DUP1 REVERT JUMPDEST DUP1 PUSH4 0x8456CB59 GT PUSH2 0xCE JUMPI DUP1 PUSH4 0x8456CB59 EQ PUSH2 0x32F JUMPI DUP1 PUSH4 0x8DA5CB5B EQ PUSH2 0x337 JUMPI DUP1 PUSH4 0x94544E64 EQ PUSH2 0x348 JUMPI DUP1 PUSH4 0x95D89B41 EQ PUSH2 0x351 JUMPI PUSH0 DUP1 REVERT JUMPDEST DUP1 PUSH4 0x67243482 EQ PUSH2 0x2EC JUMPI DUP1 PUSH4 0x70A08231 EQ PUSH2 0x2FF JUMPI DUP1 PUSH4 0x715018A6 EQ PUSH2 0x327 JUMPI PUSH0 DUP1 REVERT JUMPDEST DUP1 PUSH4 0x32CB6B0C GT PUSH2 0x15E JUMPI DUP1 PUSH4 0x40C10F19 GT PUSH2 0x139 JUMPI DUP1 PUSH4 0x40C10F19 EQ PUSH2 0x289 JUMPI DUP1 PUSH4 0x437823EC EQ PUSH2 0x29C JUMPI DUP1 PUSH4 0x46904840 EQ PUSH2 0x2AF JUMPI DUP1 PUSH4 0x5C975ABB EQ PUSH2 0x2DA JUMPI PUSH0 DUP1 REVERT JUMPDEST DUP1 PUSH4 0x32CB6B0C EQ PUSH2 0x25C JUMPI DUP1 PUSH4 0x39509351 EQ PUSH2 0x26E JUMPI DUP1 PUSH4 0x3F4BA83A EQ PUSH2 0x281 JUMPI PUSH0 DUP1 REVERT JUMPDEST DUP1 PUSH4 0x18160DDD GT PUSH2 0x199 JUMPI DUP1 PUSH4 0x18160DDD EQ PUSH2 0x215 JUMPI DUP1 PUSH4 0x1F36D925 EQ PUSH2 0x227 JUMPI DUP1 PUSH4 0x23B872DD EQ PUSH2 0x23A JUMPI DUP1 PUSH4 0x313CE567 EQ PUSH2 0x24D JUMPI PUSH0 DUP1 REVERT JUMPDEST DUP1 PUSH4 0x6FDDE03 EQ PUSH2 0x1BF JUMPI DUP1 PUSH4 0x95EA7B3 EQ PUSH2 0x1DD JUMPI DUP1 PUSH4 0x1815C208 EQ PUSH2 0x200 JUMPI JUMPDEST PUSH0 DUP1 REVERT JUMPDEST PUSH2 0x1C7 PUSH2 0x3F2 JUMP JUMPDEST PUSH1 0x40 MLOAD PUSH2 0x1D4 SWAP2 SWAP1 PUSH2 0x1530 JUMP JUMPDEST PUSH1 0x40 MLOAD DUP1 SWAP2 SUB SWAP1 RETURN JUMPDEST PUSH2 0x1F0 PUSH2 0x1EB CALLDATASIZE PUSH1 0x4 PUSH2 0x1580 JUMP JUMPDEST PUSH2 0x482 JUMP JUMPDEST PUSH1 0x40 MLOAD SWAP1 ISZERO ISZERO DUP2 MSTORE PUSH1 0x20 ADD PUSH2 0x1D4 JUMP JUMPDEST PUSH2 0x213 PUSH2 0x20E CALLDATASIZE PUSH1 0x4 PUSH2 0x15A8 JUMP JUMPDEST PUSH2 0x49B JUMP JUMPDEST STOP JUMPDEST PUSH1 0x2 SLOAD JUMPDEST PUSH1 0x40 MLOAD SWAP1 DUP2 MSTORE PUSH1 0x20 ADD PUSH2 0x1D4 JUMP JUMPDEST PUSH2 0x213 PUSH2 0x235 CALLDATASIZE PUSH1 0x4 PUSH2 0x15C1 JUMP JUMPDEST PUSH2 0x55B JUMP JUMPDEST PUSH2 0x1F0 PUSH2 0x248 CALLDATASIZE PUSH1 0x4 PUSH2 0x15D8 JUMP JUMPDEST PUSH2 0x5E9 JUMP JUMPDEST PUSH1 0x40 MLOAD PUSH1 0x12 DUP2 MSTORE PUSH1 0x20 ADD PUSH2 0x1D4 JUMP JUMPDEST PUSH2 0x219 PUSH11 0x84595161401484A000000 DUP2 JUMP JUMPDEST PUSH2 0x1F0 PUSH2 0x27C CALLDATASIZE PUSH1 0x4 PUSH2 0x1580 JUMP JUMPDEST PUSH2 0x67A JUMP JUMPDEST PUSH2 0x213 PUSH2 0x69B JUMP JUMPDEST PUSH2 0x213 PUSH2 0x297 CALLDATASIZE PUSH1 0x4 PUSH2 0x1580 JUMP JUMPDEST PUSH2 0x6AD JUMP JUMPDEST PUSH2 0x213 PUSH2 0x2AA CALLDATASIZE PUSH1 0x4 PUSH2 0x15A8 JUMP JUMPDEST PUSH2 0x726 JUMP JUMPDEST PUSH1 0x8 SLOAD PUSH2 0x2C2 SWAP1 PUSH1 0x1 PUSH1 0x1 PUSH1 0xA0 SHL SUB AND DUP2 JUMP JUMPDEST PUSH1 0x40 MLOAD PUSH1 0x1 PUSH1 0x1 PUSH1 0xA0 SHL SUB SWAP1 SWAP2 AND DUP2 MSTORE PUSH1 0x20 ADD PUSH2 0x1D4 JUMP JUMPDEST PUSH1 0x5 SLOAD PUSH1 0x1 PUSH1 0xA0 SHL SWAP1 DIV PUSH1 0xFF AND PUSH2 0x1F0 JUMP JUMPDEST PUSH2 0x213 PUSH2 0x2FA CALLDATASIZE PUSH1 0x4 PUSH2 0x165A JUMP JUMPDEST PUSH2 0x788 JUMP JUMPDEST PUSH2 0x219 PUSH2 0x30D CALLDATASIZE PUSH1 0x4 PUSH2 0x15A8 JUMP JUMPDEST PUSH1 0x1 PUSH1 0x1 PUSH1 0xA0 SHL SUB AND PUSH0 SWAP1 DUP2 MSTORE PUSH1 0x20 DUP2 SWAP1 MSTORE PUSH1 0x40 SWAP1 KECCAK256 SLOAD SWAP1 JUMP JUMPDEST PUSH2 0x213 PUSH2 0xA0E JUMP JUMPDEST PUSH2 0x213 PUSH2 0xA1F JUMP JUMPDEST PUSH1 0x5 SLOAD PUSH1 0x1 PUSH1 0x1 PUSH1 0xA0 SHL SUB AND PUSH2 0x2C2 JUMP JUMPDEST PUSH2 0x219 PUSH1 0x7 SLOAD DUP2 JUMP JUMPDEST PUSH2 0x1C7 PUSH2 0xA2F JUMP JUMPDEST PUSH2 0x1F0 PUSH2 0x367 CALLDATASIZE PUSH1 0x4 PUSH2 0x1580 JUMP JUMPDEST PUSH2 0xA3E JUMP JUMPDEST PUSH2 0x1F0 PUSH2 0x37A CALLDATASIZE PUSH1 0x4 PUSH2 0x1580 JUMP JUMPDEST PUSH2 0xAC3 JUMP JUMPDEST PUSH2 0x2C2 PUSH32 0x0 DUP2 JUMP JUMPDEST PUSH2 0x219 PUSH2 0x3B4 CALLDATASIZE PUSH1 0x4 PUSH2 0x16C6 JUMP JUMPDEST PUSH2 0xAEC JUMP JUMPDEST PUSH2 0x213 PUSH2 0x3C7 CALLDATASIZE PUSH1 0x4 PUSH2 0x15A8 JUMP JUMPDEST PUSH2 0xB16 JUMP JUMPDEST PUSH2 0x213 PUSH2 0x3DA CALLDATASIZE PUSH1 0x4 PUSH2 0x15A8 JUMP JUMPDEST PUSH2 0xC34 JUMP JUMPDEST PUSH2 0x213 PUSH2 0x3ED CALLDATASIZE PUSH1 0x4 PUSH2 0x15A8 JUMP JUMPDEST PUSH2 0xC8C JUMP JUMPDEST PUSH1 0x60 PUSH1 0x3 DUP1 SLOAD PUSH2 0x401 SWAP1 PUSH2 0x16F7 JUMP JUMPDEST DUP1 PUSH1 0x1F ADD PUSH1 0x20 DUP1 SWAP2 DIV MUL PUSH1 0x20 ADD PUSH1 0x40 MLOAD SWAP1 DUP2 ADD PUSH1 0x40 MSTORE DUP1 SWAP3 SWAP2 SWAP1 DUP2 DUP2 MSTORE PUSH1 0x20 ADD DUP3 DUP1 SLOAD PUSH2 0x42D SWAP1 PUSH2 0x16F7 JUMP JUMPDEST DUP1 ISZERO PUSH2 0x478 JUMPI DUP1 PUSH1 0x1F LT PUSH2 0x44F JUMPI PUSH2 0x100 DUP1 DUP4 SLOAD DIV MUL DUP4 MSTORE SWAP2 PUSH1 0x20 ADD SWAP2 PUSH2 0x478 JUMP JUMPDEST DUP3 ADD SWAP2 SWAP1 PUSH0 MSTORE PUSH1 0x20 PUSH0 KECCAK256 SWAP1 JUMPDEST DUP2 SLOAD DUP2 MSTORE SWAP1 PUSH1 0x1 ADD SWAP1 PUSH1 0x20 ADD DUP1 DUP4 GT PUSH2 0x45B JUMPI DUP3 SWAP1 SUB PUSH1 0x1F AND DUP3 ADD SWAP2 JUMPDEST POP POP POP POP POP SWAP1 POP SWAP1 JUMP JUMPDEST PUSH0 CALLER PUSH2 0x48F DUP2 DUP6 DUP6 PUSH2 0xD02 JUMP JUMPDEST PUSH1 0x1 SWAP2 POP POP JUMPDEST SWAP3 SWAP2 POP POP JUMP JUMPDEST PUSH2 0x4A3 PUSH2 0xE25 JUMP JUMPDEST PUSH1 0x1 PUSH1 0x1 PUSH1 0xA0 SHL SUB DUP2 AND PUSH2 0x4FE JUMPI PUSH1 0x40 MLOAD PUSH3 0x461BCD PUSH1 0xE5 SHL DUP2 MSTORE PUSH1 0x20 PUSH1 0x4 DUP3 ADD MSTORE PUSH1 0x1D PUSH1 0x24 DUP3 ADD MSTORE PUSH32 0x5265766F6C74436F696E3A20696E76616C6964206E6577206F776E6572000000 PUSH1 0x44 DUP3 ADD MSTORE PUSH1 0x64 ADD JUMPDEST PUSH1 0x40 MLOAD DUP1 SWAP2 SUB SWAP1 REVERT JUMPDEST DUP1 PUSH1 0x1 PUSH1 0x1 PUSH1 0xA0 SHL SUB AND PUSH2 0x51A PUSH1 0x5 SLOAD PUSH1 0x1 PUSH1 0x1 PUSH1 0xA0 SHL SUB AND SWAP1 JUMP JUMPDEST PUSH1 0x1 PUSH1 0x1 PUSH1 0xA0 SHL SUB AND PUSH32 0x8292FCE18FA69EDF4DB7B94EA2E58241DF0AE57F97E0A6C9B29067028BF92D76 PUSH1 0x40 MLOAD PUSH1 0x40 MLOAD DUP1 SWAP2 SUB SWAP1 LOG3 PUSH2 0x558 DUP2 PUSH2 0xE7F JUMP JUMPDEST POP JUMP JUMPDEST PUSH2 0x563 PUSH2 0xE25 JUMP JUMPDEST PUSH1 0xA DUP2 GT ISZERO PUSH2 0x5A3 JUMPI PUSH1 0x40 MLOAD PUSH3 0x461BCD PUSH1 0xE5 SHL DUP2 MSTORE PUSH1 0x20 PUSH1 0x4 DUP3 ADD MSTORE PUSH1 0xC PUSH1 0x24 DUP3 ADD MSTORE PUSH12 0x8CCACA40E8DEDE40D0D2CED PUSH1 0xA3 SHL PUSH1 0x44 DUP3 ADD MSTORE PUSH1 0x64 ADD PUSH2 0x4F5 JUMP JUMPDEST PUSH1 0x7 DUP1 SLOAD SWAP1 DUP3 SWAP1 SSTORE PUSH1 0x40 DUP1 MLOAD DUP3 DUP2 MSTORE PUSH1 0x20 DUP2 ADD DUP5 SWAP1 MSTORE PUSH32 0xD141D90E37CFF90C4910D122C1B6BC4951144BBF7AD06233CE2A2954E5C25E3B SWAP2 ADD JUMPDEST PUSH1 0x40 MLOAD DUP1 SWAP2 SUB SWAP1 LOG1 POP POP JUMP JUMPDEST PUSH0 PUSH2 0x5F2 PUSH2 0xED0 JUMP JUMPDEST PUSH2 0x5FA PUSH2 0xF29 JUMP JUMPDEST PUSH1 0x1 PUSH1 0x1 PUSH1 0xA0 SHL SUB DUP4 AND PUSH2 0x650 JUMPI PUSH1 0x40 MLOAD PUSH3 0x461BCD PUSH1 0xE5 SHL DUP2 MSTORE PUSH1 0x20 PUSH1 0x4 DUP3 ADD MSTORE PUSH1 0x1C PUSH1 0x24 DUP3 ADD MSTORE PUSH32 0x5265766F6C74436F696E3A207472616E7366657220746F207A65726F00000000 PUSH1 0x44 DUP3 ADD MSTORE PUSH1 0x64 ADD PUSH2 0x4F5 JUMP JUMPDEST PUSH2 0x65B DUP5 CALLER DUP5 PUSH2 0xF76 JUMP JUMPDEST PUSH2 0x666 DUP5 DUP5 DUP5 PUSH2 0xFE8 JUMP JUMPDEST POP PUSH1 0x1 PUSH2 0x673 PUSH1 0x1 PUSH1 0x6 SSTORE JUMP JUMPDEST SWAP4 SWAP3 POP POP POP JUMP JUMPDEST PUSH0 CALLER PUSH2 0x48F DUP2 DUP6 DUP6 PUSH2 0x68C DUP4 DUP4 PUSH2 0xAEC JUMP JUMPDEST PUSH2 0x696 SWAP2 SWAP1 PUSH2 0x1743 JUMP JUMPDEST PUSH2 0xD02 JUMP JUMPDEST PUSH2 0x6A3 PUSH2 0xE25 JUMP JUMPDEST PUSH2 0x6AB PUSH2 0x1169 JUMP JUMPDEST JUMP JUMPDEST PUSH2 0x6B5 PUSH2 0xE25 JUMP JUMPDEST PUSH11 0x84595161401484A000000 DUP2 PUSH2 0x6CB PUSH1 0x2 SLOAD SWAP1 JUMP JUMPDEST PUSH2 0x6D5 SWAP2 SWAP1 PUSH2 0x1743 JUMP JUMPDEST GT ISZERO PUSH2 0x718 JUMPI PUSH1 0x40 MLOAD PUSH3 0x461BCD PUSH1 0xE5 SHL DUP2 MSTORE PUSH1 0x20 PUSH1 0x4 DUP3 ADD MSTORE PUSH1 0x12 PUSH1 0x24 DUP3 ADD MSTORE PUSH18 0x45786365656473206D617820737570706C79 PUSH1 0x70 SHL PUSH1 0x44 DUP3 ADD MSTORE PUSH1 0x64 ADD PUSH2 0x4F5 JUMP JUMPDEST PUSH2 0x722 DUP3 DUP3 PUSH2 0x11BE JUMP JUMPDEST POP POP JUMP JUMPDEST PUSH2 0x72E PUSH2 0xE25 JUMP JUMPDEST PUSH1 0x1 PUSH1 0x1 PUSH1 0xA0 SHL SUB DUP2 AND PUSH0 DUP2 DUP2 MSTORE PUSH1 0x9 PUSH1 0x20 SWAP1 DUP2 MSTORE PUSH1 0x40 SWAP2 DUP3 SWAP1 KECCAK256 DUP1 SLOAD PUSH1 0xFF NOT AND PUSH1 0x1 OR SWAP1 SSTORE SWAP1 MLOAD SWAP2 DUP3 MSTORE PUSH32 0x58C3E0504C69D3A92726966F152A771E0F8F6AD4DACA1AE9055A38ABA1FD2B62 SWAP2 ADD JUMPDEST PUSH1 0x40 MLOAD DUP1 SWAP2 SUB SWAP1 LOG1 POP JUMP JUMPDEST PUSH2 0x790 PUSH2 0xED0 JUMP JUMPDEST PUSH2 0x798 PUSH2 0xF29 JUMP JUMPDEST CALLER PUSH1 0x1 PUSH1 0x1 PUSH1 0xA0 SHL SUB PUSH32 0x0 AND EQ PUSH2 0x81E JUMPI PUSH1 0x40 MLOAD PUSH3 0x461BCD PUSH1 0xE5 SHL DUP2 MSTORE PUSH1 0x20 PUSH1 0x4 DUP3 ADD MSTORE PUSH1 0x25 PUSH1 0x24 DUP3 ADD MSTORE PUSH32 0x5265766F6C74436F696E3A206F6E6C79206465706C6F7965722063616E206169 PUSH1 0x44 DUP3 ADD MSTORE PUSH5 0x7264726F7 PUSH1 0xDC SHL PUSH1 0x64 DUP3 ADD MSTORE PUSH1 0x84 ADD PUSH2 0x4F5 JUMP JUMPDEST DUP3 DUP2 EQ PUSH2 0x879 JUMPI PUSH1 0x40 MLOAD PUSH3 0x461BCD PUSH1 0xE5 SHL DUP2 MSTORE PUSH1 0x20 PUSH1 0x4 DUP3 ADD MSTORE PUSH1 0x23 PUSH1 0x24 DUP3 ADD MSTORE PUSH32 0x5265766F6C74436F696E3A2061697264726F7020617272617973206D69736D61 PUSH1 0x44 DUP3 ADD MSTORE PUSH3 0xE8C6D PUSH1 0xEB SHL PUSH1 0x64 DUP3 ADD MSTORE PUSH1 0x84 ADD PUSH2 0x4F5 JUMP JUMPDEST PUSH0 DUP1 JUMPDEST DUP3 DUP2 LT ISZERO PUSH2 0x8B2 JUMPI DUP4 DUP4 DUP3 DUP2 DUP2 LT PUSH2 0x896 JUMPI PUSH2 0x896 PUSH2 0x1756 JUMP JUMPDEST SWAP1 POP PUSH1 0x20 MUL ADD CALLDATALOAD DUP3 PUSH2 0x8A8 SWAP2 SWAP1 PUSH2 0x1743 JUMP JUMPDEST SWAP2 POP PUSH1 0x1 ADD PUSH2 0x87C JUMP JUMPDEST POP PUSH11 0x84595161401484A000000 DUP2 PUSH2 0x8C9 PUSH1 0x2 SLOAD SWAP1 JUMP JUMPDEST PUSH2 0x8D3 SWAP2 SWAP1 PUSH2 0x1743 JUMP JUMPDEST GT ISZERO PUSH2 0x921 JUMPI PUSH1 0x40 MLOAD PUSH3 0x461BCD PUSH1 0xE5 SHL DUP2 MSTORE PUSH1 0x20 PUSH1 0x4 DUP3 ADD MSTORE PUSH1 0x1E PUSH1 0x24 DUP3 ADD MSTORE PUSH32 0x5265766F6C74436F696E3A2065786365656473206D617820737570706C790000 PUSH1 0x44 DUP3 ADD MSTORE PUSH1 0x64 ADD PUSH2 0x4F5 JUMP JUMPDEST PUSH0 JUMPDEST DUP5 DUP2 LT ISZERO PUSH2 0x9FC JUMPI PUSH2 0x973 DUP7 DUP7 DUP4 DUP2 DUP2 LT PUSH2 0x940 JUMPI PUSH2 0x940 PUSH2 0x1756 JUMP JUMPDEST SWAP1 POP PUSH1 0x20 MUL ADD PUSH1 0x20 DUP2 ADD SWAP1 PUSH2 0x955 SWAP2 SWAP1 PUSH2 0x15A8 JUMP JUMPDEST DUP6 DUP6 DUP5 DUP2 DUP2 LT PUSH2 0x967 JUMPI PUSH2 0x967 PUSH2 0x1756 JUMP JUMPDEST SWAP1 POP PUSH1 0x20 MUL ADD CALLDATALOAD PUSH2 0x11BE JUMP JUMPDEST DUP6 DUP6 DUP3 DUP2 DUP2 LT PUSH2 0x985 JUMPI PUSH2 0x985 PUSH2 0x1756 JUMP JUMPDEST SWAP1 POP PUSH1 0x20 MUL ADD PUSH1 0x20 DUP2 ADD SWAP1 PUSH2 0x99A SWAP2 SWAP1 PUSH2 0x15A8 JUMP JUMPDEST PUSH1 0x1 PUSH1 0x1 PUSH1 0xA0 SHL SUB AND PUSH32 0x8C32C568416FCF97BE35CE5B27844CFDDCD63A67A1A602C3595BA5DAC38F303A DUP6 DUP6 DUP5 DUP2 DUP2 LT PUSH2 0x9D6 JUMPI PUSH2 0x9D6 PUSH2 0x1756 JUMP JUMPDEST SWAP1 POP PUSH1 0x20 MUL ADD CALLDATALOAD PUSH1 0x40 MLOAD PUSH2 0x9EC SWAP2 DUP2 MSTORE PUSH1 0x20 ADD SWAP1 JUMP JUMPDEST PUSH1 0x40 MLOAD DUP1 SWAP2 SUB SWAP1 LOG2 PUSH1 0x1 ADD PUSH2 0x923 JUMP JUMPDEST POP POP PUSH2 0xA08 PUSH1 0x1 PUSH1 0x6 SSTORE JUMP JUMPDEST POP POP POP POP JUMP JUMPDEST PUSH2 0xA16 PUSH2 0xE25 JUMP JUMPDEST PUSH2 0x6AB PUSH0 PUSH2 0xE7F JUMP JUMPDEST PUSH2 0xA27 PUSH2 0xE25 JUMP JUMPDEST PUSH2 0x6AB PUSH2 0x1286 JUMP JUMPDEST PUSH1 0x60 PUSH1 0x4 DUP1 SLOAD PUSH2 0x401 SWAP1 PUSH2 0x16F7 JUMP JUMPDEST PUSH0 CALLER DUP2 PUSH2 0xA4B DUP3 DUP7 PUSH2 0xAEC JUMP JUMPDEST SWAP1 POP DUP4 DUP2 LT ISZERO PUSH2 0xAAB JUMPI PUSH1 0x40 MLOAD PUSH3 0x461BCD PUSH1 0xE5 SHL DUP2 MSTORE PUSH1 0x20 PUSH1 0x4 DUP3 ADD MSTORE PUSH1 0x25 PUSH1 0x24 DUP3 ADD MSTORE PUSH32 0x45524332303A2064656372656173656420616C6C6F77616E63652062656C6F77 PUSH1 0x44 DUP3 ADD MSTORE PUSH5 0x207A65726F PUSH1 0xD8 SHL PUSH1 0x64 DUP3 ADD MSTORE PUSH1 0x84 ADD PUSH2 0x4F5 JUMP JUMPDEST PUSH2 0xAB8 DUP3 DUP7 DUP7 DUP5 SUB PUSH2 0xD02 JUMP JUMPDEST POP PUSH1 0x1 SWAP5 SWAP4 POP POP POP POP JUMP JUMPDEST PUSH0 PUSH2 0xACC PUSH2 0xED0 JUMP JUMPDEST PUSH2 0xAD4 PUSH2 0xF29 JUMP JUMPDEST PUSH2 0xADF CALLER DUP5 DUP5 PUSH2 0xFE8 JUMP JUMPDEST POP PUSH1 0x1 PUSH2 0x495 PUSH1 0x1 PUSH1 0x6 SSTORE JUMP JUMPDEST PUSH1 0x1 PUSH1 0x1 PUSH1 0xA0 SHL SUB SWAP2 DUP3 AND PUSH0 SWAP1 DUP2 MSTORE PUSH1 0x1 PUSH1 0x20 SWAP1 DUP2 MSTORE PUSH1 0x40 DUP1 DUP4 KECCAK256 SWAP4 SWAP1 SWAP5 AND DUP3 MSTORE SWAP2 SWAP1 SWAP2 MSTORE KECCAK256 SLOAD SWAP1 JUMP JUMPDEST PUSH2 0xB1E PUSH2 0xE25 JUMP JUMPDEST PUSH1 0x1 PUSH1 0x1 PUSH1 0xA0 SHL SUB DUP2 AND PUSH2 0xB74 JUMPI PUSH1 0x40 MLOAD PUSH3 0x461BCD PUSH1 0xE5 SHL DUP2 MSTORE PUSH1 0x20 PUSH1 0x4 DUP3 ADD MSTORE PUSH1 0x1B PUSH1 0x24 DUP3 ADD MSTORE PUSH32 0x5265766F6C74436F696E3A20696E76616C696420616464726573730000000000 PUSH1 0x44 DUP3 ADD MSTORE PUSH1 0x64 ADD PUSH2 0x4F5 JUMP JUMPDEST PUSH1 0x1 PUSH1 0x1 PUSH1 0xA0 SHL SUB DUP2 AND EXTCODESIZE ISZERO PUSH2 0xBDA JUMPI PUSH1 0x40 MLOAD PUSH3 0x461BCD PUSH1 0xE5 SHL DUP2 MSTORE PUSH1 0x20 PUSH1 0x4 DUP3 ADD MSTORE PUSH1 0x25 PUSH1 0x24 DUP3 ADD MSTORE PUSH32 0x5265766F6C74436F696E3A2066656520726563697069656E74206D7573742062 PUSH1 0x44 DUP3 ADD MSTORE PUSH5 0x6520454F41 PUSH1 0xD8 SHL PUSH1 0x64 DUP3 ADD MSTORE PUSH1 0x84 ADD PUSH2 0x4F5 JUMP JUMPDEST PUSH1 0x8 DUP1 SLOAD PUSH1 0x1 PUSH1 0x1 PUSH1 0xA0 SHL SUB DUP4 DUP2 AND PUSH1 0x1 PUSH1 0x1 PUSH1 0xA0 SHL SUB NOT DUP4 AND DUP2 OR SWAP1 SWAP4 SSTORE PUSH1 0x40 DUP1 MLOAD SWAP2 SWAP1 SWAP3 AND DUP1 DUP3 MSTORE PUSH1 0x20 DUP3 ADD SWAP4 SWAP1 SWAP4 MSTORE PUSH32 0xAAEBCF1BFA00580E41D966056B48521FA9F202645C86D4DDF28113E617C1B1D3 SWAP2 ADD PUSH2 0x5DD JUMP JUMPDEST PUSH2 0xC3C PUSH2 0xE25 JUMP JUMPDEST PUSH1 0x1 PUSH1 0x1 PUSH1 0xA0 SHL SUB DUP2 AND PUSH0 DUP2 DUP2 MSTORE PUSH1 0x9 PUSH1 0x20 SWAP1 DUP2 MSTORE PUSH1 0x40 SWAP2 DUP3 SWAP1 KECCAK256 DUP1 SLOAD PUSH1 0xFF NOT AND SWAP1 SSTORE SWAP1 MLOAD SWAP2 DUP3 MSTORE PUSH32 0x4F6A6B6EFE34EC6478021AA9FB7F6980E78EA3A10C74074A8CE49D5D3EBF1F7E SWAP2 ADD PUSH2 0x77D JUMP JUMPDEST PUSH2 0xC94 PUSH2 0xE25 JUMP JUMPDEST PUSH1 0x1 PUSH1 0x1 PUSH1 0xA0 SHL SUB DUP2 AND PUSH2 0xCF9 JUMPI PUSH1 0x40 MLOAD PUSH3 0x461BCD PUSH1 0xE5 SHL DUP2 MSTORE PUSH1 0x20 PUSH1 0x4 DUP3 ADD MSTORE PUSH1 0x26 PUSH1 0x24 DUP3 ADD MSTORE PUSH32 0x4F776E61626C653A206E6577206F776E657220697320746865207A65726F2061 PUSH1 0x44 DUP3 ADD MSTORE PUSH6 0x646472657373 PUSH1 0xD0 SHL PUSH1 0x64 DUP3 ADD MSTORE PUSH1 0x84 ADD PUSH2 0x4F5 JUMP JUMPDEST PUSH2 0x558 DUP2 PUSH2 0xE7F JUMP JUMPDEST PUSH1 0x1 PUSH1 0x1 PUSH1 0xA0 SHL SUB DUP4 AND PUSH2 0xD64 JUMPI PUSH1 0x40 MLOAD PUSH3 0x461BCD PUSH1 0xE5 SHL DUP2 MSTORE PUSH1 0x20 PUSH1 0x4 DUP3 ADD MSTORE PUSH1 0x24 DUP1 DUP3 ADD MSTORE PUSH32 0x45524332303A20617070726F76652066726F6D20746865207A65726F20616464 PUSH1 0x44 DUP3 ADD MSTORE PUSH4 0x72657373 PUSH1 0xE0 SHL PUSH1 0x64 DUP3 ADD MSTORE PUSH1 0x84 ADD PUSH2 0x4F5 JUMP JUMPDEST PUSH1 0x1 PUSH1 0x1 PUSH1 0xA0 SHL SUB DUP3 AND PUSH2 0xDC5 JUMPI PUSH1 0x40 MLOAD PUSH3 0x461BCD PUSH1 0xE5 SHL DUP2 MSTORE PUSH1 0x20 PUSH1 0x4 DUP3 ADD MSTORE PUSH1 0x22 PUSH1 0x24 DUP3 ADD MSTORE PUSH32 0x45524332303A20617070726F766520746F20746865207A65726F206164647265 PUSH1 0x44 DUP3 ADD MSTORE PUSH2 0x7373 PUSH1 0xF0 SHL PUSH1 0x64 DUP3 ADD MSTORE PUSH1 0x84 ADD PUSH2 0x4F5 JUMP JUMPDEST PUSH1 0x1 PUSH1 0x1 PUSH1 0xA0 SHL SUB DUP4 DUP2 AND PUSH0 DUP2 DUP2 MSTORE PUSH1 0x1 PUSH1 0x20 SWAP1 DUP2 MSTORE PUSH1 0x40 DUP1 DUP4 KECCAK256 SWAP5 DUP8 AND DUP1 DUP5 MSTORE SWAP5 DUP3 MSTORE SWAP2 DUP3 SWAP1 KECCAK256 DUP6 SWAP1 SSTORE SWAP1 MLOAD DUP5 DUP2 MSTORE PUSH32 0x8C5BE1E5EBEC7D5BD14F71427D1E84F3DD0314C0F7B2291E5B200AC8C7C3B925 SWAP2 ADD PUSH1 0x40 MLOAD DUP1 SWAP2 SUB SWAP1 LOG3 POP POP POP JUMP JUMPDEST PUSH1 0x5 SLOAD PUSH1 0x1 PUSH1 0x1 PUSH1 0xA0 SHL SUB AND CALLER EQ PUSH2 0x6AB JUMPI PUSH1 0x40 MLOAD PUSH3 0x461BCD PUSH1 0xE5 SHL DUP2 MSTORE PUSH1 0x20 PUSH1 0x4 DUP3 ADD DUP2 SWAP1 MSTORE PUSH1 0x24 DUP3 ADD MSTORE PUSH32 0x4F776E61626C653A2063616C6C6572206973206E6F7420746865206F776E6572 PUSH1 0x44 DUP3 ADD MSTORE PUSH1 0x64 ADD PUSH2 0x4F5 JUMP JUMPDEST PUSH1 0x5 DUP1 SLOAD PUSH1 0x1 PUSH1 0x1 PUSH1 0xA0 SHL SUB DUP4 DUP2 AND PUSH1 0x1 PUSH1 0x1 PUSH1 0xA0 SHL SUB NOT DUP4 AND DUP2 OR SWAP1 SWAP4 SSTORE PUSH1 0x40 MLOAD SWAP2 AND SWAP2 SWAP1 DUP3 SWAP1 PUSH32 0x8BE0079C531659141344CD1FD0A4F28419497F9722A3DAAFE3B4186F6B6457E0 SWAP1 PUSH0 SWAP1 LOG3 POP POP JUMP JUMPDEST PUSH1 0x2 PUSH1 0x6 SLOAD SUB PUSH2 0xF22 JUMPI PUSH1 0x40 MLOAD PUSH3 0x461BCD PUSH1 0xE5 SHL DUP2 MSTORE PUSH1 0x20 PUSH1 0x4 DUP3 ADD MSTORE PUSH1 0x1F PUSH1 0x24 DUP3 ADD MSTORE PUSH32 0x5265656E7472616E637947756172643A207265656E7472616E742063616C6C00 PUSH1 0x44 DUP3 ADD MSTORE PUSH1 0x64 ADD PUSH2 0x4F5 JUMP JUMPDEST PUSH1 0x2 PUSH1 0x6 SSTORE JUMP JUMPDEST PUSH1 0x5 SLOAD PUSH1 0x1 PUSH1 0xA0 SHL SWAP1 DIV PUSH1 0xFF AND ISZERO PUSH2 0x6AB JUMPI PUSH1 0x40 MLOAD PUSH3 0x461BCD PUSH1 0xE5 SHL DUP2 MSTORE PUSH1 0x20 PUSH1 0x4 DUP3 ADD MSTORE PUSH1 0x10 PUSH1 0x24 DUP3 ADD MSTORE PUSH16 0x14185D5CD8589B194E881C185D5CD959 PUSH1 0x82 SHL PUSH1 0x44 DUP3 ADD MSTORE PUSH1 0x64 ADD PUSH2 0x4F5 JUMP JUMPDEST PUSH0 PUSH2 0xF81 DUP5 DUP5 PUSH2 0xAEC JUMP JUMPDEST SWAP1 POP PUSH0 NOT DUP2 EQ PUSH2 0xA08 JUMPI DUP2 DUP2 LT ISZERO PUSH2 0xFDB JUMPI PUSH1 0x40 MLOAD PUSH3 0x461BCD PUSH1 0xE5 SHL DUP2 MSTORE PUSH1 0x20 PUSH1 0x4 DUP3 ADD MSTORE PUSH1 0x1D PUSH1 0x24 DUP3 ADD MSTORE PUSH32 0x45524332303A20696E73756666696369656E7420616C6C6F77616E6365000000 PUSH1 0x44 DUP3 ADD MSTORE PUSH1 0x64 ADD PUSH2 0x4F5 JUMP JUMPDEST PUSH2 0xA08 DUP5 DUP5 DUP5 DUP5 SUB PUSH2 0xD02 JUMP JUMPDEST PUSH2 0xFF0 PUSH2 0xF29 JUMP JUMPDEST PUSH1 0x1 PUSH1 0x1 PUSH1 0xA0 SHL SUB DUP4 AND PUSH2 0x1046 JUMPI PUSH1 0x40 MLOAD PUSH3 0x461BCD PUSH1 0xE5 SHL DUP2 MSTORE PUSH1 0x20 PUSH1 0x4 DUP3 ADD MSTORE PUSH1 0x1E PUSH1 0x24 DUP3 ADD MSTORE PUSH32 0x5265766F6C74436F696E3A207472616E736665722066726F6D207A65726F0000 PUSH1 0x44 DUP3 ADD MSTORE PUSH1 0x64 ADD PUSH2 0x4F5 JUMP JUMPDEST PUSH1 0x1 PUSH1 0x1 PUSH1 0xA0 SHL SUB DUP3 AND PUSH2 0x109C JUMPI PUSH1 0x40 MLOAD PUSH3 0x461BCD PUSH1 0xE5 SHL DUP2 MSTORE PUSH1 0x20 PUSH1 0x4 DUP3 ADD MSTORE PUSH1 0x1C PUSH1 0x24 DUP3 ADD MSTORE PUSH32 0x5265766F6C74436F696E3A207472616E7366657220746F207A65726F00000000 PUSH1 0x44 DUP3 ADD MSTORE PUSH1 0x64 ADD PUSH2 0x4F5 JUMP JUMPDEST PUSH0 PUSH1 0x7 SLOAD GT DUP1 ISZERO PUSH2 0x10B7 JUMPI POP PUSH1 0x8 SLOAD PUSH1 0x1 PUSH1 0x1 PUSH1 0xA0 SHL SUB AND ISZERO ISZERO JUMPDEST DUP1 ISZERO PUSH2 0x10DB JUMPI POP PUSH1 0x1 PUSH1 0x1 PUSH1 0xA0 SHL SUB DUP4 AND PUSH0 SWAP1 DUP2 MSTORE PUSH1 0x9 PUSH1 0x20 MSTORE PUSH1 0x40 SWAP1 KECCAK256 SLOAD PUSH1 0xFF AND ISZERO JUMPDEST DUP1 ISZERO PUSH2 0x10FF JUMPI POP PUSH1 0x1 PUSH1 0x1 PUSH1 0xA0 SHL SUB DUP3 AND PUSH0 SWAP1 DUP2 MSTORE PUSH1 0x9 PUSH1 0x20 MSTORE PUSH1 0x40 SWAP1 KECCAK256 SLOAD PUSH1 0xFF AND ISZERO JUMPDEST ISZERO PUSH2 0x1159 JUMPI PUSH0 PUSH1 0x64 PUSH1 0x7 SLOAD DUP4 PUSH2 0x1115 SWAP2 SWAP1 PUSH2 0x176A JUMP JUMPDEST PUSH2 0x111F SWAP2 SWAP1 PUSH2 0x1781 JUMP JUMPDEST SWAP1 POP PUSH0 PUSH2 0x112C DUP3 DUP5 PUSH2 0x17A0 JUMP JUMPDEST PUSH1 0x8 SLOAD SWAP1 SWAP2 POP PUSH2 0x1147 SWAP1 DUP7 SWAP1 PUSH1 0x1 PUSH1 0x1 PUSH1 0xA0 SHL SUB AND DUP5 PUSH2 0x12C9 JUMP JUMPDEST PUSH2 0x1152 DUP6 DUP6 DUP4 PUSH2 0x12C9 JUMP JUMPDEST POP POP POP POP POP JUMP JUMPDEST PUSH2 0x1164 DUP4 DUP4 DUP4 PUSH2 0x12C9 JUMP JUMPDEST POP POP POP JUMP JUMPDEST PUSH2 0x1171 PUSH2 0x1476 JUMP JUMPDEST PUSH1 0x5 DUP1 SLOAD PUSH1 0xFF PUSH1 0xA0 SHL NOT AND SWAP1 SSTORE PUSH32 0x5DB9EE0A495BF2E6FF9C91A7834C1BA4FDD244A5E8AA4E537BD38AEAE4B073AA CALLER JUMPDEST PUSH1 0x40 MLOAD PUSH1 0x1 PUSH1 0x1 PUSH1 0xA0 SHL SUB SWAP1 SWAP2 AND DUP2 MSTORE PUSH1 0x20 ADD PUSH1 0x40 MLOAD DUP1 SWAP2 SUB SWAP1 LOG1 JUMP JUMPDEST PUSH1 0x1 PUSH1 0x1 PUSH1 0xA0 SHL SUB DUP3 AND PUSH2 0x1214 JUMPI PUSH1 0x40 MLOAD PUSH3 0x461BCD PUSH1 0xE5 SHL DUP2 MSTORE PUSH1 0x20 PUSH1 0x4 DUP3 ADD MSTORE PUSH1 0x1F PUSH1 0x24 DUP3 ADD MSTORE PUSH32 0x45524332303A206D696E7420746F20746865207A65726F206164647265737300 PUSH1 0x44 DUP3 ADD MSTORE PUSH1 0x64 ADD PUSH2 0x4F5 JUMP JUMPDEST PUSH2 0x121F PUSH0 DUP4 DUP4 PUSH2 0x14C6 JUMP JUMPDEST DUP1 PUSH1 0x2 PUSH0 DUP3 DUP3 SLOAD PUSH2 0x1230 SWAP2 SWAP1 PUSH2 0x1743 JUMP JUMPDEST SWAP1 SWAP2 SSTORE POP POP PUSH1 0x1 PUSH1 0x1 PUSH1 0xA0 SHL SUB DUP3 AND PUSH0 DUP2 DUP2 MSTORE PUSH1 0x20 DUP2 DUP2 MSTORE PUSH1 0x40 DUP1 DUP4 KECCAK256 DUP1 SLOAD DUP7 ADD SWAP1 SSTORE MLOAD DUP5 DUP2 MSTORE PUSH32 0xDDF252AD1BE2C89B69C2B068FC378DAA952BA7F163C4A11628F55A4DF523B3EF SWAP2 ADD PUSH1 0x40 MLOAD DUP1 SWAP2 SUB SWAP1 LOG3 POP POP JUMP JUMPDEST PUSH2 0x128E PUSH2 0xF29 JUMP JUMPDEST PUSH1 0x5 DUP1 SLOAD PUSH1 0xFF PUSH1 0xA0 SHL NOT AND PUSH1 0x1 PUSH1 0xA0 SHL OR SWAP1 SSTORE PUSH32 0x62E78CEA01BEE320CD4E420270B5EA74000D11B0C9F74754EBDBFC544B05A258 PUSH2 0x11A1 CALLER SWAP1 JUMP JUMPDEST PUSH1 0x1 PUSH1 0x1 PUSH1 0xA0 SHL SUB DUP4 AND PUSH2 0x132D JUMPI PUSH1 0x40 MLOAD PUSH3 0x461BCD PUSH1 0xE5 SHL DUP2 MSTORE PUSH1 0x20 PUSH1 0x4 DUP3 ADD MSTORE PUSH1 0x25 PUSH1 0x24 DUP3 ADD MSTORE PUSH32 0x45524332303A207472616E736665722066726F6D20746865207A65726F206164 PUSH1 0x44 DUP3 ADD MSTORE PUSH5 0x6472657373 PUSH1 0xD8 SHL PUSH1 0x64 DUP3 ADD MSTORE PUSH1 0x84 ADD PUSH2 0x4F5 JUMP JUMPDEST PUSH1 0x1 PUSH1 0x1 PUSH1 0xA0 SHL SUB DUP3 AND PUSH2 0x138F JUMPI PUSH1 0x40 MLOAD PUSH3 0x461BCD PUSH1 0xE5 SHL DUP2 MSTORE PUSH1 0x20 PUSH1 0x4 DUP3 ADD MSTORE PUSH1 0x23 PUSH1 0x24 DUP3 ADD MSTORE PUSH32 0x45524332303A207472616E7366657220746F20746865207A65726F2061646472 PUSH1 0x44 DUP3 ADD MSTORE PUSH3 0x657373 PUSH1 0xE8 SHL PUSH1 0x64 DUP3 ADD MSTORE PUSH1 0x84 ADD PUSH2 0x4F5 JUMP JUMPDEST PUSH2 0x139A DUP4 DUP4 DUP4 PUSH2 0x14C6 JUMP JUMPDEST PUSH1 0x1 PUSH1 0x1 PUSH1 0xA0 SHL SUB DUP4 AND PUSH0 SWAP1 DUP2 MSTORE PUSH1 0x20 DUP2 SWAP1 MSTORE PUSH1 0x40 SWAP1 KECCAK256 SLOAD DUP2 DUP2 LT ISZERO PUSH2 0x1411 JUMPI PUSH1 0x40 MLOAD PUSH3 0x461BCD PUSH1 0xE5 SHL DUP2 MSTORE PUSH1 0x20 PUSH1 0x4 DUP3 ADD MSTORE PUSH1 0x26 PUSH1 0x24 DUP3 ADD MSTORE PUSH32 0x45524332303A207472616E7366657220616D6F756E7420657863656564732062 PUSH1 0x44 DUP3 ADD MSTORE PUSH6 0x616C616E6365 PUSH1 0xD0 SHL PUSH1 0x64 DUP3 ADD MSTORE PUSH1 0x84 ADD PUSH2 0x4F5 JUMP JUMPDEST PUSH1 0x1 PUSH1 0x1 PUSH1 0xA0 SHL SUB DUP5 DUP2 AND PUSH0 DUP2 DUP2 MSTORE PUSH1 0x20 DUP2 DUP2 MSTORE PUSH1 0x40 DUP1 DUP4 KECCAK256 DUP8 DUP8 SUB SWAP1 SSTORE SWAP4 DUP8 AND DUP1 DUP4 MSTORE SWAP2 DUP5 SWAP1 KECCAK256 DUP1 SLOAD DUP8 ADD SWAP1 SSTORE SWAP3 MLOAD DUP6 DUP2 MSTORE SWAP1 SWAP3 PUSH32 0xDDF252AD1BE2C89B69C2B068FC378DAA952BA7F163C4A11628F55A4DF523B3EF SWAP2 ADD PUSH1 0x40 MLOAD DUP1 SWAP2 SUB SWAP1 LOG3 PUSH2 0xA08 JUMP JUMPDEST PUSH1 0x5 SLOAD PUSH1 0x1 PUSH1 0xA0 SHL SWAP1 DIV PUSH1 0xFF AND PUSH2 0x6AB JUMPI PUSH1 0x40 MLOAD PUSH3 0x461BCD PUSH1 0xE5 SHL DUP2 MSTORE PUSH1 0x20 PUSH1 0x4 DUP3 ADD MSTORE PUSH1 0x14 PUSH1 0x24 DUP3 ADD MSTORE PUSH20 0x14185D5CD8589B194E881B9BDD081C185D5CD959 PUSH1 0x62 SHL PUSH1 0x44 DUP3 ADD MSTORE PUSH1 0x64 ADD PUSH2 0x4F5 JUMP JUMPDEST PUSH1 0x5 SLOAD PUSH1 0x1 PUSH1 0xA0 SHL SWAP1 DIV PUSH1 0xFF AND ISZERO PUSH2 0x1164 JUMPI PUSH1 0x40 MLOAD PUSH3 0x461BCD PUSH1 0xE5 SHL DUP2 MSTORE PUSH1 0x20 PUSH1 0x4 DUP3 ADD MSTORE PUSH1 0x27 PUSH1 0x24 DUP3 ADD MSTORE PUSH32 0x5265766F6C74436F696E3A20746F6B656E207472616E73666572207768696C65 PUSH1 0x44 DUP3 ADD MSTORE PUSH7 0x81C185D5CD959 PUSH1 0xCA SHL PUSH1 0x64 DUP3 ADD MSTORE PUSH1 0x84 ADD PUSH2 0x4F5 JUMP JUMPDEST PUSH1 0x20 DUP2 MSTORE PUSH0 DUP3 MLOAD DUP1 PUSH1 0x20 DUP5 ADD MSTORE DUP1 PUSH1 0x20 DUP6 ADD PUSH1 0x40 DUP6 ADD MCOPY PUSH0 PUSH1 0x40 DUP3 DUP6 ADD ADD MSTORE PUSH1 0x40 PUSH1 0x1F NOT PUSH1 0x1F DUP4 ADD AND DUP5 ADD ADD SWAP2 POP POP SWAP3 SWAP2 POP POP JUMP JUMPDEST DUP1 CALLDATALOAD PUSH1 0x1 PUSH1 0x1 PUSH1 0xA0 SHL SUB DUP2 AND DUP2 EQ PUSH2 0x157B JUMPI PUSH0 DUP1 REVERT JUMPDEST SWAP2 SWAP1 POP JUMP JUMPDEST PUSH0 DUP1 PUSH1 0x40 DUP4 DUP6 SUB SLT ISZERO PUSH2 0x1591 JUMPI PUSH0 DUP1 REVERT JUMPDEST PUSH2 0x159A DUP4 PUSH2 0x1565 JUMP JUMPDEST SWAP5 PUSH1 0x20 SWAP4 SWAP1 SWAP4 ADD CALLDATALOAD SWAP4 POP POP POP JUMP JUMPDEST PUSH0 PUSH1 0x20 DUP3 DUP5 SUB SLT ISZERO PUSH2 0x15B8 JUMPI PUSH0 DUP1 REVERT JUMPDEST PUSH2 0x673 DUP3 PUSH2 0x1565 JUMP JUMPDEST PUSH0 PUSH1 0x20 DUP3 DUP5 SUB SLT ISZERO PUSH2 0x15D1 JUMPI PUSH0 DUP1 REVERT JUMPDEST POP CALLDATALOAD SWAP2 SWAP1 POP JUMP JUMPDEST PUSH0 DUP1 PUSH0 PUSH1 0x60 DUP5 DUP7 SUB SLT ISZERO PUSH2 0x15EA JUMPI PUSH0 DUP1 REVERT JUMPDEST PUSH2 0x15F3 DUP5 PUSH2 0x1565 JUMP JUMPDEST SWAP3 POP PUSH2 0x1601 PUSH1 0x20 DUP6 ADD PUSH2 0x1565 JUMP JUMPDEST SWAP3 SWAP6 SWAP3 SWAP5 POP POP POP PUSH1 0x40 SWAP2 SWAP1 SWAP2 ADD CALLDATALOAD SWAP1 JUMP JUMPDEST PUSH0 DUP1 DUP4 PUSH1 0x1F DUP5 ADD SLT PUSH2 0x1622 JUMPI PUSH0 DUP1 REVERT JUMPDEST POP DUP2 CALLDATALOAD PUSH8 0xFFFFFFFFFFFFFFFF DUP2 GT ISZERO PUSH2 0x1639 JUMPI PUSH0 DUP1 REVERT JUMPDEST PUSH1 0x20 DUP4 ADD SWAP2 POP DUP4 PUSH1 0x20 DUP3 PUSH1 0x5 SHL DUP6 ADD ADD GT ISZERO PUSH2 0x1653 JUMPI PUSH0 DUP1 REVERT JUMPDEST SWAP3 POP SWAP3 SWAP1 POP JUMP JUMPDEST PUSH0 DUP1 PUSH0 DUP1 PUSH1 0x40 DUP6 DUP8 SUB SLT ISZERO PUSH2 0x166D JUMPI PUSH0 DUP1 REVERT JUMPDEST DUP5 CALLDATALOAD PUSH8 0xFFFFFFFFFFFFFFFF DUP2 GT ISZERO PUSH2 0x1683 JUMPI PUSH0 DUP1 REVERT JUMPDEST PUSH2 0x168F DUP8 DUP3 DUP9 ADD PUSH2 0x1612 JUMP JUMPDEST SWAP1 SWAP6 POP SWAP4 POP POP PUSH1 0x20 DUP6 ADD CALLDATALOAD PUSH8 0xFFFFFFFFFFFFFFFF DUP2 GT ISZERO PUSH2 0x16AE JUMPI PUSH0 DUP1 REVERT JUMPDEST PUSH2 0x16BA DUP8 DUP3 DUP9 ADD PUSH2 0x1612 JUMP JUMPDEST SWAP6 SWAP9 SWAP5 SWAP8 POP SWAP6 POP POP POP POP JUMP JUMPDEST PUSH0 DUP1 PUSH1 0x40 DUP4 DUP6 SUB SLT ISZERO PUSH2 0x16D7 JUMPI PUSH0 DUP1 REVERT JUMPDEST PUSH2 0x16E0 DUP4 PUSH2 0x1565 JUMP JUMPDEST SWAP2 POP PUSH2 0x16EE PUSH1 0x20 DUP5 ADD PUSH2 0x1565 JUMP JUMPDEST SWAP1 POP SWAP3 POP SWAP3 SWAP1 POP JUMP JUMPDEST PUSH1 0x1 DUP2 DUP2 SHR SWAP1 DUP3 AND DUP1 PUSH2 0x170B JUMPI PUSH1 0x7F DUP3 AND SWAP2 POP JUMPDEST PUSH1 0x20 DUP3 LT DUP2 SUB PUSH2 0x1729 JUMPI PUSH4 0x4E487B71 PUSH1 0xE0 SHL PUSH0 MSTORE PUSH1 0x22 PUSH1 0x4 MSTORE PUSH1 0x24 PUSH0 REVERT JUMPDEST POP SWAP2 SWAP1 POP JUMP JUMPDEST PUSH4 0x4E487B71 PUSH1 0xE0 SHL PUSH0 MSTORE PUSH1 0x11 PUSH1 0x4 MSTORE PUSH1 0x24 PUSH0 REVERT JUMPDEST DUP1 DUP3 ADD DUP1 DUP3 GT ISZERO PUSH2 0x495 JUMPI PUSH2 0x495 PUSH2 0x172F JUMP JUMPDEST PUSH4 0x4E487B71 PUSH1 0xE0 SHL PUSH0 MSTORE PUSH1 0x32 PUSH1 0x4 MSTORE PUSH1 0x24 PUSH0 REVERT JUMPDEST DUP1 DUP3 MUL DUP2 ISZERO DUP3 DUP3 DIV DUP5 EQ OR PUSH2 0x495 JUMPI PUSH2 0x495 PUSH2 0x172F JUMP JUMPDEST PUSH0 DUP3 PUSH2 0x179B JUMPI PUSH4 0x4E487B71 PUSH1 0xE0 SHL PUSH0 MSTORE PUSH1 0x12 PUSH1 0x4 MSTORE PUSH1 0x24 PUSH0 REVERT JUMPDEST POP DIV SWAP1 JUMP JUMPDEST DUP2 DUP2 SUB DUP2 DUP2 GT ISZERO PUSH2 0x495 JUMPI PUSH2 0x495 PUSH2 0x172F JUMP INVALID LOG2 PUSH5 0x6970667358 0x22 SLT KECCAK256 PUSH2 0x77A8 0xF SELFBALANCE 0xE1 SWAP16 0x1F PUSH8 0xF937535D0FA50202 DUP11 COINBASE PUSH2 0xEFA4 PUSH32 0x80AEAC788D78C4264764736F6C634300081A0033000000000000000000000000 "
				},
				"gasEstimates": {
					"creation": {
						"codeDepositCost": "1224200",
						"executionCost": "infinite",
						"totalCost": "infinite"
					},
					"external": {
						"MAX_SUPPLY()": "240",
						"airdrop(address[],uint256[])": "infinite",
						"allowance(address,address)": "infinite",
						"approve(address,uint256)": "24670",
						"balanceOf(address)": "2605",
						"decimals()": "288",
						"decreaseAllowance(address,uint256)": "26990",
						"deployer()": "infinite",
						"excludeFromFee(address)": "27910",
						"feeRecipient()": "2425",
						"includeInFee(address)": "27936",
						"increaseAllowance(address,uint256)": "infinite",
						"mint(address,uint256)": "infinite",
						"name()": "infinite",
						"owner()": "2397",
						"ownerTransfer(address)": "32126",
						"pause()": "infinite",
						"paused()": "2431",
						"renounceOwnership()": "infinite",
						"setFeeRecipient(address)": "30834",
						"setTransferFeePercent(uint256)": "28031",
						"symbol()": "infinite",
						"totalSupply()": "2326",
						"transfer(address,uint256)": "infinite",
						"transferFeePercent()": "2383",
						"transferFrom(address,address,uint256)": "infinite",
						"transferOwnership(address)": "28443",
						"unpause()": "infinite"
					},
					"internal": {
						"_beforeTokenTransfer(address,address,uint256)": "infinite",
						"_transfer(address,address,uint256)": "infinite"
					}
				},
				"methodIdentifiers": {
					"MAX_SUPPLY()": "32cb6b0c",
					"airdrop(address[],uint256[])": "67243482",
					"allowance(address,address)": "dd62ed3e",
					"approve(address,uint256)": "095ea7b3",
					"balanceOf(address)": "70a08231",
					"decimals()": "313ce567",
					"decreaseAllowance(address,uint256)": "a457c2d7",
					"deployer()": "d5f39488",
					"excludeFromFee(address)": "437823ec",
					"feeRecipient()": "46904840",
					"includeInFee(address)": "ea2f0b37",
					"increaseAllowance(address,uint256)": "39509351",
					"mint(address,uint256)": "40c10f19",
					"name()": "06fdde03",
					"owner()": "8da5cb5b",
					"ownerTransfer(address)": "1815c208",
					"pause()": "8456cb59",
					"paused()": "5c975abb",
					"renounceOwnership()": "715018a6",
					"setFeeRecipient(address)": "e74b981b",
					"setTransferFeePercent(uint256)": "1f36d925",
					"symbol()": "95d89b41",
					"totalSupply()": "18160ddd",
					"transfer(address,uint256)": "a9059cbb",
					"transferFeePercent()": "94544e64",
					"transferFrom(address,address,uint256)": "23b872dd",
					"transferOwnership(address)": "f2fde38b",
					"unpause()": "3f4ba83a"
				}
			},
			"storageLayout": {
				"storage": [
					{
						"astId": 875,
						"contract": "Revolt.sol:RevoltCoin",
						"label": "_balances",
						"offset": 0,
						"slot": "0",
						"type": "t_mapping(t_address,t_uint256)"
					},
					{
						"astId": 881,
						"contract": "Revolt.sol:RevoltCoin",
						"label": "_allowances",
						"offset": 0,
						"slot": "1",
						"type": "t_mapping(t_address,t_mapping(t_address,t_uint256))"
					},
					{
						"astId": 883,
						"contract": "Revolt.sol:RevoltCoin",
						"label": "_totalSupply",
						"offset": 0,
						"slot": "2",
						"type": "t_uint256"
					},
					{
						"astId": 885,
						"contract": "Revolt.sol:RevoltCoin",
						"label": "_name",
						"offset": 0,
						"slot": "3",
						"type": "t_string_storage"
					},
					{
						"astId": 887,
						"contract": "Revolt.sol:RevoltCoin",
						"label": "_symbol",
						"offset": 0,
						"slot": "4",
						"type": "t_string_storage"
					},
					{
						"astId": 581,
						"contract": "Revolt.sol:RevoltCoin",
						"label": "_owner",
						"offset": 0,
						"slot": "5",
						"type": "t_address"
					},
					{
						"astId": 704,
						"contract": "Revolt.sol:RevoltCoin",
						"label": "_paused",
						"offset": 20,
						"slot": "5",
						"type": "t_bool"
					},
					{
						"astId": 805,
						"contract": "Revolt.sol:RevoltCoin",
						"label": "_status",
						"offset": 0,
						"slot": "6",
						"type": "t_uint256"
					},
					{
						"astId": 23,
						"contract": "Revolt.sol:RevoltCoin",
						"label": "transferFeePercent",
						"offset": 0,
						"slot": "7",
						"type": "t_uint256"
					},
					{
						"astId": 25,
						"contract": "Revolt.sol:RevoltCoin",
						"label": "feeRecipient",
						"offset": 0,
						"slot": "8",
						"type": "t_address"
					},
					{
						"astId": 29,
						"contract": "Revolt.sol:RevoltCoin",
						"label": "_isExcludedFromFee",
						"offset": 0,
						"slot": "9",
						"type": "t_mapping(t_address,t_bool)"
					}
				],
				"types": {
					"t_address": {
						"encoding": "inplace",
						"label": "address",
						"numberOfBytes": "20"
					},
					"t_bool": {
						"encoding": "inplace",
						"label": "bool",
						"numberOfBytes": "1"
					},
					"t_mapping(t_address,t_bool)": {
						"encoding": "mapping",
						"key": "t_address",
						"label": "mapping(address => bool)",
						"numberOfBytes": "32",
						"value": "t_bool"
					},
					"t_mapping(t_address,t_mapping(t_address,t_uint256))": {
						"encoding": "mapping",
						"key": "t_address",
						"label": "mapping(address => mapping(address => uint256))",
						"numberOfBytes": "32",
						"value": "t_mapping(t_address,t_uint256)"
					},
					"t_mapping(t_address,t_uint256)": {
						"encoding": "mapping",
						"key": "t_address",
						"label": "mapping(address => uint256)",
						"numberOfBytes": "32",
						"value": "t_uint256"
					},
					"t_string_storage": {
						"encoding": "bytes",
						"label": "string",
						"numberOfBytes": "32"
					},
					"t_uint256": {
						"encoding": "inplace",
						"label": "uint256",
						"numberOfBytes": "32"
					}
				}
			},
			"userdoc": {
				"kind": "user",
				"methods": {
					"airdrop(address[],uint256[])": {
						"notice": "批量空投代币给指定地址"
					},
					"ownerTransfer(address)": {
						"notice": "安全转移合约所有权"
					},
					"pause()": {
						"notice": "暂停所有转账"
					},
					"transfer(address,uint256)": {
						"notice": "防重入安全的转账接口"
					},
					"unpause()": {
						"notice": "恢复转账"
					}
				},
				"version": 1
			}
		}
	}
}