{
	"data": {
		"bytecode": {
			"linkReferences": {},
			"object": "60a06040526002600755348015610014575f80fd5b506040518060400160405280600a81526020017f5265766f6c74436f696e000000000000000000000000000000000000000000008152506040518060400160405280600681526020017f5265766f6c74000000000000000000000000000000000000000000000000000081525081600390816100909190610780565b5080600490816100a09190610780565b5050506100bf6100b461026e60201b60201c565b61027560201b60201c565b5f600560146101000a81548160ff02191690831515021790555060016006819055503373ffffffffffffffffffffffffffffffffffffffff1660808173ffffffffffffffffffffffffffffffffffffffff16815250503360085f6101000a81548173ffffffffffffffffffffffffffffffffffffffff021916908373ffffffffffffffffffffffffffffffffffffffff160217905550600160095f61016861033860201b60201c565b73ffffffffffffffffffffffffffffffffffffffff1673ffffffffffffffffffffffffffffffffffffffff1681526020019081526020015f205f6101000a81548160ff021916908315150217905550600160095f60085f9054906101000a900473ffffffffffffffffffffffffffffffffffffffff1673ffffffffffffffffffffffffffffffffffffffff1673ffffffffffffffffffffffffffffffffffffffff1681526020019081526020015f205f6101000a81548160ff0219169083151502179055505f61023c61036060201b60201c565b600a61024891906109b7565b620f42406102569190610a01565b9050610268338261036860201b60201c565b50610ba3565b5f33905090565b5f60055f9054906101000a900473ffffffffffffffffffffffffffffffffffffffff1690508160055f6101000a81548173ffffffffffffffffffffffffffffffffffffffff021916908373ffffffffffffffffffffffffffffffffffffffff1602179055508173ffffffffffffffffffffffffffffffffffffffff168173ffffffffffffffffffffffffffffffffffffffff167f8be0079c531659141344cd1fd0a4f28419497f9722a3daafe3b4186f6b6457e060405160405180910390a35050565b5f60055f9054906101000a900473ffffffffffffffffffffffffffffffffffffffff16905090565b5f6012905090565b5f73ffffffffffffffffffffffffffffffffffffffff168273ffffffffffffffffffffffffffffffffffffffff16036103d6576040517f08c379a00000000000000000000000000000000000000000000000000000000081526004016103cd90610a9c565b60405180910390fd5b6103e75f83836104c260201b60201c565b8060025f8282546103f89190610aba565b92505081905550805f808473ffffffffffffffffffffffffffffffffffffffff1673ffffffffffffffffffffffffffffffffffffffff1681526020019081526020015f205f82825401925050819055508173ffffffffffffffffffffffffffffffffffffffff165f73ffffffffffffffffffffffffffffffffffffffff167fddf252ad1be2c89b69c2b068fc378daa952ba7f163c4a11628f55a4df523b3ef836040516104a59190610afc565b60405180910390a36104be5f838361052660201b60201c565b5050565b6104d383838361052b60201b60201c565b6104e161053060201b60201c565b15610521576040517f08c379a000000000000000000000000000000000000000000000000000000000815260040161051890610b85565b60405180910390fd5b505050565b505050565b505050565b5f600560149054906101000a900460ff16905090565b5f81519050919050565b7f4e487b71000000000000000000000000000000000000000000000000000000005f52604160045260245ffd5b7f4e487b71000000000000000000000000000000000000000000000000000000005f52602260045260245ffd5b5f60028204905060018216806105c157607f821691505b6020821081036105d4576105d361057d565b5b50919050565b5f819050815f5260205f209050919050565b5f6020601f8301049050919050565b5f82821b905092915050565b5f600883026106367fffffffffffffffffffffffffffffffffffffffffffffffffffffffffffffffff826105fb565b61064086836105fb565b95508019841693508086168417925050509392505050565b5f819050919050565b5f819050919050565b5f61068461067f61067a84610658565b610661565b610658565b9050919050565b5f819050919050565b61069d8361066a565b6106b16106a98261068b565b848454610607565b825550505050565b5f90565b6106c56106b9565b6106d0818484610694565b505050565b5b818110156106f3576106e85f826106bd565b6001810190506106d6565b5050565b601f82111561073857610709816105da565b610712846105ec565b81016020851015610721578190505b61073561072d856105ec565b8301826106d5565b50505b505050565b5f82821c905092915050565b5f6107585f198460080261073d565b1980831691505092915050565b5f6107708383610749565b9150826002028217905092915050565b61078982610546565b67ffffffffffffffff8111156107a2576107a1610550565b5b6107ac82546105aa565b6107b78282856106f7565b5f60209050601f8311600181146107e8575f84156107d6578287015190505b6107e08582610765565b865550610847565b601f1984166107f6866105da565b5f5b8281101561081d578489015182556001820191506020850194506020810190506107f8565b8683101561083a5784890151610836601f891682610749565b8355505b6001600288020188555050505b505050505050565b7f4e487b71000000000000000000000000000000000000000000000000000000005f52601160045260245ffd5b5f8160011c9050919050565b5f808291508390505b60018511156108d1578086048111156108ad576108ac61084f565b5b60018516156108bc5780820291505b80810290506108ca8561087c565b9450610891565b94509492505050565b5f826108e957600190506109a4565b816108f6575f90506109a4565b816001811461090c576002811461091657610945565b60019150506109a4565b60ff8411156109285761092761084f565b5b8360020a91508482111561093f5761093e61084f565b5b506109a4565b5060208310610133831016604e8410600b841016171561097a5782820a9050838111156109755761097461084f565b5b6109a4565b6109878484846001610888565b9250905081840481111561099e5761099d61084f565b5b81810290505b9392505050565b5f60ff82169050919050565b5f6109c182610658565b91506109cc836109ab565b92506109f97fffffffffffffffffffffffffffffffffffffffffffffffffffffffffffffffff84846108da565b905092915050565b5f610a0b82610658565b9150610a1683610658565b9250828202610a2481610658565b91508282048414831517610a3b57610a3a61084f565b5b5092915050565b5f82825260208201905092915050565b7f45524332303a206d696e7420746f20746865207a65726f2061646472657373005f82015250565b5f610a86601f83610a42565b9150610a9182610a52565b602082019050919050565b5f6020820190508181035f830152610ab381610a7a565b9050919050565b5f610ac482610658565b9150610acf83610658565b9250828201905080821115610ae757610ae661084f565b5b92915050565b610af681610658565b82525050565b5f602082019050610b0f5f830184610aed565b92915050565b7f5265766f6c74436f696e3a20746f6b656e207472616e73666572207768696c655f8201527f2070617573656400000000000000000000000000000000000000000000000000602082015250565b5f610b6f602783610a42565b9150610b7a82610b15565b604082019050919050565b5f6020820190508181035f830152610b9c81610b63565b9050919050565b608051612ef7610bc25f395f81816109dc0152610e2c0152612ef75ff3fe608060405234801561000f575f80fd5b50600436106101c2575f3560e01c806367243482116100f7578063a457c2d711610095578063dd62ed3e1161006f578063dd62ed3e146104bc578063e74b981b146104ec578063ea2f0b3714610508578063f2fde38b14610524576101c2565b8063a457c2d71461043e578063a9059cbb1461046e578063d5f394881461049e576101c2565b80638456cb59116100d15780638456cb59146103da5780638da5cb5b146103e457806394544e641461040257806395d89b4114610420576101c2565b8063672434821461038457806370a08231146103a0578063715018a6146103d0576101c2565b806332cb6b0c1161016457806340c10f191161013e57806340c10f1914610310578063437823ec1461032c57806346904840146103485780635c975abb14610366576101c2565b806332cb6b0c146102b857806339509351146102d65780633f4ba83a14610306576101c2565b806318160ddd116101a057806318160ddd146102305780631f36d9251461024e57806323b872dd1461026a578063313ce5671461029a576101c2565b806306fdde03146101c6578063095ea7b3146101e45780631815c20814610214575b5f80fd5b6101ce610540565b6040516101db9190611d94565b60405180910390f35b6101fe60048036038101906101f99190611e49565b6105d0565b60405161020b9190611ea1565b60405180910390f35b61022e60048036038101906102299190611eba565b6105f2565b005b6102386106d5565b6040516102459190611ef4565b60405180910390f35b61026860048036038101906102639190611f0d565b6106de565b005b610284600480360381019061027f9190611f38565b610774565b6040516102919190611ea1565b60405180910390f35b6102a2610823565b6040516102af9190611fa3565b60405180910390f35b6102c061082b565b6040516102cd9190611ef4565b60405180910390f35b6102f060048036038101906102eb9190611e49565b61083a565b6040516102fd9190611ea1565b60405180910390f35b61030e610870565b005b61032a60048036038101906103259190611e49565b610882565b005b61034660048036038101906103419190611eba565b6108f8565b005b61035061098f565b60405161035d9190611fcb565b60405180910390f35b61036e6109b4565b60405161037b9190611ea1565b60405180910390f35b61039e6004803603810190610399919061209a565b6109ca565b005b6103ba60048036038101906103b59190611eba565b610c58565b6040516103c79190611ef4565b60405180910390f35b6103d8610c9d565b005b6103e2610cb0565b005b6103ec610cc2565b6040516103f99190611fcb565b60405180910390f35b61040a610cea565b6040516104179190611ef4565b60405180910390f35b610428610cf0565b6040516104359190611d94565b60405180910390f35b61045860048036038101906104539190611e49565b610d80565b6040516104659190611ea1565b60405180910390f35b61048860048036038101906104839190611e49565b610df5565b6040516104959190611ea1565b60405180910390f35b6104a6610e2a565b6040516104b39190611fcb565b60405180910390f35b6104d660048036038101906104d19190612118565b610e4e565b6040516104e39190611ef4565b60405180910390f35b61050660048036038101906105019190611eba565b610ed0565b005b610522600480360381019061051d9190611eba565b611041565b005b61053e60048036038101906105399190611eba565b6110d7565b005b60606003805461054f90612183565b80601f016020809104026020016040519081016040528092919081815260200182805461057b90612183565b80156105c65780601f1061059d576101008083540402835291602001916105c6565b820191905f5260205f20905b8154815290600101906020018083116105a957829003601f168201915b5050505050905090565b5f806105da611159565b90506105e7818585611160565b600191505092915050565b6105fa611323565b5f73ffffffffffffffffffffffffffffffffffffffff168173ffffffffffffffffffffffffffffffffffffffff1603610668576040517f08c379a000000000000000000000000000000000000000000000000000000000815260040161065f906121fd565b60405180910390fd5b8073ffffffffffffffffffffffffffffffffffffffff16610687610cc2565b73ffffffffffffffffffffffffffffffffffffffff167f8292fce18fa69edf4db7b94ea2e58241df0ae57f97e0a6c9b29067028bf92d7660405160405180910390a36106d2816113a1565b50565b5f600254905090565b6106e6611323565b600a81111561072a576040517f08c379a000000000000000000000000000000000000000000000000000000000815260040161072190612265565b60405180910390fd5b5f6007549050816007819055507fd141d90e37cff90c4910d122c1b6bc4951144bbf7ad06233ce2a2954e5c25e3b8183604051610768929190612283565b60405180910390a15050565b5f61077d611464565b6107856114b3565b5f73ffffffffffffffffffffffffffffffffffffffff168373ffffffffffffffffffffffffffffffffffffffff16036107f3576040517f08c379a00000000000000000000000000000000000000000000000000000000081526004016107ea906122f4565b60405180910390fd5b610805846107ff611159565b846114fd565b610810848484611588565b6001905061081c6117f0565b9392505050565b5f6012905090565b6a084595161401484a00000081565b5f80610844611159565b90506108658185856108568589610e4e565b610860919061233f565b611160565b600191505092915050565b610878611323565b6108806117fa565b565b61088a611323565b6a084595161401484a0000008161089f6106d5565b6108a9919061233f565b11156108ea576040517f08c379a00000000000000000000000000000000000000000000000000000000081526004016108e1906123bc565b60405180910390fd5b6108f4828261185c565b5050565b610900611323565b600160095f8373ffffffffffffffffffffffffffffffffffffffff1673ffffffffffffffffffffffffffffffffffffffff1681526020019081526020015f205f6101000a81548160ff0219169083151502179055507f58c3e0504c69d3a92726966f152a771e0f8f6ad4daca1ae9055a38aba1fd2b62816040516109849190611fcb565b60405180910390a150565b60085f9054906101000a900473ffffffffffffffffffffffffffffffffffffffff1681565b5f600560149054906101000a900460ff16905090565b6109d2611464565b6109da6114b3565b7f000000000000000000000000000000000000000000000000000000000000000073ffffffffffffffffffffffffffffffffffffffff163373ffffffffffffffffffffffffffffffffffffffff1614610a68576040517f08c379a0000000000000000000000000000000000000000000000000000000008152600401610a5f9061244a565b60405180910390fd5b818190508484905014610ab0576040517f08c379a0000000000000000000000000000000000000000000000000000000008152600401610aa7906124d8565b60405180910390fd5b5f805f90505b83839050811015610af557838382818110610ad457610ad36124f6565b5b9050602002013582610ae6919061233f565b91508080600101915050610ab6565b506a084595161401484a00000081610b0b6106d5565b610b15919061233f565b1115610b56576040517f08c379a0000000000000000000000000000000000000000000000000000000008152600401610b4d9061256d565b60405180910390fd5b5f5b85859050811015610c4857610bad868683818110610b7957610b786124f6565b5b9050602002016020810190610b8e9190611eba565b858584818110610ba157610ba06124f6565b5b9050602002013561185c565b858582818110610bc057610bbf6124f6565b5b9050602002016020810190610bd59190611eba565b73ffffffffffffffffffffffffffffffffffffffff167f8c32c568416fcf97be35ce5b27844cfddcd63a67a1a602c3595ba5dac38f303a858584818110610c1f57610c1e6124f6565b5b90506020020135604051610c339190611ef4565b60405180910390a28080600101915050610b58565b5050610c526117f0565b50505050565b5f805f8373ffffffffffffffffffffffffffffffffffffffff1673ffffffffffffffffffffffffffffffffffffffff1681526020019081526020015f20549050919050565b610ca5611323565b610cae5f6113a1565b565b610cb8611323565b610cc06119aa565b565b5f60055f9054906101000a900473ffffffffffffffffffffffffffffffffffffffff16905090565b60075481565b606060048054610cff90612183565b80601f0160208091040260200160405190810160405280929190818152602001828054610d2b90612183565b8015610d765780601f10610d4d57610100808354040283529160200191610d76565b820191905f5260205f20905b815481529060010190602001808311610d5957829003601f168201915b5050505050905090565b5f80610d8a611159565b90505f610d978286610e4e565b905083811015610ddc576040517f08c379a0000000000000000000000000000000000000000000000000000000008152600401610dd3906125fb565b60405180910390fd5b610de98286868403611160565b60019250505092915050565b5f610dfe611464565b610e066114b3565b610e18610e11611159565b8484611588565b60019050610e246117f0565b92915050565b7f000000000000000000000000000000000000000000000000000000000000000081565b5f60015f8473ffffffffffffffffffffffffffffffffffffffff1673ffffffffffffffffffffffffffffffffffffffff1681526020019081526020015f205f8373ffffffffffffffffffffffffffffffffffffffff1673ffffffffffffffffffffffffffffffffffffffff1681526020019081526020015f2054905092915050565b610ed8611323565b5f73ffffffffffffffffffffffffffffffffffffffff168173ffffffffffffffffffffffffffffffffffffffff1603610f46576040517f08c379a0000000000000000000000000000000000000000000000000000000008152600401610f3d90612663565b60405180910390fd5b5f8173ffffffffffffffffffffffffffffffffffffffff163b14610f9f576040517f08c379a0000000000000000000000000000000000000000000000000000000008152600401610f96906126f1565b60405180910390fd5b5f60085f9054906101000a900473ffffffffffffffffffffffffffffffffffffffff1690508160085f6101000a81548173ffffffffffffffffffffffffffffffffffffffff021916908373ffffffffffffffffffffffffffffffffffffffff1602179055507faaebcf1bfa00580e41d966056b48521fa9f202645c86d4ddf28113e617c1b1d3818360405161103592919061270f565b60405180910390a15050565b611049611323565b5f60095f8373ffffffffffffffffffffffffffffffffffffffff1673ffffffffffffffffffffffffffffffffffffffff1681526020019081526020015f205f6101000a81548160ff0219169083151502179055507f4f6a6b6efe34ec6478021aa9fb7f6980e78ea3a10c74074a8ce49d5d3ebf1f7e816040516110cc9190611fcb565b60405180910390a150565b6110df611323565b5f73ffffffffffffffffffffffffffffffffffffffff168173ffffffffffffffffffffffffffffffffffffffff160361114d576040517f08c379a0000000000000000000000000000000000000000000000000000000008152600401611144906127a6565b60405180910390fd5b611156816113a1565b50565b5f33905090565b5f73ffffffffffffffffffffffffffffffffffffffff168373ffffffffffffffffffffffffffffffffffffffff16036111ce576040517f08c379a00000000000000000000000000000000000000000000000000000000081526004016111c590612834565b60405180910390fd5b5f73ffffffffffffffffffffffffffffffffffffffff168273ffffffffffffffffffffffffffffffffffffffff160361123c576040517f08c379a0000000000000000000000000000000000000000000000000000000008152600401611233906128c2565b60405180910390fd5b8060015f8573ffffffffffffffffffffffffffffffffffffffff1673ffffffffffffffffffffffffffffffffffffffff1681526020019081526020015f205f8473ffffffffffffffffffffffffffffffffffffffff1673ffffffffffffffffffffffffffffffffffffffff1681526020019081526020015f20819055508173ffffffffffffffffffffffffffffffffffffffff168373ffffffffffffffffffffffffffffffffffffffff167f8c5be1e5ebec7d5bd14f71427d1e84f3dd0314c0f7b2291e5b200ac8c7c3b925836040516113169190611ef4565b60405180910390a3505050565b61132b611159565b73ffffffffffffffffffffffffffffffffffffffff16611349610cc2565b73ffffffffffffffffffffffffffffffffffffffff161461139f576040517f08c379a00000000000000000000000000000000000000000000000000000000081526004016113969061292a565b60405180910390fd5b565b5f60055f9054906101000a900473ffffffffffffffffffffffffffffffffffffffff1690508160055f6101000a81548173ffffffffffffffffffffffffffffffffffffffff021916908373ffffffffffffffffffffffffffffffffffffffff1602179055508173ffffffffffffffffffffffffffffffffffffffff168173ffffffffffffffffffffffffffffffffffffffff167f8be0079c531659141344cd1fd0a4f28419497f9722a3daafe3b4186f6b6457e060405160405180910390a35050565b6002600654036114a9576040517f08c379a00000000000000000000000000000000000000000000000000000000081526004016114a090612992565b60405180910390fd5b6002600681905550565b6114bb6109b4565b156114fb576040517f08c379a00000000000000000000000000000000000000000000000000000000081526004016114f2906129fa565b60405180910390fd5b565b5f6115088484610e4e565b90507fffffffffffffffffffffffffffffffffffffffffffffffffffffffffffffffff81146115825781811015611574576040517f08c379a000000000000000000000000000000000000000000000000000000000815260040161156b90612a62565b60405180910390fd5b6115818484848403611160565b5b50505050565b6115906114b3565b5f73ffffffffffffffffffffffffffffffffffffffff168373ffffffffffffffffffffffffffffffffffffffff16036115fe576040517f08c379a00000000000000000000000000000000000000000000000000000000081526004016115f590612aca565b60405180910390fd5b5f73ffffffffffffffffffffffffffffffffffffffff168273ffffffffffffffffffffffffffffffffffffffff160361166c576040517f08c379a0000000000000000000000000000000000000000000000000000000008152600401611663906122f4565b60405180910390fd5b5f6007541180156116ca57505f73ffffffffffffffffffffffffffffffffffffffff1660085f9054906101000a900473ffffffffffffffffffffffffffffffffffffffff1673ffffffffffffffffffffffffffffffffffffffff1614155b801561171d575060095f8473ffffffffffffffffffffffffffffffffffffffff1673ffffffffffffffffffffffffffffffffffffffff1681526020019081526020015f205f9054906101000a900460ff16155b8015611770575060095f8373ffffffffffffffffffffffffffffffffffffffff1673ffffffffffffffffffffffffffffffffffffffff1681526020019081526020015f205f9054906101000a900460ff16155b156117df575f6064600754836117869190612ae8565b6117909190612b56565b90505f818361179f9190612b86565b90506117cd8560085f9054906101000a900473ffffffffffffffffffffffffffffffffffffffff1684611a0d565b6117d8858583611a0d565b50506117eb565b6117ea838383611a0d565b5b505050565b6001600681905550565b611802611c79565b5f600560146101000a81548160ff0219169083151502179055507f5db9ee0a495bf2e6ff9c91a7834c1ba4fdd244a5e8aa4e537bd38aeae4b073aa611845611159565b6040516118529190611fcb565b60405180910390a1565b5f73ffffffffffffffffffffffffffffffffffffffff168273ffffffffffffffffffffffffffffffffffffffff16036118ca576040517f08c379a00000000000000000000000000000000000000000000000000000000081526004016118c190612c03565b60405180910390fd5b6118d55f8383611cc2565b8060025f8282546118e6919061233f565b92505081905550805f808473ffffffffffffffffffffffffffffffffffffffff1673ffffffffffffffffffffffffffffffffffffffff1681526020019081526020015f205f82825401925050819055508173ffffffffffffffffffffffffffffffffffffffff165f73ffffffffffffffffffffffffffffffffffffffff167fddf252ad1be2c89b69c2b068fc378daa952ba7f163c4a11628f55a4df523b3ef836040516119939190611ef4565b60405180910390a36119a65f8383611d1a565b5050565b6119b26114b3565b6001600560146101000a81548160ff0219169083151502179055507f62e78cea01bee320cd4e420270b5ea74000d11b0c9f74754ebdbfc544b05a2586119f6611159565b604051611a039190611fcb565b60405180910390a1565b5f73ffffffffffffffffffffffffffffffffffffffff168373ffffffffffffffffffffffffffffffffffffffff1603611a7b576040517f08c379a0000000000000000000000000000000000000000000000000000000008152600401611a7290612c91565b60405180910390fd5b5f73ffffffffffffffffffffffffffffffffffffffff168273ffffffffffffffffffffffffffffffffffffffff1603611ae9576040517f08c379a0000000000000000000000000000000000000000000000000000000008152600401611ae090612d1f565b60405180910390fd5b611af4838383611cc2565b5f805f8573ffffffffffffffffffffffffffffffffffffffff1673ffffffffffffffffffffffffffffffffffffffff1681526020019081526020015f2054905081811015611b77576040517f08c379a0000000000000000000000000000000000000000000000000000000008152600401611b6e90612dad565b60405180910390fd5b8181035f808673ffffffffffffffffffffffffffffffffffffffff1673ffffffffffffffffffffffffffffffffffffffff1681526020019081526020015f2081905550815f808573ffffffffffffffffffffffffffffffffffffffff1673ffffffffffffffffffffffffffffffffffffffff1681526020019081526020015f205f82825401925050819055508273ffffffffffffffffffffffffffffffffffffffff168473ffffffffffffffffffffffffffffffffffffffff167fddf252ad1be2c89b69c2b068fc378daa952ba7f163c4a11628f55a4df523b3ef84604051611c609190611ef4565b60405180910390a3611c73848484611d1a565b50505050565b611c816109b4565b611cc0576040517f08c379a0000000000000000000000000000000000000000000000000000000008152600401611cb790612e15565b60405180910390fd5b565b611ccd838383611d1f565b611cd56109b4565b15611d15576040517f08c379a0000000000000000000000000000000000000000000000000000000008152600401611d0c90612ea3565b60405180910390fd5b505050565b505050565b505050565b5f81519050919050565b5f82825260208201905092915050565b8281835e5f83830152505050565b5f601f19601f8301169050919050565b5f611d6682611d24565b611d708185611d2e565b9350611d80818560208601611d3e565b611d8981611d4c565b840191505092915050565b5f6020820190508181035f830152611dac8184611d5c565b905092915050565b5f80fd5b5f80fd5b5f73ffffffffffffffffffffffffffffffffffffffff82169050919050565b5f611de582611dbc565b9050919050565b611df581611ddb565b8114611dff575f80fd5b50565b5f81359050611e1081611dec565b92915050565b5f819050919050565b611e2881611e16565b8114611e32575f80fd5b50565b5f81359050611e4381611e1f565b92915050565b5f8060408385031215611e5f57611e5e611db4565b5b5f611e6c85828601611e02565b9250506020611e7d85828601611e35565b9150509250929050565b5f8115159050919050565b611e9b81611e87565b82525050565b5f602082019050611eb45f830184611e92565b92915050565b5f60208284031215611ecf57611ece611db4565b5b5f611edc84828501611e02565b91505092915050565b611eee81611e16565b82525050565b5f602082019050611f075f830184611ee5565b92915050565b5f60208284031215611f2257611f21611db4565b5b5f611f2f84828501611e35565b91505092915050565b5f805f60608486031215611f4f57611f4e611db4565b5b5f611f5c86828701611e02565b9350506020611f6d86828701611e02565b9250506040611f7e86828701611e35565b9150509250925092565b5f60ff82169050919050565b611f9d81611f88565b82525050565b5f602082019050611fb65f830184611f94565b92915050565b611fc581611ddb565b82525050565b5f602082019050611fde5f830184611fbc565b92915050565b5f80fd5b5f80fd5b5f80fd5b5f8083601f84011261200557612004611fe4565b5b8235905067ffffffffffffffff81111561202257612021611fe8565b5b60208301915083602082028301111561203e5761203d611fec565b5b9250929050565b5f8083601f84011261205a57612059611fe4565b5b8235905067ffffffffffffffff81111561207757612076611fe8565b5b60208301915083602082028301111561209357612092611fec565b5b9250929050565b5f805f80604085870312156120b2576120b1611db4565b5b5f85013567ffffffffffffffff8111156120cf576120ce611db8565b5b6120db87828801611ff0565b9450945050602085013567ffffffffffffffff8111156120fe576120fd611db8565b5b61210a87828801612045565b925092505092959194509250565b5f806040838503121561212e5761212d611db4565b5b5f61213b85828601611e02565b925050602061214c85828601611e02565b9150509250929050565b7f4e487b71000000000000000000000000000000000000000000000000000000005f52602260045260245ffd5b5f600282049050600182168061219a57607f821691505b6020821081036121ad576121ac612156565b5b50919050565b7f5265766f6c74436f696e3a20696e76616c6964206e6577206f776e65720000005f82015250565b5f6121e7601d83611d2e565b91506121f2826121b3565b602082019050919050565b5f6020820190508181035f830152612214816121db565b9050919050565b7f46656520746f6f206869676800000000000000000000000000000000000000005f82015250565b5f61224f600c83611d2e565b915061225a8261221b565b602082019050919050565b5f6020820190508181035f83015261227c81612243565b9050919050565b5f6040820190506122965f830185611ee5565b6122a36020830184611ee5565b9392505050565b7f5265766f6c74436f696e3a207472616e7366657220746f207a65726f000000005f82015250565b5f6122de601c83611d2e565b91506122e9826122aa565b602082019050919050565b5f6020820190508181035f83015261230b816122d2565b9050919050565b7f4e487b71000000000000000000000000000000000000000000000000000000005f52601160045260245ffd5b5f61234982611e16565b915061235483611e16565b925082820190508082111561236c5761236b612312565b5b92915050565b7f45786365656473206d617820737570706c7900000000000000000000000000005f82015250565b5f6123a6601283611d2e565b91506123b182612372565b602082019050919050565b5f6020820190508181035f8301526123d38161239a565b9050919050565b7f5265766f6c74436f696e3a206f6e6c79206465706c6f7965722063616e2061695f8201527f7264726f70000000000000000000000000000000000000000000000000000000602082015250565b5f612434602583611d2e565b915061243f826123da565b604082019050919050565b5f6020820190508181035f83015261246181612428565b9050919050565b7f5265766f6c74436f696e3a2061697264726f7020617272617973206d69736d615f8201527f7463680000000000000000000000000000000000000000000000000000000000602082015250565b5f6124c2602383611d2e565b91506124cd82612468565b604082019050919050565b5f6020820190508181035f8301526124ef816124b6565b9050919050565b7f4e487b71000000000000000000000000000000000000000000000000000000005f52603260045260245ffd5b7f5265766f6c74436f696e3a2065786365656473206d617820737570706c7900005f82015250565b5f612557601e83611d2e565b915061256282612523565b602082019050919050565b5f6020820190508181035f8301526125848161254b565b9050919050565b7f45524332303a2064656372656173656420616c6c6f77616e63652062656c6f775f8201527f207a65726f000000000000000000000000000000000000000000000000000000602082015250565b5f6125e5602583611d2e565b91506125f08261258b565b604082019050919050565b5f6020820190508181035f830152612612816125d9565b9050919050565b7f5265766f6c74436f696e3a20696e76616c6964206164647265737300000000005f82015250565b5f61264d601b83611d2e565b915061265882612619565b602082019050919050565b5f6020820190508181035f83015261267a81612641565b9050919050565b7f5265766f6c74436f696e3a2066656520726563697069656e74206d75737420625f8201527f6520454f41000000000000000000000000000000000000000000000000000000602082015250565b5f6126db602583611d2e565b91506126e682612681565b604082019050919050565b5f6020820190508181035f830152612708816126cf565b9050919050565b5f6040820190506127225f830185611fbc565b61272f6020830184611fbc565b9392505050565b7f4f776e61626c653a206e6577206f776e657220697320746865207a65726f20615f8201527f6464726573730000000000000000000000000000000000000000000000000000602082015250565b5f612790602683611d2e565b915061279b82612736565b604082019050919050565b5f6020820190508181035f8301526127bd81612784565b9050919050565b7f45524332303a20617070726f76652066726f6d20746865207a65726f206164645f8201527f7265737300000000000000000000000000000000000000000000000000000000602082015250565b5f61281e602483611d2e565b9150612829826127c4565b604082019050919050565b5f6020820190508181035f83015261284b81612812565b9050919050565b7f45524332303a20617070726f766520746f20746865207a65726f2061646472655f8201527f7373000000000000000000000000000000000000000000000000000000000000602082015250565b5f6128ac602283611d2e565b91506128b782612852565b604082019050919050565b5f6020820190508181035f8301526128d9816128a0565b9050919050565b7f4f776e61626c653a2063616c6c6572206973206e6f7420746865206f776e65725f82015250565b5f612914602083611d2e565b915061291f826128e0565b602082019050919050565b5f6020820190508181035f83015261294181612908565b9050919050565b7f5265656e7472616e637947756172643a207265656e7472616e742063616c6c005f82015250565b5f61297c601f83611d2e565b915061298782612948565b602082019050919050565b5f6020820190508181035f8301526129a981612970565b9050919050565b7f5061757361626c653a20706175736564000000000000000000000000000000005f82015250565b5f6129e4601083611d2e565b91506129ef826129b0565b602082019050919050565b5f6020820190508181035f830152612a11816129d8565b9050919050565b7f45524332303a20696e73756666696369656e7420616c6c6f77616e63650000005f82015250565b5f612a4c601d83611d2e565b9150612a5782612a18565b602082019050919050565b5f6020820190508181035f830152612a7981612a40565b9050919050565b7f5265766f6c74436f696e3a207472616e736665722066726f6d207a65726f00005f82015250565b5f612ab4601e83611d2e565b9150612abf82612a80565b602082019050919050565b5f6020820190508181035f830152612ae181612aa8565b9050919050565b5f612af282611e16565b9150612afd83611e16565b9250828202612b0b81611e16565b91508282048414831517612b2257612b21612312565b5b5092915050565b7f4e487b71000000000000000000000000000000000000000000000000000000005f52601260045260245ffd5b5f612b6082611e16565b9150612b6b83611e16565b925082612b7b57612b7a612b29565b5b828204905092915050565b5f612b9082611e16565b9150612b9b83611e16565b9250828203905081811115612bb357612bb2612312565b5b92915050565b7f45524332303a206d696e7420746f20746865207a65726f2061646472657373005f82015250565b5f612bed601f83611d2e565b9150612bf882612bb9565b602082019050919050565b5f6020820190508181035f830152612c1a81612be1565b9050919050565b7f45524332303a207472616e736665722066726f6d20746865207a65726f2061645f8201527f6472657373000000000000000000000000000000000000000000000000000000602082015250565b5f612c7b602583611d2e565b9150612c8682612c21565b604082019050919050565b5f6020820190508181035f830152612ca881612c6f565b9050919050565b7f45524332303a207472616e7366657220746f20746865207a65726f20616464725f8201527f6573730000000000000000000000000000000000000000000000000000000000602082015250565b5f612d09602383611d2e565b9150612d1482612caf565b604082019050919050565b5f6020820190508181035f830152612d3681612cfd565b9050919050565b7f45524332303a207472616e7366657220616d6f756e74206578636565647320625f8201527f616c616e63650000000000000000000000000000000000000000000000000000602082015250565b5f612d97602683611d2e565b9150612da282612d3d565b604082019050919050565b5f6020820190508181035f830152612dc481612d8b565b9050919050565b7f5061757361626c653a206e6f74207061757365640000000000000000000000005f82015250565b5f612dff601483611d2e565b9150612e0a82612dcb565b602082019050919050565b5f6020820190508181035f830152612e2c81612df3565b9050919050565b7f5265766f6c74436f696e3a20746f6b656e207472616e73666572207768696c655f8201527f2070617573656400000000000000000000000000000000000000000000000000602082015250565b5f612e8d602783611d2e565b9150612e9882612e33565b604082019050919050565b5f6020820190508181035f830152612eba81612e81565b905091905056fea26469706673582212209726d7b6801079784d43c0193027eb720d2a9eab97f806567a7892b26405a04264736f6c634300081a0033",
			"opcodes": "PUSH1 0xA0 PUSH1 0x40 MSTORE PUSH1 0x2 PUSH1 0x7 SSTORE CALLVALUE DUP1 ISZERO PUSH2 0x14 JUMPI PUSH0 DUP1 REVERT JUMPDEST POP PUSH1 0x40 MLOAD DUP1 PUSH1 0x40 ADD PUSH1 0x40 MSTORE DUP1 PUSH1 0xA DUP2 MSTORE PUSH1 0x20 ADD PUSH32 0x5265766F6C74436F696E00000000000000000000000000000000000000000000 DUP2 MSTORE POP PUSH1 0x40 MLOAD DUP1 PUSH1 0x40 ADD PUSH1 0x40 MSTORE DUP1 PUSH1 0x6 DUP2 MSTORE PUSH1 0x20 ADD PUSH32 0x5265766F6C740000000000000000000000000000000000000000000000000000 DUP2 MSTORE POP DUP2 PUSH1 0x3 SWAP1 DUP2 PUSH2 0x90 SWAP2 SWAP1 PUSH2 0x780 JUMP JUMPDEST POP DUP1 PUSH1 0x4 SWAP1 DUP2 PUSH2 0xA0 SWAP2 SWAP1 PUSH2 0x780 JUMP JUMPDEST POP POP POP PUSH2 0xBF PUSH2 0xB4 PUSH2 0x26E PUSH1 0x20 SHL PUSH1 0x20 SHR JUMP JUMPDEST PUSH2 0x275 PUSH1 0x20 SHL PUSH1 0x20 SHR JUMP JUMPDEST PUSH0 PUSH1 0x5 PUSH1 0x14 PUSH2 0x100 EXP DUP2 SLOAD DUP2 PUSH1 0xFF MUL NOT AND SWAP1 DUP4 ISZERO ISZERO MUL OR SWAP1 SSTORE POP PUSH1 0x1 PUSH1 0x6 DUP2 SWAP1 SSTORE POP CALLER PUSH20 0xFFFFFFFFFFFFFFFFFFFFFFFFFFFFFFFFFFFFFFFF AND PUSH1 0x80 DUP2 PUSH20 0xFFFFFFFFFFFFFFFFFFFFFFFFFFFFFFFFFFFFFFFF AND DUP2 MSTORE POP POP CALLER PUSH1 0x8 PUSH0 PUSH2 0x100 EXP DUP2 SLOAD DUP2 PUSH20 0xFFFFFFFFFFFFFFFFFFFFFFFFFFFFFFFFFFFFFFFF MUL NOT AND SWAP1 DUP4 PUSH20 0xFFFFFFFFFFFFFFFFFFFFFFFFFFFFFFFFFFFFFFFF AND MUL OR SWAP1 SSTORE POP PUSH1 0x1 PUSH1 0x9 PUSH0 PUSH2 0x168 PUSH2 0x338 PUSH1 0x20 SHL PUSH1 0x20 SHR JUMP JUMPDEST PUSH20 0xFFFFFFFFFFFFFFFFFFFFFFFFFFFFFFFFFFFFFFFF AND PUSH20 0xFFFFFFFFFFFFFFFFFFFFFFFFFFFFFFFFFFFFFFFF AND DUP2 MSTORE PUSH1 0x20 ADD SWAP1 DUP2 MSTORE PUSH1 0x20 ADD PUSH0 KECCAK256 PUSH0 PUSH2 0x100 EXP DUP2 SLOAD DUP2 PUSH1 0xFF MUL NOT AND SWAP1 DUP4 ISZERO ISZERO MUL OR SWAP1 SSTORE POP PUSH1 0x1 PUSH1 0x9 PUSH0 PUSH1 0x8 PUSH0 SWAP1 SLOAD SWAP1 PUSH2 0x100 EXP SWAP1 DIV PUSH20 0xFFFFFFFFFFFFFFFFFFFFFFFFFFFFFFFFFFFFFFFF AND PUSH20 0xFFFFFFFFFFFFFFFFFFFFFFFFFFFFFFFFFFFFFFFF AND PUSH20 0xFFFFFFFFFFFFFFFFFFFFFFFFFFFFFFFFFFFFFFFF AND DUP2 MSTORE PUSH1 0x20 ADD SWAP1 DUP2 MSTORE PUSH1 0x20 ADD PUSH0 KECCAK256 PUSH0 PUSH2 0x100 EXP DUP2 SLOAD DUP2 PUSH1 0xFF MUL NOT AND SWAP1 DUP4 ISZERO ISZERO MUL OR SWAP1 SSTORE POP PUSH0 PUSH2 0x23C PUSH2 0x360 PUSH1 0x20 SHL PUSH1 0x20 SHR JUMP JUMPDEST PUSH1 0xA PUSH2 0x248 SWAP2 SWAP1 PUSH2 0x9B7 JUMP JUMPDEST PUSH3 0xF4240 PUSH2 0x256 SWAP2 SWAP1 PUSH2 0xA01 JUMP JUMPDEST SWAP1 POP PUSH2 0x268 CALLER DUP3 PUSH2 0x368 PUSH1 0x20 SHL PUSH1 0x20 SHR JUMP JUMPDEST POP PUSH2 0xBA3 JUMP JUMPDEST PUSH0 CALLER SWAP1 POP SWAP1 JUMP JUMPDEST PUSH0 PUSH1 0x5 PUSH0 SWAP1 SLOAD SWAP1 PUSH2 0x100 EXP SWAP1 DIV PUSH20 0xFFFFFFFFFFFFFFFFFFFFFFFFFFFFFFFFFFFFFFFF AND SWAP1 POP DUP2 PUSH1 0x5 PUSH0 PUSH2 0x100 EXP DUP2 SLOAD DUP2 PUSH20 0xFFFFFFFFFFFFFFFFFFFFFFFFFFFFFFFFFFFFFFFF MUL NOT AND SWAP1 DUP4 PUSH20 0xFFFFFFFFFFFFFFFFFFFFFFFFFFFFFFFFFFFFFFFF AND MUL OR SWAP1 SSTORE POP DUP2 PUSH20 0xFFFFFFFFFFFFFFFFFFFFFFFFFFFFFFFFFFFFFFFF AND DUP2 PUSH20 0xFFFFFFFFFFFFFFFFFFFFFFFFFFFFFFFFFFFFFFFF AND PUSH32 0x8BE0079C531659141344CD1FD0A4F28419497F9722A3DAAFE3B4186F6B6457E0 PUSH1 0x40 MLOAD PUSH1 0x40 MLOAD DUP1 SWAP2 SUB SWAP1 LOG3 POP POP JUMP JUMPDEST PUSH0 PUSH1 0x5 PUSH0 SWAP1 SLOAD SWAP1 PUSH2 0x100 EXP SWAP1 DIV PUSH20 0xFFFFFFFFFFFFFFFFFFFFFFFFFFFFFFFFFFFFFFFF AND SWAP1 POP SWAP1 JUMP JUMPDEST PUSH0 PUSH1 0x12 SWAP1 POP SWAP1 JUMP JUMPDEST PUSH0 PUSH20 0xFFFFFFFFFFFFFFFFFFFFFFFFFFFFFFFFFFFFFFFF AND DUP3 PUSH20 0xFFFFFFFFFFFFFFFFFFFFFFFFFFFFFFFFFFFFFFFF AND SUB PUSH2 0x3D6 JUMPI PUSH1 0x40 MLOAD PUSH32 0x8C379A000000000000000000000000000000000000000000000000000000000 DUP2 MSTORE PUSH1 0x4 ADD PUSH2 0x3CD SWAP1 PUSH2 0xA9C JUMP JUMPDEST PUSH1 0x40 MLOAD DUP1 SWAP2 SUB SWAP1 REVERT JUMPDEST PUSH2 0x3E7 PUSH0 DUP4 DUP4 PUSH2 0x4C2 PUSH1 0x20 SHL PUSH1 0x20 SHR JUMP JUMPDEST DUP1 PUSH1 0x2 PUSH0 DUP3 DUP3 SLOAD PUSH2 0x3F8 SWAP2 SWAP1 PUSH2 0xABA JUMP JUMPDEST SWAP3 POP POP DUP2 SWAP1 SSTORE POP DUP1 PUSH0 DUP1 DUP5 PUSH20 0xFFFFFFFFFFFFFFFFFFFFFFFFFFFFFFFFFFFFFFFF AND PUSH20 0xFFFFFFFFFFFFFFFFFFFFFFFFFFFFFFFFFFFFFFFF AND DUP2 MSTORE PUSH1 0x20 ADD SWAP1 DUP2 MSTORE PUSH1 0x20 ADD PUSH0 KECCAK256 PUSH0 DUP3 DUP3 SLOAD ADD SWAP3 POP POP DUP2 SWAP1 SSTORE POP DUP2 PUSH20 0xFFFFFFFFFFFFFFFFFFFFFFFFFFFFFFFFFFFFFFFF AND PUSH0 PUSH20 0xFFFFFFFFFFFFFFFFFFFFFFFFFFFFFFFFFFFFFFFF AND PUSH32 0xDDF252AD1BE2C89B69C2B068FC378DAA952BA7F163C4A11628F55A4DF523B3EF DUP4 PUSH1 0x40 MLOAD PUSH2 0x4A5 SWAP2 SWAP1 PUSH2 0xAFC JUMP JUMPDEST PUSH1 0x40 MLOAD DUP1 SWAP2 SUB SWAP1 LOG3 PUSH2 0x4BE PUSH0 DUP4 DUP4 PUSH2 0x526 PUSH1 0x20 SHL PUSH1 0x20 SHR JUMP JUMPDEST POP POP JUMP JUMPDEST PUSH2 0x4D3 DUP4 DUP4 DUP4 PUSH2 0x52B PUSH1 0x20 SHL PUSH1 0x20 SHR JUMP JUMPDEST PUSH2 0x4E1 PUSH2 0x530 PUSH1 0x20 SHL PUSH1 0x20 SHR JUMP JUMPDEST ISZERO PUSH2 0x521 JUMPI PUSH1 0x40 MLOAD PUSH32 0x8C379A000000000000000000000000000000000000000000000000000000000 DUP2 MSTORE PUSH1 0x4 ADD PUSH2 0x518 SWAP1 PUSH2 0xB85 JUMP JUMPDEST PUSH1 0x40 MLOAD DUP1 SWAP2 SUB SWAP1 REVERT JUMPDEST POP POP POP JUMP JUMPDEST POP POP POP JUMP JUMPDEST POP POP POP JUMP JUMPDEST PUSH0 PUSH1 0x5 PUSH1 0x14 SWAP1 SLOAD SWAP1 PUSH2 0x100 EXP SWAP1 DIV PUSH1 0xFF AND SWAP1 POP SWAP1 JUMP JUMPDEST PUSH0 DUP2 MLOAD SWAP1 POP SWAP2 SWAP1 POP JUMP JUMPDEST PUSH32 0x4E487B7100000000000000000000000000000000000000000000000000000000 PUSH0 MSTORE PUSH1 0x41 PUSH1 0x4 MSTORE PUSH1 0x24 PUSH0 REVERT JUMPDEST PUSH32 0x4E487B7100000000000000000000000000000000000000000000000000000000 PUSH0 MSTORE PUSH1 0x22 PUSH1 0x4 MSTORE PUSH1 0x24 PUSH0 REVERT JUMPDEST PUSH0 PUSH1 0x2 DUP3 DIV SWAP1 POP PUSH1 0x1 DUP3 AND DUP1 PUSH2 0x5C1 JUMPI PUSH1 0x7F DUP3 AND SWAP2 POP JUMPDEST PUSH1 0x20 DUP3 LT DUP2 SUB PUSH2 0x5D4 JUMPI PUSH2 0x5D3 PUSH2 0x57D JUMP JUMPDEST JUMPDEST POP SWAP2 SWAP1 POP JUMP JUMPDEST PUSH0 DUP2 SWAP1 POP DUP2 PUSH0 MSTORE PUSH1 0x20 PUSH0 KECCAK256 SWAP1 POP SWAP2 SWAP1 POP JUMP JUMPDEST PUSH0 PUSH1 0x20 PUSH1 0x1F DUP4 ADD DIV SWAP1 POP SWAP2 SWAP1 POP JUMP JUMPDEST PUSH0 DUP3 DUP3 SHL SWAP1 POP SWAP3 SWAP2 POP POP JUMP JUMPDEST PUSH0 PUSH1 0x8 DUP4 MUL PUSH2 0x636 PUSH32 0xFFFFFFFFFFFFFFFFFFFFFFFFFFFFFFFFFFFFFFFFFFFFFFFFFFFFFFFFFFFFFFFF DUP3 PUSH2 0x5FB JUMP JUMPDEST PUSH2 0x640 DUP7 DUP4 PUSH2 0x5FB JUMP JUMPDEST SWAP6 POP DUP1 NOT DUP5 AND SWAP4 POP DUP1 DUP7 AND DUP5 OR SWAP3 POP POP POP SWAP4 SWAP3 POP POP POP JUMP JUMPDEST PUSH0 DUP2 SWAP1 POP SWAP2 SWAP1 POP JUMP JUMPDEST PUSH0 DUP2 SWAP1 POP SWAP2 SWAP1 POP JUMP JUMPDEST PUSH0 PUSH2 0x684 PUSH2 0x67F PUSH2 0x67A DUP5 PUSH2 0x658 JUMP JUMPDEST PUSH2 0x661 JUMP JUMPDEST PUSH2 0x658 JUMP JUMPDEST SWAP1 POP SWAP2 SWAP1 POP JUMP JUMPDEST PUSH0 DUP2 SWAP1 POP SWAP2 SWAP1 POP JUMP JUMPDEST PUSH2 0x69D DUP4 PUSH2 0x66A JUMP JUMPDEST PUSH2 0x6B1 PUSH2 0x6A9 DUP3 PUSH2 0x68B JUMP JUMPDEST DUP5 DUP5 SLOAD PUSH2 0x607 JUMP JUMPDEST DUP3 SSTORE POP POP POP POP JUMP JUMPDEST PUSH0 SWAP1 JUMP JUMPDEST PUSH2 0x6C5 PUSH2 0x6B9 JUMP JUMPDEST PUSH2 0x6D0 DUP2 DUP5 DUP5 PUSH2 0x694 JUMP JUMPDEST POP POP POP JUMP JUMPDEST JUMPDEST DUP2 DUP2 LT ISZERO PUSH2 0x6F3 JUMPI PUSH2 0x6E8 PUSH0 DUP3 PUSH2 0x6BD JUMP JUMPDEST PUSH1 0x1 DUP2 ADD SWAP1 POP PUSH2 0x6D6 JUMP JUMPDEST POP POP JUMP JUMPDEST PUSH1 0x1F DUP3 GT ISZERO PUSH2 0x738 JUMPI PUSH2 0x709 DUP2 PUSH2 0x5DA JUMP JUMPDEST PUSH2 0x712 DUP5 PUSH2 0x5EC JUMP JUMPDEST DUP2 ADD PUSH1 0x20 DUP6 LT ISZERO PUSH2 0x721 JUMPI DUP2 SWAP1 POP JUMPDEST PUSH2 0x735 PUSH2 0x72D DUP6 PUSH2 0x5EC JUMP JUMPDEST DUP4 ADD DUP3 PUSH2 0x6D5 JUMP JUMPDEST POP POP JUMPDEST POP POP POP JUMP JUMPDEST PUSH0 DUP3 DUP3 SHR SWAP1 POP SWAP3 SWAP2 POP POP JUMP JUMPDEST PUSH0 PUSH2 0x758 PUSH0 NOT DUP5 PUSH1 0x8 MUL PUSH2 0x73D JUMP JUMPDEST NOT DUP1 DUP4 AND SWAP2 POP POP SWAP3 SWAP2 POP POP JUMP JUMPDEST PUSH0 PUSH2 0x770 DUP4 DUP4 PUSH2 0x749 JUMP JUMPDEST SWAP2 POP DUP3 PUSH1 0x2 MUL DUP3 OR SWAP1 POP SWAP3 SWAP2 POP POP JUMP JUMPDEST PUSH2 0x789 DUP3 PUSH2 0x546 JUMP JUMPDEST PUSH8 0xFFFFFFFFFFFFFFFF DUP2 GT ISZERO PUSH2 0x7A2 JUMPI PUSH2 0x7A1 PUSH2 0x550 JUMP JUMPDEST JUMPDEST PUSH2 0x7AC DUP3 SLOAD PUSH2 0x5AA JUMP JUMPDEST PUSH2 0x7B7 DUP3 DUP3 DUP6 PUSH2 0x6F7 JUMP JUMPDEST PUSH0 PUSH1 0x20 SWAP1 POP PUSH1 0x1F DUP4 GT PUSH1 0x1 DUP2 EQ PUSH2 0x7E8 JUMPI PUSH0 DUP5 ISZERO PUSH2 0x7D6 JUMPI DUP3 DUP8 ADD MLOAD SWAP1 POP JUMPDEST PUSH2 0x7E0 DUP6 DUP3 PUSH2 0x765 JUMP JUMPDEST DUP7 SSTORE POP PUSH2 0x847 JUMP JUMPDEST PUSH1 0x1F NOT DUP5 AND PUSH2 0x7F6 DUP7 PUSH2 0x5DA JUMP JUMPDEST PUSH0 JUMPDEST DUP3 DUP2 LT ISZERO PUSH2 0x81D JUMPI DUP5 DUP10 ADD MLOAD DUP3 SSTORE PUSH1 0x1 DUP3 ADD SWAP2 POP PUSH1 0x20 DUP6 ADD SWAP5 POP PUSH1 0x20 DUP2 ADD SWAP1 POP PUSH2 0x7F8 JUMP JUMPDEST DUP7 DUP4 LT ISZERO PUSH2 0x83A JUMPI DUP5 DUP10 ADD MLOAD PUSH2 0x836 PUSH1 0x1F DUP10 AND DUP3 PUSH2 0x749 JUMP JUMPDEST DUP4 SSTORE POP JUMPDEST PUSH1 0x1 PUSH1 0x2 DUP9 MUL ADD DUP9 SSTORE POP POP POP JUMPDEST POP POP POP POP POP POP JUMP JUMPDEST PUSH32 0x4E487B7100000000000000000000000000000000000000000000000000000000 PUSH0 MSTORE PUSH1 0x11 PUSH1 0x4 MSTORE PUSH1 0x24 PUSH0 REVERT JUMPDEST PUSH0 DUP2 PUSH1 0x1 SHR SWAP1 POP SWAP2 SWAP1 POP JUMP JUMPDEST PUSH0 DUP1 DUP3 SWAP2 POP DUP4 SWAP1 POP JUMPDEST PUSH1 0x1 DUP6 GT ISZERO PUSH2 0x8D1 JUMPI DUP1 DUP7 DIV DUP2 GT ISZERO PUSH2 0x8AD JUMPI PUSH2 0x8AC PUSH2 0x84F JUMP JUMPDEST JUMPDEST PUSH1 0x1 DUP6 AND ISZERO PUSH2 0x8BC JUMPI DUP1 DUP3 MUL SWAP2 POP JUMPDEST DUP1 DUP2 MUL SWAP1 POP PUSH2 0x8CA DUP6 PUSH2 0x87C JUMP JUMPDEST SWAP5 POP PUSH2 0x891 JUMP JUMPDEST SWAP5 POP SWAP5 SWAP3 POP POP POP JUMP JUMPDEST PUSH0 DUP3 PUSH2 0x8E9 JUMPI PUSH1 0x1 SWAP1 POP PUSH2 0x9A4 JUMP JUMPDEST DUP2 PUSH2 0x8F6 JUMPI PUSH0 SWAP1 POP PUSH2 0x9A4 JUMP JUMPDEST DUP2 PUSH1 0x1 DUP2 EQ PUSH2 0x90C JUMPI PUSH1 0x2 DUP2 EQ PUSH2 0x916 JUMPI PUSH2 0x945 JUMP JUMPDEST PUSH1 0x1 SWAP2 POP POP PUSH2 0x9A4 JUMP JUMPDEST PUSH1 0xFF DUP5 GT ISZERO PUSH2 0x928 JUMPI PUSH2 0x927 PUSH2 0x84F JUMP JUMPDEST JUMPDEST DUP4 PUSH1 0x2 EXP SWAP2 POP DUP5 DUP3 GT ISZERO PUSH2 0x93F JUMPI PUSH2 0x93E PUSH2 0x84F JUMP JUMPDEST JUMPDEST POP PUSH2 0x9A4 JUMP JUMPDEST POP PUSH1 0x20 DUP4 LT PUSH2 0x133 DUP4 LT AND PUSH1 0x4E DUP5 LT PUSH1 0xB DUP5 LT AND OR ISZERO PUSH2 0x97A JUMPI DUP3 DUP3 EXP SWAP1 POP DUP4 DUP2 GT ISZERO PUSH2 0x975 JUMPI PUSH2 0x974 PUSH2 0x84F JUMP JUMPDEST JUMPDEST PUSH2 0x9A4 JUMP JUMPDEST PUSH2 0x987 DUP5 DUP5 DUP5 PUSH1 0x1 PUSH2 0x888 JUMP JUMPDEST SWAP3 POP SWAP1 POP DUP2 DUP5 DIV DUP2 GT ISZERO PUSH2 0x99E JUMPI PUSH2 0x99D PUSH2 0x84F JUMP JUMPDEST JUMPDEST DUP2 DUP2 MUL SWAP1 POP JUMPDEST SWAP4 SWAP3 POP POP POP JUMP JUMPDEST PUSH0 PUSH1 0xFF DUP3 AND SWAP1 POP SWAP2 SWAP1 POP JUMP JUMPDEST PUSH0 PUSH2 0x9C1 DUP3 PUSH2 0x658 JUMP JUMPDEST SWAP2 POP PUSH2 0x9CC DUP4 PUSH2 0x9AB JUMP JUMPDEST SWAP3 POP PUSH2 0x9F9 PUSH32 0xFFFFFFFFFFFFFFFFFFFFFFFFFFFFFFFFFFFFFFFFFFFFFFFFFFFFFFFFFFFFFFFF DUP5 DUP5 PUSH2 0x8DA JUMP JUMPDEST SWAP1 POP SWAP3 SWAP2 POP POP JUMP JUMPDEST PUSH0 PUSH2 0xA0B DUP3 PUSH2 0x658 JUMP JUMPDEST SWAP2 POP PUSH2 0xA16 DUP4 PUSH2 0x658 JUMP JUMPDEST SWAP3 POP DUP3 DUP3 MUL PUSH2 0xA24 DUP2 PUSH2 0x658 JUMP JUMPDEST SWAP2 POP DUP3 DUP3 DIV DUP5 EQ DUP4 ISZERO OR PUSH2 0xA3B JUMPI PUSH2 0xA3A PUSH2 0x84F JUMP JUMPDEST JUMPDEST POP SWAP3 SWAP2 POP POP JUMP JUMPDEST PUSH0 DUP3 DUP3 MSTORE PUSH1 0x20 DUP3 ADD SWAP1 POP SWAP3 SWAP2 POP POP JUMP JUMPDEST PUSH32 0x45524332303A206D696E7420746F20746865207A65726F206164647265737300 PUSH0 DUP3 ADD MSTORE POP JUMP JUMPDEST PUSH0 PUSH2 0xA86 PUSH1 0x1F DUP4 PUSH2 0xA42 JUMP JUMPDEST SWAP2 POP PUSH2 0xA91 DUP3 PUSH2 0xA52 JUMP JUMPDEST PUSH1 0x20 DUP3 ADD SWAP1 POP SWAP2 SWAP1 POP JUMP JUMPDEST PUSH0 PUSH1 0x20 DUP3 ADD SWAP1 POP DUP2 DUP2 SUB PUSH0 DUP4 ADD MSTORE PUSH2 0xAB3 DUP2 PUSH2 0xA7A JUMP JUMPDEST SWAP1 POP SWAP2 SWAP1 POP JUMP JUMPDEST PUSH0 PUSH2 0xAC4 DUP3 PUSH2 0x658 JUMP JUMPDEST SWAP2 POP PUSH2 0xACF DUP4 PUSH2 0x658 JUMP JUMPDEST SWAP3 POP DUP3 DUP3 ADD SWAP1 POP DUP1 DUP3 GT ISZERO PUSH2 0xAE7 JUMPI PUSH2 0xAE6 PUSH2 0x84F JUMP JUMPDEST JUMPDEST SWAP3 SWAP2 POP POP JUMP JUMPDEST PUSH2 0xAF6 DUP2 PUSH2 0x658 JUMP JUMPDEST DUP3 MSTORE POP POP JUMP JUMPDEST PUSH0 PUSH1 0x20 DUP3 ADD SWAP1 POP PUSH2 0xB0F PUSH0 DUP4 ADD DUP5 PUSH2 0xAED JUMP JUMPDEST SWAP3 SWAP2 POP POP JUMP JUMPDEST PUSH32 0x5265766F6C74436F696E3A20746F6B656E207472616E73666572207768696C65 PUSH0 DUP3 ADD MSTORE PUSH32 0x2070617573656400000000000000000000000000000000000000000000000000 PUSH1 0x20 DUP3 ADD MSTORE POP JUMP JUMPDEST PUSH0 PUSH2 0xB6F PUSH1 0x27 DUP4 PUSH2 0xA42 JUMP JUMPDEST SWAP2 POP PUSH2 0xB7A DUP3 PUSH2 0xB15 JUMP JUMPDEST PUSH1 0x40 DUP3 ADD SWAP1 POP SWAP2 SWAP1 POP JUMP JUMPDEST PUSH0 PUSH1 0x20 DUP3 ADD SWAP1 POP DUP2 DUP2 SUB PUSH0 DUP4 ADD MSTORE PUSH2 0xB9C DUP2 PUSH2 0xB63 JUMP JUMPDEST SWAP1 POP SWAP2 SWAP1 POP JUMP JUMPDEST PUSH1 0x80 MLOAD PUSH2 0x2EF7 PUSH2 0xBC2 PUSH0 CODECOPY PUSH0 DUP2 DUP2 PUSH2 0x9DC ADD MSTORE PUSH2 0xE2C ADD MSTORE PUSH2 0x2EF7 PUSH0 RETURN INVALID PUSH1 0x80 PUSH1 0x40 MSTORE CALLVALUE DUP1 ISZERO PUSH2 0xF JUMPI PUSH0 DUP1 REVERT JUMPDEST POP PUSH1 0x4 CALLDATASIZE LT PUSH2 0x1C2 JUMPI PUSH0 CALLDATALOAD PUSH1 0xE0 SHR DUP1 PUSH4 0x67243482 GT PUSH2 0xF7 JUMPI DUP1 PUSH4 0xA457C2D7 GT PUSH2 0x95 JUMPI DUP1 PUSH4 0xDD62ED3E GT PUSH2 0x6F JUMPI DUP1 PUSH4 0xDD62ED3E EQ PUSH2 0x4BC JUMPI DUP1 PUSH4 0xE74B981B EQ PUSH2 0x4EC JUMPI DUP1 PUSH4 0xEA2F0B37 EQ PUSH2 0x508 JUMPI DUP1 PUSH4 0xF2FDE38B EQ PUSH2 0x524 JUMPI PUSH2 0x1C2 JUMP JUMPDEST DUP1 PUSH4 0xA457C2D7 EQ PUSH2 0x43E JUMPI DUP1 PUSH4 0xA9059CBB EQ PUSH2 0x46E JUMPI DUP1 PUSH4 0xD5F39488 EQ PUSH2 0x49E JUMPI PUSH2 0x1C2 JUMP JUMPDEST DUP1 PUSH4 0x8456CB59 GT PUSH2 0xD1 JUMPI DUP1 PUSH4 0x8456CB59 EQ PUSH2 0x3DA JUMPI DUP1 PUSH4 0x8DA5CB5B EQ PUSH2 0x3E4 JUMPI DUP1 PUSH4 0x94544E64 EQ PUSH2 0x402 JUMPI DUP1 PUSH4 0x95D89B41 EQ PUSH2 0x420 JUMPI PUSH2 0x1C2 JUMP JUMPDEST DUP1 PUSH4 0x67243482 EQ PUSH2 0x384 JUMPI DUP1 PUSH4 0x70A08231 EQ PUSH2 0x3A0 JUMPI DUP1 PUSH4 0x715018A6 EQ PUSH2 0x3D0 JUMPI PUSH2 0x1C2 JUMP JUMPDEST DUP1 PUSH4 0x32CB6B0C GT PUSH2 0x164 JUMPI DUP1 PUSH4 0x40C10F19 GT PUSH2 0x13E JUMPI DUP1 PUSH4 0x40C10F19 EQ PUSH2 0x310 JUMPI DUP1 PUSH4 0x437823EC EQ PUSH2 0x32C JUMPI DUP1 PUSH4 0x46904840 EQ PUSH2 0x348 JUMPI DUP1 PUSH4 0x5C975ABB EQ PUSH2 0x366 JUMPI PUSH2 0x1C2 JUMP JUMPDEST DUP1 PUSH4 0x32CB6B0C EQ PUSH2 0x2B8 JUMPI DUP1 PUSH4 0x39509351 EQ PUSH2 0x2D6 JUMPI DUP1 PUSH4 0x3F4BA83A EQ PUSH2 0x306 JUMPI PUSH2 0x1C2 JUMP JUMPDEST DUP1 PUSH4 0x18160DDD GT PUSH2 0x1A0 JUMPI DUP1 PUSH4 0x18160DDD EQ PUSH2 0x230 JUMPI DUP1 PUSH4 0x1F36D925 EQ PUSH2 0x24E JUMPI DUP1 PUSH4 0x23B872DD EQ PUSH2 0x26A JUMPI DUP1 PUSH4 0x313CE567 EQ PUSH2 0x29A JUMPI PUSH2 0x1C2 JUMP JUMPDEST DUP1 PUSH4 0x6FDDE03 EQ PUSH2 0x1C6 JUMPI DUP1 PUSH4 0x95EA7B3 EQ PUSH2 0x1E4 JUMPI DUP1 PUSH4 0x1815C208 EQ PUSH2 0x214 JUMPI JUMPDEST PUSH0 DUP1 REVERT JUMPDEST PUSH2 0x1CE PUSH2 0x540 JUMP JUMPDEST PUSH1 0x40 MLOAD PUSH2 0x1DB SWAP2 SWAP1 PUSH2 0x1D94 JUMP JUMPDEST PUSH1 0x40 MLOAD DUP1 SWAP2 SUB SWAP1 RETURN JUMPDEST PUSH2 0x1FE PUSH1 0x4 DUP1 CALLDATASIZE SUB DUP2 ADD SWAP1 PUSH2 0x1F9 SWAP2 SWAP1 PUSH2 0x1E49 JUMP JUMPDEST PUSH2 0x5D0 JUMP JUMPDEST PUSH1 0x40 MLOAD PUSH2 0x20B SWAP2 SWAP1 PUSH2 0x1EA1 JUMP JUMPDEST PUSH1 0x40 MLOAD DUP1 SWAP2 SUB SWAP1 RETURN JUMPDEST PUSH2 0x22E PUSH1 0x4 DUP1 CALLDATASIZE SUB DUP2 ADD SWAP1 PUSH2 0x229 SWAP2 SWAP1 PUSH2 0x1EBA JUMP JUMPDEST PUSH2 0x5F2 JUMP JUMPDEST STOP JUMPDEST PUSH2 0x238 PUSH2 0x6D5 JUMP JUMPDEST PUSH1 0x40 MLOAD PUSH2 0x245 SWAP2 SWAP1 PUSH2 0x1EF4 JUMP JUMPDEST PUSH1 0x40 MLOAD DUP1 SWAP2 SUB SWAP1 RETURN JUMPDEST PUSH2 0x268 PUSH1 0x4 DUP1 CALLDATASIZE SUB DUP2 ADD SWAP1 PUSH2 0x263 SWAP2 SWAP1 PUSH2 0x1F0D JUMP JUMPDEST PUSH2 0x6DE JUMP JUMPDEST STOP JUMPDEST PUSH2 0x284 PUSH1 0x4 DUP1 CALLDATASIZE SUB DUP2 ADD SWAP1 PUSH2 0x27F SWAP2 SWAP1 PUSH2 0x1F38 JUMP JUMPDEST PUSH2 0x774 JUMP JUMPDEST PUSH1 0x40 MLOAD PUSH2 0x291 SWAP2 SWAP1 PUSH2 0x1EA1 JUMP JUMPDEST PUSH1 0x40 MLOAD DUP1 SWAP2 SUB SWAP1 RETURN JUMPDEST PUSH2 0x2A2 PUSH2 0x823 JUMP JUMPDEST PUSH1 0x40 MLOAD PUSH2 0x2AF SWAP2 SWAP1 PUSH2 0x1FA3 JUMP JUMPDEST PUSH1 0x40 MLOAD DUP1 SWAP2 SUB SWAP1 RETURN JUMPDEST PUSH2 0x2C0 PUSH2 0x82B JUMP JUMPDEST PUSH1 0x40 MLOAD PUSH2 0x2CD SWAP2 SWAP1 PUSH2 0x1EF4 JUMP JUMPDEST PUSH1 0x40 MLOAD DUP1 SWAP2 SUB SWAP1 RETURN JUMPDEST PUSH2 0x2F0 PUSH1 0x4 DUP1 CALLDATASIZE SUB DUP2 ADD SWAP1 PUSH2 0x2EB SWAP2 SWAP1 PUSH2 0x1E49 JUMP JUMPDEST PUSH2 0x83A JUMP JUMPDEST PUSH1 0x40 MLOAD PUSH2 0x2FD SWAP2 SWAP1 PUSH2 0x1EA1 JUMP JUMPDEST PUSH1 0x40 MLOAD DUP1 SWAP2 SUB SWAP1 RETURN JUMPDEST PUSH2 0x30E PUSH2 0x870 JUMP JUMPDEST STOP JUMPDEST PUSH2 0x32A PUSH1 0x4 DUP1 CALLDATASIZE SUB DUP2 ADD SWAP1 PUSH2 0x325 SWAP2 SWAP1 PUSH2 0x1E49 JUMP JUMPDEST PUSH2 0x882 JUMP JUMPDEST STOP JUMPDEST PUSH2 0x346 PUSH1 0x4 DUP1 CALLDATASIZE SUB DUP2 ADD SWAP1 PUSH2 0x341 SWAP2 SWAP1 PUSH2 0x1EBA JUMP JUMPDEST PUSH2 0x8F8 JUMP JUMPDEST STOP JUMPDEST PUSH2 0x350 PUSH2 0x98F JUMP JUMPDEST PUSH1 0x40 MLOAD PUSH2 0x35D SWAP2 SWAP1 PUSH2 0x1FCB JUMP JUMPDEST PUSH1 0x40 MLOAD DUP1 SWAP2 SUB SWAP1 RETURN JUMPDEST PUSH2 0x36E PUSH2 0x9B4 JUMP JUMPDEST PUSH1 0x40 MLOAD PUSH2 0x37B SWAP2 SWAP1 PUSH2 0x1EA1 JUMP JUMPDEST PUSH1 0x40 MLOAD DUP1 SWAP2 SUB SWAP1 RETURN JUMPDEST PUSH2 0x39E PUSH1 0x4 DUP1 CALLDATASIZE SUB DUP2 ADD SWAP1 PUSH2 0x399 SWAP2 SWAP1 PUSH2 0x209A JUMP JUMPDEST PUSH2 0x9CA JUMP JUMPDEST STOP JUMPDEST PUSH2 0x3BA PUSH1 0x4 DUP1 CALLDATASIZE SUB DUP2 ADD SWAP1 PUSH2 0x3B5 SWAP2 SWAP1 PUSH2 0x1EBA JUMP JUMPDEST PUSH2 0xC58 JUMP JUMPDEST PUSH1 0x40 MLOAD PUSH2 0x3C7 SWAP2 SWAP1 PUSH2 0x1EF4 JUMP JUMPDEST PUSH1 0x40 MLOAD DUP1 SWAP2 SUB SWAP1 RETURN JUMPDEST PUSH2 0x3D8 PUSH2 0xC9D JUMP JUMPDEST STOP JUMPDEST PUSH2 0x3E2 PUSH2 0xCB0 JUMP JUMPDEST STOP JUMPDEST PUSH2 0x3EC PUSH2 0xCC2 JUMP JUMPDEST PUSH1 0x40 MLOAD PUSH2 0x3F9 SWAP2 SWAP1 PUSH2 0x1FCB JUMP JUMPDEST PUSH1 0x40 MLOAD DUP1 SWAP2 SUB SWAP1 RETURN JUMPDEST PUSH2 0x40A PUSH2 0xCEA JUMP JUMPDEST PUSH1 0x40 MLOAD PUSH2 0x417 SWAP2 SWAP1 PUSH2 0x1EF4 JUMP JUMPDEST PUSH1 0x40 MLOAD DUP1 SWAP2 SUB SWAP1 RETURN JUMPDEST PUSH2 0x428 PUSH2 0xCF0 JUMP JUMPDEST PUSH1 0x40 MLOAD PUSH2 0x435 SWAP2 SWAP1 PUSH2 0x1D94 JUMP JUMPDEST PUSH1 0x40 MLOAD DUP1 SWAP2 SUB SWAP1 RETURN JUMPDEST PUSH2 0x458 PUSH1 0x4 DUP1 CALLDATASIZE SUB DUP2 ADD SWAP1 PUSH2 0x453 SWAP2 SWAP1 PUSH2 0x1E49 JUMP JUMPDEST PUSH2 0xD80 JUMP JUMPDEST PUSH1 0x40 MLOAD PUSH2 0x465 SWAP2 SWAP1 PUSH2 0x1EA1 JUMP JUMPDEST PUSH1 0x40 MLOAD DUP1 SWAP2 SUB SWAP1 RETURN JUMPDEST PUSH2 0x488 PUSH1 0x4 DUP1 CALLDATASIZE SUB DUP2 ADD SWAP1 PUSH2 0x483 SWAP2 SWAP1 PUSH2 0x1E49 JUMP JUMPDEST PUSH2 0xDF5 JUMP JUMPDEST PUSH1 0x40 MLOAD PUSH2 0x495 SWAP2 SWAP1 PUSH2 0x1EA1 JUMP JUMPDEST PUSH1 0x40 MLOAD DUP1 SWAP2 SUB SWAP1 RETURN JUMPDEST PUSH2 0x4A6 PUSH2 0xE2A JUMP JUMPDEST PUSH1 0x40 MLOAD PUSH2 0x4B3 SWAP2 SWAP1 PUSH2 0x1FCB JUMP JUMPDEST PUSH1 0x40 MLOAD DUP1 SWAP2 SUB SWAP1 RETURN JUMPDEST PUSH2 0x4D6 PUSH1 0x4 DUP1 CALLDATASIZE SUB DUP2 ADD SWAP1 PUSH2 0x4D1 SWAP2 SWAP1 PUSH2 0x2118 JUMP JUMPDEST PUSH2 0xE4E JUMP JUMPDEST PUSH1 0x40 MLOAD PUSH2 0x4E3 SWAP2 SWAP1 PUSH2 0x1EF4 JUMP JUMPDEST PUSH1 0x40 MLOAD DUP1 SWAP2 SUB SWAP1 RETURN JUMPDEST PUSH2 0x506 PUSH1 0x4 DUP1 CALLDATASIZE SUB DUP2 ADD SWAP1 PUSH2 0x501 SWAP2 SWAP1 PUSH2 0x1EBA JUMP JUMPDEST PUSH2 0xED0 JUMP JUMPDEST STOP JUMPDEST PUSH2 0x522 PUSH1 0x4 DUP1 CALLDATASIZE SUB DUP2 ADD SWAP1 PUSH2 0x51D SWAP2 SWAP1 PUSH2 0x1EBA JUMP JUMPDEST PUSH2 0x1041 JUMP JUMPDEST STOP JUMPDEST PUSH2 0x53E PUSH1 0x4 DUP1 CALLDATASIZE SUB DUP2 ADD SWAP1 PUSH2 0x539 SWAP2 SWAP1 PUSH2 0x1EBA JUMP JUMPDEST PUSH2 0x10D7 JUMP JUMPDEST STOP JUMPDEST PUSH1 0x60 PUSH1 0x3 DUP1 SLOAD PUSH2 0x54F SWAP1 PUSH2 0x2183 JUMP JUMPDEST DUP1 PUSH1 0x1F ADD PUSH1 0x20 DUP1 SWAP2 DIV MUL PUSH1 0x20 ADD PUSH1 0x40 MLOAD SWAP1 DUP2 ADD PUSH1 0x40 MSTORE DUP1 SWAP3 SWAP2 SWAP1 DUP2 DUP2 MSTORE PUSH1 0x20 ADD DUP3 DUP1 SLOAD PUSH2 0x57B SWAP1 PUSH2 0x2183 JUMP JUMPDEST DUP1 ISZERO PUSH2 0x5C6 JUMPI DUP1 PUSH1 0x1F LT PUSH2 0x59D JUMPI PUSH2 0x100 DUP1 DUP4 SLOAD DIV MUL DUP4 MSTORE SWAP2 PUSH1 0x20 ADD SWAP2 PUSH2 0x5C6 JUMP JUMPDEST DUP3 ADD SWAP2 SWAP1 PUSH0 MSTORE PUSH1 0x20 PUSH0 KECCAK256 SWAP1 JUMPDEST DUP2 SLOAD DUP2 MSTORE SWAP1 PUSH1 0x1 ADD SWAP1 PUSH1 0x20 ADD DUP1 DUP4 GT PUSH2 0x5A9 JUMPI DUP3 SWAP1 SUB PUSH1 0x1F AND DUP3 ADD SWAP2 JUMPDEST POP POP POP POP POP SWAP1 POP SWAP1 JUMP JUMPDEST PUSH0 DUP1 PUSH2 0x5DA PUSH2 0x1159 JUMP JUMPDEST SWAP1 POP PUSH2 0x5E7 DUP2 DUP6 DUP6 PUSH2 0x1160 JUMP JUMPDEST PUSH1 0x1 SWAP2 POP POP SWAP3 SWAP2 POP POP JUMP JUMPDEST PUSH2 0x5FA PUSH2 0x1323 JUMP JUMPDEST PUSH0 PUSH20 0xFFFFFFFFFFFFFFFFFFFFFFFFFFFFFFFFFFFFFFFF AND DUP2 PUSH20 0xFFFFFFFFFFFFFFFFFFFFFFFFFFFFFFFFFFFFFFFF AND SUB PUSH2 0x668 JUMPI PUSH1 0x40 MLOAD PUSH32 0x8C379A000000000000000000000000000000000000000000000000000000000 DUP2 MSTORE PUSH1 0x4 ADD PUSH2 0x65F SWAP1 PUSH2 0x21FD JUMP JUMPDEST PUSH1 0x40 MLOAD DUP1 SWAP2 SUB SWAP1 REVERT JUMPDEST DUP1 PUSH20 0xFFFFFFFFFFFFFFFFFFFFFFFFFFFFFFFFFFFFFFFF AND PUSH2 0x687 PUSH2 0xCC2 JUMP JUMPDEST PUSH20 0xFFFFFFFFFFFFFFFFFFFFFFFFFFFFFFFFFFFFFFFF AND PUSH32 0x8292FCE18FA69EDF4DB7B94EA2E58241DF0AE57F97E0A6C9B29067028BF92D76 PUSH1 0x40 MLOAD PUSH1 0x40 MLOAD DUP1 SWAP2 SUB SWAP1 LOG3 PUSH2 0x6D2 DUP2 PUSH2 0x13A1 JUMP JUMPDEST POP JUMP JUMPDEST PUSH0 PUSH1 0x2 SLOAD SWAP1 POP SWAP1 JUMP JUMPDEST PUSH2 0x6E6 PUSH2 0x1323 JUMP JUMPDEST PUSH1 0xA DUP2 GT ISZERO PUSH2 0x72A JUMPI PUSH1 0x40 MLOAD PUSH32 0x8C379A000000000000000000000000000000000000000000000000000000000 DUP2 MSTORE PUSH1 0x4 ADD PUSH2 0x721 SWAP1 PUSH2 0x2265 JUMP JUMPDEST PUSH1 0x40 MLOAD DUP1 SWAP2 SUB SWAP1 REVERT JUMPDEST PUSH0 PUSH1 0x7 SLOAD SWAP1 POP DUP2 PUSH1 0x7 DUP2 SWAP1 SSTORE POP PUSH32 0xD141D90E37CFF90C4910D122C1B6BC4951144BBF7AD06233CE2A2954E5C25E3B DUP2 DUP4 PUSH1 0x40 MLOAD PUSH2 0x768 SWAP3 SWAP2 SWAP1 PUSH2 0x2283 JUMP JUMPDEST PUSH1 0x40 MLOAD DUP1 SWAP2 SUB SWAP1 LOG1 POP POP JUMP JUMPDEST PUSH0 PUSH2 0x77D PUSH2 0x1464 JUMP JUMPDEST PUSH2 0x785 PUSH2 0x14B3 JUMP JUMPDEST PUSH0 PUSH20 0xFFFFFFFFFFFFFFFFFFFFFFFFFFFFFFFFFFFFFFFF AND DUP4 PUSH20 0xFFFFFFFFFFFFFFFFFFFFFFFFFFFFFFFFFFFFFFFF AND SUB PUSH2 0x7F3 JUMPI PUSH1 0x40 MLOAD PUSH32 0x8C379A000000000000000000000000000000000000000000000000000000000 DUP2 MSTORE PUSH1 0x4 ADD PUSH2 0x7EA SWAP1 PUSH2 0x22F4 JUMP JUMPDEST PUSH1 0x40 MLOAD DUP1 SWAP2 SUB SWAP1 REVERT JUMPDEST PUSH2 0x805 DUP5 PUSH2 0x7FF PUSH2 0x1159 JUMP JUMPDEST DUP5 PUSH2 0x14FD JUMP JUMPDEST PUSH2 0x810 DUP5 DUP5 DUP5 PUSH2 0x1588 JUMP JUMPDEST PUSH1 0x1 SWAP1 POP PUSH2 0x81C PUSH2 0x17F0 JUMP JUMPDEST SWAP4 SWAP3 POP POP POP JUMP JUMPDEST PUSH0 PUSH1 0x12 SWAP1 POP SWAP1 JUMP JUMPDEST PUSH11 0x84595161401484A000000 DUP2 JUMP JUMPDEST PUSH0 DUP1 PUSH2 0x844 PUSH2 0x1159 JUMP JUMPDEST SWAP1 POP PUSH2 0x865 DUP2 DUP6 DUP6 PUSH2 0x856 DUP6 DUP10 PUSH2 0xE4E JUMP JUMPDEST PUSH2 0x860 SWAP2 SWAP1 PUSH2 0x233F JUMP JUMPDEST PUSH2 0x1160 JUMP JUMPDEST PUSH1 0x1 SWAP2 POP POP SWAP3 SWAP2 POP POP JUMP JUMPDEST PUSH2 0x878 PUSH2 0x1323 JUMP JUMPDEST PUSH2 0x880 PUSH2 0x17FA JUMP JUMPDEST JUMP JUMPDEST PUSH2 0x88A PUSH2 0x1323 JUMP JUMPDEST PUSH11 0x84595161401484A000000 DUP2 PUSH2 0x89F PUSH2 0x6D5 JUMP JUMPDEST PUSH2 0x8A9 SWAP2 SWAP1 PUSH2 0x233F JUMP JUMPDEST GT ISZERO PUSH2 0x8EA JUMPI PUSH1 0x40 MLOAD PUSH32 0x8C379A000000000000000000000000000000000000000000000000000000000 DUP2 MSTORE PUSH1 0x4 ADD PUSH2 0x8E1 SWAP1 PUSH2 0x23BC JUMP JUMPDEST PUSH1 0x40 MLOAD DUP1 SWAP2 SUB SWAP1 REVERT JUMPDEST PUSH2 0x8F4 DUP3 DUP3 PUSH2 0x185C JUMP JUMPDEST POP POP JUMP JUMPDEST PUSH2 0x900 PUSH2 0x1323 JUMP JUMPDEST PUSH1 0x1 PUSH1 0x9 PUSH0 DUP4 PUSH20 0xFFFFFFFFFFFFFFFFFFFFFFFFFFFFFFFFFFFFFFFF AND PUSH20 0xFFFFFFFFFFFFFFFFFFFFFFFFFFFFFFFFFFFFFFFF AND DUP2 MSTORE PUSH1 0x20 ADD SWAP1 DUP2 MSTORE PUSH1 0x20 ADD PUSH0 KECCAK256 PUSH0 PUSH2 0x100 EXP DUP2 SLOAD DUP2 PUSH1 0xFF MUL NOT AND SWAP1 DUP4 ISZERO ISZERO MUL OR SWAP1 SSTORE POP PUSH32 0x58C3E0504C69D3A92726966F152A771E0F8F6AD4DACA1AE9055A38ABA1FD2B62 DUP2 PUSH1 0x40 MLOAD PUSH2 0x984 SWAP2 SWAP1 PUSH2 0x1FCB JUMP JUMPDEST PUSH1 0x40 MLOAD DUP1 SWAP2 SUB SWAP1 LOG1 POP JUMP JUMPDEST PUSH1 0x8 PUSH0 SWAP1 SLOAD SWAP1 PUSH2 0x100 EXP SWAP1 DIV PUSH20 0xFFFFFFFFFFFFFFFFFFFFFFFFFFFFFFFFFFFFFFFF AND DUP2 JUMP JUMPDEST PUSH0 PUSH1 0x5 PUSH1 0x14 SWAP1 SLOAD SWAP1 PUSH2 0x100 EXP SWAP1 DIV PUSH1 0xFF AND SWAP1 POP SWAP1 JUMP JUMPDEST PUSH2 0x9D2 PUSH2 0x1464 JUMP JUMPDEST PUSH2 0x9DA PUSH2 0x14B3 JUMP JUMPDEST PUSH32 0x0 PUSH20 0xFFFFFFFFFFFFFFFFFFFFFFFFFFFFFFFFFFFFFFFF AND CALLER PUSH20 0xFFFFFFFFFFFFFFFFFFFFFFFFFFFFFFFFFFFFFFFF AND EQ PUSH2 0xA68 JUMPI PUSH1 0x40 MLOAD PUSH32 0x8C379A000000000000000000000000000000000000000000000000000000000 DUP2 MSTORE PUSH1 0x4 ADD PUSH2 0xA5F SWAP1 PUSH2 0x244A JUMP JUMPDEST PUSH1 0x40 MLOAD DUP1 SWAP2 SUB SWAP1 REVERT JUMPDEST DUP2 DUP2 SWAP1 POP DUP5 DUP5 SWAP1 POP EQ PUSH2 0xAB0 JUMPI PUSH1 0x40 MLOAD PUSH32 0x8C379A000000000000000000000000000000000000000000000000000000000 DUP2 MSTORE PUSH1 0x4 ADD PUSH2 0xAA7 SWAP1 PUSH2 0x24D8 JUMP JUMPDEST PUSH1 0x40 MLOAD DUP1 SWAP2 SUB SWAP1 REVERT JUMPDEST PUSH0 DUP1 PUSH0 SWAP1 POP JUMPDEST DUP4 DUP4 SWAP1 POP DUP2 LT ISZERO PUSH2 0xAF5 JUMPI DUP4 DUP4 DUP3 DUP2 DUP2 LT PUSH2 0xAD4 JUMPI PUSH2 0xAD3 PUSH2 0x24F6 JUMP JUMPDEST JUMPDEST SWAP1 POP PUSH1 0x20 MUL ADD CALLDATALOAD DUP3 PUSH2 0xAE6 SWAP2 SWAP1 PUSH2 0x233F JUMP JUMPDEST SWAP2 POP DUP1 DUP1 PUSH1 0x1 ADD SWAP2 POP POP PUSH2 0xAB6 JUMP JUMPDEST POP PUSH11 0x84595161401484A000000 DUP2 PUSH2 0xB0B PUSH2 0x6D5 JUMP JUMPDEST PUSH2 0xB15 SWAP2 SWAP1 PUSH2 0x233F JUMP JUMPDEST GT ISZERO PUSH2 0xB56 JUMPI PUSH1 0x40 MLOAD PUSH32 0x8C379A000000000000000000000000000000000000000000000000000000000 DUP2 MSTORE PUSH1 0x4 ADD PUSH2 0xB4D SWAP1 PUSH2 0x256D JUMP JUMPDEST PUSH1 0x40 MLOAD DUP1 SWAP2 SUB SWAP1 REVERT JUMPDEST PUSH0 JUMPDEST DUP6 DUP6 SWAP1 POP DUP2 LT ISZERO PUSH2 0xC48 JUMPI PUSH2 0xBAD DUP7 DUP7 DUP4 DUP2 DUP2 LT PUSH2 0xB79 JUMPI PUSH2 0xB78 PUSH2 0x24F6 JUMP JUMPDEST JUMPDEST SWAP1 POP PUSH1 0x20 MUL ADD PUSH1 0x20 DUP2 ADD SWAP1 PUSH2 0xB8E SWAP2 SWAP1 PUSH2 0x1EBA JUMP JUMPDEST DUP6 DUP6 DUP5 DUP2 DUP2 LT PUSH2 0xBA1 JUMPI PUSH2 0xBA0 PUSH2 0x24F6 JUMP JUMPDEST JUMPDEST SWAP1 POP PUSH1 0x20 MUL ADD CALLDATALOAD PUSH2 0x185C JUMP JUMPDEST DUP6 DUP6 DUP3 DUP2 DUP2 LT PUSH2 0xBC0 JUMPI PUSH2 0xBBF PUSH2 0x24F6 JUMP JUMPDEST JUMPDEST SWAP1 POP PUSH1 0x20 MUL ADD PUSH1 0x20 DUP2 ADD SWAP1 PUSH2 0xBD5 SWAP2 SWAP1 PUSH2 0x1EBA JUMP JUMPDEST PUSH20 0xFFFFFFFFFFFFFFFFFFFFFFFFFFFFFFFFFFFFFFFF AND PUSH32 0x8C32C568416FCF97BE35CE5B27844CFDDCD63A67A1A602C3595BA5DAC38F303A DUP6 DUP6 DUP5 DUP2 DUP2 LT PUSH2 0xC1F JUMPI PUSH2 0xC1E PUSH2 0x24F6 JUMP JUMPDEST JUMPDEST SWAP1 POP PUSH1 0x20 MUL ADD CALLDATALOAD PUSH1 0x40 MLOAD PUSH2 0xC33 SWAP2 SWAP1 PUSH2 0x1EF4 JUMP JUMPDEST PUSH1 0x40 MLOAD DUP1 SWAP2 SUB SWAP1 LOG2 DUP1 DUP1 PUSH1 0x1 ADD SWAP2 POP POP PUSH2 0xB58 JUMP JUMPDEST POP POP PUSH2 0xC52 PUSH2 0x17F0 JUMP JUMPDEST POP POP POP POP JUMP JUMPDEST PUSH0 DUP1 PUSH0 DUP4 PUSH20 0xFFFFFFFFFFFFFFFFFFFFFFFFFFFFFFFFFFFFFFFF AND PUSH20 0xFFFFFFFFFFFFFFFFFFFFFFFFFFFFFFFFFFFFFFFF AND DUP2 MSTORE PUSH1 0x20 ADD SWAP1 DUP2 MSTORE PUSH1 0x20 ADD PUSH0 KECCAK256 SLOAD SWAP1 POP SWAP2 SWAP1 POP JUMP JUMPDEST PUSH2 0xCA5 PUSH2 0x1323 JUMP JUMPDEST PUSH2 0xCAE PUSH0 PUSH2 0x13A1 JUMP JUMPDEST JUMP JUMPDEST PUSH2 0xCB8 PUSH2 0x1323 JUMP JUMPDEST PUSH2 0xCC0 PUSH2 0x19AA JUMP JUMPDEST JUMP JUMPDEST PUSH0 PUSH1 0x5 PUSH0 SWAP1 SLOAD SWAP1 PUSH2 0x100 EXP SWAP1 DIV PUSH20 0xFFFFFFFFFFFFFFFFFFFFFFFFFFFFFFFFFFFFFFFF AND SWAP1 POP SWAP1 JUMP JUMPDEST PUSH1 0x7 SLOAD DUP2 JUMP JUMPDEST PUSH1 0x60 PUSH1 0x4 DUP1 SLOAD PUSH2 0xCFF SWAP1 PUSH2 0x2183 JUMP JUMPDEST DUP1 PUSH1 0x1F ADD PUSH1 0x20 DUP1 SWAP2 DIV MUL PUSH1 0x20 ADD PUSH1 0x40 MLOAD SWAP1 DUP2 ADD PUSH1 0x40 MSTORE DUP1 SWAP3 SWAP2 SWAP1 DUP2 DUP2 MSTORE PUSH1 0x20 ADD DUP3 DUP1 SLOAD PUSH2 0xD2B SWAP1 PUSH2 0x2183 JUMP JUMPDEST DUP1 ISZERO PUSH2 0xD76 JUMPI DUP1 PUSH1 0x1F LT PUSH2 0xD4D JUMPI PUSH2 0x100 DUP1 DUP4 SLOAD DIV MUL DUP4 MSTORE SWAP2 PUSH1 0x20 ADD SWAP2 PUSH2 0xD76 JUMP JUMPDEST DUP3 ADD SWAP2 SWAP1 PUSH0 MSTORE PUSH1 0x20 PUSH0 KECCAK256 SWAP1 JUMPDEST DUP2 SLOAD DUP2 MSTORE SWAP1 PUSH1 0x1 ADD SWAP1 PUSH1 0x20 ADD DUP1 DUP4 GT PUSH2 0xD59 JUMPI DUP3 SWAP1 SUB PUSH1 0x1F AND DUP3 ADD SWAP2 JUMPDEST POP POP POP POP POP SWAP1 POP SWAP1 JUMP JUMPDEST PUSH0 DUP1 PUSH2 0xD8A PUSH2 0x1159 JUMP JUMPDEST SWAP1 POP PUSH0 PUSH2 0xD97 DUP3 DUP7 PUSH2 0xE4E JUMP JUMPDEST SWAP1 POP DUP4 DUP2 LT ISZERO PUSH2 0xDDC JUMPI PUSH1 0x40 MLOAD PUSH32 0x8C379A000000000000000000000000000000000000000000000000000000000 DUP2 MSTORE PUSH1 0x4 ADD PUSH2 0xDD3 SWAP1 PUSH2 0x25FB JUMP JUMPDEST PUSH1 0x40 MLOAD DUP1 SWAP2 SUB SWAP1 REVERT JUMPDEST PUSH2 0xDE9 DUP3 DUP7 DUP7 DUP5 SUB PUSH2 0x1160 JUMP JUMPDEST PUSH1 0x1 SWAP3 POP POP POP SWAP3 SWAP2 POP POP JUMP JUMPDEST PUSH0 PUSH2 0xDFE PUSH2 0x1464 JUMP JUMPDEST PUSH2 0xE06 PUSH2 0x14B3 JUMP JUMPDEST PUSH2 0xE18 PUSH2 0xE11 PUSH2 0x1159 JUMP JUMPDEST DUP5 DUP5 PUSH2 0x1588 JUMP JUMPDEST PUSH1 0x1 SWAP1 POP PUSH2 0xE24 PUSH2 0x17F0 JUMP JUMPDEST SWAP3 SWAP2 POP POP JUMP JUMPDEST PUSH32 0x0 DUP2 JUMP JUMPDEST PUSH0 PUSH1 0x1 PUSH0 DUP5 PUSH20 0xFFFFFFFFFFFFFFFFFFFFFFFFFFFFFFFFFFFFFFFF AND PUSH20 0xFFFFFFFFFFFFFFFFFFFFFFFFFFFFFFFFFFFFFFFF AND DUP2 MSTORE PUSH1 0x20 ADD SWAP1 DUP2 MSTORE PUSH1 0x20 ADD PUSH0 KECCAK256 PUSH0 DUP4 PUSH20 0xFFFFFFFFFFFFFFFFFFFFFFFFFFFFFFFFFFFFFFFF AND PUSH20 0xFFFFFFFFFFFFFFFFFFFFFFFFFFFFFFFFFFFFFFFF AND DUP2 MSTORE PUSH1 0x20 ADD SWAP1 DUP2 MSTORE PUSH1 0x20 ADD PUSH0 KECCAK256 SLOAD SWAP1 POP SWAP3 SWAP2 POP POP JUMP JUMPDEST PUSH2 0xED8 PUSH2 0x1323 JUMP JUMPDEST PUSH0 PUSH20 0xFFFFFFFFFFFFFFFFFFFFFFFFFFFFFFFFFFFFFFFF AND DUP2 PUSH20 0xFFFFFFFFFFFFFFFFFFFFFFFFFFFFFFFFFFFFFFFF AND SUB PUSH2 0xF46 JUMPI PUSH1 0x40 MLOAD PUSH32 0x8C379A000000000000000000000000000000000000000000000000000000000 DUP2 MSTORE PUSH1 0x4 ADD PUSH2 0xF3D SWAP1 PUSH2 0x2663 JUMP JUMPDEST PUSH1 0x40 MLOAD DUP1 SWAP2 SUB SWAP1 REVERT JUMPDEST PUSH0 DUP2 PUSH20 0xFFFFFFFFFFFFFFFFFFFFFFFFFFFFFFFFFFFFFFFF AND EXTCODESIZE EQ PUSH2 0xF9F JUMPI PUSH1 0x40 MLOAD PUSH32 0x8C379A000000000000000000000000000000000000000000000000000000000 DUP2 MSTORE PUSH1 0x4 ADD PUSH2 0xF96 SWAP1 PUSH2 0x26F1 JUMP JUMPDEST PUSH1 0x40 MLOAD DUP1 SWAP2 SUB SWAP1 REVERT JUMPDEST PUSH0 PUSH1 0x8 PUSH0 SWAP1 SLOAD SWAP1 PUSH2 0x100 EXP SWAP1 DIV PUSH20 0xFFFFFFFFFFFFFFFFFFFFFFFFFFFFFFFFFFFFFFFF AND SWAP1 POP DUP2 PUSH1 0x8 PUSH0 PUSH2 0x100 EXP DUP2 SLOAD DUP2 PUSH20 0xFFFFFFFFFFFFFFFFFFFFFFFFFFFFFFFFFFFFFFFF MUL NOT AND SWAP1 DUP4 PUSH20 0xFFFFFFFFFFFFFFFFFFFFFFFFFFFFFFFFFFFFFFFF AND MUL OR SWAP1 SSTORE POP PUSH32 0xAAEBCF1BFA00580E41D966056B48521FA9F202645C86D4DDF28113E617C1B1D3 DUP2 DUP4 PUSH1 0x40 MLOAD PUSH2 0x1035 SWAP3 SWAP2 SWAP1 PUSH2 0x270F JUMP JUMPDEST PUSH1 0x40 MLOAD DUP1 SWAP2 SUB SWAP1 LOG1 POP POP JUMP JUMPDEST PUSH2 0x1049 PUSH2 0x1323 JUMP JUMPDEST PUSH0 PUSH1 0x9 PUSH0 DUP4 PUSH20 0xFFFFFFFFFFFFFFFFFFFFFFFFFFFFFFFFFFFFFFFF AND PUSH20 0xFFFFFFFFFFFFFFFFFFFFFFFFFFFFFFFFFFFFFFFF AND DUP2 MSTORE PUSH1 0x20 ADD SWAP1 DUP2 MSTORE PUSH1 0x20 ADD PUSH0 KECCAK256 PUSH0 PUSH2 0x100 EXP DUP2 SLOAD DUP2 PUSH1 0xFF MUL NOT AND SWAP1 DUP4 ISZERO ISZERO MUL OR SWAP1 SSTORE POP PUSH32 0x4F6A6B6EFE34EC6478021AA9FB7F6980E78EA3A10C74074A8CE49D5D3EBF1F7E DUP2 PUSH1 0x40 MLOAD PUSH2 0x10CC SWAP2 SWAP1 PUSH2 0x1FCB JUMP JUMPDEST PUSH1 0x40 MLOAD DUP1 SWAP2 SUB SWAP1 LOG1 POP JUMP JUMPDEST PUSH2 0x10DF PUSH2 0x1323 JUMP JUMPDEST PUSH0 PUSH20 0xFFFFFFFFFFFFFFFFFFFFFFFFFFFFFFFFFFFFFFFF AND DUP2 PUSH20 0xFFFFFFFFFFFFFFFFFFFFFFFFFFFFFFFFFFFFFFFF AND SUB PUSH2 0x114D JUMPI PUSH1 0x40 MLOAD PUSH32 0x8C379A000000000000000000000000000000000000000000000000000000000 DUP2 MSTORE PUSH1 0x4 ADD PUSH2 0x1144 SWAP1 PUSH2 0x27A6 JUMP JUMPDEST PUSH1 0x40 MLOAD DUP1 SWAP2 SUB SWAP1 REVERT JUMPDEST PUSH2 0x1156 DUP2 PUSH2 0x13A1 JUMP JUMPDEST POP JUMP JUMPDEST PUSH0 CALLER SWAP1 POP SWAP1 JUMP JUMPDEST PUSH0 PUSH20 0xFFFFFFFFFFFFFFFFFFFFFFFFFFFFFFFFFFFFFFFF AND DUP4 PUSH20 0xFFFFFFFFFFFFFFFFFFFFFFFFFFFFFFFFFFFFFFFF AND SUB PUSH2 0x11CE JUMPI PUSH1 0x40 MLOAD PUSH32 0x8C379A000000000000000000000000000000000000000000000000000000000 DUP2 MSTORE PUSH1 0x4 ADD PUSH2 0x11C5 SWAP1 PUSH2 0x2834 JUMP JUMPDEST PUSH1 0x40 MLOAD DUP1 SWAP2 SUB SWAP1 REVERT JUMPDEST PUSH0 PUSH20 0xFFFFFFFFFFFFFFFFFFFFFFFFFFFFFFFFFFFFFFFF AND DUP3 PUSH20 0xFFFFFFFFFFFFFFFFFFFFFFFFFFFFFFFFFFFFFFFF AND SUB PUSH2 0x123C JUMPI PUSH1 0x40 MLOAD PUSH32 0x8C379A000000000000000000000000000000000000000000000000000000000 DUP2 MSTORE PUSH1 0x4 ADD PUSH2 0x1233 SWAP1 PUSH2 0x28C2 JUMP JUMPDEST PUSH1 0x40 MLOAD DUP1 SWAP2 SUB SWAP1 REVERT JUMPDEST DUP1 PUSH1 0x1 PUSH0 DUP6 PUSH20 0xFFFFFFFFFFFFFFFFFFFFFFFFFFFFFFFFFFFFFFFF AND PUSH20 0xFFFFFFFFFFFFFFFFFFFFFFFFFFFFFFFFFFFFFFFF AND DUP2 MSTORE PUSH1 0x20 ADD SWAP1 DUP2 MSTORE PUSH1 0x20 ADD PUSH0 KECCAK256 PUSH0 DUP5 PUSH20 0xFFFFFFFFFFFFFFFFFFFFFFFFFFFFFFFFFFFFFFFF AND PUSH20 0xFFFFFFFFFFFFFFFFFFFFFFFFFFFFFFFFFFFFFFFF AND DUP2 MSTORE PUSH1 0x20 ADD SWAP1 DUP2 MSTORE PUSH1 0x20 ADD PUSH0 KECCAK256 DUP2 SWAP1 SSTORE POP DUP2 PUSH20 0xFFFFFFFFFFFFFFFFFFFFFFFFFFFFFFFFFFFFFFFF AND DUP4 PUSH20 0xFFFFFFFFFFFFFFFFFFFFFFFFFFFFFFFFFFFFFFFF AND PUSH32 0x8C5BE1E5EBEC7D5BD14F71427D1E84F3DD0314C0F7B2291E5B200AC8C7C3B925 DUP4 PUSH1 0x40 MLOAD PUSH2 0x1316 SWAP2 SWAP1 PUSH2 0x1EF4 JUMP JUMPDEST PUSH1 0x40 MLOAD DUP1 SWAP2 SUB SWAP1 LOG3 POP POP POP JUMP JUMPDEST PUSH2 0x132B PUSH2 0x1159 JUMP JUMPDEST PUSH20 0xFFFFFFFFFFFFFFFFFFFFFFFFFFFFFFFFFFFFFFFF AND PUSH2 0x1349 PUSH2 0xCC2 JUMP JUMPDEST PUSH20 0xFFFFFFFFFFFFFFFFFFFFFFFFFFFFFFFFFFFFFFFF AND EQ PUSH2 0x139F JUMPI PUSH1 0x40 MLOAD PUSH32 0x8C379A000000000000000000000000000000000000000000000000000000000 DUP2 MSTORE PUSH1 0x4 ADD PUSH2 0x1396 SWAP1 PUSH2 0x292A JUMP JUMPDEST PUSH1 0x40 MLOAD DUP1 SWAP2 SUB SWAP1 REVERT JUMPDEST JUMP JUMPDEST PUSH0 PUSH1 0x5 PUSH0 SWAP1 SLOAD SWAP1 PUSH2 0x100 EXP SWAP1 DIV PUSH20 0xFFFFFFFFFFFFFFFFFFFFFFFFFFFFFFFFFFFFFFFF AND SWAP1 POP DUP2 PUSH1 0x5 PUSH0 PUSH2 0x100 EXP DUP2 SLOAD DUP2 PUSH20 0xFFFFFFFFFFFFFFFFFFFFFFFFFFFFFFFFFFFFFFFF MUL NOT AND SWAP1 DUP4 PUSH20 0xFFFFFFFFFFFFFFFFFFFFFFFFFFFFFFFFFFFFFFFF AND MUL OR SWAP1 SSTORE POP DUP2 PUSH20 0xFFFFFFFFFFFFFFFFFFFFFFFFFFFFFFFFFFFFFFFF AND DUP2 PUSH20 0xFFFFFFFFFFFFFFFFFFFFFFFFFFFFFFFFFFFFFFFF AND PUSH32 0x8BE0079C531659141344CD1FD0A4F28419497F9722A3DAAFE3B4186F6B6457E0 PUSH1 0x40 MLOAD PUSH1 0x40 MLOAD DUP1 SWAP2 SUB SWAP1 LOG3 POP POP JUMP JUMPDEST PUSH1 0x2 PUSH1 0x6 SLOAD SUB PUSH2 0x14A9 JUMPI PUSH1 0x40 MLOAD PUSH32 0x8C379A000000000000000000000000000000000000000000000000000000000 DUP2 MSTORE PUSH1 0x4 ADD PUSH2 0x14A0 SWAP1 PUSH2 0x2992 JUMP JUMPDEST PUSH1 0x40 MLOAD DUP1 SWAP2 SUB SWAP1 REVERT JUMPDEST PUSH1 0x2 PUSH1 0x6 DUP2 SWAP1 SSTORE POP JUMP JUMPDEST PUSH2 0x14BB PUSH2 0x9B4 JUMP JUMPDEST ISZERO PUSH2 0x14FB JUMPI PUSH1 0x40 MLOAD PUSH32 0x8C379A000000000000000000000000000000000000000000000000000000000 DUP2 MSTORE PUSH1 0x4 ADD PUSH2 0x14F2 SWAP1 PUSH2 0x29FA JUMP JUMPDEST PUSH1 0x40 MLOAD DUP1 SWAP2 SUB SWAP1 REVERT JUMPDEST JUMP JUMPDEST PUSH0 PUSH2 0x1508 DUP5 DUP5 PUSH2 0xE4E JUMP JUMPDEST SWAP1 POP PUSH32 0xFFFFFFFFFFFFFFFFFFFFFFFFFFFFFFFFFFFFFFFFFFFFFFFFFFFFFFFFFFFFFFFF DUP2 EQ PUSH2 0x1582 JUMPI DUP2 DUP2 LT ISZERO PUSH2 0x1574 JUMPI PUSH1 0x40 MLOAD PUSH32 0x8C379A000000000000000000000000000000000000000000000000000000000 DUP2 MSTORE PUSH1 0x4 ADD PUSH2 0x156B SWAP1 PUSH2 0x2A62 JUMP JUMPDEST PUSH1 0x40 MLOAD DUP1 SWAP2 SUB SWAP1 REVERT JUMPDEST PUSH2 0x1581 DUP5 DUP5 DUP5 DUP5 SUB PUSH2 0x1160 JUMP JUMPDEST JUMPDEST POP POP POP POP JUMP JUMPDEST PUSH2 0x1590 PUSH2 0x14B3 JUMP JUMPDEST PUSH0 PUSH20 0xFFFFFFFFFFFFFFFFFFFFFFFFFFFFFFFFFFFFFFFF AND DUP4 PUSH20 0xFFFFFFFFFFFFFFFFFFFFFFFFFFFFFFFFFFFFFFFF AND SUB PUSH2 0x15FE JUMPI PUSH1 0x40 MLOAD PUSH32 0x8C379A000000000000000000000000000000000000000000000000000000000 DUP2 MSTORE PUSH1 0x4 ADD PUSH2 0x15F5 SWAP1 PUSH2 0x2ACA JUMP JUMPDEST PUSH1 0x40 MLOAD DUP1 SWAP2 SUB SWAP1 REVERT JUMPDEST PUSH0 PUSH20 0xFFFFFFFFFFFFFFFFFFFFFFFFFFFFFFFFFFFFFFFF AND DUP3 PUSH20 0xFFFFFFFFFFFFFFFFFFFFFFFFFFFFFFFFFFFFFFFF AND SUB PUSH2 0x166C JUMPI PUSH1 0x40 MLOAD PUSH32 0x8C379A000000000000000000000000000000000000000000000000000000000 DUP2 MSTORE PUSH1 0x4 ADD PUSH2 0x1663 SWAP1 PUSH2 0x22F4 JUMP JUMPDEST PUSH1 0x40 MLOAD DUP1 SWAP2 SUB SWAP1 REVERT JUMPDEST PUSH0 PUSH1 0x7 SLOAD GT DUP1 ISZERO PUSH2 0x16CA JUMPI POP PUSH0 PUSH20 0xFFFFFFFFFFFFFFFFFFFFFFFFFFFFFFFFFFFFFFFF AND PUSH1 0x8 PUSH0 SWAP1 SLOAD SWAP1 PUSH2 0x100 EXP SWAP1 DIV PUSH20 0xFFFFFFFFFFFFFFFFFFFFFFFFFFFFFFFFFFFFFFFF AND PUSH20 0xFFFFFFFFFFFFFFFFFFFFFFFFFFFFFFFFFFFFFFFF AND EQ ISZERO JUMPDEST DUP1 ISZERO PUSH2 0x171D JUMPI POP PUSH1 0x9 PUSH0 DUP5 PUSH20 0xFFFFFFFFFFFFFFFFFFFFFFFFFFFFFFFFFFFFFFFF AND PUSH20 0xFFFFFFFFFFFFFFFFFFFFFFFFFFFFFFFFFFFFFFFF AND DUP2 MSTORE PUSH1 0x20 ADD SWAP1 DUP2 MSTORE PUSH1 0x20 ADD PUSH0 KECCAK256 PUSH0 SWAP1 SLOAD SWAP1 PUSH2 0x100 EXP SWAP1 DIV PUSH1 0xFF AND ISZERO JUMPDEST DUP1 ISZERO PUSH2 0x1770 JUMPI POP PUSH1 0x9 PUSH0 DUP4 PUSH20 0xFFFFFFFFFFFFFFFFFFFFFFFFFFFFFFFFFFFFFFFF AND PUSH20 0xFFFFFFFFFFFFFFFFFFFFFFFFFFFFFFFFFFFFFFFF AND DUP2 MSTORE PUSH1 0x20 ADD SWAP1 DUP2 MSTORE PUSH1 0x20 ADD PUSH0 KECCAK256 PUSH0 SWAP1 SLOAD SWAP1 PUSH2 0x100 EXP SWAP1 DIV PUSH1 0xFF AND ISZERO JUMPDEST ISZERO PUSH2 0x17DF JUMPI PUSH0 PUSH1 0x64 PUSH1 0x7 SLOAD DUP4 PUSH2 0x1786 SWAP2 SWAP1 PUSH2 0x2AE8 JUMP JUMPDEST PUSH2 0x1790 SWAP2 SWAP1 PUSH2 0x2B56 JUMP JUMPDEST SWAP1 POP PUSH0 DUP2 DUP4 PUSH2 0x179F SWAP2 SWAP1 PUSH2 0x2B86 JUMP JUMPDEST SWAP1 POP PUSH2 0x17CD DUP6 PUSH1 0x8 PUSH0 SWAP1 SLOAD SWAP1 PUSH2 0x100 EXP SWAP1 DIV PUSH20 0xFFFFFFFFFFFFFFFFFFFFFFFFFFFFFFFFFFFFFFFF AND DUP5 PUSH2 0x1A0D JUMP JUMPDEST PUSH2 0x17D8 DUP6 DUP6 DUP4 PUSH2 0x1A0D JUMP JUMPDEST POP POP PUSH2 0x17EB JUMP JUMPDEST PUSH2 0x17EA DUP4 DUP4 DUP4 PUSH2 0x1A0D JUMP JUMPDEST JUMPDEST POP POP POP JUMP JUMPDEST PUSH1 0x1 PUSH1 0x6 DUP2 SWAP1 SSTORE POP JUMP JUMPDEST PUSH2 0x1802 PUSH2 0x1C79 JUMP JUMPDEST PUSH0 PUSH1 0x5 PUSH1 0x14 PUSH2 0x100 EXP DUP2 SLOAD DUP2 PUSH1 0xFF MUL NOT AND SWAP1 DUP4 ISZERO ISZERO MUL OR SWAP1 SSTORE POP PUSH32 0x5DB9EE0A495BF2E6FF9C91A7834C1BA4FDD244A5E8AA4E537BD38AEAE4B073AA PUSH2 0x1845 PUSH2 0x1159 JUMP JUMPDEST PUSH1 0x40 MLOAD PUSH2 0x1852 SWAP2 SWAP1 PUSH2 0x1FCB JUMP JUMPDEST PUSH1 0x40 MLOAD DUP1 SWAP2 SUB SWAP1 LOG1 JUMP JUMPDEST PUSH0 PUSH20 0xFFFFFFFFFFFFFFFFFFFFFFFFFFFFFFFFFFFFFFFF AND DUP3 PUSH20 0xFFFFFFFFFFFFFFFFFFFFFFFFFFFFFFFFFFFFFFFF AND SUB PUSH2 0x18CA JUMPI PUSH1 0x40 MLOAD PUSH32 0x8C379A000000000000000000000000000000000000000000000000000000000 DUP2 MSTORE PUSH1 0x4 ADD PUSH2 0x18C1 SWAP1 PUSH2 0x2C03 JUMP JUMPDEST PUSH1 0x40 MLOAD DUP1 SWAP2 SUB SWAP1 REVERT JUMPDEST PUSH2 0x18D5 PUSH0 DUP4 DUP4 PUSH2 0x1CC2 JUMP JUMPDEST DUP1 PUSH1 0x2 PUSH0 DUP3 DUP3 SLOAD PUSH2 0x18E6 SWAP2 SWAP1 PUSH2 0x233F JUMP JUMPDEST SWAP3 POP POP DUP2 SWAP1 SSTORE POP DUP1 PUSH0 DUP1 DUP5 PUSH20 0xFFFFFFFFFFFFFFFFFFFFFFFFFFFFFFFFFFFFFFFF AND PUSH20 0xFFFFFFFFFFFFFFFFFFFFFFFFFFFFFFFFFFFFFFFF AND DUP2 MSTORE PUSH1 0x20 ADD SWAP1 DUP2 MSTORE PUSH1 0x20 ADD PUSH0 KECCAK256 PUSH0 DUP3 DUP3 SLOAD ADD SWAP3 POP POP DUP2 SWAP1 SSTORE POP DUP2 PUSH20 0xFFFFFFFFFFFFFFFFFFFFFFFFFFFFFFFFFFFFFFFF AND PUSH0 PUSH20 0xFFFFFFFFFFFFFFFFFFFFFFFFFFFFFFFFFFFFFFFF AND PUSH32 0xDDF252AD1BE2C89B69C2B068FC378DAA952BA7F163C4A11628F55A4DF523B3EF DUP4 PUSH1 0x40 MLOAD PUSH2 0x1993 SWAP2 SWAP1 PUSH2 0x1EF4 JUMP JUMPDEST PUSH1 0x40 MLOAD DUP1 SWAP2 SUB SWAP1 LOG3 PUSH2 0x19A6 PUSH0 DUP4 DUP4 PUSH2 0x1D1A JUMP JUMPDEST POP POP JUMP JUMPDEST PUSH2 0x19B2 PUSH2 0x14B3 JUMP JUMPDEST PUSH1 0x1 PUSH1 0x5 PUSH1 0x14 PUSH2 0x100 EXP DUP2 SLOAD DUP2 PUSH1 0xFF MUL NOT AND SWAP1 DUP4 ISZERO ISZERO MUL OR SWAP1 SSTORE POP PUSH32 0x62E78CEA01BEE320CD4E420270B5EA74000D11B0C9F74754EBDBFC544B05A258 PUSH2 0x19F6 PUSH2 0x1159 JUMP JUMPDEST PUSH1 0x40 MLOAD PUSH2 0x1A03 SWAP2 SWAP1 PUSH2 0x1FCB JUMP JUMPDEST PUSH1 0x40 MLOAD DUP1 SWAP2 SUB SWAP1 LOG1 JUMP JUMPDEST PUSH0 PUSH20 0xFFFFFFFFFFFFFFFFFFFFFFFFFFFFFFFFFFFFFFFF AND DUP4 PUSH20 0xFFFFFFFFFFFFFFFFFFFFFFFFFFFFFFFFFFFFFFFF AND SUB PUSH2 0x1A7B JUMPI PUSH1 0x40 MLOAD PUSH32 0x8C379A000000000000000000000000000000000000000000000000000000000 DUP2 MSTORE PUSH1 0x4 ADD PUSH2 0x1A72 SWAP1 PUSH2 0x2C91 JUMP JUMPDEST PUSH1 0x40 MLOAD DUP1 SWAP2 SUB SWAP1 REVERT JUMPDEST PUSH0 PUSH20 0xFFFFFFFFFFFFFFFFFFFFFFFFFFFFFFFFFFFFFFFF AND DUP3 PUSH20 0xFFFFFFFFFFFFFFFFFFFFFFFFFFFFFFFFFFFFFFFF AND SUB PUSH2 0x1AE9 JUMPI PUSH1 0x40 MLOAD PUSH32 0x8C379A000000000000000000000000000000000000000000000000000000000 DUP2 MSTORE PUSH1 0x4 ADD PUSH2 0x1AE0 SWAP1 PUSH2 0x2D1F JUMP JUMPDEST PUSH1 0x40 MLOAD DUP1 SWAP2 SUB SWAP1 REVERT JUMPDEST PUSH2 0x1AF4 DUP4 DUP4 DUP4 PUSH2 0x1CC2 JUMP JUMPDEST PUSH0 DUP1 PUSH0 DUP6 PUSH20 0xFFFFFFFFFFFFFFFFFFFFFFFFFFFFFFFFFFFFFFFF AND PUSH20 0xFFFFFFFFFFFFFFFFFFFFFFFFFFFFFFFFFFFFFFFF AND DUP2 MSTORE PUSH1 0x20 ADD SWAP1 DUP2 MSTORE PUSH1 0x20 ADD PUSH0 KECCAK256 SLOAD SWAP1 POP DUP2 DUP2 LT ISZERO PUSH2 0x1B77 JUMPI PUSH1 0x40 MLOAD PUSH32 0x8C379A000000000000000000000000000000000000000000000000000000000 DUP2 MSTORE PUSH1 0x4 ADD PUSH2 0x1B6E SWAP1 PUSH2 0x2DAD JUMP JUMPDEST PUSH1 0x40 MLOAD DUP1 SWAP2 SUB SWAP1 REVERT JUMPDEST DUP2 DUP2 SUB PUSH0 DUP1 DUP7 PUSH20 0xFFFFFFFFFFFFFFFFFFFFFFFFFFFFFFFFFFFFFFFF AND PUSH20 0xFFFFFFFFFFFFFFFFFFFFFFFFFFFFFFFFFFFFFFFF AND DUP2 MSTORE PUSH1 0x20 ADD SWAP1 DUP2 MSTORE PUSH1 0x20 ADD PUSH0 KECCAK256 DUP2 SWAP1 SSTORE POP DUP2 PUSH0 DUP1 DUP6 PUSH20 0xFFFFFFFFFFFFFFFFFFFFFFFFFFFFFFFFFFFFFFFF AND PUSH20 0xFFFFFFFFFFFFFFFFFFFFFFFFFFFFFFFFFFFFFFFF AND DUP2 MSTORE PUSH1 0x20 ADD SWAP1 DUP2 MSTORE PUSH1 0x20 ADD PUSH0 KECCAK256 PUSH0 DUP3 DUP3 SLOAD ADD SWAP3 POP POP DUP2 SWAP1 SSTORE POP DUP3 PUSH20 0xFFFFFFFFFFFFFFFFFFFFFFFFFFFFFFFFFFFFFFFF AND DUP5 PUSH20 0xFFFFFFFFFFFFFFFFFFFFFFFFFFFFFFFFFFFFFFFF AND PUSH32 0xDDF252AD1BE2C89B69C2B068FC378DAA952BA7F163C4A11628F55A4DF523B3EF DUP5 PUSH1 0x40 MLOAD PUSH2 0x1C60 SWAP2 SWAP1 PUSH2 0x1EF4 JUMP JUMPDEST PUSH1 0x40 MLOAD DUP1 SWAP2 SUB SWAP1 LOG3 PUSH2 0x1C73 DUP5 DUP5 DUP5 PUSH2 0x1D1A JUMP JUMPDEST POP POP POP POP JUMP JUMPDEST PUSH2 0x1C81 PUSH2 0x9B4 JUMP JUMPDEST PUSH2 0x1CC0 JUMPI PUSH1 0x40 MLOAD PUSH32 0x8C379A000000000000000000000000000000000000000000000000000000000 DUP2 MSTORE PUSH1 0x4 ADD PUSH2 0x1CB7 SWAP1 PUSH2 0x2E15 JUMP JUMPDEST PUSH1 0x40 MLOAD DUP1 SWAP2 SUB SWAP1 REVERT JUMPDEST JUMP JUMPDEST PUSH2 0x1CCD DUP4 DUP4 DUP4 PUSH2 0x1D1F JUMP JUMPDEST PUSH2 0x1CD5 PUSH2 0x9B4 JUMP JUMPDEST ISZERO PUSH2 0x1D15 JUMPI PUSH1 0x40 MLOAD PUSH32 0x8C379A000000000000000000000000000000000000000000000000000000000 DUP2 MSTORE PUSH1 0x4 ADD PUSH2 0x1D0C SWAP1 PUSH2 0x2EA3 JUMP JUMPDEST PUSH1 0x40 MLOAD DUP1 SWAP2 SUB SWAP1 REVERT JUMPDEST POP POP POP JUMP JUMPDEST POP POP POP JUMP JUMPDEST POP POP POP JUMP JUMPDEST PUSH0 DUP2 MLOAD SWAP1 POP SWAP2 SWAP1 POP JUMP JUMPDEST PUSH0 DUP3 DUP3 MSTORE PUSH1 0x20 DUP3 ADD SWAP1 POP SWAP3 SWAP2 POP POP JUMP JUMPDEST DUP3 DUP2 DUP4 MCOPY PUSH0 DUP4 DUP4 ADD MSTORE POP POP POP JUMP JUMPDEST PUSH0 PUSH1 0x1F NOT PUSH1 0x1F DUP4 ADD AND SWAP1 POP SWAP2 SWAP1 POP JUMP JUMPDEST PUSH0 PUSH2 0x1D66 DUP3 PUSH2 0x1D24 JUMP JUMPDEST PUSH2 0x1D70 DUP2 DUP6 PUSH2 0x1D2E JUMP JUMPDEST SWAP4 POP PUSH2 0x1D80 DUP2 DUP6 PUSH1 0x20 DUP7 ADD PUSH2 0x1D3E JUMP JUMPDEST PUSH2 0x1D89 DUP2 PUSH2 0x1D4C JUMP JUMPDEST DUP5 ADD SWAP2 POP POP SWAP3 SWAP2 POP POP JUMP JUMPDEST PUSH0 PUSH1 0x20 DUP3 ADD SWAP1 POP DUP2 DUP2 SUB PUSH0 DUP4 ADD MSTORE PUSH2 0x1DAC DUP2 DUP5 PUSH2 0x1D5C JUMP JUMPDEST SWAP1 POP SWAP3 SWAP2 POP POP JUMP JUMPDEST PUSH0 DUP1 REVERT JUMPDEST PUSH0 DUP1 REVERT JUMPDEST PUSH0 PUSH20 0xFFFFFFFFFFFFFFFFFFFFFFFFFFFFFFFFFFFFFFFF DUP3 AND SWAP1 POP SWAP2 SWAP1 POP JUMP JUMPDEST PUSH0 PUSH2 0x1DE5 DUP3 PUSH2 0x1DBC JUMP JUMPDEST SWAP1 POP SWAP2 SWAP1 POP JUMP JUMPDEST PUSH2 0x1DF5 DUP2 PUSH2 0x1DDB JUMP JUMPDEST DUP2 EQ PUSH2 0x1DFF JUMPI PUSH0 DUP1 REVERT JUMPDEST POP JUMP JUMPDEST PUSH0 DUP2 CALLDATALOAD SWAP1 POP PUSH2 0x1E10 DUP2 PUSH2 0x1DEC JUMP JUMPDEST SWAP3 SWAP2 POP POP JUMP JUMPDEST PUSH0 DUP2 SWAP1 POP SWAP2 SWAP1 POP JUMP JUMPDEST PUSH2 0x1E28 DUP2 PUSH2 0x1E16 JUMP JUMPDEST DUP2 EQ PUSH2 0x1E32 JUMPI PUSH0 DUP1 REVERT JUMPDEST POP JUMP JUMPDEST PUSH0 DUP2 CALLDATALOAD SWAP1 POP PUSH2 0x1E43 DUP2 PUSH2 0x1E1F JUMP JUMPDEST SWAP3 SWAP2 POP POP JUMP JUMPDEST PUSH0 DUP1 PUSH1 0x40 DUP4 DUP6 SUB SLT ISZERO PUSH2 0x1E5F JUMPI PUSH2 0x1E5E PUSH2 0x1DB4 JUMP JUMPDEST JUMPDEST PUSH0 PUSH2 0x1E6C DUP6 DUP3 DUP7 ADD PUSH2 0x1E02 JUMP JUMPDEST SWAP3 POP POP PUSH1 0x20 PUSH2 0x1E7D DUP6 DUP3 DUP7 ADD PUSH2 0x1E35 JUMP JUMPDEST SWAP2 POP POP SWAP3 POP SWAP3 SWAP1 POP JUMP JUMPDEST PUSH0 DUP2 ISZERO ISZERO SWAP1 POP SWAP2 SWAP1 POP JUMP JUMPDEST PUSH2 0x1E9B DUP2 PUSH2 0x1E87 JUMP JUMPDEST DUP3 MSTORE POP POP JUMP JUMPDEST PUSH0 PUSH1 0x20 DUP3 ADD SWAP1 POP PUSH2 0x1EB4 PUSH0 DUP4 ADD DUP5 PUSH2 0x1E92 JUMP JUMPDEST SWAP3 SWAP2 POP POP JUMP JUMPDEST PUSH0 PUSH1 0x20 DUP3 DUP5 SUB SLT ISZERO PUSH2 0x1ECF JUMPI PUSH2 0x1ECE PUSH2 0x1DB4 JUMP JUMPDEST JUMPDEST PUSH0 PUSH2 0x1EDC DUP5 DUP3 DUP6 ADD PUSH2 0x1E02 JUMP JUMPDEST SWAP2 POP POP SWAP3 SWAP2 POP POP JUMP JUMPDEST PUSH2 0x1EEE DUP2 PUSH2 0x1E16 JUMP JUMPDEST DUP3 MSTORE POP POP JUMP JUMPDEST PUSH0 PUSH1 0x20 DUP3 ADD SWAP1 POP PUSH2 0x1F07 PUSH0 DUP4 ADD DUP5 PUSH2 0x1EE5 JUMP JUMPDEST SWAP3 SWAP2 POP POP JUMP JUMPDEST PUSH0 PUSH1 0x20 DUP3 DUP5 SUB SLT ISZERO PUSH2 0x1F22 JUMPI PUSH2 0x1F21 PUSH2 0x1DB4 JUMP JUMPDEST JUMPDEST PUSH0 PUSH2 0x1F2F DUP5 DUP3 DUP6 ADD PUSH2 0x1E35 JUMP JUMPDEST SWAP2 POP POP SWAP3 SWAP2 POP POP JUMP JUMPDEST PUSH0 DUP1 PUSH0 PUSH1 0x60 DUP5 DUP7 SUB SLT ISZERO PUSH2 0x1F4F JUMPI PUSH2 0x1F4E PUSH2 0x1DB4 JUMP JUMPDEST JUMPDEST PUSH0 PUSH2 0x1F5C DUP7 DUP3 DUP8 ADD PUSH2 0x1E02 JUMP JUMPDEST SWAP4 POP POP PUSH1 0x20 PUSH2 0x1F6D DUP7 DUP3 DUP8 ADD PUSH2 0x1E02 JUMP JUMPDEST SWAP3 POP POP PUSH1 0x40 PUSH2 0x1F7E DUP7 DUP3 DUP8 ADD PUSH2 0x1E35 JUMP JUMPDEST SWAP2 POP POP SWAP3 POP SWAP3 POP SWAP3 JUMP JUMPDEST PUSH0 PUSH1 0xFF DUP3 AND SWAP1 POP SWAP2 SWAP1 POP JUMP JUMPDEST PUSH2 0x1F9D DUP2 PUSH2 0x1F88 JUMP JUMPDEST DUP3 MSTORE POP POP JUMP JUMPDEST PUSH0 PUSH1 0x20 DUP3 ADD SWAP1 POP PUSH2 0x1FB6 PUSH0 DUP4 ADD DUP5 PUSH2 0x1F94 JUMP JUMPDEST SWAP3 SWAP2 POP POP JUMP JUMPDEST PUSH2 0x1FC5 DUP2 PUSH2 0x1DDB JUMP JUMPDEST DUP3 MSTORE POP POP JUMP JUMPDEST PUSH0 PUSH1 0x20 DUP3 ADD SWAP1 POP PUSH2 0x1FDE PUSH0 DUP4 ADD DUP5 PUSH2 0x1FBC JUMP JUMPDEST SWAP3 SWAP2 POP POP JUMP JUMPDEST PUSH0 DUP1 REVERT JUMPDEST PUSH0 DUP1 REVERT JUMPDEST PUSH0 DUP1 REVERT JUMPDEST PUSH0 DUP1 DUP4 PUSH1 0x1F DUP5 ADD SLT PUSH2 0x2005 JUMPI PUSH2 0x2004 PUSH2 0x1FE4 JUMP JUMPDEST JUMPDEST DUP3 CALLDATALOAD SWAP1 POP PUSH8 0xFFFFFFFFFFFFFFFF DUP2 GT ISZERO PUSH2 0x2022 JUMPI PUSH2 0x2021 PUSH2 0x1FE8 JUMP JUMPDEST JUMPDEST PUSH1 0x20 DUP4 ADD SWAP2 POP DUP4 PUSH1 0x20 DUP3 MUL DUP4 ADD GT ISZERO PUSH2 0x203E JUMPI PUSH2 0x203D PUSH2 0x1FEC JUMP JUMPDEST JUMPDEST SWAP3 POP SWAP3 SWAP1 POP JUMP JUMPDEST PUSH0 DUP1 DUP4 PUSH1 0x1F DUP5 ADD SLT PUSH2 0x205A JUMPI PUSH2 0x2059 PUSH2 0x1FE4 JUMP JUMPDEST JUMPDEST DUP3 CALLDATALOAD SWAP1 POP PUSH8 0xFFFFFFFFFFFFFFFF DUP2 GT ISZERO PUSH2 0x2077 JUMPI PUSH2 0x2076 PUSH2 0x1FE8 JUMP JUMPDEST JUMPDEST PUSH1 0x20 DUP4 ADD SWAP2 POP DUP4 PUSH1 0x20 DUP3 MUL DUP4 ADD GT ISZERO PUSH2 0x2093 JUMPI PUSH2 0x2092 PUSH2 0x1FEC JUMP JUMPDEST JUMPDEST SWAP3 POP SWAP3 SWAP1 POP JUMP JUMPDEST PUSH0 DUP1 PUSH0 DUP1 PUSH1 0x40 DUP6 DUP8 SUB SLT ISZERO PUSH2 0x20B2 JUMPI PUSH2 0x20B1 PUSH2 0x1DB4 JUMP JUMPDEST JUMPDEST PUSH0 DUP6 ADD CALLDATALOAD PUSH8 0xFFFFFFFFFFFFFFFF DUP2 GT ISZERO PUSH2 0x20CF JUMPI PUSH2 0x20CE PUSH2 0x1DB8 JUMP JUMPDEST JUMPDEST PUSH2 0x20DB DUP8 DUP3 DUP9 ADD PUSH2 0x1FF0 JUMP JUMPDEST SWAP5 POP SWAP5 POP POP PUSH1 0x20 DUP6 ADD CALLDATALOAD PUSH8 0xFFFFFFFFFFFFFFFF DUP2 GT ISZERO PUSH2 0x20FE JUMPI PUSH2 0x20FD PUSH2 0x1DB8 JUMP JUMPDEST JUMPDEST PUSH2 0x210A DUP8 DUP3 DUP9 ADD PUSH2 0x2045 JUMP JUMPDEST SWAP3 POP SWAP3 POP POP SWAP3 SWAP6 SWAP2 SWAP5 POP SWAP3 POP JUMP JUMPDEST PUSH0 DUP1 PUSH1 0x40 DUP4 DUP6 SUB SLT ISZERO PUSH2 0x212E JUMPI PUSH2 0x212D PUSH2 0x1DB4 JUMP JUMPDEST JUMPDEST PUSH0 PUSH2 0x213B DUP6 DUP3 DUP7 ADD PUSH2 0x1E02 JUMP JUMPDEST SWAP3 POP POP PUSH1 0x20 PUSH2 0x214C DUP6 DUP3 DUP7 ADD PUSH2 0x1E02 JUMP JUMPDEST SWAP2 POP POP SWAP3 POP SWAP3 SWAP1 POP JUMP JUMPDEST PUSH32 0x4E487B7100000000000000000000000000000000000000000000000000000000 PUSH0 MSTORE PUSH1 0x22 PUSH1 0x4 MSTORE PUSH1 0x24 PUSH0 REVERT JUMPDEST PUSH0 PUSH1 0x2 DUP3 DIV SWAP1 POP PUSH1 0x1 DUP3 AND DUP1 PUSH2 0x219A JUMPI PUSH1 0x7F DUP3 AND SWAP2 POP JUMPDEST PUSH1 0x20 DUP3 LT DUP2 SUB PUSH2 0x21AD JUMPI PUSH2 0x21AC PUSH2 0x2156 JUMP JUMPDEST JUMPDEST POP SWAP2 SWAP1 POP JUMP JUMPDEST PUSH32 0x5265766F6C74436F696E3A20696E76616C6964206E6577206F776E6572000000 PUSH0 DUP3 ADD MSTORE POP JUMP JUMPDEST PUSH0 PUSH2 0x21E7 PUSH1 0x1D DUP4 PUSH2 0x1D2E JUMP JUMPDEST SWAP2 POP PUSH2 0x21F2 DUP3 PUSH2 0x21B3 JUMP JUMPDEST PUSH1 0x20 DUP3 ADD SWAP1 POP SWAP2 SWAP1 POP JUMP JUMPDEST PUSH0 PUSH1 0x20 DUP3 ADD SWAP1 POP DUP2 DUP2 SUB PUSH0 DUP4 ADD MSTORE PUSH2 0x2214 DUP2 PUSH2 0x21DB JUMP JUMPDEST SWAP1 POP SWAP2 SWAP1 POP JUMP JUMPDEST PUSH32 0x46656520746F6F20686967680000000000000000000000000000000000000000 PUSH0 DUP3 ADD MSTORE POP JUMP JUMPDEST PUSH0 PUSH2 0x224F PUSH1 0xC DUP4 PUSH2 0x1D2E JUMP JUMPDEST SWAP2 POP PUSH2 0x225A DUP3 PUSH2 0x221B JUMP JUMPDEST PUSH1 0x20 DUP3 ADD SWAP1 POP SWAP2 SWAP1 POP JUMP JUMPDEST PUSH0 PUSH1 0x20 DUP3 ADD SWAP1 POP DUP2 DUP2 SUB PUSH0 DUP4 ADD MSTORE PUSH2 0x227C DUP2 PUSH2 0x2243 JUMP JUMPDEST SWAP1 POP SWAP2 SWAP1 POP JUMP JUMPDEST PUSH0 PUSH1 0x40 DUP3 ADD SWAP1 POP PUSH2 0x2296 PUSH0 DUP4 ADD DUP6 PUSH2 0x1EE5 JUMP JUMPDEST PUSH2 0x22A3 PUSH1 0x20 DUP4 ADD DUP5 PUSH2 0x1EE5 JUMP JUMPDEST SWAP4 SWAP3 POP POP POP JUMP JUMPDEST PUSH32 0x5265766F6C74436F696E3A207472616E7366657220746F207A65726F00000000 PUSH0 DUP3 ADD MSTORE POP JUMP JUMPDEST PUSH0 PUSH2 0x22DE PUSH1 0x1C DUP4 PUSH2 0x1D2E JUMP JUMPDEST SWAP2 POP PUSH2 0x22E9 DUP3 PUSH2 0x22AA JUMP JUMPDEST PUSH1 0x20 DUP3 ADD SWAP1 POP SWAP2 SWAP1 POP JUMP JUMPDEST PUSH0 PUSH1 0x20 DUP3 ADD SWAP1 POP DUP2 DUP2 SUB PUSH0 DUP4 ADD MSTORE PUSH2 0x230B DUP2 PUSH2 0x22D2 JUMP JUMPDEST SWAP1 POP SWAP2 SWAP1 POP JUMP JUMPDEST PUSH32 0x4E487B7100000000000000000000000000000000000000000000000000000000 PUSH0 MSTORE PUSH1 0x11 PUSH1 0x4 MSTORE PUSH1 0x24 PUSH0 REVERT JUMPDEST PUSH0 PUSH2 0x2349 DUP3 PUSH2 0x1E16 JUMP JUMPDEST SWAP2 POP PUSH2 0x2354 DUP4 PUSH2 0x1E16 JUMP JUMPDEST SWAP3 POP DUP3 DUP3 ADD SWAP1 POP DUP1 DUP3 GT ISZERO PUSH2 0x236C JUMPI PUSH2 0x236B PUSH2 0x2312 JUMP JUMPDEST JUMPDEST SWAP3 SWAP2 POP POP JUMP JUMPDEST PUSH32 0x45786365656473206D617820737570706C790000000000000000000000000000 PUSH0 DUP3 ADD MSTORE POP JUMP JUMPDEST PUSH0 PUSH2 0x23A6 PUSH1 0x12 DUP4 PUSH2 0x1D2E JUMP JUMPDEST SWAP2 POP PUSH2 0x23B1 DUP3 PUSH2 0x2372 JUMP JUMPDEST PUSH1 0x20 DUP3 ADD SWAP1 POP SWAP2 SWAP1 POP JUMP JUMPDEST PUSH0 PUSH1 0x20 DUP3 ADD SWAP1 POP DUP2 DUP2 SUB PUSH0 DUP4 ADD MSTORE PUSH2 0x23D3 DUP2 PUSH2 0x239A JUMP JUMPDEST SWAP1 POP SWAP2 SWAP1 POP JUMP JUMPDEST PUSH32 0x5265766F6C74436F696E3A206F6E6C79206465706C6F7965722063616E206169 PUSH0 DUP3 ADD MSTORE PUSH32 0x7264726F70000000000000000000000000000000000000000000000000000000 PUSH1 0x20 DUP3 ADD MSTORE POP JUMP JUMPDEST PUSH0 PUSH2 0x2434 PUSH1 0x25 DUP4 PUSH2 0x1D2E JUMP JUMPDEST SWAP2 POP PUSH2 0x243F DUP3 PUSH2 0x23DA JUMP JUMPDEST PUSH1 0x40 DUP3 ADD SWAP1 POP SWAP2 SWAP1 POP JUMP JUMPDEST PUSH0 PUSH1 0x20 DUP3 ADD SWAP1 POP DUP2 DUP2 SUB PUSH0 DUP4 ADD MSTORE PUSH2 0x2461 DUP2 PUSH2 0x2428 JUMP JUMPDEST SWAP1 POP SWAP2 SWAP1 POP JUMP JUMPDEST PUSH32 0x5265766F6C74436F696E3A2061697264726F7020617272617973206D69736D61 PUSH0 DUP3 ADD MSTORE PUSH32 0x7463680000000000000000000000000000000000000000000000000000000000 PUSH1 0x20 DUP3 ADD MSTORE POP JUMP JUMPDEST PUSH0 PUSH2 0x24C2 PUSH1 0x23 DUP4 PUSH2 0x1D2E JUMP JUMPDEST SWAP2 POP PUSH2 0x24CD DUP3 PUSH2 0x2468 JUMP JUMPDEST PUSH1 0x40 DUP3 ADD SWAP1 POP SWAP2 SWAP1 POP JUMP JUMPDEST PUSH0 PUSH1 0x20 DUP3 ADD SWAP1 POP DUP2 DUP2 SUB PUSH0 DUP4 ADD MSTORE PUSH2 0x24EF DUP2 PUSH2 0x24B6 JUMP JUMPDEST SWAP1 POP SWAP2 SWAP1 POP JUMP JUMPDEST PUSH32 0x4E487B7100000000000000000000000000000000000000000000000000000000 PUSH0 MSTORE PUSH1 0x32 PUSH1 0x4 MSTORE PUSH1 0x24 PUSH0 REVERT JUMPDEST PUSH32 0x5265766F6C74436F696E3A2065786365656473206D617820737570706C790000 PUSH0 DUP3 ADD MSTORE POP JUMP JUMPDEST PUSH0 PUSH2 0x2557 PUSH1 0x1E DUP4 PUSH2 0x1D2E JUMP JUMPDEST SWAP2 POP PUSH2 0x2562 DUP3 PUSH2 0x2523 JUMP JUMPDEST PUSH1 0x20 DUP3 ADD SWAP1 POP SWAP2 SWAP1 POP JUMP JUMPDEST PUSH0 PUSH1 0x20 DUP3 ADD SWAP1 POP DUP2 DUP2 SUB PUSH0 DUP4 ADD MSTORE PUSH2 0x2584 DUP2 PUSH2 0x254B JUMP JUMPDEST SWAP1 POP SWAP2 SWAP1 POP JUMP JUMPDEST PUSH32 0x45524332303A2064656372656173656420616C6C6F77616E63652062656C6F77 PUSH0 DUP3 ADD MSTORE PUSH32 0x207A65726F000000000000000000000000000000000000000000000000000000 PUSH1 0x20 DUP3 ADD MSTORE POP JUMP JUMPDEST PUSH0 PUSH2 0x25E5 PUSH1 0x25 DUP4 PUSH2 0x1D2E JUMP JUMPDEST SWAP2 POP PUSH2 0x25F0 DUP3 PUSH2 0x258B JUMP JUMPDEST PUSH1 0x40 DUP3 ADD SWAP1 POP SWAP2 SWAP1 POP JUMP JUMPDEST PUSH0 PUSH1 0x20 DUP3 ADD SWAP1 POP DUP2 DUP2 SUB PUSH0 DUP4 ADD MSTORE PUSH2 0x2612 DUP2 PUSH2 0x25D9 JUMP JUMPDEST SWAP1 POP SWAP2 SWAP1 POP JUMP JUMPDEST PUSH32 0x5265766F6C74436F696E3A20696E76616C696420616464726573730000000000 PUSH0 DUP3 ADD MSTORE POP JUMP JUMPDEST PUSH0 PUSH2 0x264D PUSH1 0x1B DUP4 PUSH2 0x1D2E JUMP JUMPDEST SWAP2 POP PUSH2 0x2658 DUP3 PUSH2 0x2619 JUMP JUMPDEST PUSH1 0x20 DUP3 ADD SWAP1 POP SWAP2 SWAP1 POP JUMP JUMPDEST PUSH0 PUSH1 0x20 DUP3 ADD SWAP1 POP DUP2 DUP2 SUB PUSH0 DUP4 ADD MSTORE PUSH2 0x267A DUP2 PUSH2 0x2641 JUMP JUMPDEST SWAP1 POP SWAP2 SWAP1 POP JUMP JUMPDEST PUSH32 0x5265766F6C74436F696E3A2066656520726563697069656E74206D7573742062 PUSH0 DUP3 ADD MSTORE PUSH32 0x6520454F41000000000000000000000000000000000000000000000000000000 PUSH1 0x20 DUP3 ADD MSTORE POP JUMP JUMPDEST PUSH0 PUSH2 0x26DB PUSH1 0x25 DUP4 PUSH2 0x1D2E JUMP JUMPDEST SWAP2 POP PUSH2 0x26E6 DUP3 PUSH2 0x2681 JUMP JUMPDEST PUSH1 0x40 DUP3 ADD SWAP1 POP SWAP2 SWAP1 POP JUMP JUMPDEST PUSH0 PUSH1 0x20 DUP3 ADD SWAP1 POP DUP2 DUP2 SUB PUSH0 DUP4 ADD MSTORE PUSH2 0x2708 DUP2 PUSH2 0x26CF JUMP JUMPDEST SWAP1 POP SWAP2 SWAP1 POP JUMP JUMPDEST PUSH0 PUSH1 0x40 DUP3 ADD SWAP1 POP PUSH2 0x2722 PUSH0 DUP4 ADD DUP6 PUSH2 0x1FBC JUMP JUMPDEST PUSH2 0x272F PUSH1 0x20 DUP4 ADD DUP5 PUSH2 0x1FBC JUMP JUMPDEST SWAP4 SWAP3 POP POP POP JUMP JUMPDEST PUSH32 0x4F776E61626C653A206E6577206F776E657220697320746865207A65726F2061 PUSH0 DUP3 ADD MSTORE PUSH32 0x6464726573730000000000000000000000000000000000000000000000000000 PUSH1 0x20 DUP3 ADD MSTORE POP JUMP JUMPDEST PUSH0 PUSH2 0x2790 PUSH1 0x26 DUP4 PUSH2 0x1D2E JUMP JUMPDEST SWAP2 POP PUSH2 0x279B DUP3 PUSH2 0x2736 JUMP JUMPDEST PUSH1 0x40 DUP3 ADD SWAP1 POP SWAP2 SWAP1 POP JUMP JUMPDEST PUSH0 PUSH1 0x20 DUP3 ADD SWAP1 POP DUP2 DUP2 SUB PUSH0 DUP4 ADD MSTORE PUSH2 0x27BD DUP2 PUSH2 0x2784 JUMP JUMPDEST SWAP1 POP SWAP2 SWAP1 POP JUMP JUMPDEST PUSH32 0x45524332303A20617070726F76652066726F6D20746865207A65726F20616464 PUSH0 DUP3 ADD MSTORE PUSH32 0x7265737300000000000000000000000000000000000000000000000000000000 PUSH1 0x20 DUP3 ADD MSTORE POP JUMP JUMPDEST PUSH0 PUSH2 0x281E PUSH1 0x24 DUP4 PUSH2 0x1D2E JUMP JUMPDEST SWAP2 POP PUSH2 0x2829 DUP3 PUSH2 0x27C4 JUMP JUMPDEST PUSH1 0x40 DUP3 ADD SWAP1 POP SWAP2 SWAP1 POP JUMP JUMPDEST PUSH0 PUSH1 0x20 DUP3 ADD SWAP1 POP DUP2 DUP2 SUB PUSH0 DUP4 ADD MSTORE PUSH2 0x284B DUP2 PUSH2 0x2812 JUMP JUMPDEST SWAP1 POP SWAP2 SWAP1 POP JUMP JUMPDEST PUSH32 0x45524332303A20617070726F766520746F20746865207A65726F206164647265 PUSH0 DUP3 ADD MSTORE PUSH32 0x7373000000000000000000000000000000000000000000000000000000000000 PUSH1 0x20 DUP3 ADD MSTORE POP JUMP JUMPDEST PUSH0 PUSH2 0x28AC PUSH1 0x22 DUP4 PUSH2 0x1D2E JUMP JUMPDEST SWAP2 POP PUSH2 0x28B7 DUP3 PUSH2 0x2852 JUMP JUMPDEST PUSH1 0x40 DUP3 ADD SWAP1 POP SWAP2 SWAP1 POP JUMP JUMPDEST PUSH0 PUSH1 0x20 DUP3 ADD SWAP1 POP DUP2 DUP2 SUB PUSH0 DUP4 ADD MSTORE PUSH2 0x28D9 DUP2 PUSH2 0x28A0 JUMP JUMPDEST SWAP1 POP SWAP2 SWAP1 POP JUMP JUMPDEST PUSH32 0x4F776E61626C653A2063616C6C6572206973206E6F7420746865206F776E6572 PUSH0 DUP3 ADD MSTORE POP JUMP JUMPDEST PUSH0 PUSH2 0x2914 PUSH1 0x20 DUP4 PUSH2 0x1D2E JUMP JUMPDEST SWAP2 POP PUSH2 0x291F DUP3 PUSH2 0x28E0 JUMP JUMPDEST PUSH1 0x20 DUP3 ADD SWAP1 POP SWAP2 SWAP1 POP JUMP JUMPDEST PUSH0 PUSH1 0x20 DUP3 ADD SWAP1 POP DUP2 DUP2 SUB PUSH0 DUP4 ADD MSTORE PUSH2 0x2941 DUP2 PUSH2 0x2908 JUMP JUMPDEST SWAP1 POP SWAP2 SWAP1 POP JUMP JUMPDEST PUSH32 0x5265656E7472616E637947756172643A207265656E7472616E742063616C6C00 PUSH0 DUP3 ADD MSTORE POP JUMP JUMPDEST PUSH0 PUSH2 0x297C PUSH1 0x1F DUP4 PUSH2 0x1D2E JUMP JUMPDEST SWAP2 POP PUSH2 0x2987 DUP3 PUSH2 0x2948 JUMP JUMPDEST PUSH1 0x20 DUP3 ADD SWAP1 POP SWAP2 SWAP1 POP JUMP JUMPDEST PUSH0 PUSH1 0x20 DUP3 ADD SWAP1 POP DUP2 DUP2 SUB PUSH0 DUP4 ADD MSTORE PUSH2 0x29A9 DUP2 PUSH2 0x2970 JUMP JUMPDEST SWAP1 POP SWAP2 SWAP1 POP JUMP JUMPDEST PUSH32 0x5061757361626C653A2070617573656400000000000000000000000000000000 PUSH0 DUP3 ADD MSTORE POP JUMP JUMPDEST PUSH0 PUSH2 0x29E4 PUSH1 0x10 DUP4 PUSH2 0x1D2E JUMP JUMPDEST SWAP2 POP PUSH2 0x29EF DUP3 PUSH2 0x29B0 JUMP JUMPDEST PUSH1 0x20 DUP3 ADD SWAP1 POP SWAP2 SWAP1 POP JUMP JUMPDEST PUSH0 PUSH1 0x20 DUP3 ADD SWAP1 POP DUP2 DUP2 SUB PUSH0 DUP4 ADD MSTORE PUSH2 0x2A11 DUP2 PUSH2 0x29D8 JUMP JUMPDEST SWAP1 POP SWAP2 SWAP1 POP JUMP JUMPDEST PUSH32 0x45524332303A20696E73756666696369656E7420616C6C6F77616E6365000000 PUSH0 DUP3 ADD MSTORE POP JUMP JUMPDEST PUSH0 PUSH2 0x2A4C PUSH1 0x1D DUP4 PUSH2 0x1D2E JUMP JUMPDEST SWAP2 POP PUSH2 0x2A57 DUP3 PUSH2 0x2A18 JUMP JUMPDEST PUSH1 0x20 DUP3 ADD SWAP1 POP SWAP2 SWAP1 POP JUMP JUMPDEST PUSH0 PUSH1 0x20 DUP3 ADD SWAP1 POP DUP2 DUP2 SUB PUSH0 DUP4 ADD MSTORE PUSH2 0x2A79 DUP2 PUSH2 0x2A40 JUMP JUMPDEST SWAP1 POP SWAP2 SWAP1 POP JUMP JUMPDEST PUSH32 0x5265766F6C74436F696E3A207472616E736665722066726F6D207A65726F0000 PUSH0 DUP3 ADD MSTORE POP JUMP JUMPDEST PUSH0 PUSH2 0x2AB4 PUSH1 0x1E DUP4 PUSH2 0x1D2E JUMP JUMPDEST SWAP2 POP PUSH2 0x2ABF DUP3 PUSH2 0x2A80 JUMP JUMPDEST PUSH1 0x20 DUP3 ADD SWAP1 POP SWAP2 SWAP1 POP JUMP JUMPDEST PUSH0 PUSH1 0x20 DUP3 ADD SWAP1 POP DUP2 DUP2 SUB PUSH0 DUP4 ADD MSTORE PUSH2 0x2AE1 DUP2 PUSH2 0x2AA8 JUMP JUMPDEST SWAP1 POP SWAP2 SWAP1 POP JUMP JUMPDEST PUSH0 PUSH2 0x2AF2 DUP3 PUSH2 0x1E16 JUMP JUMPDEST SWAP2 POP PUSH2 0x2AFD DUP4 PUSH2 0x1E16 JUMP JUMPDEST SWAP3 POP DUP3 DUP3 MUL PUSH2 0x2B0B DUP2 PUSH2 0x1E16 JUMP JUMPDEST SWAP2 POP DUP3 DUP3 DIV DUP5 EQ DUP4 ISZERO OR PUSH2 0x2B22 JUMPI PUSH2 0x2B21 PUSH2 0x2312 JUMP JUMPDEST JUMPDEST POP SWAP3 SWAP2 POP POP JUMP JUMPDEST PUSH32 0x4E487B7100000000000000000000000000000000000000000000000000000000 PUSH0 MSTORE PUSH1 0x12 PUSH1 0x4 MSTORE PUSH1 0x24 PUSH0 REVERT JUMPDEST PUSH0 PUSH2 0x2B60 DUP3 PUSH2 0x1E16 JUMP JUMPDEST SWAP2 POP PUSH2 0x2B6B DUP4 PUSH2 0x1E16 JUMP JUMPDEST SWAP3 POP DUP3 PUSH2 0x2B7B JUMPI PUSH2 0x2B7A PUSH2 0x2B29 JUMP JUMPDEST JUMPDEST DUP3 DUP3 DIV SWAP1 POP SWAP3 SWAP2 POP POP JUMP JUMPDEST PUSH0 PUSH2 0x2B90 DUP3 PUSH2 0x1E16 JUMP JUMPDEST SWAP2 POP PUSH2 0x2B9B DUP4 PUSH2 0x1E16 JUMP JUMPDEST SWAP3 POP DUP3 DUP3 SUB SWAP1 POP DUP2 DUP2 GT ISZERO PUSH2 0x2BB3 JUMPI PUSH2 0x2BB2 PUSH2 0x2312 JUMP JUMPDEST JUMPDEST SWAP3 SWAP2 POP POP JUMP JUMPDEST PUSH32 0x45524332303A206D696E7420746F20746865207A65726F206164647265737300 PUSH0 DUP3 ADD MSTORE POP JUMP JUMPDEST PUSH0 PUSH2 0x2BED PUSH1 0x1F DUP4 PUSH2 0x1D2E JUMP JUMPDEST SWAP2 POP PUSH2 0x2BF8 DUP3 PUSH2 0x2BB9 JUMP JUMPDEST PUSH1 0x20 DUP3 ADD SWAP1 POP SWAP2 SWAP1 POP JUMP JUMPDEST PUSH0 PUSH1 0x20 DUP3 ADD SWAP1 POP DUP2 DUP2 SUB PUSH0 DUP4 ADD MSTORE PUSH2 0x2C1A DUP2 PUSH2 0x2BE1 JUMP JUMPDEST SWAP1 POP SWAP2 SWAP1 POP JUMP JUMPDEST PUSH32 0x45524332303A207472616E736665722066726F6D20746865207A65726F206164 PUSH0 DUP3 ADD MSTORE PUSH32 0x6472657373000000000000000000000000000000000000000000000000000000 PUSH1 0x20 DUP3 ADD MSTORE POP JUMP JUMPDEST PUSH0 PUSH2 0x2C7B PUSH1 0x25 DUP4 PUSH2 0x1D2E JUMP JUMPDEST SWAP2 POP PUSH2 0x2C86 DUP3 PUSH2 0x2C21 JUMP JUMPDEST PUSH1 0x40 DUP3 ADD SWAP1 POP SWAP2 SWAP1 POP JUMP JUMPDEST PUSH0 PUSH1 0x20 DUP3 ADD SWAP1 POP DUP2 DUP2 SUB PUSH0 DUP4 ADD MSTORE PUSH2 0x2CA8 DUP2 PUSH2 0x2C6F JUMP JUMPDEST SWAP1 POP SWAP2 SWAP1 POP JUMP JUMPDEST PUSH32 0x45524332303A207472616E7366657220746F20746865207A65726F2061646472 PUSH0 DUP3 ADD MSTORE PUSH32 0x6573730000000000000000000000000000000000000000000000000000000000 PUSH1 0x20 DUP3 ADD MSTORE POP JUMP JUMPDEST PUSH0 PUSH2 0x2D09 PUSH1 0x23 DUP4 PUSH2 0x1D2E JUMP JUMPDEST SWAP2 POP PUSH2 0x2D14 DUP3 PUSH2 0x2CAF JUMP JUMPDEST PUSH1 0x40 DUP3 ADD SWAP1 POP SWAP2 SWAP1 POP JUMP JUMPDEST PUSH0 PUSH1 0x20 DUP3 ADD SWAP1 POP DUP2 DUP2 SUB PUSH0 DUP4 ADD MSTORE PUSH2 0x2D36 DUP2 PUSH2 0x2CFD JUMP JUMPDEST SWAP1 POP SWAP2 SWAP1 POP JUMP JUMPDEST PUSH32 0x45524332303A207472616E7366657220616D6F756E7420657863656564732062 PUSH0 DUP3 ADD MSTORE PUSH32 0x616C616E63650000000000000000000000000000000000000000000000000000 PUSH1 0x20 DUP3 ADD MSTORE POP JUMP JUMPDEST PUSH0 PUSH2 0x2D97 PUSH1 0x26 DUP4 PUSH2 0x1D2E JUMP JUMPDEST SWAP2 POP PUSH2 0x2DA2 DUP3 PUSH2 0x2D3D JUMP JUMPDEST PUSH1 0x40 DUP3 ADD SWAP1 POP SWAP2 SWAP1 POP JUMP JUMPDEST PUSH0 PUSH1 0x20 DUP3 ADD SWAP1 POP DUP2 DUP2 SUB PUSH0 DUP4 ADD MSTORE PUSH2 0x2DC4 DUP2 PUSH2 0x2D8B JUMP JUMPDEST SWAP1 POP SWAP2 SWAP1 POP JUMP JUMPDEST PUSH32 0x5061757361626C653A206E6F7420706175736564000000000000000000000000 PUSH0 DUP3 ADD MSTORE POP JUMP JUMPDEST PUSH0 PUSH2 0x2DFF PUSH1 0x14 DUP4 PUSH2 0x1D2E JUMP JUMPDEST SWAP2 POP PUSH2 0x2E0A DUP3 PUSH2 0x2DCB JUMP JUMPDEST PUSH1 0x20 DUP3 ADD SWAP1 POP SWAP2 SWAP1 POP JUMP JUMPDEST PUSH0 PUSH1 0x20 DUP3 ADD SWAP1 POP DUP2 DUP2 SUB PUSH0 DUP4 ADD MSTORE PUSH2 0x2E2C DUP2 PUSH2 0x2DF3 JUMP JUMPDEST SWAP1 POP SWAP2 SWAP1 POP JUMP JUMPDEST PUSH32 0x5265766F6C74436F696E3A20746F6B656E207472616E73666572207768696C65 PUSH0 DUP3 ADD MSTORE PUSH32 0x2070617573656400000000000000000000000000000000000000000000000000 PUSH1 0x20 DUP3 ADD MSTORE POP JUMP JUMPDEST PUSH0 PUSH2 0x2E8D PUSH1 0x27 DUP4 PUSH2 0x1D2E JUMP JUMPDEST SWAP2 POP PUSH2 0x2E98 DUP3 PUSH2 0x2E33 JUMP JUMPDEST PUSH1 0x40 DUP3 ADD SWAP1 POP SWAP2 SWAP1 POP JUMP JUMPDEST PUSH0 PUSH1 0x20 DUP3 ADD SWAP1 POP DUP2 DUP2 SUB PUSH0 DUP4 ADD MSTORE PUSH2 0x2EBA DUP2 PUSH2 0x2E81 JUMP JUMPDEST SWAP1 POP SWAP2 SWAP1 POP JUMP INVALID LOG2 PUSH5 0x6970667358 0x22 SLT KECCAK256 SWAP8 0x26 0xD7 0xB6 DUP1 LT PUSH26 0x784D43C0193027EB720D2A9EAB97F806567A7892B26405A04264 PUSH20 0x6F6C634300081A00330000000000000000000000 "
		},
		"gasEstimates": {
			"creation": {
				"codeDepositCost": "2404600",
				"executionCost": "infinite",
				"totalCost": "infinite"
			},
			"external": {
				"MAX_SUPPLY()": "371",
				"airdrop(address[],uint256[])": "infinite",
				"allowance(address,address)": "infinite",
				"approve(address,uint256)": "infinite",
				"balanceOf(address)": "2897",
				"decimals()": "450",
				"decreaseAllowance(address,uint256)": "infinite",
				"deployer()": "infinite",
				"excludeFromFee(address)": "infinite",
				"feeRecipient()": "2597",
				"includeInFee(address)": "infinite",
				"increaseAllowance(address,uint256)": "infinite",
				"mint(address,uint256)": "infinite",
				"name()": "infinite",
				"owner()": "2582",
				"ownerTransfer(address)": "infinite",
				"pause()": "infinite",
				"paused()": "2635",
				"renounceOwnership()": "30480",
				"setFeeRecipient(address)": "infinite",
				"setTransferFeePercent(uint256)": "infinite",
				"symbol()": "infinite",
				"totalSupply()": "2478",
				"transfer(address,uint256)": "infinite",
				"transferFeePercent()": "2514",
				"transferFrom(address,address,uint256)": "infinite",
				"transferOwnership(address)": "30841",
				"unpause()": "infinite"
			},
			"internal": {
				"_beforeTokenTransfer(address,address,uint256)": "infinite",
				"_transfer(address,address,uint256)": "infinite"
			}
		},
		"methodIdentifiers": {
			"MAX_SUPPLY()": "32cb6b0c",
			"airdrop(address[],uint256[])": "67243482",
			"allowance(address,address)": "dd62ed3e",
			"approve(address,uint256)": "095ea7b3",
			"balanceOf(address)": "70a08231",
			"decimals()": "313ce567",
			"decreaseAllowance(address,uint256)": "a457c2d7",
			"deployer()": "d5f39488",
			"excludeFromFee(address)": "437823ec",
			"feeRecipient()": "46904840",
			"includeInFee(address)": "ea2f0b37",
			"increaseAllowance(address,uint256)": "39509351",
			"mint(address,uint256)": "40c10f19",
			"name()": "06fdde03",
			"owner()": "8da5cb5b",
			"ownerTransfer(address)": "1815c208",
			"pause()": "8456cb59",
			"paused()": "5c975abb",
			"renounceOwnership()": "715018a6",
			"setFeeRecipient(address)": "e74b981b",
			"setTransferFeePercent(uint256)": "1f36d925",
			"symbol()": "95d89b41",
			"totalSupply()": "18160ddd",
			"transfer(address,uint256)": "a9059cbb",
			"transferFeePercent()": "94544e64",
			"transferFrom(address,address,uint256)": "23b872dd",
			"transferOwnership(address)": "f2fde38b",
			"unpause()": "3f4ba83a"
		}
	},
	"abi": [
		{
			"inputs": [],
			"stateMutability": "nonpayable",
			"type": "constructor"
		},
		{
			"anonymous": false,
			"inputs": [
				{
					"indexed": true,
					"internalType": "address",
					"name": "recipient",
					"type": "address"
				},
				{
					"indexed": false,
					"internalType": "uint256",
					"name": "amount",
					"type": "uint256"
				}
			],
			"name": "Airdrop",
			"type": "event"
		},
		{
			"anonymous": false,
			"inputs": [
				{
					"indexed": true,
					"internalType": "address",
					"name": "owner",
					"type": "address"
				},
				{
					"indexed": true,
					"internalType": "address",
					"name": "spender",
					"type": "address"
				},
				{
					"indexed": false,
					"internalType": "uint256",
					"name": "value",
					"type": "uint256"
				}
			],
			"name": "Approval",
			"type": "event"
		},
		{
			"anonymous": false,
			"inputs": [
				{
					"indexed": false,
					"internalType": "address",
					"name": "account",
					"type": "address"
				}
			],
			"name": "ExcludeFromFee",
			"type": "event"
		},
		{
			"anonymous": false,
			"inputs": [
				{
					"indexed": false,
					"internalType": "address",
					"name": "previousRecipient",
					"type": "address"
				},
				{
					"indexed": false,
					"internalType": "address",
					"name": "newRecipient",
					"type": "address"
				}
			],
			"name": "FeeRecipientUpdated",
			"type": "event"
		},
		{
			"anonymous": false,
			"inputs": [
				{
					"indexed": false,
					"internalType": "address",
					"name": "account",
					"type": "address"
				}
			],
			"name": "IncludeInFee",
			"type": "event"
		},
		{
			"anonymous": false,
			"inputs": [
				{
					"indexed": true,
					"internalType": "address",
					"name": "previousOwner",
					"type": "address"
				},
				{
					"indexed": true,
					"internalType": "address",
					"name": "newOwner",
					"type": "address"
				}
			],
			"name": "OwnerUpdated",
			"type": "event"
		},
		{
			"anonymous": false,
			"inputs": [
				{
					"indexed": true,
					"internalType": "address",
					"name": "previousOwner",
					"type": "address"
				},
				{
					"indexed": true,
					"internalType": "address",
					"name": "newOwner",
					"type": "address"
				}
			],
			"name": "OwnershipTransferred",
			"type": "event"
		},
		{
			"anonymous": false,
			"inputs": [
				{
					"indexed": false,
					"internalType": "address",
					"name": "account",
					"type": "address"
				}
			],
			"name": "Paused",
			"type": "event"
		},
		{
			"anonymous": false,
			"inputs": [
				{
					"indexed": true,
					"internalType": "address",
					"name": "from",
					"type": "address"
				},
				{
					"indexed": true,
					"internalType": "address",
					"name": "to",
					"type": "address"
				},
				{
					"indexed": false,
					"internalType": "uint256",
					"name": "value",
					"type": "uint256"
				}
			],
			"name": "Transfer",
			"type": "event"
		},
		{
			"anonymous": false,
			"inputs": [
				{
					"indexed": false,
					"internalType": "uint256",
					"name": "previousFee",
					"type": "uint256"
				},
				{
					"indexed": false,
					"internalType": "uint256",
					"name": "newFee",
					"type": "uint256"
				}
			],
			"name": "TransferFeePercentUpdated",
			"type": "event"
		},
		{
			"anonymous": false,
			"inputs": [
				{
					"indexed": false,
					"internalType": "address",
					"name": "account",
					"type": "address"
				}
			],
			"name": "Unpaused",
			"type": "event"
		},
		{
			"inputs": [],
			"name": "MAX_SUPPLY",
			"outputs": [
				{
					"internalType": "uint256",
					"name": "",
					"type": "uint256"
				}
			],
			"stateMutability": "view",
			"type": "function"
		},
		{
			"inputs": [
				{
					"internalType": "address[]",
					"name": "recipients",
					"type": "address[]"
				},
				{
					"internalType": "uint256[]",
					"name": "amounts",
					"type": "uint256[]"
				}
			],
			"name": "airdrop",
			"outputs": [],
			"stateMutability": "nonpayable",
			"type": "function"
		},
		{
			"inputs": [
				{
					"internalType": "address",
					"name": "owner",
					"type": "address"
				},
				{
					"internalType": "address",
					"name": "spender",
					"type": "address"
				}
			],
			"name": "allowance",
			"outputs": [
				{
					"internalType": "uint256",
					"name": "",
					"type": "uint256"
				}
			],
			"stateMutability": "view",
			"type": "function"
		},
		{
			"inputs": [
				{
					"internalType": "address",
					"name": "spender",
					"type": "address"
				},
				{
					"internalType": "uint256",
					"name": "amount",
					"type": "uint256"
				}
			],
			"name": "approve",
			"outputs": [
				{
					"internalType": "bool",
					"name": "",
					"type": "bool"
				}
			],
			"stateMutability": "nonpayable",
			"type": "function"
		},
		{
			"inputs": [
				{
					"internalType": "address",
					"name": "account",
					"type": "address"
				}
			],
			"name": "balanceOf",
			"outputs": [
				{
					"internalType": "uint256",
					"name": "",
					"type": "uint256"
				}
			],
			"stateMutability": "view",
			"type": "function"
		},
		{
			"inputs": [],
			"name": "decimals",
			"outputs": [
				{
					"internalType": "uint8",
					"name": "",
					"type": "uint8"
				}
			],
			"stateMutability": "view",
			"type": "function"
		},
		{
			"inputs": [
				{
					"internalType": "address",
					"name": "spender",
					"type": "address"
				},
				{
					"internalType": "uint256",
					"name": "subtractedValue",
					"type": "uint256"
				}
			],
			"name": "decreaseAllowance",
			"outputs": [
				{
					"internalType": "bool",
					"name": "",
					"type": "bool"
				}
			],
			"stateMutability": "nonpayable",
			"type": "function"
		},
		{
			"inputs": [],
			"name": "deployer",
			"outputs": [
				{
					"internalType": "address",
					"name": "",
					"type": "address"
				}
			],
			"stateMutability": "view",
			"type": "function"
		},
		{
			"inputs": [
				{
					"internalType": "address",
					"name": "account",
					"type": "address"
				}
			],
			"name": "excludeFromFee",
			"outputs": [],
			"stateMutability": "nonpayable",
			"type": "function"
		},
		{
			"inputs": [],
			"name": "feeRecipient",
			"outputs": [
				{
					"internalType": "address",
					"name": "",
					"type": "address"
				}
			],
			"stateMutability": "view",
			"type": "function"
		},
		{
			"inputs": [
				{
					"internalType": "address",
					"name": "account",
					"type": "address"
				}
			],
			"name": "includeInFee",
			"outputs": [],
			"stateMutability": "nonpayable",
			"type": "function"
		},
		{
			"inputs": [
				{
					"internalType": "address",
					"name": "spender",
					"type": "address"
				},
				{
					"internalType": "uint256",
					"name": "addedValue",
					"type": "uint256"
				}
			],
			"name": "increaseAllowance",
			"outputs": [
				{
					"internalType": "bool",
					"name": "",
					"type": "bool"
				}
			],
			"stateMutability": "nonpayable",
			"type": "function"
		},
		{
			"inputs": [
				{
					"internalType": "address",
					"name": "to",
					"type": "address"
				},
				{
					"internalType": "uint256",
					"name": "amount",
					"type": "uint256"
				}
			],
			"name": "mint",
			"outputs": [],
			"stateMutability": "nonpayable",
			"type": "function"
		},
		{
			"inputs": [],
			"name": "name",
			"outputs": [
				{
					"internalType": "string",
					"name": "",
					"type": "string"
				}
			],
			"stateMutability": "view",
			"type": "function"
		},
		{
			"inputs": [],
			"name": "owner",
			"outputs": [
				{
					"internalType": "address",
					"name": "",
					"type": "address"
				}
			],
			"stateMutability": "view",
			"type": "function"
		},
		{
			"inputs": [
				{
					"internalType": "address",
					"name": "newOwner",
					"type": "address"
				}
			],
			"name": "ownerTransfer",
			"outputs": [],
			"stateMutability": "nonpayable",
			"type": "function"
		},
		{
			"inputs": [],
			"name": "pause",
			"outputs": [],
			"stateMutability": "nonpayable",
			"type": "function"
		},
		{
			"inputs": [],
			"name": "paused",
			"outputs": [
				{
					"internalType": "bool",
					"name": "",
					"type": "bool"
				}
			],
			"stateMutability": "view",
			"type": "function"
		},
		{
			"inputs": [],
			"name": "renounceOwnership",
			"outputs": [],
			"stateMutability": "nonpayable",
			"type": "function"
		},
		{
			"inputs": [
				{
					"internalType": "address",
					"name": "newRecipient",
					"type": "address"
				}
			],
			"name": "setFeeRecipient",
			"outputs": [],
			"stateMutability": "nonpayable",
			"type": "function"
		},
		{
			"inputs": [
				{
					"internalType": "uint256",
					"name": "newFee",
					"type": "uint256"
				}
			],
			"name": "setTransferFeePercent",
			"outputs": [],
			"stateMutability": "nonpayable",
			"type": "function"
		},
		{
			"inputs": [],
			"name": "symbol",
			"outputs": [
				{
					"internalType": "string",
					"name": "",
					"type": "string"
				}
			],
			"stateMutability": "view",
			"type": "function"
		},
		{
			"inputs": [],
			"name": "totalSupply",
			"outputs": [
				{
					"internalType": "uint256",
					"name": "",
					"type": "uint256"
				}
			],
			"stateMutability": "view",
			"type": "function"
		},
		{
			"inputs": [
				{
					"internalType": "address",
					"name": "to",
					"type": "address"
				},
				{
					"internalType": "uint256",
					"name": "amount",
					"type": "uint256"
				}
			],
			"name": "transfer",
			"outputs": [
				{
					"internalType": "bool",
					"name": "",
					"type": "bool"
				}
			],
			"stateMutability": "nonpayable",
			"type": "function"
		},
		{
			"inputs": [],
			"name": "transferFeePercent",
			"outputs": [
				{
					"internalType": "uint256",
					"name": "",
					"type": "uint256"
				}
			],
			"stateMutability": "view",
			"type": "function"
		},
		{
			"inputs": [
				{
					"internalType": "address",
					"name": "from",
					"type": "address"
				},
				{
					"internalType": "address",
					"name": "to",
					"type": "address"
				},
				{
					"internalType": "uint256",
					"name": "amount",
					"type": "uint256"
				}
			],
			"name": "transferFrom",
			"outputs": [
				{
					"internalType": "bool",
					"name": "",
					"type": "bool"
				}
			],
			"stateMutability": "nonpayable",
			"type": "function"
		},
		{
			"inputs": [
				{
					"internalType": "address",
					"name": "newOwner",
					"type": "address"
				}
			],
			"name": "transferOwnership",
			"outputs": [],
			"stateMutability": "nonpayable",
			"type": "function"
		},
		{
			"inputs": [],
			"name": "unpause",
			"outputs": [],
			"stateMutability": "nonpayable",
			"type": "function"
		}
	]
}